:020000040800F2
:1000000000200020C57C0008157D0008157D000833
:1000100000000000000000000000000000000000E0
:10002000000000000000000000000000157D000836
:100030000000000000000000157D0008B365000806
:10004000157D000800000000157D0008157D0008E2
:10005000157D0008E1660008F166000801670008E8
:1000600000000000157D0008157D0008157D0008C2
:10007000157D0008056200081D62000800000000F0
:100080002562000800000000000000003D6200083A
:1000900000000000556200086D620008157D000830
:1000A000157D0008157D0008157D0008B571000854
:0800B000CD7100080000000002
:1000B8000023C25C0133002AFBD1581E70470000A0
:1000C80002B4714649084900095649008E4402BCE9
:1000D8007047C04602B4714649084900095C4900A6
:1000E8008E4402BC7047C04603B4714649084000BC
:1000F8004900095E49008E4403BC7047002243084A
:100108008B4274D303098B425FD3030A8B4244D3D7
:10011800030B8B4228D3030C8B420DD3FF22090219
:1001280012BA030C8B4202D31212090265D0030BD8
:100138008B4219D300E0090AC30B8B4201D3CB03CE
:10014800C01A5241830B8B4201D38B03C01A524110
:10015800430B8B4201D34B03C01A5241030B8B4212
:1001680001D30B03C01A5241C30A8B4201D3CB02FD
:10017800C01A5241830A8B4201D38B02C01A5241E2
:10018800430A8B4201D34B02C01A5241030A8B42E5
:1001980001D30B02C01A5241CDD2C3098B4201D3FD
:1001A800CB01C01A524183098B4201D38B01C01A7B
:1001B800524143098B4201D34B01C01A52410309F2
:1001C8008B4201D30B01C01A5241C3088B4201D3A1
:1001D800CB00C01A524183088B4201D38B00C01A4E
:1001E800524143088B4201D34B00C01A5241411A75
:1001F80000D20146524110467047FFE701B5002082
:1002080000F0F0F802BDC0460029F7D076E7704745
:1002180003460B437FD4002243088B4274D303095F
:100228008B425FD3030A8B4244D3030B8B4228D300
:10023800030C8B420DD3FF22090212BA030C8B4226
:1002480002D31212090265D0030B8B4219D300E0C6
:10025800090AC30B8B4201D3CB03C01A5241830B4B
:100268008B4201D38B03C01A5241430B8B4201D3FB
:100278004B03C01A5241030B8B4201D30B03C01A24
:100288005241C30A8B4201D3CB02C01A5241830A9E
:100298008B4201D38B02C01A5241430A8B4201D3CD
:1002A8004B02C01A5241030A8B4201D30B02C01AF7
:1002B8005241CDD2C3098B4201D3CB01C01A52415E
:1002C80083098B4201D38B01C01A524143098B42E7
:1002D80001D34B01C01A524103098B4201D30B01D0
:1002E800C01A5241C3088B4201D3CB00C01A5241F5
:1002F80083088B4201D38B00C01A524143088B42BA
:1003080001D34B00C01A5241411A00D20146524152
:10031800104670475DE0CA0F00D04942031000D371
:100328004042534000229C4603098B422DD3030AC6
:100338008B4212D3FC22890112BA030A8B420CD3D6
:10034800890192118B4208D3890192118B4204D3FF
:1003580089013AD0921100E08909C3098B4201D37F
:10036800CB01C01A524183098B4201D38B01C01AB9
:10037800524143098B4201D34B01C01A5241030930
:100388008B4201D30B01C01A5241C3088B4201D3DF
:10039800CB00C01A524183088B4201D38B00C01A8C
:1003A8005241D9D243088B4201D34B00C01A524163
:1003B800411A00D20146634652415B10104601D3F0
:1003C8004042002B00D54942704763465B1000D37A
:1003D800404201B5002000F005F802BD0029F8D020
:1003E80016E770477047C0468446100062468C4640
:1003F8001900634600E0C0461FB50CF071FA0028EA
:1004080001D40021C8421FBD10B50CF0B1F940421B
:10041800013010BD10B50CF063FA002801DB002094
:1004280010BD012010BDC04610B50CF059FA0028C7
:1004380001DD002010BD012010BDC04610B50CF034
:10044800DBF9002801DC002010BD012010BDC046EA
:1004580010B50CF0D1F9002801DA002010BD0120F8
:1004680010BDC046844608006146FFE71FB50AF084
:1004780085FF002801D40021C8421FBD10B50AF02D
:1004880005FF4042013010BD10B50AF077FF002883
:1004980001DB002010BD012010BDC04610B50AF0D8
:1004A8006DFF002801DD002010BD012010BDC046F1
:1004B80010B50AF013FF002801DC002010BD012050
:1004C80010BDC04610B50AF009FF002801DA002067
:1004D80010BD012010BDC0461C2101231B049842F9
:1004E80001D3000C10391B0A984201D3000A0839BD
:1004F8001B09984201D30009043902A2105C401874
:100508007047C04604030202010101010000000017
:100518000000000010B5064C2378002B07D1054BCE
:10052800002B02D0044800E000BF0123237010BD57
:1005380018030020000000002CD90008044B10B557
:10054800002B03D00349044800E000BF10BDC0469B
:10055800000000001C0300202CD900080122014BD8
:100568001A70704784030020F7B504000D000700D7
:10057800831D0193EB1B20001E5D03F06FF886427C
:1005880003D03100200003F0BBF8019B01349C42EA
:10059800F0D1F7BD70B504000025A54200DB70BDA1
:1005A8000021242007F010FCC82007F0FDFC0121E1
:1005B800242007F009FCC82007F0F6FC0135ECE719
:1005C8000300411800208B4200D170471A7801338C
:1005D8005040F8E7F0B52C2187B0040007F024FB61
:1005E800431C1A0006002C212000009307F00DFB85
:1005F800431C05001A002C212000019307F005FB7D
:1006080033002B430700034333D433000022210077
:1006180003A807F00FFB03A9174807F0BAFA03A8C5
:1006280007F023FA2B00009A210003A807F002FB29
:1006380003A9124807F0ADFA03A807F016FA3B0021
:10064800019A210003A807F0F5FA03A90C4807F05E
:10065800A0FA03A807F009FA2100A3687A1C03A8E6
:1006680007F0E8FA074803A907F093FA03A807F088
:10067800FCF907B0F0BDC046780300206C030020E9
:10068800600300205403002013B5302005F0AAFEB3
:100698002623040025220093C421013300F03EFBE9
:1006A80021000A4800F01CFE09490A4807F024FA0C
:1006B80009490A4807F020FA09490A4807F01CFACC
:1006C80009490A4807F018FA13BDC0468C030020F0
:1006D80029DB0008780300206AD900086C03002091
:1006E8006CD90008600300206ED90008540300206C
:1006F80010B5064807F0B9F9054807F0B6F90548F6
:1007080007F0B3F9044807F0B0F910BD540300200E
:10071800600300206C0300207803002030B52C4BC8
:100728002C4C5A782C4D22705B8885B063802B68DE
:10073800002B0AD10A332948237107F0A9FA28495E
:100748000AF06AFE0BF038F9A0602B68012B0AD179
:100758000A332448237107F09BFA21490AF05CFE0A
:100768000BF02AF9A0602B68022B0AD10A331E4825
:10077800237107F08DFA1D490AF04EFE0BF01CF9A3
:10078800A0602B68032B0AD10A331948237107F09C
:100798007FFA13490AF040FE0BF00EF9A0606D468F
:1007A8002B0007CC07C30C212800FFF709FF2900FD
:1007B800287300230D220F4802F0A6F901220E4BE0
:1007C80018600E4B02201A70FFF7E4FE05B030BD2A
:1007D8003803002040030020340300207803002061
:1007E800000020416C0300206003002000007A44D0
:1007F800540300208C030020880300208503002078
:10080800E12110B5062286B02448490206F0BCFE54
:100818000121242007F07CFA0121242007F0D4FAD2
:100828000024200002F01AFF1D4908550134062C47
:10083800F7D10B78502B09D0EA23DB000B80082373
:100848004B80184B00208B80FFF78EFE002305930A
:1008580000230493082303930933134C02930133B1
:1008680001930B3B00932000104A1149023300F01A
:1008780081FD002803D01420FFF78CFEFEE720003E
:100888000C4900F049FF200000F05CFE002800D071
:10089800FEE70220FFF77EFE06B010BDF40E002032
:1008A80038030020011E00008C0300200000FA42DB
:1008B8000000664465050008F0B5594B59498FB0EA
:1008C8001A7800AF584EF960002A15D000221A7025
:1008D800564B574A3B611B78BA60002B53D0554B97
:1008E8001B68002B02D10220FFF754FEB86800F005
:1008F80029FE00233A691370300006F0B1FC002885
:100908001EDD1C232322F818310006F013FF1C23D8
:100918001024F918043BE318D81907F030F9182304
:10092800E318D819FFF756FE1823E318D81907F06B
:100938009CF80120FFF72EFE1C23F81807F095F805
:1009480007F02AFB3C4E3D4A33680400C31A934221
:1009580003D8FB681B78002B12D00025FB68012008
:100968001D70FFF717FE364807F074F8241A346034
:10097800FFF7D4FE334A13680133032B4EDC1360B0
:10098800BD460FB0F0BD6B4618223B6010239B1884
:10099800DB191900B8680B3A7B6101F03FFD7860FC
:1009A800002825D1284C7A69230023CA23C37B69F0
:1009B8000C211B7B78691D00FFF702FE854217D1C9
:1009C800224922784B789A4212D162884B889A42FF
:1009D8000ED12379A268012B16D0022B19D0002B37
:1009E80006D130001A4906F051FE0123FA68137047
:1009F8000220FFF7CFFDB86800F0A4FD00233A6994
:100A080013703B689D4677E73000124906F03EFEBA
:100A1800EEE778684A80FFF7A7FDE9E71560AFE7DA
:100A2800840300204C030020F40E002085030020DE
:100A38008C03002088030020500300205FEA000098
:100A480088130000340300204003002038030020EE
:100A580070D9000888D9000837B50800421E9041AF
:100A6800081AFA210F4D8900AB6800936C680134AD
:100A78006043FFF743FB0022009B0193AB680093A0
:100A88000199009B994209D20199009BE31A5B18CE
:100A9800D218009B01939042F0D837BD019B009972
:100AA8005B1AF5E710E000E0CBB20E4A2C2B0BD90D
:100AB800C0220A40C02A11D1CF2B0FD83F230A48A1
:100AC8000B409B00074A1B58E0209B009B58C00026
:100AD80008401843431C00D00800704701204042DA
:100AE800FBE7C04620E30008E0E2000810B5C06953
:100AF80002F0D6FB10BD10B5C06902F005FC10BDB0
:100B0800F8B507000C001D008E18B44200D1F8BDDE
:100B180021780022F86902F0FBFB013428700135C6
:100B2800F3E710B507F0BAF810BD10B54B1C03D0A9
:100B3800C8B2002106F0C2FE10BD080010B51100B1
:100B48001A00431C02D0C0B206F034FE10BD10B526
:100B5800C06902F0D8FB10BD10B51C3007C802F000
:100B6800B5FB10BD10B50C00002011001A00631C65
:100B780002D0200007F0A0F910BD10B507F010FA58
:100B880010BD10B507F008FA10BD10B5080007F041
:100B98000BFA10BD080010B54B1C01D006F0D2FEB0
:100BA80010BD00007FB50C0015001E004B1C19D0AD
:100BB8000C220021684608F0BFFA002303939D42E7
:100BC80004D0094B00950393084B02933200694601
:100BD800200006F0EDFE029B002B03D0032269469D
:100BE800684698477FBDC046710C0008510C000844
:100BF800002010B54B1C02D0080007F023F910BDE7
:100C0800080010B51100431C01D007F0DDF810BD35
:100C1800080010B51100431C01D007F079F810BD89
:100C2800030010B528331B78002B02D003689B6A99
:100C3800984710BD030010B528331B78002B02D04D
:100C480003689B6B984710BD012A02D10160002000
:100C58007047022A05D0032AF9D0002AF7D102608A
:100C6800F5E70B680360F2E710B50368984710BD15
:100C7800F8B50D0017000C005E18A64200D1F8BDAB
:100C88007B1B2000195D02F03BFD0134F5E7F8B548
:100C98000D0017000C005E18A64200D1F8BD200018
:100CA80002F0DCFC7B1B18550134F5E7032330B553
:100CB80085B0029301330125019300230400190034
:100CC8002A00009500F01AF8064B20002360064B16
:100CD800A584E361054B2362230028331D7005B00A
:100CE80030BDC046B0D90008F404002080841E003E
:100CF80070477047704708007047704710B5C36069
:100D0800029B054C0361039B04604361049B4160A3
:100D18008260836110BDC04614DA000870B5040013
:100D28008025002062612200A3612D02049B65607A
:100D3800094DE361094B2060A560E0602161203224
:100D480062CB62C2E0622C3005F04CFB0500FFF775
:100D5800ADFF2000256070BD0800FFFF58D90008CE
:100D680010B5040000680368DB6B984720682169A8
:100D7800036882681B6898472068216903680269CC
:100D88005B68984710BD10B5006803681B6C9847EE
:100D980010BDF0B585B00393037A16000B9ADB08F3
:100DA8009B180400180001930F0005F01FFB0500B5
:100DB800019805F01BFB0290227AF3B2082A37D873
:100DC8003B43681C2B706379BB4237D10B9A03995C
:100DD80008F06FFA20680368DB6A98472068216981
:100DE8000368C2685B689847206829000368019A0D
:100DF8001E6B029BB04720682169036802695B6823
:100E08009847206803685B6B98472379BB4207D1F2
:100E1800217A029BC9080B9A0A98591808F049FACE
:100E2800280005F0E7FA029805F0E4FA05B0F0BDED
:100E3800360A3E432E70A81C6B70C4E7A1790B9A42
:100E480008F07AF9C6E70000F0B585B002930DAB5B
:100E58001B780192039313000C9A04009446029A9B
:100E68006344009353425341009A0E00D31818006C
:100E7800009305F0BBFA0700009805F0B7FA3100B7
:100E88000500019A380008F014FA019BF818029B33
:100E9800002B4DD00C9A0A9908F00BFA2068E269E9
:100EA800036801324AD101215B69984720680368C9
:100EB800DB6A9847206821690368C2685B689847BD
:100EC800206839000368009A1E6B2B00B047206821
:100ED8002169036802695B689847206803685B6B4F
:100EE8009847039B002B07D02068E269036801320A
:100EF80044D101215B699847E3681C1E07D0002490
:100F08000C9AA24203D0019AA85C98470400029B5D
:100F1800002B06D101990C9A01310B98691808F039
:100F2800C8F9380005F066FA280005F063FA22E0EF
:100F38000C9BA1795A1C08F0FFF8AFE7DB699847CA
:100F480006002068E16903689B6898470028ADD0CF
:100F580020680368DB6C984720680368DB6998475A
:100F68000E9B801B9842ECD3380005F043FA28000A
:100F780005F040FA0F4C200005B0F0BD01219B6937
:100F8800984720680368DB69984706002068E1698C
:100F980003689B6898470028AED020680368DB6C1C
:100FA800984720680368DB6998470E9B801B984226
:100FB800ECD3D9E73FFDFFFF70B51E00437A0C0064
:100FC80088B00179002B06D1019200962200FFF724
:100FD800E0FE08B070BD07AD230A6B70FA239B00D2
:100FE8002970AC7004930123039300230292290013
:100FF800032201960093FFF727FFEAE730B51B2489
:10100800002389B06C442370457A0A0001799D4217
:1010180008D10133019300942B00FFF7BAFE207822
:1010280009B030BD07AD2970AA70110AFA229200E2
:10103800697004920122290003920292019400939C
:101048000232FFF701FFEAE770B51E00437A0C0091
:1010580088B04179002B07D1009301961300220034
:10106800FFF797FE08B070BD07AD230A6B70FA232F
:101078009B002970AC700021049301230191009218
:101088002900032203930296FFF7DEFEEAE730B554
:101098008BB06B46DA77437A0C004179002B09D183
:1010A800012200931F3301926B442200FFF771FE67
:1010B8000BB030BD09AD230A6B70FA2300229B00E8
:1010C8002970AC700493012301921F326A44009284
:1010D8002900032203930293FFF7B6FEE8E7F0B571
:1010E8001E0085B00AAB1F780BAB1B780500039375
:1010F8000CAB1B7814000293330001913B43072B80
:1011080037D8BE4235D3FFF779FFFF2208211300F5
:101118000136C91BF6B20A41B3401343DB43DBB2C5
:1011280098431C400443E4B2220028000199FFF7C9
:10113800AEFF2868FA260368B6001B6A98470700BE
:10114800039B5E43286803681B6A9847C01BB0422C
:1011580002D3102040420AE028000199FFF74EFF11
:101168000300029A0298634018401342EAD105B07E
:10117800F0BD0B20EEE770B51E2600231F2188B0B6
:101188006E443370C27969440A70FA22920004925C
:10119800012202930392019600930400FFF754FE84
:1011A800051E05D1E368002B02D03078984760818E
:1011B800280008B070BDF0B587B004000CA840C87E
:1011C800FA270EAD00782D7801930023BF00039015
:1011D8000497200002960093FFF736FE002804D1FA
:1011E800002D02D02000FFF7C6FF07B0F0BD70B594
:1011F80086B00E000AA90C780BA90D78172169444E
:101208000E7000930295130001940122FFF7D3FF9B
:1012180006B070BDF0B587B004000CA840C8FA2726
:1012280000780EAD2D7803900020BF000190009348
:101238002000012304970296FFF706FE002804D138
:10124800002D02D02000FFF796FF07B0F0BD70B563
:1012580086B00E000AA90C780BA90D7817216944ED
:101268000E7000930295130001940122FFF7D2FF3C
:1012780006B070BD013970B502000C0000200125D0
:101288004B1C00D170BD2B00661AB3401340F340CD
:101298008B4001391843F3E7C06A002803D170472F
:1012A8008B42FCD010300378002BF9D11800F6E7F8
:1012B800F8B50600FFF7F0FF041E10D03500370020
:1012C800043420352C3729684B1C04D03068226838
:1012D80003685B68984704350434BD42F3D1F8BD10
:1012E80010B5040000F0B2F8054B064A236023004D
:1012F800FC335A6622230122FF332000E25410BD3A
:1013080080DA000870DA000870B50C1C05000A497C
:10131800201CFFF7D7F800280AD00849201CFFF73F
:10132800BDF8002804D02800211C00F0E3FD70BDA2
:1013380008204042FBE7C0460000C8420000FF43C7
:10134800942310B55B00C35C052B09D0062B0DD088
:10135800042B02D14B1F042B05D90920404204E07D
:101368004B1F052BF9D800F033FE10BD4B1F062B81
:10137800F9D9F2E7F0B5040085B01D000AAB0F1CDF
:1013880019780BAB161C1A780CAB1B780FA80078D1
:101398005BB203930DAB1B8801900E980090200060
:1013A80001F038FE00281DD1236820001B6B391C72
:1013B8009847002816D12000311CFFF7A5FF002808
:1013C80010D129002000FFF7BBFF00280AD12368AD
:1013D80020009B6C03999847002803D10121200025
:1013E80001F022FA05B0F0BDF0B5CDB22B000933FB
:1013F800DBB2040085B01F2B23D80F2600236E44D0
:10140800337032001049013300F074FA002816D105
:1014180001270200072304212000009700F04EFA5C
:1014280000280CD104222900200000F01DFD00280E
:1014380005D13B0032002000034900F054FA05B002
:10144800F0BD0D204042FAE7E708000010B504009F
:1014580000F0CAF8034B044A23602300FC33200041
:101468005A6610BD34DB000824DB000873B50C1C79
:1014780005002349201C1600FFF724F800283BD05C
:101488002049201CFFF70AF8002835D0002E22D06A
:101498001D49201CFFF70CF8002821D11B49201CEE
:1014A800FFF706F800281ED11949201CFFF700F89D
:1014B80000281BD11749201CFEF7FAFF002818D175
:1014C8006B226F23694628000A714B7101A900F04D
:1014D80005FB002803D12800211C01F051F976BD35
:1014E800E122E923EEE7D722DB23EBE7C122C5237C
:1014F800E8E775228123E5E70C204042EFE7C04684
:101508000000164300007044000061440080544409
:10151800008040440000E64310B50122FFF7A6FF13
:1015280010BDFC30806A704710B504000368044998
:10153800A0331B689847236820009B68984710BD14
:10154800FF430000002213B5036800925C69024A59
:1015580002230249A04716BD62020000FFFFFF00F8
:101568000E230340062B09D0082B09D00A2B09D0DB
:101578000138C0B2FD2807D8002070470448FCE7AE
:101588000448FAE70448F8E702204042F5E7C04675
:101598003FFDFFFF3EFDFFFF3DFDFFFFFC3010B5A7
:1015A800806A0221FFF784FE0120404210BD1FB56A
:1015B800012303AA49BA1180FC3001930093DB1878
:1015C8001900806AFFF743FE05B000BD0300FC3335
:1015D8009B6A10B50400186803689B689847C1B2F5
:1015E800200001F00BFE10BD70B504000D00FF22B5
:1015F800144901F0F9FD144B22009A2023600021C0
:1016080000230126FC3240005163D3621363265441
:101618001030D363136453642352023023540230CE
:10162800235211655165AE21463849009365D3654B
:10163800FF3863540831605495622222FF3220003B
:10164800A35470BD0024743FF4DB0008F7B5040010
:10165800FC340D00A16A060008688969036882687D
:101668001B689847A16A086889690368C2685B684B
:101678009847A36A0121186803685B699847A16ABB
:1016880008688969036802695B689847002D1DD05E
:10169800A36AFA271868BF000368DB6998470190B6
:1016A800336830009B689847051E0FD0A36A1868F6
:1016B8000368DB699847019BC01AB84207D2A36A3E
:1016C8006421186803685B699847E9E700252800E2
:1016D800FEBD7FB5FC300D0004000121806A1600B4
:1016E800FFF7E6FD002E06D0A36A1868196902689C
:1016F8005668C268B047012303AA15700193009386
:101708008021A06AFFF7A3FD04B070BD10B50122C7
:101718000021FFF7DEFF10BDFC30F8B5836A040036
:101728001D680E002A682800D7685969126D90470D
:10173800A36A01001B68320028005B69B847F8BD3E
:1017480010B5FFF7E9FF10BDFC30836A70B51C685F
:101758005969226820001569126D90470100200020
:10176800A84770BD10B5FFF7EFFF10BD73B50D1C8E
:1017780004000021281CFEF7A5FE00281AD00F49F6
:10178800281CFEF78BFE002814D06B46281CDE1D93
:101798000BF0F0FF00220A4B0AF0CEFC09F0E8FB40
:1017A800FC3430700123A06A32000649FFF74CFC74
:1017B800002076BD11204042FBE7C04600000C43E4
:1017C80000000440E70800001FB50F2201236A4407
:1017D8001170FC30019300939D21806AFFF737FD5B
:1017E80005B000BD1FB50B0C03AA13700B0A53708C
:1017F80001239170FC300193009383210233806AA6
:10180800FFF725FD05B000BD1FB50B0C03AA13702B
:101818000B0A537000239170019301330093FC303D
:1018280082210233806AFFF712FD05B000BD000077
:10183800F0B589B005000E0017001E49082204A85B
:101848001C0007F036FD08221B4906A807F031FDE9
:101858002A2318216A46FF33EB5C5218053BD05CFB
:101868006A4608395218D15C002302AAD3709380C3
:101878009371FF2E00D030001070FF2F00D0390078
:101888005170FF2C00D1F53C94700124FC35019473
:10189800009407238821A86AFFF7D9FC002807D1FC
:1018A8000194009403000200C521A86AFFF7CFFC49
:1018B80009B0F0BDD8DB0008E1DB000830B585B021
:1018C80008AC257803AC637001232170A270E57021
:1018D800FC3001930093220095210333806AFFF7BF
:1018E800B6FC05B030BD10B5FC30806AFFF7ACFB24
:1018F800002010BD70B5FC30150004001A00806A85
:101908002B00FFF759FBA06AFFF735FC70BD0000FC
:10191800F0B502230024FF27060087B0FC360297A3
:10192800019300940500230022002549B06AFFF7BF
:10193800D6FB022302970193009423002200214939
:10194800B06AFFF7CCFB20492800FFF75DFFB36AB8
:101958000A211868270003685B6998476B460026C8
:101968001722DE756A44012328001849FFF7C2FFD1
:101978006B460122DB7D1340A340A4181F43FFB22E
:10198800082CEBD12B6828009B6898470223F73472
:101998000193FC3502940096330001220849A86A95
:1019A800FFF79DFB02230294019300963300012266
:1019B8000449A86AFFF793FB380007B0F0BDC0469A
:1019C800E2080000E5080000FFFFFF00190800001A
:1019D80030B587B06D460E246B7501232C75FC302D
:1019E8000293019300920B00022205A9806AFFF777
:1019F80011FC07B030BD30B587B06D461E246B753D
:101A080001232C75FC300293019300920B000222F3
:101A180005A9806AFFF7CFFB07B030BD30B585B0A8
:101A280008AC25885BBA02ACA380012349BA52BA34
:101A38006DBA21806280E580FC3001930093073302
:101A480022001900806AFFF702FC05B030BD1FB5FF
:101A580000236A469381013301930093FC301221DD
:101A6800013303AA806AFFF7C2FB6B46988940BA24
:101A780080B205B000BD1FB5012309BA01930093D8
:101A8800FC3003910333862103AA806AFFF7DFFB4A
:101A980005B000BD7FB50500B223FC355B000E0024
:101AA8000400C15CA86AFFF703FC002E0CD10A4BA6
:101AB80003AA1B78D1211370012301930093A86A0C
:101AC800FFF7C5FB04B070BD31002000FFF7D3FF5E
:101AD8000028ECD0F6E7C046E9DB0008012307B58B
:101AE800FC30019300930A009821806ADB18FFF705
:101AF800AEFB0EBD1FB5FF236A46D3730F22FE3B14
:101B080001930093FC3011216A44806AFFF76FFB50
:101B18006B46D87B05B000BDF7B50193036800910B
:101B28009B6804001700984700284FD1FF2F00D961
:101B38006BE02000FFF7DEFF012848D12368390059
:101B480020005B6E984703264643760823683A00D0
:101B5800DD692000019B0099A847002836D125009F
:101B6800FC35AB6A186803681B6A98470090AA6A34
:101B78001068516903689B689847AB6A002830D0A1
:101B8800186803681B6A9847019038000BF0CCFD71
:101B98000022204B0AF016FF019B009A0600981AB3
:101BA8000F0009F029FF0BF0E5FD00221A4B0AF09F
:101BB800C3FA0B000200390030000AF0BDFA0BF03E
:101BC80021FE236868651B6A20009847FEBD00282F
:101BD8001DD12368390020005B6E984705264643CF
:101BE800B4E718680368DB6C9847AB6A1868036841
:101BF8001B6A9847009BC01AB042B8D923682000D6
:101C08001B6A984705204042E0E70420FBE70120D3
:101C1800F9E7C0460000204080842E41F0B585B029
:101C2800050016001F000391FFF764FF012827D164
:101C38002B6828009B689847041E1ED12B00FC3394
:101C4800986A0221FFF734FBC02252002300009457
:101C580011002800FFF7E2FE041E0ED12B682800B1
:101C6800A0331B6808499847041E06D13B00320080
:101C780028000399FFF7DCFD0400200005B0F0BD43
:101C880014246442F9E7C046FF43000070B504001D
:101C9800FFF7C4FF002805D070BDAB6A1868036859
:101CA800DB6C98472500FC35AB6A186859690268EF
:101CB800926890470028F0D023682000DB6E984790
:101CC800EAE7FF2310B51A001900FFF7DFFF10BD80
:101CD800FF2310B51A001900FFF7A0FF10BD000080
:101CE80010B50400FFF706FF01280AD12000FFF70E
:101CF800AEFEC30508D40D230006C017984301386B
:101D080010BD14204042FBE70048F9E742FDFFFF01
:101D180073B505000E001400FFF7ECFE012814D17E
:101D28000F223300210993430B43694614403601BF
:101D380034430B714C71E821FC35A86A022301AACF
:101D4800C900FFF781F9002076BD14204042FBE767
:101D580030B5040085B02500FFF7CCFEFC3501281E
:101D680007D12E23FF33E35C012B02D1E86D05B0C8
:101D780030BD00236A4693810133019300931321F8
:101D88000133A86A03AAFFF732FA6B46187BEEE71D
:101D9800F7B5050001912C00FFF7ACFEFC340128D3
:101DA8004FD12A23FF33EE5C2C48B04009F024FEC3
:101DB8002B49071C606B09F02FFB011C381C09F02C
:101DC80045F909F0BDF8731F0400012B35D800232D
:101DD80019279C46FA23B1009B019C4201D3B11EEE
:101DE80089002E230020FF33EB5CC9B2834200D167
:101DF800143096235B00EB5C019A5B009B185B0038
:101E08009B1B9B0063441A18101C120400D5002069
:101E18004B1E00B2C018FEF7FBF995235B00EB5C84
:101E280080B20433FE3543432A8E9B000832920069
:101E3800D2199B185C43A008FEBD082311279C46B5
:101E4800C8E7019BE06B5843C0000BF06DFC002213
:101E5800044B0AF0B7FD09F08BF8EDE710270000F6
:101E6800000020410000503F1FB56B4619735A739C
:101E78000123FC30019300938E21DB1803AA806AAA
:101E8800FFF7E5F905B000BDF0B587B003930CABDB
:101E98001C789A23070002925B00C35C05000E00C1
:101EA800FC37002B12D02A230124FF33C35C200007
:101EB800984009F0A1FD796B09F0C8F88321C9059C
:101EC800FEF700FB002800D1041CE4B22C23FF33EA
:101ED800EC54029B05AA5370039B16709370012360
:101EE800D470019300938B21B86A0333FFF7AFF9DD
:101EF80007B0F0BD73B505000E1CFFF7FBFD04002D
:101F080001285BD10021301CFEF7DCFA002843D001
:101F18002C49301CFEF7C2FA00283DD0FC21301CA9
:101F2800890509F079FA0BF025FC274A274B09F0B7
:101F3800A5FD09F01DF8C0B2142825D802282BD910
:101F48000338112828D8FEF7C5F8332709270A27A8
:101F5800272D272727272F272727273108249423AA
:101F68005B00EC542B002A22FC335E63FF32A95C31
:101F78002C229523FF32AA5C5B00EB5C28000092C0
:101F88002200FFF781FF76BD7D2813D006D81F28D1
:101F980012D004243E28E2D0082010E00624FA28B3
:101FA800DDD0F9E70924DAE70224D8E70A24D6E7DE
:101FB8000024D4E70524D2E70324D0E714204042C4
:101FC800E1E7C0460000FF437B14AE47E17A843F57
:101FD80037B504000D00FFF78DFD012813D16B1FE5
:101FE800072B13D82A232C219422FF33E554FF31E1
:101FF800615C01335200E35CA25C2000009129007F
:10200800FFF742FF3EBD14204042FBE70920FBE7F3
:1020180037B505000C00FFF76DFD012814D1631FCB
:10202800032B14D895222C202A21043C5200E3B219
:10203800AB54FF30285C023AFF31AA5C695C00901F
:102048002800FFF721FF3EBD14204042FBE70A208D
:10205800FBE77FB5029201AD04000191AB606E68A9
:10206800FFF748FD00280DD1236820005B6B01991C
:102078009847002804D1236820009B6B311C98479F
:1020880004B070BD012810D120002978FFF7A0FF07
:102098000028F5D12000311CFFF72CFF0028EFD1D4
:1020A8002000297AFFF7B4FFEAE701204042E7E77A
:1020B8007FB5089D02AC23712B0C637101230E0CB4
:1020C80026706DBA0E0AA170E2706670E580FC3069
:1020D8000193009322008B210733806AFFF7B7F83A
:1020E80004B070BDF7B504000D1CFFF703FD002810
:1020F80037D10021281CFEF7C7F9002800D01B4D56
:10210800281C0BF037FB1A4A1A4B06000F00FEF783
:102118009FF9002828D01849281CFEF7BFF9002885
:1021280022D00022154B300039000AF04BFC8323E3
:102138000022DB050AF046FC0022114B09F0FCFFE7
:1021480008F016FF2100A0234222FC3108645B003E
:10215800FF32E35CA25C0090C96B2000FFF7A8FF88
:10216800FEBD14204042FBE76620FBE79A99193F21
:10217800333333333333E33F0000484300408F4069
:1021880080847E4137B504000D1CFFF7B3FC00289E
:1021980004D0032811D0142040422CE0281C0BF056
:1021A800E9FA164A164BFEF753F9002824D01549C8
:1021B800281CFEF773F900281ED0281C0BF0DAFA49
:1021C8000022114B0AF0FEFB02000B0000200F4911
:1021D80009F0B2FF08F0CCFE01002000A023422243
:1021E800FC30C163006C5B00FF32E35CA25C0090D2
:1021F8002000FFF75DFF3EBD6520CDE73333333365
:102208003333E33F0000964300408F408084CE4143
:1022180037B505000C00FFF76DFC00281DD1042C14
:102228001ED82000FDF756FF0403131517000824D5
:1022380042232900FF33EC54FC310A6C013BEB5C70
:10224800009228002200C96BFFF732FF3EBD092427
:10225800EEE70A24ECE70B24EAE714204042F5E70E
:102268006A20FBE7F0B589B00EAC27780FAC24786C
:1022780049BA039410AC267811AC257812AC2478AE
:10228800FC30A44605ACE370039B218023726146B1
:102298000123A170E27127716671A5710193009302
:1022A80022008C210833806AFEF7D1FF09B0F0BD07
:1022B80070B586B004000E001500FFF71BFC00285F
:1022C80028D1082D33D82000D821FC302B0032002B
:1022D800806AC900FEF7B8FE4422A4210520ED005B
:1022E800FF32EBB2A3544900013AA25C615A049050
:1022F800FA3003904730205C02904620FF30205C83
:102308000190A2204000205C00902000FFF7AAFF67
:1023180006B070BD012807D1012D08D8442220003D
:102328003178FFF7F5FCF3E714204042F0E7692025
:10233800FBE7F0B58BB004000D000792FFF7DAFB5E
:1023480000284FD14627FF37002D1AD14423A12258
:10235800A421E5550530FF3352004900E35CA25C37
:10236800615A0490FA3003904730205C019502903E
:10237800A2204000205C00902000FFF773FF0BB004
:10238800F0BD0126D72109AD33002A002000E6550B
:10239800C900FFF7AFFA0028F1D12000D721079A2A
:1023A8002B78120A3240B34313432B70079BFC303F
:1023B8002A00806A6B70C9000223FEF745FE442399
:1023C800A122A4210520FF3352004900E35CA25C4E
:1023D800615A0490FA3003904730205C0290E05D27
:1023E8000190C5E714204042C9E780224B1E99415D
:1023F80010B5C9B25200FFF79CFF10BD1FB56B4660
:1024080019735A730123FC30019300938F21DB1851
:1024180003AA806AFEF71BFF05B000BD0300F7B5ED
:10242800FC330500986A16000191FEF7A4FE1E4AC7
:102438000400904208D12800FFF709FB800501D568
:10244800062464422000FEBD0028FBD12800FFF7C7
:10245800FEFA602307001F40184201D007277F4279
:102468002B68012128009B6D9847002E02D0B042AE
:1024780000D93000C2B2002328000199FFF7BBFA47
:10248800041EDFD1020001002800FFF7B7FF041E79
:10249800D8D12B682800A0331B680449984704004A
:1024A800002FCFD00724CCE73FFDFFFFFF430000FC
:1024B8001FB5012303AA1170FC30019300939621E4
:1024C800806AFEF7C4FE05B000BD10B50021FFF715
:1024D800EFFF10BD10B50121FFF7EAFF10BD0000A6
:1024E8007FB5032603AC320005000B49200006F037
:1024F800E0FE0123FC3501930093220033001421F0
:10250800A86AFEF774FE2078637800041B0218435B
:10251800A378184304B070BD67D9000810B504004B
:10252800FFF7E8FA012815D12000FFF7D9FFFF22AD
:10253800030A1340000409D418000BF0C5F8002260
:10254800054B0AF03FFA0BF05DF910BD1800013891
:10255800FF38F2E70148F8E70000D03F0000A0C1CB
:102568001FB500236A469381013301930093FC3021
:102578001721013303AA806AFEF739FE6B46988952
:1025880040BA80B205B000BD1FB5002303AA13806E
:10259800013301930093FC3007210133806AFEF771
:1025A80056FE05B000BD00002223F0B589B00392A5
:1025B800FF33C35C05000E1C002B02D0604809B035
:1025C800F0BD03689B6898472800FFF7C9FF80069D
:1025D80002D52800FFF7D8FF700040080BF0CAF8B2
:1025E800584A594BFDF720FF041E04D0012128004A
:1025F800FFF72CF8E3E7301C0BF0BCF8534A544BB8
:1026080006000F000AF0A2FC04900591059B049AAD
:102618005B00100059084B4A4B4BFDF705FF00289B
:1026280063D14C4A4C4B300039000AF08FFC4B0008
:102638005908444A444BFDF7F7FE002873D1474A2E
:10264800474B300039000AF081FC4B0059083D4ADD
:102658003D4BFDF7E9FE002867D13C4A414B30006D
:1026680039000AF073FC4B005908364A364BFDF71F
:10267800DBFE00285BD1374A3B4B300039000AF0BB
:1026880065FC4B0059082F4A2F4BFDF7CDFE00285B
:102698004FD12E4A354B300039000AF057FC4B0019
:1026A8005908284A284BFDF7BFFE002843D10022CD
:1026B8002F4B300039000AF049FC4B005908214AD9
:1026C800214BFDF7B1FE002837D12A4A2A4B3000AA
:1026D80039000AF03BFC4B0059081A4A1A4BFDF71F
:1026E800A3FE0724002800D168E707AE03983470DA
:1026F80009F082F90BF03EF80022204B09F01CFD8E
:1027080008F036FC030C7370039BFC35AB650123A2
:1027180040BA70800193009332009721A86A03336E
:10272800FEF795FD4BE70124DFE70224DDE70324EC
:10273800DBE70424D9E70524D7E70624D5E7C04614
:1027480041FDFFFFFCA9F1D24D62503F9A9999993A
:102758009999F93F333333333333FB3FCDCCCCCC6A
:10276800CCCCFC3F999901403333034099990540FB
:10277800000008406666666666660A4000402F40AC
:1027880010B50400081C9821C90508F045FE0AF098
:10279800F1FF0022044B0AF015F908F0E9FB0100EB
:1027A8002000FFF768F910BD0000A03FF7B500232F
:1027B8006A461949D371013307320400FFF79AF8C2
:1027C800051E22D12000FFF795F901281FD123000B
:1027D800FC33586B0AF0CEFF0022104B0AF0B6FB10
:1027E8004B0059080E4A0F4BFDF71EFE00280ED06D
:1027F8006B460422DB7993436A46FC340732137034
:1028080005490123A06AFEF71FFC2800FEBD6B46A0
:10281800DA7904231343EFE78908000000407F407A
:10282800FCA9F1D24D62503FF7B56B46DD1D002380
:102838000F002B702A000C4901330400FFF75AF8E7
:10284800061E0CD11E232A78002F0AD01343FC340D
:102858002B702A0001230449A06AFEF7F5FB30001B
:10286800FEBD9A430823F1E7D80800002E23F7B5E8
:10287800FF33C35C0500012B03D014256D422800EB
:10288800FEBDFFF737F904000128F6D16B462F008B
:102898009A1D0023FC3713700D490300B86AFEF730
:1028A800D3FB6A460023D61DD371280023003200CB
:1028B8000849FFF71FF8051EE1D1022332780549C0
:1028C8001343337032002300B86AFEF7BDFBD6E726
:1028D8000209000044090000F0B5036885B09B6850
:1028E800039104001500984700285FD12000FFF7E6
:1028F80001F901285CD12A23FF33E35C984009F0F1
:102908007BF82300FC33596B08F0A0FB0AF032FF78
:102918000022504B0AF056F800224F4B0AF052F8AA
:1029280008F026FB060009F067F80AF023FF0022EA
:102938004A4B09F001FC08F01BFB002223680092B7
:1029480001005F6920000223454AB84700282DD1BD
:102958002300FC339B6A186803681B6A9847029037
:102968002700FC37BA6A1068516903689B68984762
:10297800002842D00026236820009B68984700283A
:1029880002D0384B984211D12000FFF760F880053B
:1029980043D4002E41D12E23FF33E35C012B4CD0CE
:1029A80023682A0020005B6A0399984705B0F0BDA8
:1029B80000284DD1281E00D1FF200AF0B5FE0022C4
:1029C800294B09F0FFFF2300FC330600D86B0F00EA
:1029D80009F012F8011C254808F038FB0AF0CAFE75
:1029E80002000B003000390009F0A6FB0022204B42
:1029F80009F0E8FF00221F4B90E7BB6A18680368DC
:102A0800DB6C9847BB6A186803681B6A9847029B87
:102A1800C01A8642A4D20126ADE7236820009B682D
:102A280098472000FFF722FF23682000A0331B6887
:102A38001149984706204042B8E72000FFF75AF8A6
:102A48000128ADD12000FFF711FF0028A8D0ADE77D
:102A58000120F0E70000594000408F4000402F401F
:102A6800620200003FFDFFFF000020400024744E7A
:102A780080842E4100001440FF430000F7B56B46E8
:102A8800DD1D00230F002B702A000C4901330400C0
:102A9800FEF730FF061E0FD104210B002A781343DE
:102AA800012F01D113008B43FC342B702A00012322
:102AB8000249A06AFEF7C8FA3000FEBD36070000DA
:102AC800F0B587B003930CAB1F780DAB1E780D00E3
:102AD800310004000292FFF7D1FF002811D1039BB7
:102AE80004AAD370029BFC34137101236DBAA06A47
:102AF8001580977056718C21019300930533FEF76A
:102B0800A6FB07B0F0BD0000F0B505000F001600E9
:102B180087B0FF2A00D983E0A2235B00C35C002BA7
:102B280002D0FF2A00D17BE02800FEF7E3FF01284E
:102B380049D1962229005C30FF30285C5200FE31D2
:102B4800AA5C098E01902E20FF30285CF3B2009019
:102B58002800FFF7B5FF041E32D1030000900122C0
:102B680028003249FEF75AFF041E29D1020001004D
:102B78002800FFF743FC041E22D103003900280077
:102B8800F2B2FEF725FF041E1AD12B682800A033E5
:102B98001B6827499847041E12D12800FFF706FE34
:102BA800041E0DD1B2232E005B00FC36E95CB06A2E
:102BB800FEF77EFB21002800FEF714FE041E26D037
:102BC800200007B0F0BD00282DD14423A122A42164
:102BD8000530FF3352004900EB5CAA5C695A049047
:102BE800F0B20390A3204000285C02904620FF30FA
:102BF800285C0190A2204000285C00902800FFF784
:102C080031FBA8E7B36A18680368DB6C9847B36AB6
:102C18001868D9690268926890470028F2D1CFE70E
:102C280004246442CCE70124FBE7C046010200000B
:102C3800FF43000010B50400080011001A002C4BD7
:102C480086B0984202D080239B001A4300232000BC
:102C58000093FEF7E3FE002826D1020001002000C1
:102C6800FFF7CCFB00281FD123682000A0331B6886
:102C7800204998472000FEF73DFF012816D1230080
:102C8800962221005C30FF30205CFC335200FE317C
:102C9800DB6DA25C098E01902E20FF30205CDBB238
:102CA80000902000FFF70CFF06B010BD00281BD1D4
:102CB8004423A122A4210530FF3352004900E35CDC
:102CC800A25C615A0490FA3003904730205C02906D
:102CD8004620FF30205C0190A2204000205C00903C
:102CE8002000FFF7BFFADFE701204042DCE7C046DB
:102CF800FFFFFF00FF43000070B504000D00FFF761
:102D080099FF002809D12300FC330221986AFEF7B5
:102D1800CFFA29002000FEF777FD70BD30B587B0E7
:102D280004000D00FEF7E6FE012816D123009622C6
:102D3800FE33A9B25C301986FF30205C023B52009A
:102D4800DB6DA25C01902E20FF30205CDBB200908E
:102D58002000FFF7B5FE07B030BD00281CD1A42322
:102D6800A9B25B00E152A12244230530FF3352008F
:102D7800E35CA25C0490FA3003904730205C029038
:102D88004620FF30205C0190A2204000205C00908B
:102D98002000FFF767FADEE701204042DBE700008A
:102DA800F0B58BB0079310AB04000D0016001F7828
:102DB800FEF7A0FE002845D1012D07D0022D3BD0FB
:102DC800002D3DD02F4D28000BB0F0BDBD00EDB259
:102DD800A123A4225B00E55444235200A15A443A9B
:102DE800FF3AFF33E35C0492FA3203924732A25C63
:102DF800200002924622FF32A25C0192A2225200D7
:102E0800A25C00922A00FFF72DFA051EDBD102AB67
:102E1800FC3476BAA06A9E8309AA02231A49FEF7EF
:102E280013F9079B02AA5BBA938318490223A06A85
:102E380009AAFEF709F9C6E7002FC9D00625C7E792
:102E48000125C5E7012819D16B1E9D419623EAB2D9
:102E58005B00E254210023005C30FF30205CFC332F
:102E6800FE31DB6D098E01902E20FF30205CDBB235
:102E780000902000FFF724FE0500A4E701256D421D
:102E8800A1E7C04643FDFFFFBC060000BE060000E8
:102E980037B504000D00FEF72DFE012815D1AE232D
:102EA8005B00E5549622230021002E20FC335200BB
:102EB800FE31DB6DA25C098EFF300195205CDBB230
:102EC80000902000FFF7FCFD3EBD14204042FBE7C8
:102ED8000022F0B50D0087B011000600FFF78EFA4A
:102EE800002862D104AC257037000125FC37019514
:102EF80000952B0022008A21B86AFEF7A8F900285D
:102F080053D120232370019500952B002200932193
:102F1800B86AFEF79CF9031E47D1032222702A22C1
:102F2800FF32B25CA0800D3262700A22A07162800A
:102F38000195009522008821B86A0733FEF787F9C2
:102F48000290002831D133681C49A0331B68300037
:102F58009847029B03901A00190000933000FEF76F
:102F68005DFD039B034318B200281ED17F23237005
:102F7800019000952B0022008921B86AFEF767F9B5
:102F8800002812D1BB6A0521186803685B69984755
:102F98003400FC34A36A1868D969026892689047BB
:102FA800002804D1A06AFEF7E6F807B0F0BDA36ACE
:102FB80018680368DB6C9847EAE7C046FF430000DF
:102FC800F0B5C82705000A2487B00191BF002E007C
:102FD80001212800FC36FEF739FB10223900B06ABF
:102FE80002ABFDF7E9FF0622019802A906F0BAF83C
:102FF800002802D1013007B0F0BDB36A013C18685F
:103008000A210368E4B25B699847002CDFD12000ED
:10301800F1E70000F0B5050089B003930EAB069206
:1030280004CBFC351B780400A86A05910492079329
:10303800FDF796FEA96A002708684969036842688F
:103048001B689847A96A01260868C9690368426825
:103058001B6898471D22AB6A20001A71AB6A103AA8
:103068005A71AB6AB3329F71AB6ADA71AB6A3C4A88
:10307800696E5E72DA60FFF7A3FFB84206D1A86AEC
:10308800FDF781FE0220404209B0F0BD354B039A9E
:103098006B632300FE331A86334AAF65EA62DE8526
:1030A800FF2331002000EB65FEF7D0FA0028EBD1B2
:1030B800236820009B6898470028E5D12223FF3326
:1030C800E35C002B3BD001212000FFF701FF002823
:1030D800DAD120000599FEF79BFF0028D4D14422BD
:1030E80020000699FEF714FE0028CDD123682000A1
:1030F8001B6D039998470028C6D1079B2000002B19
:103108002BD0FFF7E2F920001849FEF72FFB002823
:10311800BAD101212000FEF757FB0028B4D10123C2
:10312800022100932000124B124AFFF739FE0028B3
:10313800AAD1236801005B6C20009847A4E700210E
:103148000498FDF7B5F90028BDD020000A4A049973
:10315800FFF72AFA0028B6D096E7FFF7BBF9D2E7BF
:10316800691500080000FA430609030000007042D0
:10317800211000000F1D0000881300001920404294
:10318800704719204042704719204042704710B5D7
:1031980003680021DB68984710BD1920404270473A
:1031A8001920404270471920404270471920404278
:1031B8007047192040427047192040427047192033
:1031C80084B0404204B07047002070470048704700
:1031D8000000C8C100207047002070477047704742
:1031E8001920404270477047034B41600360002339
:1031F800826083817047C046A0DC000870B5040077
:1032080090204000225C0D00002A0FD12300FC33DF
:1032180059694900294359611D6A9B6929409942A6
:1032280003D101232354A281A27370BD0126637BBD
:10323800217BE318DA7B8E401000B043002D01D0CB
:103248003243D0B20131C9B2D87321730829ECD105
:10325800FEF710F8637BE2180133D0736373002321
:103268002373E2E70B4A0C4B91698900C9588166C0
:10327800D16952698900C9589200C166D3580122A0
:10328800036701235B424367044B836703007C3376
:103298001A807047E0E2000820E3000800093D00BA
:1032A8000300092100225D3310B5197734315977AD
:1032B80001001A70DA769A7701237C310B704A7014
:1032C800014900F047F810BD00093D0037B5050079
:1032D800836F0400009101927C358B4204D16B46C8
:1032E8002A889B889A420DD02000062269467830A9
:1032F80005F0DFFF22007D3220002B781278A16FC5
:1033080000F028F837BD704710B500F02DF910BD52
:1033180013B56B46DC1DD97153425A415242012301
:103328002100224000F052F9207816BD10B502485D
:10333800FFF798FF10BDC046F4040020044A0300BC
:1033480010B51068002B01D001F06AF810BDC04616
:1033580044000020F0B589B004000D001600059364
:10336800002800D1CCE0744BC06E1900039303F021
:103378006DFB72490190A06E03F068FB704907006D
:10338800206F03F063FB6F490290606F03F05EFBF0
:10339800019B0490002B00D1B2E0002F00D1AFE0D8
:1033A800029B002B00D1ABE03900019803F06CFBC5
:1033B80004990700029803F067FB010001903800A8
:1033C80003F062FB6066002F00D199E0019B002B9F
:1033D80000D195E0002800D192E0636F20600133AE
:1033E8005A425341584A5B4213408022D2029B18EA
:1033F800A36182235B006360FFF7A0FF00234208FC
:10340800AA4218D982080833AA4214D9C208083334
:10341800AA4210D902090833AA420CD94209083332
:10342800AA4208D982090833AA4204D9C009083334
:10343800A84200D90833E3613200331E07D00023C5
:10344800022E04D0731E5A1E93415A000123636151
:103458000723E362E023DB00E360059B22615A4215
:1034680053410025DB0123620399E06EA560A56244
:103478006562656303F0D0FA3049A06E03F0CCFAB8
:103488002F49206F03F0C8FA21694B425941236F35
:1034980001311A06120F042A02D82C489200155836
:1034A8000F202B4A03409B009B5803225B435A433F
:1034B800D243022926D0E9680A401343EB60214928
:1034C800606F03F0A9FA2368224A93421ED1802232
:1034D800214B5201196C11431964196C1140069162
:1034E8000699196B0A431A631A6B1C490A401A6336
:1034F800200000F0C5FF4023226811680B431360C9
:1035080009B0F0BDE9685B000A40D6E7144A934267
:10351800EED18022104BD201D96B1143D963D96BFC
:10352800114007910799D96A0A43DA62DA6A0D49A4
:103538000A40DA62DCE7C046A4DF000820DF0008A2
:10354800B4DE000854DE00080002FCFF0C00002076
:10355800B4DD00080030014000100240FFEFFFFF1B
:1035680000380040FFBFFFFF10B5041E12D001F065
:1035780000F82368104A93420DD180220F4B520164
:10358800196B0A431A631A6B0D490A401A631A6CBD
:103598000A401A6410BD0B4A9342FBD18022074BA4
:1035A800D201D96A0A43DA62DA6A07490A40DA625A
:1035B800DA6B0A40DA63EDE70030014000100240A0
:1035C800FFEFFFFF00380040FFBFFFFFF7B50E0019
:1035D80017000224002B29D00568009300F0E2F8B8
:1035E8000190AB682342FCD0FF23002E01D0337832
:1035F80001362B730123AA681A42FCD02B7B002FBB
:1036080001D03B70013700F0CDF8009B013B0093DF
:10361800019BC01AFA239B00984209D2009B002BF9
:10362800DFD11C008023AA681A42FCD12000FEBD0D
:103638000124F7E78022064B10B51968054B89B2BB
:103648004908C9020448C918120105F032FE10BD24
:10365800E075FF1F00F8FF077805002010B504008B
:10366800FFF7E8FF014B185D10BDC0467805002044
:103678000022F0B51D4B87B01C68019202320292FD
:10368800023203921B689BB25B08013B049301233F
:10369800059300F0DFF900280BD18022144B1206A5
:1036A8001A6101A902A800F06BFA051E03D000F008
:1036B800E3F907B0F0BDA4B20E4B6408E402E618C3
:1036C8000D4BE718BE42F2D80C4B3100EB18012025
:1036D8001A685B6800F010FA002802D1083608352D
:1036E800F0E780231B05E618ECE7C046E075FF1FEE
:1036F8000020024000F8FF07FFFFFF0778050020C1
:1037080010B5024B1954FFF7B3FF10BD7805002020
:103718007047000070B5104B05001978002901D1D9
:10372800012070BDFA208000FCF7E8FC0B4C01007A
:103738002068FCF7E3FC00F081F8041EF0D1032DAB
:10374800EED8020001202900404200F031F8044B75
:1037580020001D60E5E7C04600000020440000206E
:10376800040000208023084A5B00116810B50B4351
:1037780000201360FFF7CEFF041E03D1FFF7C8FF38
:10378800200010BD0124FBE700200240034A044B3F
:1037980011681B785B1813607047C046780D0020CD
:1037A80000000020014B18687047C046780D0020C3
:1037B80010B5FF2403220B0021000240D2009140E3
:1037C8009B012340C943934000280ADBC0240B4ACD
:1037D800800880008018A40002590A40134303514E
:1037E80010BD0F2210400838054A80088000801854
:1037F800C26911401943C161F2E7C04600E100E027
:1038080000ED00E0002805DB1F2318401E3B834025
:10381800014A13607047C04600E100E0002809DB58
:103828001F2318401E3B8340034AD367BFF34F8FC3
:10383800BFF36F8F7047C04604E100E08022431E4B
:103848005204012093420DD2C021074A0748536011
:10385800036A09061B021B0A0B43036200200723A5
:10386800906013607047C04610E000E000ED00E093
:10387800002807DB1F23C02218401E3B8340024953
:1038880052008B507047C04600E100E0704710B509
:10389800FFF7FCFF10BD704710B5041E01D10120D1
:1038A80010BD437FDAB2002B02D10277FFF7F3FF96
:1038B800022363772379002B1CD118212368124A2D
:1038C8005A619A688A439A6062792368002A19D1F2
:1038D800013A60211A619A6800208A4361690A43A3
:1038E80080219A609A688A43A1690A439A600123F1
:1038F8006377D5E72000E268A16800F007F80028A0
:10390800E2D0CCE72269E4E7B71DC10430B51F2334
:1039180004000120013B21D30D00DD400542F9D010
:10392800102A14D005D8002A08D00120082A12D05D
:1039380030BD0120182AFBD1062BF9D82068416137
:10394800182183688B43134383600020F0E701202C
:10395800072BF3D9ECE70F2BF0D9E9E70120102A60
:10396800E6D0E5D8002AE3D1E8E70000F0B5002862
:1039780008D0841DE37F411D022B05D00423C363B7
:103988000023CB770120F0BD0E250268466C136832
:10399800AB4313603368104D2B4033600123166826
:1039A8009E431660026C1B331A401B3B93400B4E20
:1039B80077683B437360C26C836C5A60036D002B5D
:1039C80005D01A682A401A60436D826D5A60012337
:1039D8000020E377C877D6E7FFFEFFFF000002402C
:1039E800F8B5811DCB7F022B03D00423C3630120CC
:1039F800F8BD0E2402681C271368456CA3431360A6
:103A0800012314689C4314602A68104C22402A60E1
:103A1800026C0F4D3A4093406E6833436B60C26C42
:103A2800836C5A60036D002B05D01A6822401A6017
:103A3800436D826D5A6001230022CB77431DDA77EC
:103A4800836B934200D098470020D1E7FFFEFFFF29
:103A5800000002400020054B5A69824205DA044AF8
:103A68009A60044A9A605869C00F70470020024063
:103A780023016745AB89EFCD8022044B12065969B3
:103A88000A435A615869C043C00F7047002002407A
:103A9800F8B505008027FFF785FE7F024619124C0E
:103AA80023693B420BD12269104B11001048194081
:103AB80020611A4209D00F4B0120596004E0FFF73A
:103AC80071FEB042EBD30320F8BDFFF76BFE8026F2
:103AD8004519F6022369180030403342F4D0FFF745
:103AE80061FEA842F6D3EEE700200240FA83000008
:103AF800FB8300007C0D0020F7B5174E0193337847
:103B080004000D0002200092012B1ED00123FA2090
:103B18003370002380007360FFF7BAFF002812D1CA
:103B28000E4F012C12D17B6923437B61009B2B60D4
:103B3800BFF36F8F019B6B60FA208000FFF7A8FF2F
:103B48007B69A3437B6100233370FEBD2800009985
:103B580009F0F6FEF0E7C0467C0D00200020024088
:103B6800044A05485369C90003401943034B0B43F2
:103B7800536170470020024007E0FFFF0200010088
:103B8800F7B5214F05003B7802240191012B1AD08B
:103B98000123FA203B70002380007B60FFF778FF49
:103BA800041E0ED104236B602B68042B0DD1FA2060
:103BB800164A174B516980000B435361FFF768FFA2
:103BC800040000233B702000FEBD0123019A5B42E4
:103BD8001360AE68AB68EA689B18B3420CD9686892
:103BE8003100FFF7BDFFFA208000FFF751FF0028E2
:103BF80008D00400019B1E600221044A53698B43CC
:103C08005361DEE70136E5E77C0D00200020024025
:103C1800040001000023F0B585B00A681400DC40F8
:103C280001D105B0F0BD012514009D402C40009441
:103C38002A427AD04A685E009446032264462240AB
:103C480001920322B240019CD243013C012C6ED860
:103C5800CC688768B44017403C43846044680127B7
:103C6800AC432500644624093C409C402C434460F6
:103C78008C68C568B44015402C43C460019C022C74
:103C88005FD004682240019CB44014430460C024FF
:103C98006246A402224248D0344A03259C08A40064
:103CA800A4180F221D40ED00AA40A027266EFF058C
:103CB80096430022B8420CD02D4F0132B84208D0AA
:103CC8002C4F0132B84204D02B4F0332B84200D1F6
:103CD800023AAA40674632432266244C009A266874
:103CE800009DD2433543FF0201D435001540674695
:103CF80025606668009D3543BF0201D43500154034
:103D0800674665601D4C009DE66F3543BF0301D4CF
:103D1800350015406746E567194C009EE56F2E4350
:103D2800FF0301D415402E00E667013375E7019CB7
:103D3800032CA6D08C68C568B44015402C43C460D9
:103D48009FE707250F271D40AD00AF40DC08A40002
:103D580004190294246A03972700039CA7433C0094
:103D68000F69AF402743029C27628AE70018024088
:103D78000004005000080050000C005008180240D1
:103D88000418024070B5084D0400EB68184202D0D0
:103D9800E86002F099FC2B69234203D020002C61D3
:103DA80002F096FC70BDC0460018024010B5114CD8
:103DB8001149236802000B4003432360802300203D
:103DC8009B009A420ED10D4B0D49186806235843A3
:103DD800FCF794F98022431CD20061690800104066
:103DE800114200D110BD002B01D0013BF5E70320A3
:103DF800F8E7C04600700040FFF9FFFF44000020CC
:103E080040420F00F0B5040085B0002802D101201F
:103E180005B0F0BD0368DB0710D423689B075CD4AA
:103E280023681B0700D5C1E023685B0700D5F2E0D3
:103E3800E369002B00D079E10020E9E73822AF4D93
:103E4800AB681340EA68102B09D1D3439B0708D10C
:103E58002B689B03E1D56368002BDED1D7E7082BDD
:103E6800F6D0802263685202934211D12A68134324
:103E78002B60FFF797FC80270600BF022B683B42A8
:103E8800CBD1FFF78FFC801B6428F7D90320BFE74D
:103E9800A021C9028B4208D180232968DB020B4389
:103EA8002B602B681A432A60E3E72A6894490A4082
:103EB8002A602A6893490A402A60002BD9D1FFF763
:103EC80071FC80270600BF022B683B42A5D0FFF794
:103ED80069FC801B6428F7D9D8E73822874DAB687E
:103EE8001340EA68102B28D103210A40022A26D160
:103EF8002A68520503D5E268002A00D187E7696875
:103F080062698148120201400A436A60002B0CD1A1
:103F18002B687E4A7E491340226913432B602B6825
:103F28007C4A9B045B0FDA400A607B4B1868FFF7FA
:103F3800F1FB002800D173E769E7002BD8D0E368CC
:103F4800002B20D02B68714A802713402269FF007C
:103F580013432B6080232A685B0013432B60FFF711
:103F680021FC06002B683B4207D06A6863696649F2
:103F78001B020A4013436B6052E7FFF713FC801BD8
:103F88000228EFD982E72B68644A802713402B6008
:103F9800FFF708FC0600FF002B683B4200D13FE713
:103FA800FFF700FC801B0228F6D96FE73822534D33
:103FB800AB681340182B08D12B6E9B0700D433E74E
:103FC800A369002B00D02FE721E7A2690123002A6B
:103FD80010D02A6E022713432B66FFF7E3FB060077
:103FE8002B6E3B4200D01FE7FFF7DCFB801B02284B
:103FF800F6D94BE72A6E02279A432A66FFF7D2FBC7
:1040080006002B6E3B4200D10EE7FFF7CBFB801B6F
:104018000228F6D93AE73822384DAB681340202BEE
:1040280008D1EB6D9B0700D402E7A368002B00D0F2
:10403800FEE6ECE680220021EB6B5205009113426C
:1040480008D1EB6B1343EB63EB6B13400393039BB8
:10405800012300938027324E7F0033683B4215D0FE
:10406800A368012B22D1EA6D1343EB65FFF79AFB96
:1040780002270600EB6D3B4238D0009B012B00D095
:10408800D6E6EB6B274A1340EB63D1E633683B4334
:104098003360FFF787FB019033683B42E0D1FFF7BD
:1040A80081FB019BC01A0228F6D9EFE6EA6D052BC1
:1040B80005D1013B1343EB65EA6D0123D4E70121E8
:1040C8008A43EA65EA6D03318A43EA65002BCDD15C
:1040D800FFF768FB02270600EB6D3B42CDD0FFF7E8
:1040E80061FB114B801B9842F6D9CFE6FFF75AFBCC
:1040F8000D4B801B9842BDD9C8E6C046001002404F
:10410800FFFFFEFFFFFFFBFFFF80FFFFFFC7FFFF73
:10411800440000200024F40004000020FFFEFFFFFC
:1041280000700040FFFFFFEF8813000038213F4D6B
:10413800AA680A40102A51D03D4A022B38D12B6870
:10414800802713402B60FFF72DFB0600BF042B6868
:104158003B4227D1616A236AEA680B4335498026C6
:104168000A401343E26AB6041343226B1343A26A5C
:1041780012021343EB6080232A685B0413432B600D
:104188008023EA685B051343EB60FFF70BFB040031
:104198002B68334200D04FE6FFF704FB001B0228D0
:1041A800F6D973E6FFF7FEFA801B0228CFD96DE631
:1041B8002B68802613402B60FFF7F4FA0400B6043E
:1041C8002B68334204D1EB681B4A1340EB6033E69B
:1041D800FFF7E8FA001B0228F2D957E6012B00D1B5
:1041E80015E60322E868216A02408A4200D00EE6FA
:1041F8007022616A02408A4200D008E6FE21A26A63
:10420800C90101401202914200D000E6F822E16A99
:10421800920302408A4200D0F9E5236B400F400721
:10422800C01A431E9841C0B2F2E5C04600100240D1
:10423800FFFFFFFE8C80C11FFCFFFEEF382370B527
:104248001D4CA2681A4205D123681C489B045B0FC9
:10425800D84070BDA2681A40082A27D0A2681A4020
:10426800102A17D1E368E168DB43E5684906490F7E
:104278006F322D0A013115409B0709D11048FBF711
:104288003DFFE1686843490F0131FBF737FFE0E77D
:104298000A48F4E7A2681A40202A09D0A268002038
:1042A8001340182BD5D1FA20C001D2E70448D0E733
:1042B80080200002CDE7C046001002400024F40030
:1042C80000127A00F7B504000D00002801D1012082
:1042D800FEBD07274A4E33683B408B422AD32268EB
:1042E80093073BD4D20748D4072733683B40AB42F7
:1042F8000AD93368BB432B433360FFF753FA019065
:1043080033683B40AB426BD123683E4D5B076FD4AB
:10431800FFF794FFAB683C491B051B0F9B005B58DC
:104328001F210B40D840394A394B10601868FFF7F5
:10433800F1F9CDE73368BB430B433360FFF732FA3B
:10434800019033683B40AB42C9D0FFF72BFA019B81
:10435800C01A304B9842F4D90320B9E729495307CA
:1043680004D5E0238868DB0103438B608B682A4807
:104378000340A06803438B60B4E76268214F012AB9
:1043880019D13B689B03A2D50721BB688B43134314
:10439800BB60FFF707FA01903823BA681A406368D0
:1043A800DB009A42A0D0FFF7FDF9019BC01A194B18
:1043B8009842F1D9D0E7022A03D13B689B01E3D4A4
:1043C80085E7002A03D13B685B05DDD47FE702233C
:1043D800032A03D1396E1942D6D178E7F96DFAE785
:1043E800FFF7E0F9019BC01A0A4B984288D9B3E756
:1043F800AB680A4A1340E2681343AB6088E7C046DB
:10440800002002400010024014DE00084400002092
:104418000400002088130000FFF0FFFFFF8FFFFF5C
:10442800064B07499B68074A5B045B0F9B005B5878
:104438001F2110680B40D8407047C046001002404A
:10444800F4DD000844000020072230B5F025094BB0
:1044580002609C682D01144044609C682C40846074
:10446800E0249B68E4012340C360034B1B681340AE
:104478000B6030BD00100240002002407047000071
:10448800F8B504000120002C66D0636A002B64D1C3
:10449800822261685200914200D0E3610023250026
:1044A800A3625D352B78DAB2002B05D123005C338B
:1044B80020001A70FFF7E2FF022340222B702168C8
:1044C800E6680B689343E0220B60D2000023964213
:1044D80047D880204001964200D0A36282228427D8
:1044E800636852001340A2683F023A400227134310
:1044F8002269A5693A4013430122676917403B4383
:104508008027BF002F403B43E769373217403B43C2
:10451800276A4832174080223B43A76A9201174016
:104528003B43102708220B60636A2D0C3B40676BE6
:1045380017403B43F0273F013E40334304263540B4
:104548002B4303434B60CB69084803400020CB61F1
:10455800012320665D342370F8BD00232361636165
:104568009CE7F02218001201B5E7C046FFF7FFFFED
:10457800704770B504000120002C10D025000223DC
:1045880040215D352B702268200013685C348B4312
:104598001360FFF7EDFF002060602870207070BD89
:1045A80070B5050002233D352B700368114A196A5E
:1045B8000400114207D1196A0F4A114203D101219F
:1045C8001A688A431A60200002F09BFB230000202F
:1045D800483318703C340A3B187058709870D8707B
:1045E800187158719871D8711872587228702070A3
:1045F80070BDC04611110000440400000100030012
:10460800012010B53D310C78E2B2844215D1001872
:1046180008701B680A498B4202D00A498B420DD1A7
:104628009A6809490A40062A06D007398A4203D0FF
:10463800012219680A431A60002010BD1968F9E7B9
:10464800002C014000040040070001000368084AEC
:10465800196A114207D1196A064A114203D1012188
:104668001A688A431A6001233D300370002070479E
:1046780011110000440400000121036810B5DA6834
:104688008A43DA601C6A074A144206D11C6A064A41
:10469800144202D11A688A431A6001233D3003701C
:1046A800002010BD1111000044040000020030B5C4
:1046B80002243C32157803002000012D08D0180090
:1046C8003D3004701B68596101230370002010708D
:1046D80030BD7047704700000222036810B51969A1
:1046E800040011420ED0D96811420BD0053A1A6164
:1046F800043202779B699B0700D186E001F06EFEC9
:1047080000232377042223681969114211D0D9683C
:1047180011420ED0093A1A61073222779A69C023EA
:104728009B0020001A4200D175E001F057FE0023DB
:10473800237708222368196911420ED0D9681142DB
:104748000BD0113A1A610D322277DB6920009B07E2
:1047580067D001F043FE00232377102223681969EC
:10476800114210D0D96811420DD0213A1A6119327C
:104778002277DA69C0239B0020001A4257D001F043
:104788002DFE00232377012223681969114207D0DF
:10479800D968114204D0033A20001A6101F0F3FDF0
:1047A800802223681969114208D0D968114205D0BE
:1047B800023AFF3A20001A6100F0E1F923681A6909
:1047C800D20507D5DA68120604D51C4A20001A61FA
:1047D80000F0D6F9402223681969114207D0D96838
:1047E800114204D0813A20001A61FFF773FF20229A
:1047F80023681969114207D0D968114204D0413A97
:1048080020001A6100F0BAF910BD01F0E3FD2000A4
:10481800FFF75FFF74E701F0DDFD2000FFF759FFA8
:1048280085E701F0D7FD2000FFF753FF93E701F07C
:10483800D1FD2000FFF74DFFA3E7C046FFFEFFFFB5
:1048480010B5174C0368A04202D0164A904208D10E
:10485800702293434A681343134A1A40CB681343A0
:1048680008E0124A9042F7D0114A9042F4D0114A17
:104878009042F1D0802293434A69134303608B68C6
:10488800C3620B688362A04205D0094B984202D0EC
:10489800084B984201D10B6903630123436110BDA2
:1048A800002C014000040040FFFCFFFF00200040F6
:1048B800004401400048014070B504000120002C6C
:1048C80023D025003D352B78DAB2002B05D1230003
:1048D8003C3320001A7002F0EFF902232B70206895
:1048E800211DFFF7ADFF220001230020483213707D
:1048F80047340A3A137053709370D370137153711D
:104908009371D371137223702B7070BD1F2310B570
:10491800012419408C408A40036AA3430362036A56
:104928001A43026210BD0000030010B508291ED00A
:1049380005D8002911D0042916D0020004E002008D
:104948000C2917D0102917D001204332127882423F
:1049580009D11A000220433211E002003E32012040
:10496800147884420AD010BD02003F32F7E70200F3
:104978004032F4E74132F2E74232F0E702201070A9
:104988001C6801222000FFF7C1FF134B9C4213D083
:10499800124B9C420AD0124B9C4207D0114B9C42AE
:1049A8000FD0012322681343236012E08023626C36
:1049B8001B0213436364F4E78023626C1B021343F6
:1049C8006364A368084A1340062B02D0073A93424F
:1049D800E7D10020C7E7C046002C01400044014051
:1049E80000480140000400400700010010B5FFF72F
:1049F8009BFF10BD030070B508294DD009D80029C8
:104A08001BD0042941D00200433214780432E0B2AA
:104A180008E0020047320C2945D0102954D0433011
:104A28000478E0B21278D2B2012C50D1012A2BD1ED
:104A38001A0002204332107041E005001C003E3588
:104A48002E784434F0B22278D2B2012E3FD1012A16
:104A58001AD102222A7022701C6801222000FFF756
:104A680055FF1C4B9C4202D01B4B9C4207D1A368AC
:104A78001A4A1340062B06D0073A934203D0012363
:104A8800226813432360002070BD05001C003F35D9
:104A98002E784534F0B2D6E705001C0040352E7854
:104AA8004634F0B2CFE70400413425781278E8B2F2
:104AB800D2B2012D0BD1012AE6D1022222701A00AE
:104AC800022047321070C7E704004234EDE70120A6
:104AD800DAE7C046002C014000040040070001004E
:104AE8001F2310B5042419408C408A40036AA3434D
:104AF8000362036A1A43026210BD00000300020049
:104B080010B5002905D144320120147884420AD016
:104B180010BD042901D14532F6E7082901D04732F2
:104B2800F2E74632F0E7022010701C6804222000E9
:104B3800FFF7D6FF8023626C1B02134363640A4BA2
:104B48009C4202D0094B9C4207D1A368084A1340F3
:104B5800062B06D0073A934203D001232268134359
:104B680023600020D4E7C046002C01400004004028
:104B78000700010010B5FFF7C1FF10BD704770476F
:104B88007047000030B5EFF31084012282F31088DB
:104B98000168134D0B682B400B6084F31088EFF30A
:104BA800108182F3108802680E4C9368234093604A
:104BB80081F31088C36E012B0AD1EFF3108183F3C0
:104BC8001088102402681368A343136081F31088C7
:104BD800030020228C331A600023C366436730BD6C
:104BE800DFFEFFFFFEFFFFEF30B5EFF31084012279
:104BF80082F31088802501680B68AB430B6084F34F
:104C08001088EFF3108182F310884023026810683F
:104C18000343136081F3108830BD030088331B6899
:104C280010B5212B06D1020056321388002B02D171
:104C3800FFF7DAFF10BD036D01681C7801338C6241
:104C480003651388013B9BB21380F3E703008833A5
:104C58001B6810B5212B06D1010056310B88002B9B
:104C680002D1FFF7C1FF10BD026D0468138802323C
:104C7800DB05DB0DA36202650B88013B9BB20B8051
:104C8800F1E70000030088331B6870B5212B21D1A0
:104C98000300010080246A331B885631002B19D089
:104CA8000A88002A17D1EFF31084013282F31088A2
:104CB8000168114D8B682B408B6084F31088EFF3EB
:104CC800108182F310884023026810680343136040
:104CD80081F3108870BD0568EA69224208D0026D28
:104CE80016780132AE6202650A88013A92B20A80E9
:104CF800013B9BB2D2E7C046FFFF7FFF030088332A
:104D08001B6870B5212B21D10300010080246A3370
:104D18001B885631002B19D00A88002A17D1EFF3C7
:104D28001084013282F310880168124D8B682B4081
:104D38008B6084F31088EFF3108182F3108840238E
:104D4800026810680343136081F3108870BD066819
:104D5800F26922420AD0056D2A880235D205D20DA1
:104D6800B26205650A88013A92B20A80013B9BB299
:104D7800D0E7C046FFFF7FFF7047000030B5050051
:104D880088352C6803000220202C37D101380029EF
:104D980034D0002A32D080209C684001844205D15A
:104DA8001869002802D10130014227D1196519007C
:104DB80054310A804A801A00002190321160212261
:104DC80080212A608022586E92054901904216D1AE
:104DD800144A8C4203D11969002900D1124A9A67F2
:104DE800EFF31081012282F310881A6880239068FB
:104DF8001B040343936081F31088002030BD0B4AE5
:104E08008C4203D11969002900D1094A9A67EFF346
:104E18001081012282F310881A68802310680343E6
:104E28001360E8E78D4C0008054D0008234C000886
:104E3800554C0008806A0023020010B55E321380CA
:104E4800083A138002F090F910BD7047F7B5016871
:104E5800C14DCB6904000A6888682B4210D120250F
:104E68002B4200D19BE0802676051540064035434D
:104E780000D194E0636F2000002B00D085E085E02E
:104E8800B64D05400095B64D009E1540354300D1FE
:104E980085E0250001269035334205D0D70503D596
:104EA8000E622F683E432E60022633420CD0C7079D
:104EB8000AD527000E6290373E680197B44604264B
:104EC80067463E43019F3E60042633420CD0C70725
:104ED8000AD527000E6290373E680197B44602262D
:104EE80067463E43019F3E600826B446334209D0D8
:104EF8002027009E1740374304D066460E622F686D
:104F08003E432E6080263601334206D0570104D531
:104F18000E6220212E68314329602968002935D086
:104F280020210B420AD080235B051140034019431E
:104F380004D0636F002B01D02000984722682B68AB
:104F48004027966828223E40134020001E4322D066
:104F5800FFF718FE23689B683B4218D0EFF31081D7
:104F6800012383F31088250004CD9368BB43936025
:104F780081F31088E86F002809D07A4B8363FEF725
:104F88002FFD002802D0E86F836B9847F7BD2000FB
:104F980002F0EAF8FAE702F0E7F82E60F6E7E56EC5
:104FA800012D00D09FE01026334200D19BE0324211
:104FB80000D198E00E62896840230A001A4019421D
:104FC80057D0211DCA6F1068426892B2002ADDD0FE
:104FD80027005C373F889742D8D927005E373A8048
:104FE800026820208446104000906046024232D178
:104FF800EFF3108785F3108820685B4E0268324013
:10500800026087F31088EFF3108785F31088206813
:105018008268AA43826087F31088EFF3108785F3CC
:105028001088206882689A43826087F3108823007A
:1050380062468C331A60009BE366EFF3108085F3B9
:10504800108822680F351368AB43136080F310880B
:10505800C86FFEF78BFC02232200236723005C3213
:105068005E331B881188C91A89B22000FFF7EDFE4C
:105078008CE7230020005C335E30198803880088A1
:105088009BB2002800D181E7C91A89B2002900D152
:105098007CE7EFF3108785F310882068334E0368A8
:1050A8003340036087F31088EFF3108785F3108887
:1050B80020682F4E83683340836087F3108823006D
:1050C80020208C331860E2666267EFF3108085F366
:1050D8001088102522681368AB43136080F310888A
:1050E80002232367C1E780256D032B4206D04602C1
:1050F80004D520000D6202F073F847E780210B42C7
:1051080007D080252D0411402840014301D0A36F0A
:10511800B1E640210B4216D00A4214D0EFF31080BA
:10512800012383F31088226813688B43136080F38C
:1051380010882300202288331A6000232000A367E8
:1051480002F00BF822E7190214D5510012D52000FD
:1051580000F021FE1AE7C0460F0800000100001009
:10516800200100043D4E0008FFFEFFFFDFFEFFFFA9
:10517800FEFFFFEFDB0100D408E7002A00DB05E7AC
:10518800200000F007FE01E70100F8B503008C31AC
:105198000C6860331A880368222C47D15B6A846DD7
:1051A800134002002370836D5E32013383651388D8
:1051B800013B9BB21380128893B2002A32D1EFF3DD
:1051C8001086012484F3108805681B4F2A683A402A
:1051D8002A6086F31088EFF3108684F31088056838
:1051E800AA68A243AA6086F3108820220A6003678F
:1051F800C26E4367A24216D1C366EFF3108482F3EE
:105208001088102301680A689A430A6084F310889A
:105218000268D169194200D0136203005C3319880F
:10522800FFF713FEF8BD01F091FFFBE7082299692B
:105238000A439A61F6E7C046DFFEFFFF0200F8B5B1
:1052480003008C32116860331C880368222946D118
:10525800596A836D214019800100023383655E31EC
:105268000B88013B9BB20B8009888BB2002932D195
:10527800EFF31086012484F3108805681A4F296813
:105288003940296086F31088EFF3108684F310887C
:105298000568A968A143A96086F3108820211160D8
:1052A8000367C26E4367A24216D1C366EFF3108448
:1052B80082F31088102301680A689A430A6084F30D
:1052C80010880268D169194200D0136203005C3368
:1052D8001988FFF7BAFDF8BD01F038FFFBE708228F
:1052E80099690A439A61F6E7DFFEFFFF0300F0B50C
:1052F80060331B8885B0029303680400DD691A686F
:1053080003929A68019202008C321268222A00D015
:10531800B2E0030068331B88002B02D020231D4213
:1053280025D123005E331B889AB2002B1DD02300A1
:1053380068331B88934218D9EFF31080012282F357
:10534800108821684F4D8B682B408B6080F3108844
:105358004D4B6367EFF3108182F310882023226896
:1053680010680343136081F3108805B0F0BD260070
:10537800236802995B6AA26D0B401370A36D5E36B9
:105388000133A36533882268013B9BB2338007232E
:10539800D5691D422FD0063B1D4208D00399C90587
:1053A80005D5210013629031086803430B6002237E
:1053B8001D4209D00199C90706D521001362903111
:1053C8000868DB1803430B6004231D4209D00199C8
:1053D800C90706D51362220090321168023B0B43BD
:1053E8001360270090373B68002B04D0200001F0A1
:1053F800BBFE00233B60328893B2002A00D08DE7C1
:10540800EFF31086012181F3108820681F4F02688E
:105418003A40026086F31088EFF3108081F3108819
:1054280021681B4E8A6832408A6080F31088220007
:1054380020218C3211602367E26E6367012A17D13D
:10544800E366EFF3108082F31088102321680A685E
:105458009A430A6080F310882268D169194200D003
:10546800136223005C3320001988FFF7EEFC55E730
:10547800200001F06BFE51E7082299690A439A61FE
:1054880073E7C046FFFFFFEF91510008FFFEFFFFE3
:10549800FEFFFFEF0300F0B560331B8885B0029371
:1054A80003680400DD691A6803929A680192020091
:1054B8008C321268222A00D0B0E0030068331B88BF
:1054C800002B02D020231D4225D123005E331B88E8
:1054D8009AB2002B1DD0230068331B88934218D939
:1054E800EFF31080012282F3108821684E4D8B68FB
:1054F8002B408B6080F310884C4B6367EFF310816F
:1055080082F310882023226810680343136081F314
:10551800108805B0F0BD260023680298596AA26D6C
:10552800014011800232A2655E363288013A92B299
:1055380032800722DD6915422FD0063A154208D07D
:105548000399C90505D521001A62903108680243FC
:105558000A600222154209D00199C90706D521001F
:105568001A6290310868921802430A6004221542B0
:1055780009D00199C90706D51A6222000223903280
:1055880011680B431360270090373B68002B04D049
:10559800200001F0E9FD00233B60328893B2002A25
:1055A80000D08FE7EFF31086012181F3108820687F
:1055B8001F4F02683A40026086F31088EFF31080AC
:1055C80081F3108821681B4E8A6832408A6080F314
:1055D8001088220020218C3211602367E26E6367F5
:1055E800012A17D1E366EFF3108082F310881023A5
:1055F80021680A689A430A6080F310882268D16992
:10560800194200D0136223005C3320001988FFF789
:105618001CFC57E7200001F099FD53E7082299691F
:105628000A439A6175E7C046FFFFFFEF455200083D
:10563800FFFEFFFFFEFFFFEF0200F0B58432117896
:105648000300022001291FD01C00012188342230C8
:1056580011702060EFF3108681F310880C271D6805
:105668002868B843286086F31088EFF3108081F328
:105678001088196808230D682B430B6080F3108885
:105688002023002023601070F0BD0200F0B58432A2
:1056980011780300022001291FD01C000121883441
:1056A800223011702060EFF3108681F310880C27E8
:1056B8001D682868B843286086F31088EFF31080C7
:1056C80081F31088196804230D682B430B6080F35D
:1056D80010882023002023601070F0BD0300883359
:1056E8008C301B68006818437047000070B50400D0
:1056F8002569A168026829436569C3692943106857
:10570800474D194328400143116051684548256AAF
:105718000140E06801435160A16990682943424D06
:10572800284001430F209160D16A8143606A014398
:10573800D1623E498A4215D103213D4A526D0A4041
:10574800013A022A11D83B49885C8022120293420E
:105758003DD1082813D8FAF7BDFC0C121C121912F7
:1057680012121D0034498A4209D180221202934242
:105778004BD1FEF755FE031E0CD1002000E001209E
:105788002E4BA36600236367A36770BDFEF756FD23
:10579800F1E72B4B616A2B4A4900895A1800FAF73E
:1057A800ADFC656840006B08C0182900FAF7A6FC34
:1057B8000200254B103A9A42E1D80F230200000755
:1057C8009A4393B2400F22680343D360D5E7082871
:1057D800D5D8FAF775FC1AD405D41FD4D4D422002E
:1057E8001748626A174B5200D15AFAF787FC656866
:1057F8006B08C0182900FAF781FC0200124B103A16
:105808009A42BCD82368D860B7E7FEF709FE00289B
:10581800B3D0E6E7FEF712FDF9E780200002E0E7E3
:10582800F369FFCFFFCFFFFFFFF4FF1100380140FE
:105838000010024040DD0008004400400100010063
:105848000024F40044DD0008EFFF0000836A30B54F
:10585800DA0706D50168284C4A682240C46A224300
:105868004A609A0706D50168244C4A682240046BAE
:1058780022434A605A0706D50168214C4A682240EB
:10588800446B22434A601A0706D501681D4C4A68D2
:105898002240846B22434A60DA0606D501681A4C16
:1058A8008A682240C46B22438A609A0606D501683A
:1058B800164C8A682240046C22438A605A0610D526
:1058C8000168134D4A68446C2A4022434A6080228A
:1058D8005203944205D14A680E4C2240846C2243FC
:1058E8004A601B0606D502680B4953680B40C16C19
:1058F8000B43536030BDC046FFFFFDFFFFFFFEFFB7
:10590800FFFFFBFFFF7FFFFFFFEFFFFFFFDFFFFF53
:10591800FFFFEFFFFFFF9FFFFFFFF7FFF8B5040052
:105928000D0017001E002268D3692B405B1B5942EB
:105938004B41BB4201D0002029E0069B0133F3D044
:10594800FDF730FF069B801B984201D8002B1FD122
:10595800EFF31080012282F310882168204D0B6834
:105968002B400B6080F31088EFF3108082F31088CF
:1059780021688B6893438B6080F3108823001F3263
:1059880088331A605A600023032084342370F8BDDA
:1059980023681A685207C6D58022D96912011142B4
:1059A800C1D01A62EFF31080012282F310882168B7
:1059B8000B4D0B682B400B6080F31088EFF31080C1
:1059C80082F3108821688B6893438B6080F310887A
:1059D800220020238832136053609360D3E7C046C7
:1059E8005FFEFFFFF0B51700020087B0883205930D
:1059F800136804000D000220202B45D1013800292E
:105A080042D0002F40D08023A1685B01994204D185
:105A18002369002B01D1054236D12300002690339B
:105A28001E6021231360FDF7BDFE230054331F8041
:105A3800023303931F808023A26804905B019A427B
:105A480004D12369B34201D12E001D00230056332F
:105A58001B889AB2002B0CD1059B40210093200093
:105A6800049BFFF75BFF00280DD1202388342360B7
:105A78000AE0059B0022009380212000049BFFF789
:105A88004DFF002802D0032007B0F0BD2268002D8A
:105A98000BD133880236DB05DB0D9362039B039A37
:105AA8001B88013B9BB21380D0E72B7801359362AA
:105AB800F4E70000030073B50026040090331E606D
:105AC800FDF770FE236805001B681B0719D42368BF
