:020000040800F2
:1000000000200020E193000831940008319400089A
:1000100000000000000000000000000000000000E0
:100020000000000000000000000000003194000803
:100030000000000000000000319400087F830008E9
:1000400031940008000000005D370008319400087A
:1000500031940008AD840008BD840008CD840008F8
:100060000000000031940008319400083194000829
:100070003194000801800008198000080000000089
:100080002180000800000000000000003980000806
:100090000000000051800008698000083144000819
:1000A000494400083194000831940008398C000854
:0800B000518C00080000000063
:1000B80002B4714649084900095C49008E4402BCF3
:1000C8007047C046002243088B4274D303098B4211
:1000D8005FD3030A8B4244D3030B8B4228D3030C10
:1000E8008B420DD3FF22090212BA030C8B4202D3B2
:1000F8001212090265D0030B8B4219D300E0090ADA
:10010800C30B8B4201D3CB03C01A5241830B8B42E2
:1001180001D38B03C01A5241430B8B4201D34B03CB
:10012800C01A5241030B8B4201D30B03C01A524130
:10013800C30A8B4201D3CB02C01A5241830A8B42B5
:1001480001D38B02C01A5241430A8B4201D34B029E
:10015800C01A5241030A8B4201D30B02C01A524102
:10016800CDD2C3098B4201D3CB01C01A52418309B6
:100178008B4201D38B01C01A524143098B4201D3F0
:100188004B01C01A524103098B4201D30B01C01A1B
:100198005241C3088B4201D3CB00C01A5241830895
:1001A8008B4201D38B00C01A524143088B4201D3C2
:1001B8004B00C01A5241411A00D201465241104622
:1001C8007047FFE701B5002000F0F0F802BDC04617
:1001D8000029F7D076E7704703460B437FD4002207
:1001E80043088B4274D303098B425FD3030A8B42C3
:1001F80044D3030B8B4228D3030C8B420DD3FF222D
:10020800090212BA030C8B4202D31212090265D0FA
:10021800030B8B4219D300E0090AC30B8B4201D3AD
:10022800CB03C01A5241830B8B4201D38B03C01AF4
:100238005241430B8B4201D34B03C01A5241030B6B
:100248008B4201D30B03C01A5241C30A8B4201D31C
:10025800CB02C01A5241830A8B4201D38B02C01AC7
:100268005241430A8B4201D34B02C01A5241030A3E
:100278008B4201D30B02C01A5241CDD2C3098B4223
:1002880001D3CB01C01A524183098B4201D38B01A0
:10029800C01A524143098B4201D34B01C01A524143
:1002A80003098B4201D30B01C01A5241C3088B4288
:1002B80001D3CB00C01A524183088B4201D38B0073
:1002C800C01A524143088B4201D34B00C01A524115
:1002D800411A00D201465241104670475DE0CA0FEC
:1002E80000D04942031000D34042534000229C46AC
:1002F80003098B422DD3030A8B4212D3FC228901B6
:1003080012BA030A8B420CD3890192118B4208D38B
:10031800890192118B4204D389013AD0921100E0ED
:100328008909C3098B4201D3CB01C01A5241830901
:100338008B4201D38B01C01A524143098B4201D32E
:100348004B01C01A524103098B4201D30B01C01A59
:100358005241C3088B4201D3CB00C01A52418308D3
:100368008B4201D38B00C01A5241D9D243088B4229
:1003780001D34B00C01A5241411A00D201466346CC
:1003880052415B10104601D34042002B00D5494230
:10039800704763465B1000D3404201B5002000F06F
:1003A80005F802BD0029F8D016E770477047C04627
:1003B8008446100062468C461900634600E0C04639
:1003C8001FB50BF05FFA002801D40021C8421FBDF9
:1003D80010B50BF09FF94042013010BD10B50BF07D
:1003E80051FA002801DB002010BD012010BDC046D5
:1003F80010B50BF047FA002801DD002010BD0120E0
:1004080010BDC04610B50BF0C9F9002801DC00206A
:1004180010BD012010BDC04610B50BF0BFF9002873
:1004280001DA002010BD012010BDC0468446080036
:100438006146FFE71FB509F027FF002801D4002116
:10044800C8421FBD10B509F0A7FE4042013010BDDB
:1004580010B509F019FF002801DB002010BD0120AC
:1004680010BDC04610B509F00FFF002801DD0020BF
:1004780010BD012010BDC04610B509F0B5FE00281A
:1004880001DC002010BD012010BDC04610B509F0E8
:10049800ABFE002801DA002010BD012010BDC046C7
:1004A8001C2101231B04984201D3000C10391B0A9C
:1004B800984201D3000A08391B09984201D3000960
:1004C800043902A2105C40187047C04604030202B7
:1004D80001010101000000000000000010B5064CF9
:1004E8002378002B07D1054B002B02D0044800E0ED
:1004F80000BF0123237010BD080100200000000088
:10050800D0C80008044B10B5002B03D00349044899
:1005180000E000BF10BDC046000000000C01002034
:10052800D0C8000870B504000025A54200DB70BDE6
:100538000021222008F0D6FFC82009F0C3F80121C5
:10054800222008F0CFFFC82009F0BCF80135ECE7FD
:100558000300411800208B4200D170471A780133FC
:100568005040F8E770B5012188B0222008F05EFFFE
:100578000121192008F05AFF0121182008F056FF20
:100588000121232008F052FF0121222008F0AAFFB0
:100598000021182008F0A6FF01210B2008F046FFD3
:1005A8000121232008F09EFF0121192008F09AFF5D
:1005B80000210B2008F096FF05F062FC8021002442
:1005C800334BC900DA6B0A43DA63DB6B0B400793E2
:1005D800079B200003F01AF82E4D28550134062CED
:1005E800F7D12B78512B13D02B4B00242B800C23C5
:1005F8006B802A4BAB8020002E5D03F007F8864203
:1006080003D03100200003F053F80134062CF2D156
:1006180000230493083303930933029301330193AE
:100628000B3B1F4900931F481F4A023300F0B0FCE0
:10063800011E03D01420FFF775FFFEE71B4803F0E7
:1006480013FB1B4C200003F0FFFF002802D10A30E7
:10065800FFF768FF2000032103F060FF200003215B
:1006680003F072FF80212000090103F07FFF802141
:100678002000890103F0D6FF0E49200003F0ECFEAC
:100688000220FFF74FFF0C4803F01AF808B070BDBE
:10069800001002402401002051050000011E000046
:1006A80000006644380100200000FA42480B002090
:1006B8008002002066666640280B00200A4B0B4A21
:1006C80013B59A60402230201A7307F07FFD0F237C
:1006D8000400CB220093C421B43300F0B3F9210005
:1006E800034800F04BFC13BD80020020480B00209B
:1006F8003801002030B5174B174C5A78174D227027
:100708005B8885B063800A232800237103F0F4FF17
:1007180028006D4603F0BAFF114909F003FE11499C
:1007280009F03EFF09F060FA2B00A06007CC07C370
:100738000C212800FFF70CFF002328730D22290045
:10074800094801F097FE002802D10230FFF7EAFEBF
:1007580005B030BD240100202C01002080020020BB
:100768000000C8420000A0413801002010B503482D
:1007780008F0A8FFFFF7BEFF10BDC04688130000B1
:1007880037B50800421E9041081AFA210F4D89001A
:10079800AB6800936C6801346043FFF793FC002258
:1007A800009B0193AB6800930199009B994209D281
:1007B8000199009BE31A5B18D218009B01939042A1
:1007C800F0D837BD019B00995B1AF5E710E000E00F
:1007D800CBB20E4A2C2B0BD9C0220A40C02A11D109
:1007E800CF2B0FD83F230A480B409B00074A1B58C2
:1007F800E0209B009B58C00008401843431C00D0D1
:100808000800704701204042FBE7C0461CD300089F
:10081800DCD2000810B5C06902F01AFD10BD10B591
:10082800C06902F049FD10BDF8B507000C001D00B5
:100838008E18B44200D1F8BD21780022F86902F080
:100848003FFD013428700135F3E710B508F09AFD33
:1008580010BD10B54B1C03D0C8B2002108F0C6FC6F
:1008680010BD080010B511001A00431C02D0C0B218
:1008780008F038FC10BD10B5C06902F01CFD10BDB1
:1008880010B51C3007C802F0F9FC10BD10B50C00FB
:10089800002011001A00631C02D0200008F09AFE04
:1008A80010BD10B508F00AFF10BD10B508F002FF22
:1008B80010BD10B5080008F005FF10BD080010B500
:1008C8004B1C01D008F0D6FC10BD00007FB50C0011
:1008D80015001E004B1C19D00C220021684609F097
:1008E8000CF8002303939D4204D0094B0095039311
:1008F800084B029332006946200008F0F1FC029B85
:10090800002B03D003226946684698477FBDC0463E
:100918009909000879090008002010B54B1C02D07D
:10092800080008F01DFE10BD080010B51100431C9A
:1009380001D008F0D7FD10BD080010B51100431C08
:1009480001D008F073FD10BD030010B528331B78E3
:10095800002B02D003689B6A984710BD030010B5AE
:1009680028331B78002B02D003689B6B984710BD77
:10097800012A02D1016000207047022A05D0032A0B
:10098800F9D0002AF7D10260F5E70B680360F2E7B7
:1009980010B50368984710BDF8B50D0017000C0096
:1009A8005E18A64200D1F8BD7B1B2000195D02F03D
:1009B8007FFE0134F5E7F8B50D0017000C005E184E
:1009C800A64200D1F8BD200002F020FE7B1B18557E
:1009D8000134F5E7032330B585B0029301330125CF
:1009E80001930023040019002A00009500F01AF86A
:1009F800064B20002360064BA584E361054B236268
:100A0800230028331D7005B030BDC0460CC900084E
:100A1800A802002080841E007047704770470800B5
:100A28007047704710B5C360029B054C0361039B78
:100A380004604361049B41608260836110BDC046CD
:100A480070C9000870B5040080250020626122008A
:100A5800A3612D02049B6560094DE361094B206089
:100A6800A560E0602161203262CB62C2E0622C3076
:100A780007F0ACFB0500FFF7ADFF2000256070BD57
:100A88000800FFFFF8C8000810B5040000680368F4
:100A9800DB6B984720682169036882681B68984760
:100AA80020682169036802695B68984710BD10B522
:100AB800006803681B6C984710BDF0B585B00393B8
:100AC800037A16000B9ADB089B18040018000193A0
:100AD8000F0007F07FFB0500019807F07BFB0290F1
:100AE800227AF3B2082A37D83B43681C2B70637903
:100AF800BB4237D10B9A039908F040FF206803687E
:100B0800DB6A9847206821690368C2685B68984770
:100B1800206829000368019A1E6B029BB047206871
:100B28002169036802695B689847206803685B6B02
:100B380098472379BB4207D1217A029BC9080B9AAF
:100B48000A98591808F01AFF280007F047FB02987E
:100B580007F044FB05B0F0BD360A3E432E70A81CD2
:100B68006B70C4E7A1790B9A08F0C7FEC6E70000CE
:100B7800F0B585B002930DAB1B7801920393130077
:100B88000C9A04009446029A6344009353425341DA
:100B9800009A0E00D3181800009307F01BFB0700FB
:100BA800009807F017FB31000500019A380008F09B
:100BB800E5FE019BF818029B002B4DD00C9A0A9970
:100BC80008F0DCFE2068E269036801324AD101219D
:100BD8005B69984720680368DB6A98472068216941
:100BE8000368C2685B689847206839000368009A00
:100BF8001E6B2B00B04720682169036802695B6897
:100C08009847206803685B6B9847039B002B07D0C5
:100C18002068E2690368013244D101215B69984781
:100C2800E3681C1E07D000240C9AA24203D0019A44
:100C3800A85C98470400029B002B06D101990C9AE6
:100C480001310B98691808F099FE380007F0C6FAC8
:100C5800280007F0C3FA22E00C9BA1795A1C08F07F
:100C68004CFEAFE7DB69984706002068E169036836
:100C78009B6898470028ADD020680368DB6C9847CC
:100C880020680368DB6998470E9B801B9842ECD369
:100C9800380007F0A3FA280007F0A0FA0F4C20004C
:100CA80005B0F0BD01219B69984720680368DB699E
:100CB800984706002068E16903689B689847002800
:100CC800AED020680368DB6C984720680368DB694E
:100CD80098470E9B801B9842ECD3D9E73FFDFFFF56
:100CE80070B51E00437A0C0088B00179002B06D13C
:100CF800019200962200FFF7E0FE08B070BD07AD34
:100D0800230A6B70FA239B002970AC7004930123AB
:100D18000393002302922900032201960093FFF710
:100D280027FFEAE730B51B24002389B06C44237001
:100D3800457A0A0001799D4208D101330193009454
:100D48002B00FFF7BAFE207809B030BD07AD297037
:100D5800AA70110AFA2292006970049201222900ED
:100D680003920292019400930232FFF701FFEAE72F
:100D780070B51C00130015002343072B0DD8A242A1
:100D88000BD3FFF7CFFFFF2107230A005B1B1A4194
:100D9800A14011400840C0B270BD0B204042FBE7A3
:100DA80070B51E00437A0C0088B04179002B07D13A
:100DB8000093019613002200FFF77FFE08B070BD74
:100DC80007AD230A6B70FA239B002970AC700021D1
:100DD80004930123019100922900032203930296B0
:100DE800FFF7C6FEEAE730B58BB06B46DA77437A91
:100DF8000C004179002B09D1012200931F33019285
:100E08006B442200FFF759FE0BB030BD09AD230A31
:100E18006B70FA2300229B002970AC7004930123A5
:100E280001921F326A44009229000322039302931D
:100E3800FFF79EFEE8E7F0B51E0085B00AAB1F7805
:100E48000BAB1B78050003930CAB1B7814000293C3
:100E5800330001913B43072B37D8BE4235D3FFF708
:100E680061FFFF22082113000136C91BF6B20A41AF
:100E7800B3401343DB43DBB298431C400443E4B262
:100E8800220028000199FFF7AEFF2868FA260368B8
:100E9800B6001B6A98470700039B5E4328680368EF
:100EA8001B6A9847C01BB04202D3102040420AE098
:100EB80028000199FFF736FF0300029A0298634061
:100EC80018401342EAD105B0F0BD0B20EEE7013916
:100ED80070B502000C00002001254B1C00D170BD2C
:100EE8002B00661AB3401340F3408B400139184376
:100EF800F3E7C06A002803D170478B42FCD010305A
:100F08000378002BF9D11800F6E7F8B50600FFF7CB
:100F1800F0FF041E10D035003700043420352C377C
:100F280029684B1C04D03068226803685B689847BE
:100F380004350434BD42F3D1F8BD000070B50D1C72
:100F480004000C49281CFFF7A1FA00280ED00A4912
:100F5800281CFFF787FA002808D02000291C01F078
:100F680039FA002801D1FC34E56270BD0C204042FA
:100F7800FBE7C0460000094300007F4410B50400A9
:100F880000F036FA014B2000236010BDD4C90008D8
:100F9800F0B585B01D000AAB1B78171C01930BAB8D
:100FA8001A780CAB1B780E1C0EA909785BB2029359
:100FB8000DAB03911B881221040001F0B0FD00283D
:100FC8002AD12000391C00F00BFC002824D123680A
:100FD80020001B6B311C984700281DD129002000D8
:100FE80000F09CFD002817D12000019900F0EDFDCC
:100FF800002811D1236820009B6C0299984700288B
:101008000AD12000039900F09AFA002804D10200BE
:101018000121200000F08CFB05B0F0BDFC3070B55C
:101028000400836A18689969026815688268A84785
:10103800A36A1868996902685568C268A847A36ACC
:101048000121186803685B699847A36A1868996959
:10105800026855680269A847A36A052118680368E9
:101068005B69984770BD000070B50D1C04000C4901
:10107800281CFFF70BFA00280ED00A49281CFFF796
:10108800F1F9002808D02000291C01F0A3F9002854
:1010980001D1FC34E56270BD0C204042FBE7C0463C
:1010A800000009430040034410B55D2201F098FB9D
:1010B80010BD0000F0B58BB00890099100F0E0FE7B
:1010C800802800D057E1089CFC34206B0BF024FBEF
:1010D8000022AB4B0AF00CFF4B005908A94AAA4B57
:1010E800FFF786F9002816D0E56AA849281CFFF7FB
:1010F800CDF9002830D0A649281CFFF7B3F90028FD
:101108002AD002223621A06AFFF76DFE64223A2116
:10111800A06AFFF768FEE36A206B05930BF0FCFA00
:101128009C4A9D4B06000F000AF0E2FE4B0059084E
:10113800944A954BFFF75CF9051E20D005980BF0F3
:10114800EBFA964A964B09F06BFC0BF02DFB00244A
:10115800482505902600DCE09249281CFFF796F9FF
:101168000028D8D09049281CFFF77CF90028D2D055
:1011780002223621A06AFFF736FE7F22C7E78B4A94
:101188008B4B300039000AF0B3FE4B0059087D4AFA
:101198007D4BFFF72DF9041E0BD005980BF0BCFA18
:1011A800844A854B09F03CFC0BF0FEFA2C000590B4
:1011B8001CE0784A814B300039000AF099FE06900D
:1011C8000791079B069A5B00100059086D4A6E4B01
:1011D800FFF70EF9051E0BD005980BF09DFA6F4A24
:1011E800774B09F01DFC0BF0DFFA05904425B1E7B9
:1011F8006E4A744B300039000AF07AFE4B005908E9
:10120800604A614BFFF7F4F8041E05D005980BF00F
:1012180083FA6D4A6D4BC5E700226D4B30003900EB
:101228000AF066FE06900791079B069A5B0010007D
:101238005908544A544BFFF7DBF8051E05D0F42132
:101248000598890508F006FDCFE7624A624B300031
:1012580039000AF04DFE4B0059084A4A4A4BFFF73D
:10126800C7F8041E05D005980BF056FA5B4A5C4B8C
:1012780098E700225B4B300039000AF039FE0690EF
:101288000791079B069A5B00100059083D4A3E4BA0
:10129800FFF7AEF8051E00D070E00022524B300078
:1012A80039000AF025FE4B005908364A364BFFF73D
:1012B8009FF8041E61D100224C4B300039000AF01F
:1012C80017FE06900791079B069A5B0010005908C5
:1012D8002C4A2D4BFFF78CF800284FD10022284BC1
:1012E800300039000AF004FE4B005908254A264B05
:1012F800FFF77EF800283ED0089C2F21FC34A06A16
:10130800FFF710FD30210500A06AFFF70BFD40260E
:101318000400089B08981B689B689847089F099BCE
:101328000599FC37002B00D1F96A089801F052F8AA
:101338000721FF2302220293019200910B00320041
:101348002A31B86AFFF777FD0026FF2302220293AD
:10135800019200962A002F21F83BB86AFFF76BFD2F
:10136800FF23022202930192009622003021B86ADC
:10137800F83BFFF760FD0BB0F0BD2C004025E9E617
:1013880000407F40FCA9F1D24D62503F0080574495
:1013980000007F443333333333331F4093E34EE944
:1013A80060FD7F3F0000CD4300400344CDCCCCCC52
:1013B800CCCC24404968CBB91457853F33332F40F0
:1013C80060FD8F3FCCCC3440DC4B1AA37554953F5D
:1013D80000403F409A99999999D9444012DA722E5F
:1013E800C555A53F00404F4000405F4000406F405A
:1013F80010B5040000F09CFC034B01222360A323DA
:101408005B002000E25210BD84CA0008F0B587B026
:1014180005000C000492002A0DD0CE1CF6B2122E44
:1014280000D984E000F065FF0490002C5CDB702399
:101438001C43E4B25AE014292AD100F05AFF0226CC
:10144800FF270723FC3500930297019604008022AA
:101458000921A86AFFF7EFFC049B02970093019605
:1014680006237F2204430921A86AFFF7E4FC049BB2
:1014780007220093330024B2044324B20297019652
:101488004D21A86AFFF7D7FC204300B207B0F0BD92
:10149800023CE4B20F2C4AD800F02BFFFF270226AB
:1014A8000723FC35009302970196802209210590B5
:1014B800A86AFFF7C0FC7022059B0297184303B285
:1014C8000593049B01960093224306230921A86AE9
:1014D800FFF7B1FC059B02971843049B04B20196E1
:1014E800009304223300CBE720243443FF2702264D
:1014F8000723FC3500930297019600220921A86A68
:10150800FFF799FC002302970093019622000590AB
:1015180006330921A86AFFF78EFC059A00230243C7
:101528001000049A0297024314B20196D8E70D20DE
:101538004042ABE710B50022FFF768FF10BDF0B5D9
:1015480087B00400049106295AD800F0D2FE07009B
:10155800200000F095FC060080282BD1FF25049B75
:101568007E3EFC34A06A029501960096002B06D1B7
:10157800330004222621FFF75EFC074316E0330000
:1015880000222621FFF757FC0322049B05905B01EC
:101598001A430023D2B200930295019607330C2117
:1015A800A06AFFF748FC059D05432F433FB238006A
:1015B80007B0F0BD0028FAD1049BFC340225A06ACC
:1015C800002B07D1FF330293FC3B08220D21019524
:1015D8000093D0E70322FF230D210293009213000A
:1015E80001953200FFF727FC0322049905904B016F
:1015F8001343DAB2FF23019502930096F83BCEE736
:1016080013277F42D3E77FB504000E0000F038FCB3
:10161800002833D19C235B00E35C002B31D02000F1
:1016280000F067FE0500012E15D0022E1DD06A209D
:10163800002E24D1FF2332000293FD3B0193033394
:101648000093FC3401330A21A06AFFF7F4FB284316
:1016580000B204B070BDFF230293FD3B0193033336
:1016680000932022FC340133EDE7FF230293FA3B79
:1016780000934022FC3401960133E4E714204042F1
:10168800E7E76B20FBE730B585B004000D0000F0FC
:10169800F7FB002845D19C235B00E35C002B07D0B7
:1016A800002D41D129002000FFF7ADFF05B030BD66
:1016B800200000F01EFE0028F8D1042D36D828009E
:1016C800FEF7F6FC03111B342500FF2300220293CA
:1016D800FD3B019303330093FC3401330A21A06AD4
:1016E800FFF7A9FBE2E7FF230293FD3B01930333D6
:1016F80000936022FC340133F0E7FF230293FD3BA3
:101708000193033300934022FC340133E6E7FF23BF
:101718000293FD3B0193033300932022FC340133F1
:10172800DCE714204042C1E76B20FBE76A20F9E7B9
:10173800F0B5070085B00E0014003D0000F0A0FBD6
:10174800FC35802814D13A23FF22FF33FE54383B5E
:10175800FF3BA86A029201930093FB3A002E00D146
:1017680032001E21FFF767FB0300180005B0F0BD2B
:10177800FF220223A86A02920193002E12D0DB18DE
:101788000093EF3A3021FFF756FB031EEDD1FF21FE
:101798000222A86A029101920093002C06D0013A15
:1017A800CF39DFE7042332000093EBE71A0030213A
:1017B800D8E77FB50E00050000F09BFDFF230293DC
:1017C800FD3B019302330093FC35040032001D21D8
:1017D800A86A0333FFF72FFB204300B204B070BDA3
:1017E800F0B587B006000F1C00F04AFB802800D037
:1017F80007E1381C0AF090FF834A844B04000D006F
:101808000AF076FB04900591059B049A5B00100092
:1018180059087F4A7F4BFEF7EBFD002800D0AEE069
:101828007D4A7E4B200029000AF062FB0490059156
:10183800059B049A5B0010005908754A754BFEF722
:10184800D7FD002800D0C8E06F4A754B200029005A
:101858000AF04EFB04900591059B049A5B0010006A
:1018680059086B4A6B4BFEF7C3FD002800D0B6E061
:10187800694A6C4B200029000AF03AFB0490059154
:10188800059B049A5B0010005908614A614BFEF7FA
:10189800AFFD002800D0A4E00022634B20002900FF
:1018A8000AF026FB04900591059B049A5B00100042
:1018B8005908574A574BFEF79BFD002800D092E085
:1018C8005A4A5B4B200029000AF012FB049005914C
:1018D800059B049A5B00100059084D4A4D4BFEF7D2
:1018E80087FD002800D080E00022524B200029000C
:1018F8000AF0FEFA04900591059B049A5B0010001B
:101908005908434A434BFEF773FD002800D06EE0A8
:101918000022494B200029000AF0EAFA04900591B8
:10192800059B049A5B0010005908394A394BFEF7A9
:101938005FFD00285DD10022404B200029000AF0FD
:10194800D7FA04900591059B049A5B00100059088A
:101958002F4A304BFEF74CFD00284CD10022384B63
:10196800200029000AF0C4FA4B005908284A294BDC
:10197800FEF73EFD9021002802D1082442E0002114
:101988003000FFF716FF041E24D13300A322FC33D6
:101998001F635200B25C002A1CD09D6A9823012064
:1019A8005B00F35C984008F0F9FF391C08F0D4FAA2
:1019B8008321C905FEF76AFDFF22022302920193E3
:1019C80000281AD001330093F73A26212800FFF7A0
:1019D80032FA0400200007B0F0BD1021D0E7202122
:1019E800CEE73021CCE74021CAE75021C8E7602183
:1019F800C6E77021C4E78021C2E7032322000093D1
:101A0800E3E714246442E5E73333333333331F40C9
:101A1800FCA9F1D24D62503FCDCCCCCCCCCC2440EB
:101A280033332F40CCCC344000403F409A999999A9
:101A380099D9444000404F4000405F4000406F400B
:101A480000407F40F0B587B0050000270C00022653
:101A580000F04FFCFF2304900293FC353B000196F5
:101A68000097602C30D101221D21A86AFFF7E3F905
:101A7800FF230293FC3B0093019622001E21059050
:101A88000433A86AFFF7D7F9059AFF230243100029
:101A9800049A0293024301960097330014B231214D
:101AA8000522A86AFFF7C7F9FF230C220443029313
:101AB80024B201960097F83B3721A86AFFF7BBF9D3
:101AC800204300B207B0F0BD3A001D21A86AFFF715
:101AD800B2F9FF23032202930092019622001E21ED
:101AE8000590F83BA86AFFF7A6F9059AFF23024379
:101AF8001000049A0293024301960097330014B22F
:101B080031210322A86AFFF796F9FF2304430293C1
:101B18000A2224B201960097F83BCDE7F0B585B0CC
:101B280005000E0000F0ACF9802832D1B31F062B57
:101B380032D831012800C9B2FFF784FF041E21D131
:101B480098235B00EE541633EB5C002B1AD001206F
:101B5800FC35B04008F022FF296B08F0FDF983211D
:101B6800C905FEF793FCFF220223AF6A0292019394
:101B780000280AD001330093F73A26213800FFF7EE
:101B88005AF90400200005B0F0BD03232200009399
:101B9800F3E714246442F5E70924FBE77FB50E0058
:101BA800050000F0A6FBFF230293FD3B0193013BD8
:101BB8000093FC35040032001D21A86A0233FFF7A8
:101BC8003AF9204300B204B070BD70B504000D00AE
:101BD80000F056F980280ED16B1F032B0ED8690030
:101BE80008392000C9B2FFF7D9FF002802D13223F3
:101BF800FF33E55470BD14204042FBE70A20FBE7A1
:101C08007FB50292040001910393029E00F038F917
:101C1800C0B201AD00280DD1236820005B6B01998B
:101C28009847002804D1236820009B6B311C9847F3
:101C380004B070BD802810D120002978FFF76EFF0E
:101C48000028F5D12000311CFFF7CAFD0028EFD18C
:101C58002000297AFFF7B9FFEAE701204042E7E7C9
:101C6800FC30806A704710B503689B68984710BDC0
:101C78000300FC339B6A10B50400186803689B686E
:101C88009847C1B2200001F091FA10BD036870B501
:101C98009B6E0400984700280DD070BDAB6A186889
:101CA8000368DB6C9847AB6A1868D9690268926860
:101CB800904700280CD12500FC35AB6A1868596993
:101CC8000268926890470028E8D00F204042E4E775
:101CD8000E20FBE730B50C0085B0052924D8FC3070
:101CE8004900FF25806AD2B2C9B2032C0FD8072356
:101CF8005B1A022101910131091B4900C9B2009107
:101D08004021DBB20295FFF796F805B030BD0F23EE
:101D18005B1A022101910531091B4900C9B20091E2
:101D2800DBB241210295EEE71A204042EDE70000C0
:101D380070B504000D00FF220E4901F02DFA0E4B7C
:101D480020002360230000220021FC33FE30DA62E9
:101D58001A6341869A6341879D20012640002654D4
:101D68005A64A2221964054952002000A1529D62BA
:101D780070BDC0460024744234CB00080080FFFFC9
:101D8800FC30F8B5836A16001C680D002268596992
:101D9800D7682000126D9047330001002A00200008
:101DA800B847F8BD0300FC3310B59B6A1B685A6935
:101DB800FFF7E6FF10BDFC30836A70B51C685969EF
:101DC800226820001569126D904701002000A8477D
:101DD80070BD10B5FFF7EFFF10BDFC30F8B5836A92
:101DE8000D00D96916004A1C0AD01C682368200017
:101DF800DF681B6D9847330001002A002000B847B0
:101E0800F8BD0300FC3310B59B6A1B685A69FFF7DD
:101E1800E4FF10BD10B5FC30002307224221806A80
:101E2800FEF7A6FF10BD1FB5FF2300220293FD3B5E
:101E380001930092FC3024210533806AFEF7FBFFF2
:101E480005B000BD70B504000E0000252368200011
:101E5800A0331B6898472000FFF7DCFFB04201D190
:101E6800012070BD2300FC339B6A013518680A21E4
:101E78000368EDB25B6998470A2DE7D10020F0E7C7
:101E8800072310B5FC301A000121806AFEF770FFA5
:101E980010BD000010B50400FFF7F2FF802810D134
:101EA800FC34002307221921A06AFEF761FF40B223
:101EB8000AF0DCFB0022044B09F056FD0AF074FC22
:101EC80010BD0020FCE7C0460000D03F30B585B00B
:101ED80004000D00FFF7D4FF00280CD1FF23029364
:101EE800FD3BFC34019300902A000D21A06AFEF707
:101EF800A2FF05B030BD14204042FAE770B50400D7
:101F08000E002500FFF7BCFFFC35802809D1982377
:101F18005B00E35C062B1AD01321A86AFEF702FFC8
:101F280070BD002813D1A2235B00E15C00290ED10B
:101F3800002E0CD04623FF33E35CA86A802B08D11F
:101F4800FEF7F0FEA22301225B002864E254286C0D
:101F5800E6E73221F4E70000F0B587B00C00009006
:101F6800FFF78EFFC6B2802E00D0CFE09823012065
:101F7800009A5B00D35C984008F010FD009EFC3688
:101F8800316B07F0E9FF8321C9050290FEF77EFA5D
:101F98000023002801D0FE239B05019300231D2167
:101FA8001A00B06AFEF7E4FE08F0ACFC02231E211A
:101FB8001A000490B06AFEF7DBFE801000B208F049
:101FC800A1FC0023072220210590B06AFEF7D0FE6D
:101FD8002121002307220500B06AFEF7C9FE2D0261
:101FE800284308F08FFC9823009A5B000390D05C8C
:101FF80008F0D4FC0AF090FB0022774B09F0B4FCFF
:102008000F000600200008F0C9FC0AF085FB00223A
:10201800724B09F0A9FC32003B0009F069FF00226D
:102028006F4B08F0FDFC040005980D000AF074FBE6
:1020380000226C4B09F098FC02000B0020002900DC
:1020480008F0EEFC040004980D000AF065FB00227D
:10205800654B09F089FC02000B002000290009F0FB
:1020680047FF040001980D000AF056FB00225B4B65
:1020780009F07AFC02000B003000390009F038FF43
:1020880002000B002000290009F028F807F022FDC3
:1020980032230D000400009AFF33D05C08F07EFC68
:1020A8000AF03AFB22002B0009F05EFC0022002314
:1020B80004000D00FEF7A6F9002801D10024002530
:1020C8000022464B2000290008F0AAFC0AF06CFB0D
:1020D800039907F0BFFD0AF01FFB0022434B08F0ED
:1020E8009FFC040002980D000AF016FB02000B008A
:1020F8002000290009F038FC07F0ECFC00223C4BDA
:1021080009F032FC07F088FD07B0F0BD002E60D161
:10211800009D3300FC3507222521A86AFEF728FE1A
:102128003300072226210700A86AFEF721FE3F0296
:10213800384308F0E7FB8221C90508F0F3F83300BB
:10214800022227210190A86AFEF712FE013008F04A
:10215800D9FB8221C90508F0E5F8042330211A00CB
:10216800061CA86AFEF704FE0027102801D1832761
:10217800FF054623009AFF33D35C0134002B05D1B9
:1021880007223221A86AFEF7F3FD0400311C381C2F
:1021980007F060FD019907F05DFD061CE00008F0FE
:1021A800FDFB011C301C07F055FD0AF0B5FA0600CE
:1021B800A86B0F000AF0B0FA00220D4B09F0D4FB0F
:1021C80002000B003000390008F088FF0022094B9C
:1021D80096E70120404297E70000104000002040A9
:1021E80000003C4000003040000034400000114036
:1021F80000408F4080842E4130B585B004000D002A
:10220800FFF73EFE002828D1012D13D0022D1BD048
:102218001720002D22D1FF232A000293FD3B0193B2
:1022280003330093FC3401333021A06AFEF703FE28
:1022380005B030BDFF230293FD3B019303330093A8
:102248002022FC340133EFE7FF230293FA3B00938B
:102258004022FC3401950133E6E714204042E7E7C9
:1022680070B50400FFF70CFEFC34802804D112215D
:10227800A06AFEF757FD70BD3F21A06AFEF752FD28
:102288003E210502A06AFEF74DFDADB2284380B29B
:10229800F1E710B5FFF7E4FF012318400F3800B24B
:1022A80010BD30B585B004000D00FFF7E9FDFF2330
:1022B800002803D16B1F5A1E9341FE330293052356
:1022C80001930023FC3400932A000121A06A023301
:1022D800FEF7B1FD05B030BD030010B50400FC33B6
:1022E800986A0121FEF711FE00212000FFF7D9FFAF
:1022F80010BD030010B50400FC33986A0121FEF7F5
:1023080004FE01212000FFF7CCFF10BDF0B501212C
:1023180085B00400FFF7C5FF00281DD1022526005F
:10232800FF27FC36029701950095020005234021FE
:10233800B06AFEF780FD00280ED101002000FFF7EB
:10234800C5FD002808D106230297019500930200D5
:102358003121B06AFEF76FFD05B0F0BDF0B50F0092
:102368002D3FFBB204000E0085B0C32B15D8012108
:10237800FFF797FFFC340500782E24D80521380094
:10238800FDF72AFFFF2320220293FD3B0193002340
:1023980002430093D2B205330DE0002917D1012181
:1023A800FFF77FFFFF23050032000293FD3B0193F7
:1023B8000333FC3400930B21A06AFEF73CFD28434D
:1023C80000B205B0F0BD30000A211E30D8E7112058
:1023D8004042F6E7F0B50600FC3605000023072268
:1023E800B06A85B00F1C2421FEF7C2FC0024A0426D
:1023F80004D101212800FFF754FF04009221381C62
:10240800C90507F08FFF0AF087F90022184B09F079
:10241800ABFA07F001FCFF2702230021019300918A
:102428000297020C0500D2B2B06A05330631FEF7F6
:1024380002FD0223002101930091029705332A0A25
:1024480019000443D2B2B06AFEF7F5FC022300215A
:1024580001930091029724B20443EAB2B06A0533AB
:102468000831FEF7E8FC24B2204300B205B0F0BD05
:102478000000A03FF0B50D0085B001210400160052
:102488000193FFF70EFF002855D12000FFF7F8FC55
:10249800802867D1236831005B6E20009847236845
:1024A8000290DF69320029002000019BB84700280C
:1024B80041D1029827000AF009F90022454B09F09A
:1024C80053FA07F0A9FBFC37BB6A01901868036848
:1024D8001B6A98470500BA6A1068516903689B68C7
:1024E8009847002829D02700FC37BB6A186803687A
:1024F8001B6A9847019030000AF0E8F80022364B32
:1025080009F032FA019B02900391581B08F046FA31
:102518000AF002F90022314B08F0E0FD0B0002003E
:102528000298039908F0DAFD0AF03EF92368786406
:102538001B6A2000984705B0F0BDBB6A186803689D
:10254800DB6C9847BB6A186803681B6A9847019B4D
:10255800401B8342BFD2236820001B6A984705208E
:102568004042E8E7002833D1236831005B6E200041
:10257800984723680290DF69320029002000019BF8
:10258800B8470028D7D105232700029AFC375343C0
:10259800134A9B180193BB6A186803681B6A98471B
:1025A8000500BA6A1068516903689B689847002853
:1025B80099D1BB6A18680368DB6C9847BB6A1868CE
:1025C80003681B6A9847019B401B8342E9D2C2E714
:1025D8000120C5E70000F83F0000204080842E411C
:1025E8008813000070B505000C00FFF749FC0028AF
:1025F80023D12E00FC360321B06AFEF786FC002C9E
:1026080015D0220C0621B06AD2B2FEF7ECFB220AE2
:102618000721B06AD2B2FEF7E6FB0821B06AE2B23F
:10262800FEF7E1FB03212800FFF73BFE04E028004A
:10263800FFF76CFE0028F5D070BD14204042FBE780
:1026480010B50400FFF71CFC00280FD12300FC3351
:10265800986A0221FEF759FC2000FFF757FE002870
:1026680003D105212000FFF71CFE10BD14204042B5
:10267800FBE730B585B004000D00FFF701FC8028AA
:1026880012D101212000FFF70CFEFF230293FD3B2E
:1026980001930023FC3400932A003921A06A0733F0
:1026A800FEF7C9FB05B030BD14204042FAE7F0B58B
:1026B80087B004000E001500FFF7E2FBC0B2002847
:1026C80031D16B1E072B3BD83300AA191978002982
:1026D80036D001339A42F9D1FF2302270293FB3BFC
:1026E80001970093FC3410222721A06AFEF7A3FB70
:1026F800FF2302930023019700936A1E3B00059075
:102708002721A06AD2B2FEF796FB059B03431FB2AE
:10271800002F05D12B0032002821A06AFEF740FBCC
:10272800380007B0F0BD802807D1012D08D8200057
:102738003178FFF79EFF0700F2E714277F42EFE7A3
:102748006927FBE7F0B50C0087B001210600FFF709
:10275800A8FD051E22D13000FFF792FBC0B28028E9
:102768001FD1052C36D9FF23022702930197009524
:10277800220AFC362021D2B2F83BB06AFEF75BFB96
:10278800FF23212102930590E2B201970095F83BBF
:10279800B06AFEF750FB059F07433DB2280007B01B
:1027A800F0BD002819D1FF230227E40802930197FE
:1027B8000095A2B2FC362521120AF83BB06AFEF752
:1027C8003AFBFF23262102930590E2B20197009578
:1027D800F83BDDE712256D42E0E70125FBE7000045
:1027E800F0B58BB005000E1C0892FFF749FB0028D6
:1027F80000D07BE09C23FC215B00EB5C8905301C4E
:10280800002B00D169E0FDF741FE002800D170E0FF
:10281800301C09F081FF384A384BFDF7E9FD0028E4
:1028280067D001212800FFF73CFD041E52D1301C5F
:1028380009F072FF02000B000020314908F04EFC3D
:102848000690079107F0E8F983B202211A0A2F00CF
:102858000593FF23019102930094FC37F83BB86A73
:10286800FEF7E9FA6B4602211A7DFF2301910293D4
:1028780000940990F83BB86A0131FEF7DCFA099B2D
:1028880003431CB29C235B00ED5C002D1FD105980F
:1028980008F084F809F040FF02000B000698079939
:1028A80009F026FB09F080FF8321C90507F03AFDEE
:1028B80007F09AF9FF230293FD3B01930095C2B2FA
:1028C8000899B86A0533FEF7B6FA044324B2002C17
:1028D80000D1BE6320000BB0F0BDFDF7D7FD002886
:1028E80007D00849301CFDF7BDFD98E71424644261
:1028F800F0E76524FBE7C0469DA1B8E34D62404080
:102908000040DF4000009643F0B587B004000D1C7E
:10291800FFF7B6FA002855D10021281CFDF798FDCD
:102928002E1C002800D02A4E2700FC37B86B09F06F
:10293800F3FE0022274B09F017F804900591301C8C
:1029480009F0EAFE02000B000498059908F068F8FF
:102958000022214BFDF74CFD002836D01F49281CCA
:10296800FDF780FD002830D020000121FFF799FCF9
:10297800041E24D19221301CC90507F0D3FC184944
:1029880007F0EAFA07F030F90226FF2301960293CE
:102998000094020A05000421D2B2FA3BB86AFEF795
:1029A8004AFAFF2301960293009404900521B86A1D
:1029B800EAB2F83BFEF73FFA049E064334B2200021
:1029C80007B0F0BD14246442F9E76624FBE7C0466B
:1029D8009A99193F0000E03F00406F4000004843CB
:1029E8000000FA46F7B50400FFF74AFA11230193ED
:1029F800002801D01B330193270000250521200062
:102A0800FC37FFF74EFCBB6A0A2118682E000368E2
:102A18005B6998470199B86AFEF784F90123184061
:102A2800A840ED180643F6B2082DF3D1190020008E
:102A3800FFF737FC3000FEBDF0B585B004000D008F
:102A4800FFF71EFA802849D1FF26FC34A06A0296B7
:102A5800002D22D00227062340223321019700931C
:102A6800FEF7E9F9019700270296009705003B0059
:102A78003A003321A06AFEF7DEF902230296019399
:102A88000097054319223B21A06A0533FEF7D3F9C5
:102A98002DB2284300B205B0F0BD022301930433E0
:102AA8002A0033210093FEF7C6F902230296019308
:102AB800009507002B0001223321A06AFEF7BBF91D
:102AC800022302960193009507431D223B21A06A29
:102AD8000533FEF7B0F93FB23843DBE71420404234
:102AE800D9E77FB50E0000210500FFF7DAFBFF23C9
:102AF800040028000293FA3B019302330093FC3050
:102B080032000121806AFEF796F90121044328006A
:102B1800FFF7C7FB24B2204300B204B070BDF7B57D
:102B280005000F000400FC35A86A16000193FDF7A4
:102B3800ABFFA96A08684969036842681B68984737
:102B4800A96A0868C969036842681B689847390018
:102B58002000FFF777F9002805D1A86AFDF7A7FF3D
:102B680002204042FEBD236820009B689847002849
:102B7800F8D12000FFF757F90028F3D12000FFF71C
:102B88007FF980281AD131002000FFF772FD002854
:102B9800E8D13C212000FFF7E1FB0028E2D120002A
:102BA8000199FFF7CFFD0028DCD101002000FFF7D5
:102BB80043FF0028D6D100236B64D3E7802120008F
:102BC800FFF78FFF0028DED0CCE710B50400FFF731
:102BD80057F9802806D1FF221221FC34A06AFEF79B
:102BE80002F910BD0028FCD1FC34FF223E21A06A66
:102BF800FEF7F9F8FF223F21F0E7F0B50F0087B0A4
:102C0800012105000592FFF74CFB041E52D1280054
:102C1800FFF736F92E000300FC36802852D1230036
:102C280007222421B06AFEF7A3F8FF2202230292AA
:102C38000193002841DDDB180093EF3A033340216C
:102C4800B06AFEF7F8F898235B00EB5C0400062BEB
:102C58000ED1F9330293FD3B0193002300933A0010
:102C68002221B06A0733FEF7E6F8044324B237643A
:102C78002800FFF7AAFF0027FF2302222E00029355
:102C880001920097FC363A000F21F83BB06AFEF734
:102C9800D2F8FF23022202930192009704433A00DC
:102CA8000D21B06AF83BFEF7C6F824B2044324B2FB
:102CB800BC4227D0200007B0F0BD042322000093B7
:102CC8000333BCE7B06A002B1CD10227FF33029301
:102CD800F93B22000093402101970133FEF7ABF83E
:102CE800041EE7D12800FFF770FF059B052B09D1CB
:102CF8003900B06AFEF709F928000599FFF7D1FAFB
:102D08000400D7E72B00FC330221986AF2E710B5DC
:102D180005220021FFF771FF10BD10B5029BCAB252
:102D2800D9B2FFF76AFF10BDF7B501910121040080
:102D38001500FFF7B6FA00284ED12000FFF7A0F8DB
:102D4800802850D106222000E9B2FFF756FF00285C
:102D580042D12700FC37BE6A0090F36901330FD1D6
:102D680098235B00E35C0130984007F017FE396B4D
:102D780007F0F2F8354907F0D5FA06F035FF00906C
:102D8800306803681B6A984707002600FC36B26A59
:102D98001068516903689B689847002806D0236823
:102DA8002A0020005B6A0199984715E0B36A186801
:102DB8000368DB6C9847B36AD96918684B1C0CD157
:102DC80003681B6A9847009BC01B9842DDD9200006
:102DD800FFF7FBFE06204042FEBD03689B6898474C
:102DE8000028D2D0F3E723680028D8D12900200092
:102DF8005B6E984705220600E9B22000FFF7FDFE4A
:102E08000028E9D10523734300932300FC339B6A10
:102E1800186803681B6A984707002600FC36B26AE0
:102E28001068516903689B6898470028B7D1B36A4E
:102E380018680368DB6C9847B36A186803681B6AEC
:102E48009847009BC01B8342E7D2C0E70000C842F6
:102E5800F0B589B006910121040017000793FFF728
:102E680020FA059005002000FFF70AF806008028E0
:102E780060D1FF2F00D9A2E02600FC3600230722EC
:102E88002421B06AFDF774FFFF2202230292019306
:102E9800002849DD4021DB180093AF3A0333B06ABC
:102EA800FDF7C9FF2000FFF790FEFF230221002055
:102EB800029301910090FAB2F83B2031B06AFDF715
:102EC800BAFFFF2305000221002002930191009020
:102ED8000200F83B0C31B06AFDF7ADFFFF23054354
:102EE80002210020059A029301912A43009015B20D
:102EF800F83B02000B31B06AFDF79DFF05432DB288
:102F08002600FC363B00069A0021B06AFDF748FF10
:102F18000321B06AFDF7F9FF03212000FFF7C1F98B
:102F2800284300B209B0F0BD0623402200931100E7
:102F38000133B4E70028E3D12000FFF746FE200064
:102F4800FF220223FC3002920193402F32D9DB1872
:102F58000093EF3A01334021806AFDF76CFF462366
:102F68002600FF33E35CFC36802B04D10021B06AD5
:102F7800FAB2FDF738FF012330210222B06AFDF7CB
:102F8800F7FE0238FD2301001940184203D1079AC1
:102F9800B06AFDF728FF402FB2D9FF230293FD3B0B
:102FA80001930533009380223521B06AFDF743FF72
:102FB8001E27A5E70623320000930133CBE7042040
:102FC8004042AFE7030010B50400FC339B6A064992
:102FD800186803689B6998472000FFF7F6FD236887
:102FE80020009B68984710BD410300007FB504008E
:102FF800FEF746FF802822D101212000FFF751F972
:1030080000281AD12000FFF7E0FDFF232500022643
:103018000293FB3B0093FC350196A0224021A86A4D
:103028000333FDF708FF002807D13100A86AFDF730
:103038006CFF07212000FFF734F904B070BD14209D
:103048004042FAE770B505000C00002C00D170BDB5
:103058002B00FC330021986AFDF764FE013CF4E77D
:10306800F0B5040085B015000391FEF709FF236849
:103078000290012120009B6D98470190002D04D0FB
:10308800A8422FD9431B01951D0027000523FC37B3
:103098001A001221B86AFDF76BFE202824D0029B83
:1030A8000026802B25D13A23FF33E35CB86AB3426C
:1030B80031D100262000FC300021039B019A806A50
:1030C800FDF70EFE002D03D029002000FFF7BAFF00
:1030D800A22300225B002000E254FFF776FD3000B7
:1030E80005B0F0BD0025D0E70726029B7642802B6D
:1030F800E0D0029B002BDDD1013302223021B86AD7
:10310800FDF736FEFD2302381842D3D10299B86A7A
:10311800FDF708FECEE706231C211A00FDF728FE5E
:103128000028C6D118267642C4E7192040427047C5
:1031380019204042704719204042704710B5036873
:103148000021DB68984710BD1920404270471920BC
:10315800404270471920404270471920404270474A
:10316800192040427047192040427047192084B006
:10317800404204B070470020704700000048704784
:103188000000C8C100207047002070477047704792
:103198001920404270477047034B41600360002389
:1031A800826083817047C046E4CB000870B5040094
:1031B80090204000225C0D00002A0FD12300FC3330
:1031C80059694900294359611D6A9B6929409942F7
:1031D80003D101232354A281A27370BD0126637B0E
:1031E800217BE318DA7B8E401000B043002D01D01C
:1031F8003243D0B20131C9B2D87321730829ECD156
:10320800FDF765FE637BE2180133D0736373002317
:103218002373E2E70B4A0C4B91698900C958816610
:10322800D16952698900C9589200C166D3580122F0
:10323800036701235B424367044B836703007C33C6
:103248001A807047DCD200081CD3000800093D0032
:103258000300092100225D3310B5197734315977FD
:1032680001001A70DA769A7701237C310B704A7064
:10327800014900F047F810BD00093D0037B50500C9
:10328800836F0400009101927C358B4204D16B4618
:103298002A889B889A420DD02000062269467830F9
:1032A80006F06CFB22007D3220002B781278A16F8B
:1032B80000F028F837BD704710B500F02DF910BDA3
:1032C80013B56B46DC1DD97153425A415242012352
:1032D8002100224000F052F9207816BD10B50248AE
:1032E800FFF798FF10BDC046A8020020044A03005B
:1032F80010B51068002B01D003F006F910BDC046C8
:1033080070000020F0B589B004000D001600059388
:10331800002800D1CCE0744BC06E1900039305F06F
:103328007BFA72490190A06E05F076FA70490700A1
:10333800206F05F071FA6F490290606F05F06CFA22
:10334800019B0490002B00D1B2E0002F00D1AFE028
:10335800029B002B00D1ABE03900019805F07AFA06
:1033680004990700029805F075FA010001903800E9
:1033780005F070FA6066002F00D199E0019B002BE0
:1033880000D195E0002800D192E0636F20600133FE
:103398005A425341584A5B4213408022D2029B183A
:1033A800A36182235B006360FFF7A0FF002342084C
:1033B800AA4218D982080833AA4214D9C208083385
:1033C800AA4210D902090833AA420CD94209083383
:1033D800AA4208D982090833AA4204D9C009083385
:1033E800A84200D90833E3613200331E07D0002316
:1033F800022E04D0731E5A1E93415A0001236361A2
:103408000723E362E023DB00E360059B22615A4265
:1034180053410025DB0123620399E06EA560A56294
:103428006562656305F0DEF93049A06E05F0DAF9EA
:103438002F49206F05F0D6F921694B425941236F76
:1034480001311A06120F042A02D82C489200155886
:103458000F202B4A03409B009B5803225B435A438F
:10346800D243022926D0E9680A401343EB60214978
:10347800606F05F0B7F92368224A93421ED1802273
:10348800214B5201196C11431964196C11400691B2
:103498000699196B0A431A631A6B1C490A401A6386
:1034A800200003F07DF94023226811680B43136064
:1034B80009B0F0BDE9685B000A40D6E7144A9342B8
:1034C800EED18022104BD201D96B1143D963D96B4D
:1034D800114007910799D96A0A43DA62DA6A0D49F5
:1034E8000A40DA62DCE7C0464CCF0008C8CE0008C4
:1034F8005CCE0008FCCD00080002FCFF380000206C
:103508005CCD00080030014000100240FFEFFFFFD3
:1035180000380040FFBFFFFF10B5041E12D003F0B3
:10352800B8F92368104A93420DD180220F4B5201FB
:10353800196B0A431A631A6B0D490A401A631A6C0D
:103548000A401A6410BD0B4A9342FBD18022074BF4
:10355800D201D96A0A43DA62DA6A07490A40DA62AA
:10356800DA6B0A40DA63EDE70030014000100240F0
:10357800FFEFFFFF00380040FFBFFFFFF7B50E0069
:1035880017000224002B29D00568009301F010F9D8
:103598000190AB682342FCD0FF23002E01D0337882
:1035A80001362B730123AA681A42FCD02B7B002F0B
:1035B80001D03B70013701F0FBF8009B013B009301
:1035C800019BC01AFA239B00984209D2009B002B4A
:1035D800DFD11C008023AA681A42FCD12000FEBD5E
:1035E8000124F7E78022064B10B51968054B89B20C
:1035F8004908C9020448C918120106F0BFF910BDEC
:10360800E075FF1F00F8FF072803002010B504002D
:10361800FFF7E8FF014B185D10BDC04628030020E6
:103628000022F0B51D4B87B01C680192023202924D
:10363800023203921B689BB25B08013B049301238F
:10364800059301F011FA00280BD18022144B1206C1
:103658001A6101A902A801F09DFA051E03D001F024
:1036680015FA07B0F0BDA4B20E4B6408E402E618E0
:103678000D4BE718BE42F2D80C4B3100EB18012075
:103688001A685B6801F042FA002802D1083608354A
:10369800F0E780231B05E618ECE7C046E075FF1F3E
:1036A8000020024000F8FF07FFFFFF072803002063
:1036B80010B5024B1954FFF7B3FF10BD28030020C3
:1036C80010B5040000F00CF80123237010BD0000B1
:1036D8000022024B1A605A601A727047280B0020A9
:1036E80007B58021094B4905DA6B0A43DA63DB6BBE
:1036F8000B400193019B02F0C3FB054B1A69D205ED
:1037080001D5044A9A61044A9A6107BD0010024033
:1037180000700040000101002B000100044B10B5AF
:103728001B68002B02D0034A1068984710BDC0469A
:10373800440B0020400B0020044B10B51B68002BE5
:1037480002D0034A1068984710BDC0463C0B0020C1
:10375800380B002010B5044C200002F0EFFF2000C9
:1037680003F00DF810BDC04600000020034B10B553
:103778001B68002B01D00020984710BD340B002097
:1037880000207047038BC08A181A7047C28A018BC1
:103798000300914204D90169885C0132DA827047DA
:1037A80001204042FBE7C38A028B9A4202D9026990
:1037B800D05C704701204042FBE7836D10B51800CC
:1037C800D4308268002A03D000225A84C3689847FC
:1037D80010BD836810B50400002B02D0032201003D
:1037E8009847200010BD70B50400283000F0C2FCD6
:1037F800E069002803D005F091FF0023E36100256C
:1038080020692584A84202D005F088FF2561A58299
:1038180070BD000010B50400064B0360FFF7E3FF1E
:103828002000D430FFF7D5FF2000C430FFF7D1FFC8
:10383800200010BD8CCC00080122431DDA7791408E
:10384800002381764384704770B5838A05000C0095
:103858008B420AD2202900D220242100286906F0B0
:1038680013F8002802D02861AC8270BDFEE7F7B5D6
:10387800846D05002600C436B368876E002B1AD005
:10388800E28A238B9A4216D339002000FFF7DCFF27
:1038980029003A002069743106F070F80023E382A9
:1038A800B36827830197002B01D109F009F830008C
:1038B800F36801A99847F7BD802370B5DB000500C0
:1038C8000C00994211D8038C99420BD90E0020297B
:1038D80000D220263100E86905F0D6FF002803D081
:1038E800E8612E84200070BDFEE70024FAE713B5D6
:1038F8006B46D971431DDB7F0400002B0FD0418C30
:103908000131FFF7D9FF002808D06B460120D9798B
:10391800E269638CD154638C0133638416BD6B46B2
:103928000122D91D283000F030FC43425841F5E708
:1039380070B5431DDB7F04000E001500002B13D06B
:10394800418C8918FFF7B8FF002802D1002528000C
:1039580070BD638CE0692A00C018310006F00EF8CB
:10396800638C5B196384F2E792B2283000F00DFC97
:103978000028EBD1EBE70300C06910B5002803D09D
:1039880000211A8C05F0B9FF10BD70B5AA230400F8
:1039980000291BD1A3652300BE331B780425012B06
:1039A80012D12000638CA17EE269283000F06CFC03
:1039B800031CA84200D92B1C20005DB2FFF7DBFFD7
:1039C800002363840534E377E8B270BD1B02E1E7A6
:1039D800F0B585B002930AAB1F780BAB1B780400D7
:1039E80003930300BE331B780E0015000193012BCF
:1039F8003BD111007600FFF727FFF6B2002F1BD04E
:103A0800019A631DDA770023A67663843B1C032F93
:103A180000D90323013BDFB2FF0002992368F94074
:103A28001B682000C9B2083F98473B000833F4D10F
:103A380000212000FFF7A9FF039B002B12D1AA3316
:103A48002000A36531002B002269283000F0B7FB65
:103A580043425841002340420540E3822583280021
:103A680005B0F0BDAA231B02EAE70025F7E707B572
:103A7800019300230093FFF7ABFF0EBD10B50123A0
:103A8800FFF7F5FF10BD10B50121FFF77EFF10BD50
:103A9800002110B50400C18201830069884202D068
:103AA800A28A05F02AFF002320006384FFF763FF42
:103AB80010BD0000F0B504000F25083489B00600D9
:103AC800E06F05F06FFC002105F0B0FCE36F1A0908
:103AD8002A40042A00D972E03C49920051583C4CD3
:103AE8002B409B001A590B6913409A425DD08836C7
:103AF800306805F057FC012105F098FC3368019304
:103B08001B092B400293042B5CD8019B2B409B0084
:103B18001B59053503930920FA21029A2B4B920071
:103B2800D758039B2B4CBB62A36889000493666833
:103B380001367043FCF7C6FA0022049B0593A3687C
:103B480004930599049B994231D20599049BF31A71
:103B58005B18D218049B05939042F0D80920FA21EB
:103B6800039B8900BB61A3680693666801367043AE
:103B7800FCF7A8FA0022069B0793A3680693079907
:103B8800069B994217D20799069BF31A5B18D2181D
:103B9800069B07939042F0D8013D002DBBD10198B8
:103BA80005F000FC290005F041FC09B0F0BD059BBB
:103BB80004995B1ACDE7079B06995B1AE7E7002390
:103BC8001B69FFDE00239B62FBE7C046380000202C
:103BD8005CCD000810E000E0F7B50026070001936F
:103BE800031D8676066146610683C6610662D43780
:103BF800D867BB6804000D000092B34205D00322C9
:103C0800390038009847BE60FE600022631DDA77ED
:103C1800A61D6B00013DF37727006B425D41230031
:103C2800009ABF33BE373D701A70019A20005A704F
:103C38002834FFF73FFFF37F01222000074900F0F7
:103C4800F7F93B78002B07D12000054900F074FBF9
:103C58002000044900F066FBF7BDC046A0860100BD
:103C6800C33700087738000810B50A00002301217F
:103C7800FFF7B2FF10BD10B50C220021040005F0BB
:103C88003CFE00232000E36010BD10B50C2200218B
:103C9800040005F032FE00232000E36010BD0000A0
:103CA800FA2370B5002504009B0083600C4B456027
:103CB8000360C430FFF7DFFF2000D430FFF7E5FFD3
:103CC800200029009C22283005F017FE2200054B11
:103CD8000832D96D2000D1679B6D8032136070BDAA
:103CE8008CCC00081CD3000810B50248FFF7D8FF99
:103CF80010BDC046480B002010B50248FFF78AFDEA
:103D080010BDC046480B0020124A030010B590426F
:103D180017D1202002F026FC002811D1C0220E4B1A
:103D280092015B6D134080225201934206D080229B
:103D3800920193420CD0002B07D0FEE7074B18687E
:103D480010BD074A00209342FAD102F0DDFBF7E7E5
:103D58000448F5E7005400400010024070000020BD
:103D6800005800400024F400F0B5A7B01491149A4C
:103D78009A49D20003005058984204D188184068E4
:103D8800002800D027E1964D58088B50401919009B
:103D9800FCF798F91C23149A924C5A4311590600BF
:103DA800480840191592FCF78DF9159B0390E41803
:103DB800E28A238B0D92A17E0D98228A16931218FF
:103DC800CB1C734316981C92A28971431218323A7D
:103DD800D21A0492D2430498D21710400490E28970
:103DE8000D98F318121A053AFF3AD31A0593DB43D4
:103DF800059ADB171A4028000E9161680592FCF7B6
:103E080061F9A1681D902800FCF75CF90E9A73000F
:103E180032339B181A9373420C931A9B0025F71898
:103E2800039B1E901793012010231195189340426D
:103E380016992A078C4624920D9AEBB2624419927D
:103E48001999039A1B93511A7A008A1A2092002210
:103E58001A9B0B92FB1A13931C9A13998A4200D946
:103E6800A2E00B9A24990A43239200220A9209920B
:103E7800049A09998A4200D988E0059A8A4200D2B0
:103E880084E0189A1B998A4200D17FE0119A013286
:103E98001192072A00D99EE0628A0A991F92239AF2
:103EA8000A4322920E9A1599BA1A0292199AD219AD
:103EB8001292209A1092002208924A4A5218259289
:103EC8000E99029A52181F9991424CD2029A323A8C
:103ED8009208964247D22299089A06970A43219255
:103EE800039A1299BA1A5218109901928C46002115
:103EF8000791019A039989181E9A8A421FD81D9A18
:103F08008A421CD3259A918A069A914217D89642DA
:103F180015D2019A0F92002A01DA62460F920F9A7F
:103F280017998A420BD2219A07982C491043149A60
:103F3800D20089181B9A486018920F9A1792019A12
:103F48000799D218013101920C9AFF310791614605
:103F5800944661448C468021069A4902D2180692FA
:103F6800079A8A42C5D10C99089A8C460132089260
:103F7800029A0899D2180292109A62441092129AE0
:103F8800D218129280225200914299D1099A0A9924
:103F9800D2180992802252028A180A9280220A991B
:103FA8005203914200D063E7802149038C46139A5B
:103FB800D21813920B9A62440B9280220B995204E6
:103FC800914200D048E70C9B01359B1B0C93BF190D
:103FD800102D00D02CE727B0F0BDC046340C0020CF
:103FE80000CA9A3BB0CC00080E4A030010B59142B3
:103FF80012D90D4A914206D80068FFF785FE0121C3
:10400800FFF7B2FE10BD094A00209142FAD818689D
:10401800FFF77AFE0221F3E70068FFF775FE00213B
:10402800EEE7C046A0860100801A060040420F0055
:10403800F0B587B0041E01910292039300D187E086
:10404800444EC06D310004F0E7FB434F05003900D2
:10405800206E04F0E1FB0100002D79D0002877D014
:10406800280004F0F7FB2060002871D03B4B251D89
:1040780098424ED180223A4B9203D96B1143D963AF
:10408800D96B114004910499D96A0A43DA62DA6A51
:1040980034490A40DA622300172264331A70324B1B
:1040A8001D603900206E04F09DFB3100E06D04F0C6
:1040B80099FB2368019963602000FFF795FF039B34
:1040C8000022E360029BA06023612300A261626179
:1040D80097331B782600591E8B41DB04236223008B
:1040E80098331B780020591E8B415B0463622300C0
:1040F80045331A7064360221305600F05FFB002009
:10410800305600F085FB280000F010FF00281BD077
:10411800FEE7164B9842C4D18022114BD203D96BCB
:104128001143D963D96B114005910599D96A0A439E
:10413800DA62DA6A0E490A40DA6223001822643326
:104148001A70094B5D60ACE70223A06695342370B2
:1041580007B0F0BD7CD200081CD200080054004013
:1041680000100240FFFFDFFF2C0C00200058004029
:10417800FFFFBFFF10B5041D6430007840B200F0A7
:1041880053FB200000F029FF10BD70B50600140095
:104198000120202A0AD835000022943593B29C4287
:1041A80005D800202A781219D2B22A7070BD2B784F
:1041B800885C9B18F318743318700132EEE7F0B579
:1041C800060087B003910492059300F0F1FA0024E9
:1041D800376B0290351D059B2800049A03990097B8
:1041E80001F004F80300022807D100F0E1FA029B6D
:1041F800C41A642CEED9062023E00420002B20D119
:1042080000F0D6FA0600280001F033FE202809D075
:10421800632C07D800F0CCFA841B280001F02DFE8F
:104228000028F0D0280001F028FE03000520632CA8
:1042380007D89A0605D402385A0702D45A1E934161
:10424800980007B0F0BD10B564230400043000F0F6
:10425800DFFE02280BD0032802D000280DD110BDA4
:10426800453423780220202BF9D00330F7E7453472
:104278002378202BF3D00620F1E745342378022059
:10428800202BECD00018EAE7F0B587B005001F0036
:104298000291059200F08CFA0390002F06D10122BA
:1042A80028000299FFF7CFFF07B0F0BD00242B6B61
:1042B8000493049B2E1D009330003B00059A02993D
:1042C80000F03EFF0300022807D100F071FA039BBB
:1042D800C41A642CEDD90620E6E70420002BE3D1AC
:1042E80000F066FA0500300001F0C3FD202809D06F
:1042F800632C07D800F05CFA441B300001F0BDFDC8
:104308000028F0D0300001F0B8FD03000520632C30
:10431800CAD89A06C8D402385A07C5D45A1E934137
:104328009800C1E710B5002805D0002903D0C16660
:10433800043001F08BF810BD10B5002805D0002915
:1043480003D00167043001F081F810BDF8B506000C
:104358009136337805000F00041F012B09D1A36E95
:10436800002B06D0E36E2000984702233370002309
:10437800A3660023012F12D133702E00226F9036CE
:104388009A4202D020003370904729008023327867
:104398002800D2B270319B0400F07EFFF8BD0122E4
:1043A800A3663270A36E28007433E11880235B047F
:1043B80000F0E0FFF2E770B50600913633780400AC
:1043C800051F012B05D1AB6E002B02D02800EB6E28
:1043D80098470223337000232000AB6601F036F8BB
:1043E80070BD426E031F10B51F2A02DC9A6E01329F
:1043F8009A66020091321178CAB2012906D1996EE3
:104408008023703141185B0400F0B4FF10BD002315
:10441800903003707047030010B592331B78002B5F
:1044280001D101F013F810BD044B10B51C68200031
:1044380001F020F8200001F02DFB10BD2C0C00200D
:10444800044B10B55C68200001F014F8200001F05E
:1044580021FB10BD2C0C002010B50400081C08F02E
:104468005BF9044A044B06F039FE08F09DF9A06197
:1044780010BDC0469A9999999999B93F70B50400A9
:104488000E001500017B8068FFF7D6F9A06831009F
:1044980003681B689847A068290A03681B6898473F
:1044A800A068E9B203681B689847A068FFF7EBFAB1
:1044B80070BD802210B500211202FFF7DFFF4342D2
:1044C8005841C0B210BD70B504000D00017B806872
:1044D800FFF7B2F9A068290003681B689847002114
:1044E800A068FFF752FA0222217BA068FFF7C6FAFC
:1044F800A06803681B6998470300051E09D0A068D7
:1045080003685B699847C5B2A06803685B69984708
:10451800C3B22D02581980B270BD000070B50C00EE
:10452800017000210500FFF7CEFF0200054B2800AF
:104538001A40E300E401234300211A43FFF79EFFDA
:1045480070BDC04607F8000010B541700021040096
:10455800FFF7B9FF072302009A43637892B200215C
:1045680020001A43FFF78AFF10BD000010B54180F4
:1045780000210400FFF7A7FF0200234B00211A4087
:10458800638820001A43FFF779FF8022638852016D
:1045980093422ED00BD8002B16D0802212019342C2
:1045A8001DD005212000E289FFF768FF10BDC0215A
:1045B80049018B42F5D1154BE281E3618023DB058C
:1045C8002362FA23DB0108E0A023DB01E381104B1F
:1045D800E361104B2362FA231B01E384E1E7A02384
:1045E8009B01E3810C4BE3610C4B2362FA235B01D3
:1045F800F3E780239B01E381094BE361FE239B05DD
:104608002362FA239B01E8E7FFE70000000020414E
:1046180000004842CDCCCC3E0000C841CDCC4C3F38
:104628000000A04110B5818000210400FFF74BFF76
:104638000200044B00211A40A38820001A43FFF708
:104648001DFF10BDFFDF000070B50400FFF731FF4C
:10465800051E18D003212000FFF760FF0721200066
:10466800FFF772FFC02120004901FFF77FFF80217B
:1046780020008901FFF7D6FFFE239B05A3610023D5
:1046880063610023A384280070BD0000F8B50421ED
:104698000400FFF718FF05B20020A31DDB7F83424B
:1046A80018D0606908F038F80022114B07F05CF95F
:1046B8000600E0890F0007F0D9FF02000B00300068
:1046C800390007F051F900220A4B07F04DF907F0BD
:1046D80091FF00B2281A06F015F9051CA169E069D6
:1046E80005F020FE011C281C05F036FCF8BDC0466C
:1046F800000059400000303F70B500210400FFF76A
:10470800E2FE002102002000FFF7B8FE0225290082
:104718002000FFF7D8FE2842F9D070BD704700008E
:1047280070B5104B05001978002901D1012070BD22
:10473800FA208000FBF7C6FC0B4C01002068FBF751
:10474800C1FC00F081F8041EF0D1032DEED8020060
:1047580001202900404200F031F8044B20001D6080
:10476800E5E7C0462C000020700000203000002043
:104778008023084A5B00116810B50B4300201360C2
:10478800FFF7CEFF041E03D1FFF7C8FF200010BDBE
:104798000124FBE700200240034A044B11681B7800
:1047A8005B1813607047C0464C0C00202C0000209A
:1047B800014B18687047C0464C0C002010B5FF2408
:1047C80003220B0021000240D20091409B012340AC
:1047D800C943934000280ADBC0240B4A80088000A4
:1047E8008018A40002590A401343035110BD0F2238
:1047F80010400838054A800880008018C2691140B6
:104808001943C161F2E7C04600E100E000ED00E0B5
:10481800002805DB1F2318401E3B8340014A136014
:104828007047C04600E100E0002809DB1F2318405C
:104838001E3B8340034AD367BFF34F8FBFF36F8F8D
:104848007047C04604E100E08022431E5204012064
:1048580093420DD2C021074A07485360036A0906EC
:104868001B021B0A0B43036200200723906013609E
:104878007047C04610E000E000ED00E0002807DBCC
:104888001F23C02218401E3B8340024952008B5010
:104898007047C04600E100E0704710B5FFF7FCFF25
:1048A80010BD704710B5041E01D1012010BD437F13
:1048B800DAB2002B02D10277FFF7F3FF0223637706
:1048C8002379002B1CD118212368124A5A619A684F
:1048D8008A439A6062792368002A19D1013A6021D3
:1048E8001A619A6800208A4361690A4380219A60A4
:1048F8009A688A43A1690A439A6001236377D5E7D6
:104908002000E268A16800F007F80028E2D0CCE7B0
:104918002269E4E7B71DC10430B51F230400012054
:10492800013B21D30D00DD400542F9D0102A14D0F7
:1049380005D8002A08D00120082A12D030BD01204D
:10494800182AFBD1062BF9D8206841611821836801
:104958008B43134383600020F0E70120072BF3D932
:10496800ECE70F2BF0D9E9E70120102AE6D0E5D8CB
:10497800002AE3D1E8E70000F0B5002808D0841D3C
:10498800E37F411D022B05D00423C3630023CB77AB
:104998000120F0BD0E250268466C1368AB43136016
:1049A8003368104D2B403360012316689E43166010
:1049B800026C1B331A401B3B93400B4E77683B43FA
:1049C8007360C26C836C5A60036D002B05D01A6843
:1049D8002A401A60436D826D5A6001230020E377F4
:1049E800C877D6E7FFFEFFFF00000240F8B5811D3B
:1049F800CB7F022B03D00423C3630120F8BD0E2410
:104A080002681C271368456CA343136001231468CC
:104A18009C4314602A68104C22402A60026C0F4D97
:104A28003A4093406E6833436B60C26C836C5A6043
:104A3800036D002B05D01A6822401A60436D826D01
:104A48005A6001230022CB77431DDA77836B9342A8
:104A580000D098470020D1E7FFFEFFFF000002408A
:104A68000630C07FC0B270470020054B5A698242A9
:104A780005DA044A9A60044A9A605869C00F704778
:104A88000020024023016745AB89EFCD8022044B0B
:104A9800120659690A435A615869C043C00F7047E2
:104AA80000200240F8B505008027FFF781FE7F024D
:104AB8004619124C23693B420BD12269104B110055
:104AC8001048194020611A4209D00F4B0120596043
:104AD80004E0FFF76DFEB042EBD30320F8BDFFF70B
:104AE80067FE80264519F6022369180030403342D4
:104AF800F4D0FFF75DFEA842F6D3EEE700200240AF
:104B0800FA830000FB830000500C0020F7B5174E15
:104B18000193337804000D0002200092012B1ED06F
:104B28000123FA203370002380007360FFF7BAFF77
:104B3800002812D10E4F012C12D17B6923437B61CF
:104B4800009B2B60BFF36F8F019B6B60FA20800086
:104B5800FFF7A8FF7B69A3437B6100233370FEBD89
:104B68002800009907F0BCFEF0E7C046500C002072
:104B780000200240044A05485369C900034019430C
:104B8800034B0B43536170470020024007E0FFFFCF
:104B980002000100F7B5214F05003B78022401917E
:104BA800012B1AD00123FA203B70002380007B6080
:104BB800FFF778FF041E0ED104236B602B68042BCB
:104BC8000DD1FA20164A174B516980000B435361E7
:104BD800FFF768FF040000233B702000FEBD01239F
:104BE800019A5B421360AE68AB68EA689B18B342EF
:104BF8000CD968683100FFF7BDFFFA208000FFF785
:104C080051FF002808D00400019B1E600221044ABD
:104C180053698B435361DEE70136E5E7500C00200A
:104C280000200240040001000023F0B585B00A68A6
:104C38001400DC4001D105B0F0BD012514009D40F1
:104C48002C4000942A427AD04A685E009446032297
:104C58006446224001920322B240019CD243013CA7
:104C6800012C6ED8CC688768B44017403C438460F8
:104C780044680127AC432500644624093C409C4015
:104C88002C4344608C68C568B44015402C43C4600C
:104C9800019C022C5FD004682240019CB44014435C
:104CA8000460C0246246A402224248D0344A032544
:104CB8009C08A400A4180F221D40ED00AA40A027BC
:104CC800266EFF0596430022B8420CD02D4F0132C4
:104CD800B84208D02C4F0132B84204D02B4F0332CF
:104CE800B84200D1023AAA40674632432266244CB1
:104CF800009A2668009DD2433543FF0201D435004F
:104D08001540674625606668009D3543BF0201D49B
:104D180035001540674665601D4C009DE66F3543BC
:104D2800BF0301D4350015406746E567194C009E5E
:104D3800E56F2E43FF0301D415402E00E6670133CB
:104D480075E7019C032CA6D08C68C568B440154053
:104D58002C43C4609FE707250F271D40AD00AF40D7
:104D6800DC08A40004190294246A03972700039C12
:104D7800A7433C000F69AF402743029C27628AE79C
:104D8800001802400004005000080050000C0050B9
:104D9800081802400418024070B5084D0400EB687A
:104DA800184202D0E86003F075FB2B69234203D058
:104DB80020002C6103F072FB70BDC0460018024051
:104DC80003689A69920701D500229A6201229969BB
:104DD800114202D199690A439A61704730B5039C20
:104DE80000682343120489051A43890D054B456859
:104DF8000A43640D234352009D4352082A434260EC
:104E080030BDC046FF63FF0310B5436B174C0AB2B1
:104E1800A34202D0164CA34212D1B823002A0ADBBF
:104E2800283B102907D0303B202904D00B00403BF9
:104E38005A4253419B0101680A6813430B6010BD35
:104E480000239A4200DAB833CA0701D5F222134385
:104E58008A0701D5F4221343102902D19022134363
:104E6800E9E72029E7D10B43E5E7C0469559000853
:104E7800295C0008002310B5CA0708D50300413390
:104E88001A7828231A40CA33282A00D1B03B8A0747
:104E980008D502002824413212782240A2420BD1C0
:104EA8004422134309B2002901DAB82213430168E6
:104EB8000A689A430A6010BDF422F2E7C36AAA2B73
:104EC80002D10023C3627047AA23C26A1B029A4216
:104ED800F9D180239B04F5E7F8B504000E0017000C
:104EE8001D002268936933409B1B59424B41BB42CA
:104EF80001D0002017E06B1CF4D0FFF759FC069B8B
:104F0800C01AA84201D8002DEBD12022636C0120E1
:104F180013436364230041331A7022000023423292
:104F2800403413702370F8BD7047000070B504005A
:104F38000120002C3FD0250041352B78DAB2002B18
:104F480005D12300403320001A70FFF7EDFF24231A
:104F580001212B702368E0681A68A6688A431A60E2
:104F68001A4962680A401A619A6819490A409A609F
:104F7800012821D18022120232439A605868154ACA
:104F880002435A60DA6800200A40DA6061692269DF
:104F98000A43A16909020A43DA60216AE2690A43FD
:104FA8001A60012219680A431A60202360642B7072
:104FB80020634234207070BD8422120232439A600A
:104FC8000228DBD1802212015A60D7E7FFFFFFF0E9
:104FD800FF7FFFFF00800002704770B504000120CA
:104FE800002C13D02500242341352B702268136828
:104FF800834313602000FFF7EFFF00202300606465
:1050080042332870206340341870207070BD00004F
:10501800F0B51D00002389B00793030041330592C2
:1050280003931B7804000220202B59D123689E6922
:10503800802332001B021A401E4251D12300403304
:105048001E78012E4CD001261E7024230398890552
:1050580003708B0D62640493E368012B29D1374BED
:10506800049A134322685360FFF7A2FB0290226858
:10507800936992695B0912093340324013431BD08C
:10508800236810279B691A003A403B422AD1029BA9
:105098002021009320002B00FFF71EFF00281ED1BF
:1050A80020232268D36122004034413213702070DB
:1050B80016E0A0239B01D3E76B1CD8D0FFF778FB41
:1050C800029BC01AA84201D8002DD0D12023039AF0
:1050D8004034137062681343636000232370012017
:1050E80009B0F0BD029B0022009320212B00200074
:1050F800FFF7F2FE021EF2D123680598DF61202730
:10510800DF61079981420FD180215868C9010143A5
:105118005960029B3900009320002B00FFF7DCFE4A
:105128000028DCD12368DF61079B059A01330793C8
:10513800079B934200D28FE7C8E7C04600200002D1
:10514800F0B50E00010085B0039341310D780400DD
:10515800170002200A9A202D3DD1250040352878D5
:10516800844663460220012B35D001382870203050
:105178000870113848700021039B61646385194BDE
:10518800E2626363638D6762FF2B26D9FF23802762
:1051980023857F04236B112B06D1AA2A04D0AA21C8
:1051A800002309028A4207D12000FFF787FE638D9A
:1051B800FF2B00D8E76A0C4B31000026228D200017
:1051C800D2B200933B00FFF709FE200001212E70A8
:1051D800FFF71AFE300005B0F0BD638DE76A23853E
:1051E800D8E7C0466958000800200080F0B50E00D6
:1051F800010085B0039341310D78040017000220A7
:105208000A9A202D3DD125004035287884466346EA
:105218000220012B35D0013828702130087012384F
:1052280048700021039B61646385194BE2626363E4
:10523800638D6762FF2B26D9FF23802723857F0490
:10524800236B122B06D1AA2A04D0AA210023090213
:105258008A4207D12000FFF731FE638DFF2B00D86B
:10526800E76A0C4B31000026228D2000D2B2009351
:105278003B00FFF7B3FD200002212E70FFF7C4FDAD
:10528800300005B0F0BD638DE76A2385D8E7C046D6
:105298006958000800240080F0B5060085B0029225
:1052A8002822019103934136337804001340934236
:1052B80002D0012005B0F0BD019B002B02D0029B5B
:1052C800002B03D180239B006364F2E72500254966
:1052D8004035FFF7CFFD2B780220012BEAD00123C0
:1052E8002B703378204F2A2B16D101002000FFF7AE
:1052F800C1FD23681A6812040ED51A68E06B3A409B
:105308001A60002808D0194B8363FFF76FFB002849
:1053180002D0E06B836B9847292333702300202247
:1053280042331A700023636423685A683A405A600B
:10533800019A6262029A6285628D2285039AE2620C
:105348000B4A996962639A69D20303D5082211420C
:1053580000D0DA610026200002492E70FFF754FDC4
:105368003000A7E701800000FF7FFFFF5D5E0008B7
:10537800395D0008F7B507000092282201934137EC
:105388003B7804000D001340934201D00120FEBD7C
:10539800002902D0009B002B03D180239B0063646B
:1053A800F4E7260024494036FFF764FD33780220ED
:1053B800012BECD0012131703B78292B16D120002C
:1053C800FFF758FD23681A6852040FD51A681B495D
:1053D800A06B0A401A60002808D0194B8363FFF7B6
:1053E80005FB002802D0A06B836B98472A233B70EB
:1053F8002300202242331A70002363642368114972
:105408005A680A405A60009A65626285628D2285F0
:10541800019AE2620C4A996962639A69D20303D4D9
:105428000822114200D0DA610025200002493570B7
:10543800FFF7EAFC2800AAE702800000FFBFFFFF91
:105448005D5E0008FF7FFFFF395D0008020010B5B0
:10545800413211780223202908D180212633137084
:10546800034B09024363FFF7CFFC0023180010BD6C
:10547800395D0008036810B599691A68436B002BF9
:1054880000D0984710BD70477047030070B50025DD
:105498002022060042331D70013B19780400403673
:1054A8001A7021290AD11123456303632039FFF7B4
:1054B800E1FC20003570FFF7E6FF70BD122345635D
:1054C80003630221FFF7D6FC20003570FFF7DCFFED
:1054D800F3E700000100036810B5040000201A6813
:1054E80042310870510418D51A6818490A401A60E0
:1054F800230041331A78292A14D1013A1A7021233A
:10550800200023630121FFF7B5FC2300002240336C
:1055180020001A70FEF77BFF10BD1204E8D51A6848
:105528000B49E3E71A782A2AF6D1023A1A7022239D
:10553800200023630221FFF79DFC23000022403353
:1055480020001A70FEF74DFFE6E7C046FFBFFFFFD9
:10555800FF7FFFFF0300F7B5282241331B780400C3
:105568000168134093423CD1FE278D698E698B6890
:10557800CA68ED030192C268360CED0F3E40022A5C
:1055880025D19B059A0D5B0F734018000626304005
:10559800334210D1A36C0133A364A36C022B09D14D
:1055A8009B19A064CB6123004033187029002000A8
:1055B800FEF7CCFEF7BD802120000902FFF75AFC58
:1055C8002300002240331A70019A3A40EEE7802106
:1055D8000902FFF74FFC2300002240331A70320003
:1055E800E4E70823CB61002340342370E2E700009E
:1055F800184B10B5C3620023020003630400202087
:1056080041321070537004226363114212D0236830
:10561800596A636A1970636A01336362238D002BC8
:1056280008D0013B2385638D013B9BB26385636C86
:105638001A43626420000849FFF71CFC1022236803
:105648002000DA612300002240331A70FEF7B3FE0F
:1056580010BDC0460000FFFF038000007047704780
:1056680070470100020010B541310C780023403228
:10567800602C06D1403C0C7003631370FFF7F0FFF9
:1056880010BD03631370FEF7C6FEF9E770B5050099
:1056980000220400413542302B7802703148283B03
:1056A800E0626285626C0A436264022B2BD8032194
:1056B8002000FFF7DFFB28232B702B4BA06B6363C5
:1056C800236B00282ED01A001021113A8A4329D1C1
:1056D80023681A68520403D51A6824490A401A60D4
:1056E800FFF7BEF9012819D0A06B214B0022836374
:1056F800230040331A70FFF779F9002811D0A06B06
:10570800836B98470DE020001A49FFF7B3FB2B780D
:10571800602B01D020232B700023CFE72000FFF758
:10572800A0FF70BDE06B0028F8D01022123B934315
:10573800F4D123681A68120403D51A680E490A407E
:105748001A60FFF78DF90128E8D0E06B084B0022BA
:105758008363230040331A70FFF748F90028E0D02C
:10576800E06BCDE70000FFFF395D0008FFBFFFFFDA
:105778005D5E000803800000FF7FFFFFF7B5202370
:10578800050006684135F3612B7804000F00212BD2
:105798002BD10121FFF76EFB1123236373682E4A77
:1057A80013407360002363632C4BE36210231F4292
:1057B80004D0F361626C0C3B134363642B78602B59
:1057C80005D17F0703D5736ADBB20193019B2000E3
:1057D800FFF7F6FA636C2A78602A01D0002B0CD008
:1057E8002000616CFFF752FFF7BD2B78222BD5D133
:1057F8000221FFF73FFB1223CFE72A78212A13D192
:10580800013A2A7022002100236342321078403185
:1058180013700B70402803D12000FFF71FFFE3E748
:105828002000FFF730FEDFE72A78222ADCD1023A8F
:105838002A7022002100236342321078403113700D
:105848000B70402803D12000FFF709FFCCE72000A8
:10585800FFF71AFEC8E7C04600E800FE0000FFFF99
:10586800F7B5070040373B7804000D00160002200A
:10587800012B1AD001233B700F33194216D01A425C
:1058880014D022682000D361626C0C3B134363641C
:10589800FFF796FA20231D4205D01E4203D02900A7
:1058A8002000FFF76BFF00203870FEBD04231D4267
:1058B80011D01E420FD09D4323685A6A636A1A703A
:1058C800636A01336362238D013B2385638D013B4A
:1058D8009BB26385DEE702231D4206D01E4204D038
:1058E800636A226819789162EBE740232A0633D568
:1058F8001E4231D0628D2368002A21D0208D0028D5
:105908001ED15968638D8905890DFF2B08D9FF229F
:10591800802322855B0400902000FFF75FFAB9E737
:10592800628DE36A92B29C46174B2285D2B29C459F
:1059380002D0E36A0090EFE7802300909B04EBE736
:105948005B689B0103D42000FFF79FFDA2E740217D
:105958002000FFF79BFE9DE71D429BD01E4200D111
:1059680098E7638D002BF2D123685A68920100D51D
:1059780090E7E16A044A9142E5D180225968D20150
:105988000A435A6086E7C0460000FFFFF7B50600E5
:105998004036337804000220012B15D001233370E0
:1059A8000F33194211D01A420FD022682000D36158
:1059B800626C0C3B134320216364FFF725FA200037
:1059C800FFF7FEF900203070FEBD4023080641D5E0
:1059D8001A423FD025682A689A432A60638D002BB3
:1059E8002CD06968638D8905890DFF2B18D9FF2391
:1059F800238580235B040020278D0090FAB22000C5
:105A0800FFF7ECF9638DDB1B9BB263854134237888
:105A18002A68222B0FD180231B0213432B60D1E766
:105A2800638DE26A23851A4B9A4201D0E36AE2E762
:105A380080239B04DFE78023DB01EEE76B689B0193
:105A480003D42000FFF721FDBCE740212000FFF729
:105A58001DFEB7E7194212D01A4210D0638D002BF1
:105A6800F3D1226853689B01ACD4E16A084B994290
:105A7800E7D180235168DB010B435360A2E7202361
:105A880019429FD01A429DD02000FFF777FE99E770
:105A98000000FFFF70B5802503686D0099691A68DA
:105AA800294206D0140604D50124466C34434464C4
:105AB800DD618025ED00294206D0140604D50824AE
:105AC800466C34434464DD618024A400214206D03E
