:020000040800F2
:10000000002000200DA900085DA900085DA90008D6
:1000100000000000000000000000000000000000E0
:100020000000000000000000000000005DA90008C2
:1000300000000000000000005DA90008FB9200081D
:100040005DA90008000000005DA900085DA9000886
:100050005DA9000829940008399400084994000813
:10006000000000005DA900085DA900085DA9000866
:100070005DA900087D8F0008958F00080000000032
:100080009D8F00080000000000000000B58F0008F0
:1000900000000000CD8F0008E58F0008054F000824
:1000A0001D4F00085DA900085DA90008F99D000822
:0800B000119E00080000000091
:1000B8000023C25C0133002AFBD1581E70470000A0
:1000C80002B4714649084900095649008E4402BCE9
:1000D8007047C04602B4714649084900095C4900A6
:1000E8008E4402BC7047C046002243088B4274D33A
:1000F80003098B425FD3030A8B4244D3030B8B4221
:1001080028D3030C8B420DD3FF22090212BA030C29
:100118008B4202D31212090265D0030B8B4219D30A
:1001280000E0090AC30B8B4201D3CB03C01A52412A
:10013800830B8B4201D38B03C01A5241430B8B4272
:1001480001D34B03C01A5241030B8B4201D30B035B
:10015800C01A5241C30A8B4201D3CB02C01A524182
:10016800830A8B4201D38B02C01A5241430A8B4245
:1001780001D34B02C01A5241030A8B4201D30B022E
:10018800C01A5241CDD2C3098B4201D3CB01C01A48
:10019800524183098B4201D38B01C01A5241430952
:1001A8008B4201D34B01C01A524103098B4201D340
:1001B8000B01C01A5241C3088B4201D3CB00C01AAD
:1001C800524183088B4201D38B00C01A5241430825
:1001D8008B4201D34B00C01A5241411A00D201464A
:1001E800524110467047FFE701B5002000F0F0F8D3
:1001F80002BDC0460029F7D076E7704703460B4397
:100208007FD4002243088B4274D303098B425FD307
:10021800030A8B4244D3030B8B4228D3030C8B4233
:100228000DD3FF22090212BA030C8B4202D3121219
:10023800090265D0030B8B4219D300E0090AC30BEE
:100248008B4201D3CB03C01A5241830B8B4201D39B
:100258008B03C01A5241430B8B4201D34B03C01A84
:100268005241030B8B4201D30B03C01A5241C30AFC
:100278008B4201D3CB02C01A5241830A8B4201D36D
:100288008B02C01A5241430A8B4201D34B02C01A57
:100298005241030A8B4201D30B02C01A5241CDD2FC
:1002A800C3098B4201D3CB01C01A524183098B4247
:1002B80001D38B01C01A524143098B4201D34B0130
:1002C800C01A524103098B4201D30B01C01A524193
:1002D800C3088B4201D3CB00C01A524183088B421A
:1002E80001D38B00C01A524143088B4201D34B0003
:1002F800C01A5241411A00D2014652411046704775
:100308005DE0CA0F00D04942031000D34042534079
:1003180000229C4603098B422DD3030A8B4212D339
:10032800FC22890112BA030A8B420CD3890192116B
:100338008B4208D3890192118B4204D389013AD0A8
:10034800921100E08909C3098B4201D3CB01C01A7D
:10035800524183098B4201D38B01C01A5241430990
:100368008B4201D34B01C01A524103098B4201D37E
:100378000B01C01A5241C3088B4201D3CB00C01AEB
:10038800524183088B4201D38B00C01A5241D9D203
:1003980043088B4201D34B00C01A5241411A00D284
:1003A8000146634652415B10104601D34042002B80
:1003B80000D54942704763465B1000D3404201B5FF
:1003C800002000F005F802BD0029F8D016E77047B4
:1003D8007047C0468446100062468C461900634642
:1003E80000E0C0461FB50CF00BFE002801D4002128
:1003F800C8421FBD10B50CF04BFD4042013010BD86
:1004080010B50CF0FDFD002801DB002010BD012017
:1004180010BDC04610B50CF0F3FD002801DD00202A
:1004280010BD012010BDC04610B50CF075FD0028A8
:1004380001DC002010BD012010BDC04610B50CF035
:100448006BFD002801DA002010BD012010BDC04658
:10045800844608006146FFE71FB50BF0D3FA002871
:1004680001D40021C8421FBD10B50BF053FA404219
:10047800013010BD10B50BF0C5FA002801DB0020D3
:1004880010BD012010BDC04610B50BF0BBFA002806
:1004980001DD002010BD012010BDC04610B50BF0D5
:1004A80061FA002801DC002010BD012010BDC04603
:1004B80010B50BF057FA002801DA002010BD012012
:1004C80010BDC0461C2101231B04984201D3000C17
:1004D80010391B0A984201D3000A08391B099842AF
:1004E80001D30009043902A2105C40187047C046C5
:1004F80004030202010101010000000000000000E5
:1005080010B5064C2378002B07D1054B002B02D0E1
:10051800044800E000BF0123237010BDE000002064
:10052800000000004CE00008044B10B5002B03D07D
:100538000349044800E000BF10BDC04600000000A9
:10054800E40000204CE000080122014B1A707047BB
:100558001C01002010B5034B0349186809F0D4FEAC
:10056800002010BD10E9000887E00008074B10B50F
:100578001C680749200009F0B6FE064B0A22200035
:10058800197809F033FF002010BDC04610E90008B3
:1005980018E1000802000020074B10B51C68074945
:1005A800200009F0A0FE064B0A222000197809F065
:1005B8001DFF002010BDC04610E9000825E1000815
:1005C80001000020074B10B51C680749200009F0FE
:1005D8008AFE064B0A222000197809F007FF00203E
:1005E80010BDC04610E9000833E1000803000020F0
:1005F800074B10B51C680749200009F074FE064B2C
:100608000A222000197809F0F1FE002010BDC0462A
:1006180010E9000845E1000810010020F7B50400C2
:100628000D000700831D0193EB1B20001E5D03F0E6
:100638006DFB864203D03100200003F0B9FB019B1B
:1006480001349C42F0D1F7BD104B70B51D680228EB
:1006580006D028000E4909F06BFE0120404270BD0B
:1006680048680AF0E7FA0B4C0B492070280009F09B
:100678003AFE0A222178280009F0B8FE07492378B3
:1006880000200B71FFF7CAFF0020E8E710E9000817
:100698004EE100081001002061E10008000100207F
:1006A800134B70B51D68022806D02800114909F0BF
:1006B8003FFE0120404270BD48680AF0BBFA0E4C6C
:1006C8000E492070280009F00EFE0A222178280021
:1006D80009F08CFE0A49237800204B71FFF79EFF32
:1006E800FA2321789B004B43064A00201360E2E777
:1006F80010E900084EE100080300002072E100083C
:100708000001002018010020104B70B51D68022858
:1007180006D028000E4909F00BFE0120404270BDAA
:1007280048680AF087FA0B4C0B492070280009F03A
:10073800DAFD0A222178280009F058FE07492378B3
:1007480000208B70FFF76AFF0020E8E710E9000837
:100758004EE10008010000208CE1000800010020A3
:10076800104B70B51D68022806D028000E4909F004
:10077800DFFD0120404270BD48680AF05BFA0B4C6F
:100788000B492070280009F0AEFD0A2221782800C4
:1007980009F02CFE074923780020CB70FFF73EFFB5
:1007A8000020E8E710E900084EE1000802000020F8
:1007B800A2E100080001002070B504000025A54250
:1007C80000DB70BD002122200AF022F9C8200AF0BF
:1007D8000FFA012122200AF01BF9C8200AF008FAB2
:1007E8000135ECE70300411800208B4200D1704727
:1007F8001A7801335040F8E770B505000C000AF08C
:10080800EFF9074A611B1368434058035840430CEB
:100818004340580158401060FFF7ECFC481970BD80
:10082800FC00002013B5302008F08EFC0F230400D4
:10083800CB220093C421B43300F0D2FB2100074837
:1008480000F06AFE0649074803F088FB064B074A92
:100858001978FA239B004B43136013BD98010020BD
:10086800680B002028010020030000201801002048
:1008780030B5224B9FB01B780FAD2B70204B3C211D
:100888001B7868466B701F4B1B78AB7003F098FAA7
:10089800684603F0A8FA1C4B01211A68684603F061
:1008A8004FFB1A4B01211A68684603F050FB684653
:1008B80003F09CFA0400E87002A9684603F098FA6D
:1008C800220002A910A80AF017FC211D2800C9B2AD
:1008D800FFF788FF2B19053429001871E2B20023AD
:1008E8000B4802F083FD01220A4B18600A4B684648
:1008F8001A7003F071FA1FB030BDC0460100002025
:1009080002000020000000200C0100200801002047
:1009180098010020200100201D010020E121F0B5F0
:10092800694D87B006222800490209F04FFC0121D1
:1009380022200AF011F8012122200AF069F8012189
:100948000B200AF009F800210B200AF061F85F4E2D
:100958000121300003F0B4F9002802D00A20FFF783
:100968002BFFFA27BF005A4803F056FC041E35D166
:10097800200003F0CBF9574908550134062CF7D16C
:100988000F78554C554A5648564B482F2ED14F781C
:1009980027708C781470CA7802704A791A700979AD
:1009A800514B1970FA239B00534350490B600023A5
:1009B80004930833039309334D4C02930133019395
:1009C8000B3B009320004B4A4B49023300F0AEFD2D
:1009D80000281BD01420FFF7EFFEFEE72800474948
:1009E80009F0A6FC38000AF003F9BCE7127848279A
:1009F8008A700122007824781B78C87000200F7054
:100A08004C700A714B71FFF709FED0E704222000F1
:100A18003B4901F083FC200002F047FC071E00D090
:100A2800FEE7384A3849300003F01AF90AF0D8F8D6
:100A3800364B1860364B03201F70FFF7BDFE0121AF
:100A4800CD2009F089FF0121CD2009F0E1FF39000F
:100A5800CE2009F081FF2F4B29001C68200004F0EC
:100A6800F1FA20002C4A2D4904F0C6FA20002C4A3D
:100A78002C4904F0C1FA20002B4A2C4904F0BCFA96
:100A880020002B4A2B4904F0B7FA20002A4A2B49A8
:100A980004F0B2FA20002A4A2A4904F0ADFA2000EC
:100AA800294A2A4904F0A8FA2000294A294904F0C9
:100AB800A3FA2000284A294904F09EFA3900380090
:100AC800FFF748FD07B0F0BD640E0020600300206A
:100AD8002801002000010020000000200100002063
:100AE800020000200300002010010020180100204F
:100AF800980100200000FA4200406644B7E100086F
:100B080051050008C0E0F301809698001401002008
:100B18001101002010E900085D050008F9E100084E
:100B280011070008FDE10008A105000816E2000809
:100B38006907000823E20008750500083AE2000882
:100B48005106000846E20008F905000855E20008C9
:100B5800A90600085DE20008CD0500087EE200084D
:100B6800F0B59FB000AF5C4803F09CF810235B49D8
:100B7800F81803F043FA5A4B3A6A5A4C1A605A4B1F
:100B8800FA691A60594B1A78002A15D000221A708F
:100B9800574B584A7B601B78BA60002B2FD0564BB6
:100BA8001B68002B02D10220FFF706FEB86802F08E
:100BB8007CFB00237A6813702379012B00D07EE038
:100BC8000AF00EF84D4D4E4A2B6812680400C31AFD
:100BD800934208DDFA2164208900FFF70DFE001911
:100BE8002860FFF745FECE2009F050FF002803D00B
:100BF800444B186804F050FBBD461FB0F0BD6B466F
:100C08000121B8683B6001F047FC6A46C31DDB0858
:100C1800DB00D31A9D46050002006946B8686E4697
:100C280002F0ECFC00282CD1072D2AD8364B0A22DA
:100C380018003178FB6009F0D5FB3449F86809F0F1
:100C480052FB0A227178F86809F0D0FB3278A37851
:100C58009A4213D17278E3789A420FD1B078B57975
:100C680004280BD8FFF736FA031620222400284957
:100C7800F86809F05DFB0122264B1A700220FFF785
:100C88009BFDB86802F011FB00237A6813703B687B
:100C98009D4691E72049F86809F04AFBA5702100B4
:100CA8000020FFF7BBFCE9E7E570F8E72571F6E7F8
:100CB800FA239B006B43124A65711360EFE7154BEB
:100CC8001A78002A00D18EE7FA20002280001A70D4
:100CD80009F08EFF85E7C046600300202801002048
:100CE8000C01002000010020080100201C01002048
:100CF8001D0100209801002020010020140100207F
:100D08001801002010E90008640E00208FE2000896
:100D180093E2000811010020ABE2000837B5080093
:100D2800421E9041081AFA210F4D8900AB680093C2
:100D38006C6801346043FFF7D7F90022009B0193E8
:100D4800AB6800930199009B994209D20199009BD5
:100D5800E31A5B18D218009B01939042F0D837BD74
:100D6800019B00995B1AF5E710E000E0CBB20E4A50
:100D78002C2B0BD9C0220A40C02A11D1CF2B0FD857
:100D88003F230A480B409B00074A1B58E0209B0062
:100D98009B58C00008401843431C00D00800704707
:100DA80001204042FBE7C046B4EF000874EF00089A
:100DB80010B5C06902F01AFD10BD10B5C06902F087
:100DC80049FD10BDF8B507000C001D008E18B4428F
:100DD80000D1F8BD21780022F86902F03FFD013406
:100DE80028700135F3E710B509F062FD10BD10B5A4
:100DF8004B1C03D0C8B2002109F0EAFB10BD080063
:100E080010B511001A00431C02D0C0B209F05CFBF7
:100E180010BD10B5C06902F01CFD10BD10B51C3026
:100E280007C802F0F9FC10BD10B50C000020110035
:100E38001A00631C02D0200009F062FE10BD10B534
:100E480009F0D2FE10BD10B509F0CAFE10BD10B5EC
:100E5800080009F0CDFE10BD080010B54B1C01D0EC
:100E680009F0FAFB10BD00007FB50C0015001E004C
:100E78004B1C19D00C22002168460AF086F8002382
:100E880003939D4204D0094B00950393084B0293AA
:100E980032006946200009F015FC029B002B03D0A4
:100EA80003226946684698477FBDC046350F00084B
:100EB800150F0008002010B54B1C02D0080009F0DF
:100EC800E5FD10BD080010B51100431C01D009F064
:100ED8009FFD10BD080010B51100431C01D009F09A
:100EE8003BFD10BD030010B528331B78002B02D042
:100EF80003689B6A984710BD030010B528331B7818
:100F0800002B02D003689B6B984710BD012A02D1C1
:100F1800016000207047022A05D0032AF9D0002A70
:100F2800F7D10260F5E70B680360F2E710B50368D4
:100F3800984710BDF8B50D0017000C005E18A642C2
:100F480000D1F8BD7B1B2000195D02F031FF013490
:100F5800F5E7F8B50D0017000C005E18A64200D1A1
:100F6800F8BD200002F0D2FE7B1B18550134F5E7CE
:100F7800032330B585B00293013301250193002383
:100F8800040019002A00009500F01AF8064B20000A
:100F98002360064BA584E361054B236223002833B5
:100FA8001D7005B030BDC046D4E20008E002002044
:100FB80080841E007047704770470800704770476C
:100FC80010B5C360029B054C0361039B0460436139
:100FD800049B41608260836110BDC04638E300080D
:100FE80070B504008025002062612200A3612D02F3
:100FF800049B6560094DE361094B2060A560E060D2
:101008002161203262CB62C2E0622C3008F09CF889
:101018000500FFF7ADFF2000256070BD0800FFFF49
:1010280078E0000810B5040000680368DB6B984797
:1010380020682169036882681B68984720682169CD
:10104800036802695B68984710BD10B500680368BB
:101058001B6C984710BDF0B585B00393037A160052
:101068000B9ADB089B180400180001930F0008F086
:101078006FF80500019808F06BF80290227AF3B235
:10108800082A37D83B43681C2B706379BB4237D199
:101098000B9A03990AF030F820680368DB6A9847CE
:1010A800206821690368C2685B689847206829003E
:1010B8000368019A1E6B029BB04720682169036888
:1010C80002695B689847206803685B6B98472379D7
:1010D800BB4207D1217A029BC9080B9A0A98591872
:1010E8000AF00AF8280008F037F8029808F034F8EF
:1010F80005B0F0BD360A3E432E70A81C6B70C4E7DD
:10110800A1790B9A09F041FFC6E70000F0B585B058
:1011180002930DAB1B780192039313000C9A040001
:101128009446029A6344009353425341009A0E0036
:10113800D3181800009308F00BF80700009808F07F
:1011480007F831000500019A380009F0D5FF019B26
:10115800F818029B002B4DD00C9A0A9909F0CCFF85
:101168002068E269036801324AD101215B69984726
:1011780020680368DB6A9847206821690368C268A9
:101188005B689847206839000368009A1E6B2B003B
:10119800B04720682169036802695B68984720683E
:1011A80003685B6B9847039B002B07D02068E269B4
:1011B8000368013244D101215B699847E3681C1E2A
:1011C80007D000240C9AA24203D0019AA85C984741
:1011D8000400029B002B06D101990C9A01310B984F
:1011E800691809F089FF380007F0B6FF280007F0F2
:1011F800B3FF22E00C9BA1795A1C09F0C6FEAFE7A9
:10120800DB69984706002068E16903689B6898478E
:101218000028ADD020680368DB6C98472068036815
:10122800DB6998470E9B801B9842ECD3380007F087
:1012380093FF280007F090FF0F4C200005B0F0BD89
:1012480001219B69984720680368DB699847060075
:101258002068E16903689B6898470028AED0206839
:101268000368DB6C984720680368DB6998470E9B26
:10127800801B9842ECD3D9E73FFDFFFF70B51E00F5
:10128800437A0C0088B00179002B06D101920096B0
:101298002200FFF7E0FE08B070BD07AD230A6B70AF
:1012A800FA239B002970AC70049301230393002355
:1012B80002922900032201960093FFF727FFEAE72D
:1012C80030B51B24002389B06C442370457A0A008A
:1012D80001799D4208D10133019300942B00FFF757
:1012E800BAFE207809B030BD07AD2970AA70110A7E
:1012F800FA22920069700492012229000392029254
:10130800019400930232FFF701FFEAE770B51C0071
:10131800130015002343072B0DD8A2420BD3FFF768
:10132800CFFFFF2107230A005B1B1A41A140114090
:101338000840C0B270BD0B204042FBE770B51E00EC
:10134800437A0C0088B04179002B07D100930196AD
:1013580013002200FFF77FFE08B070BD07AD230A17
:101368006B70FA239B002970AC7000210493012351
:10137800019100922900032203930296FFF7C6FE0B
:10138800EAE730B58BB06B46DA77437A0C004179DF
:10139800002B09D1012200931F3301926B442200D4
:1013A800FFF759FE0BB030BD09AD230A6B70FA2365
:1013B80000229B002970AC700493012301921F3214
:1013C8006A4400922900032203930293FFF79EFECA
:1013D800E8E7F0B51E0085B00AAB1F780BAB1B78A9
:1013E800050003930CAB1B781400029333000191A2
:1013F8003B43072B37D8BE4235D3FFF761FFFF22A7
:10140800082113000136C91BF6B20A41B340134341
:10141800DB43DBB298431C400443E4B222002800BB
:101428000199FFF7AEFF2868FA260368B6001B6A21
:1014380098470700039B5E43286803681B6A984720
:10144800C01BB04202D3102040420AE02800019994
:10145800FFF736FF0300029A0298634018401342D0
:10146800EAD105B0F0BD0B20EEE7013970B50200F6
:101478000C00002001254B1C00D170BD2B00661A02
:10148800B3401340F3408B4001391843F3E7C06A77
:10149800002803D170478B42FCD010300378002B12
:1014A800F9D11800F6E7F8B50600FFF7F0FF041EBB
:1014B80010D035003700043420352C3729684B1CF0
:1014C80004D03068226803685B68984704350434A0
:1014D800BD42F3D1F8BD000070B50D1C04000C49E5
:1014E800281CFEF7E5FF00280ED00A49281CFEF745
:1014F800CBFF002808D02000291C01F039FA002869
:1015080001D1FC34E56270BD0C204042FBE7C046C7
:101518000000094300007F4410B5040000F036FACB
:10152800014B2000236010BD9CE30008F0B585B096
:101538001D000AAB1B78171C01930BAB1A780CAB78
:101548001B780E1C0EA909785BB202930DAB0391B0
:101558001B881221040001F0B0FD00282AD12000C8
:10156800391C00F00BFC002824D1236820001B6BD9
:10157800311C984700281DD12900200000F09CFD4F
:10158800002817D12000019900F0EDFD002811D1A5
:10159800236820009B6C0299984700280AD12000F4
:1015A800039900F09AFA002804D1020001212000D2
:1015B80000F08CFB05B0F0BDFC3070B50400836A08
:1015C80018689969026815688268A847A36A186844
:1015D800996902685568C268A847A36A0121186812
:1015E80003685B699847A36A18689969026855682F
:1015F8000269A847A36A0521186803685B699847C8
:1016080070BD000070B50D1C04000C49281CFEF7C5
:101618004FFF00280ED00A49281CFEF735FF002886
:1016280008D02000291C01F0A3F9002801D1FC34BE
:10163800E56270BD0C204042FBE7C046000009434C
:101648000040034410B55D2201F098FB10BD000076
:10165800F0B58BB00890099100F0E0FE802800D02A
:1016680057E1089CFC34206B0CF014FC0022AB4BB7
:101678000BF0FCFF4B005908A94AAA4BFEF7CAFE1B
:10168800002816D0E56AA849281CFEF711FF002893
:1016980030D0A649281CFEF7F7FE00282AD00222DF
:1016A8003621A06AFFF76DFE64223A21A06AFFF78F
:1016B80068FEE36A206B05930CF0ECFB9C4A9D4B9B
:1016C80006000F000BF0D2FF4B005908944A954BC7
:1016D800FEF7A0FE051E20D005980CF0DBFB964A0D
:1016E800964B0AF05BFD0CF01DFC00244825059084
:1016F8002600DCE09249281CFEF7DAFE0028D8D044
:101708009049281CFEF7C0FE0028D2D002223621BC
:10171800A06AFFF736FE7F22C7E78B4A8B4B300063
:1017280039000BF0A3FF4B0059087D4A7D4BFEF7AB
:1017380071FE041E0BD005980CF0ACFB844A854B57
:101748000AF02CFD0CF0EEFB2C0005901CE0784A0A
:10175800814B300039000BF089FF06900791079BF9
:10176800069A5B00100059086D4A6E4BFEF752FE50
:10177800051E0BD005980CF08DFB6F4A774B0AF0CD
:101788000DFD0CF0CFFB05904425B1E76E4A744B74
:10179800300039000BF06AFF4B005908604A614B72
:1017A800FEF738FE041E05D005980CF073FB6D4A51
:1017B8006D4BC5E700226D4B300039000BF056FF2A
:1017C80006900791079B069A5B0010005908544A37
:1017D800544BFEF71FFE051E05D0F4210598890518
:1017E80009F0F6FDCFE7624A624B300039000BF092
:1017F8003DFF4B0059084A4A4A4BFEF70BFE041EB0
:1018080005D005980CF046FB5B4A5C4B98E7002234
:101818005B4B300039000BF029FF06900791079BBE
:10182800069A5B00100059083D4A3E4BFEF7F2FD50
:10183800051E00D070E00022524B300039000BF03A
:1018480015FF4B005908364A364BFEF7E3FD041ED8
:1018580061D100224C4B300039000BF007FF069095
:101868000791079B069A5B00100059082C4A2D4BDC
:10187800FEF7D0FD00284FD10022284B3000390058
:101888000BF0F4FE4B005908254A264BFEF7C2FD23
:1018980000283ED0089C2F21FC34A06AFFF710FDD9
:1018A80030210500A06AFFF70BFD40260400089BC5
:1018B80008981B689B689847089F099B0599FC37FF
:1018C800002B00D1F96A089801F052F80721FF238C
:1018D80002220293019200910B0032002A31B86A69
:1018E800FFF777FD0026FF2302220293019200965C
:1018F8002A002F21F83BB86AFFF76BFDFF2302226D
:1019080002930192009622003021B86AF83BFFF753
:1019180060FD0BB0F0BD2C004025E9E600407F409B
:10192800FCA9F1D24D62503F0080574400007F442B
:101938003333333333331F4093E34EE960FD7F3F46
:101948000000CD4300400344CDCCCCCCCCCC2440CB
:101958004968CBB91457853F33332F4060FD8F3F1B
:10196800CCCC3440DC4B1AA37554953F00403F4023
:101978009A99999999D9444012DA722EC555A53F7A
:1019880000404F4000405F4000406F4010B50400E9
:1019980000F09CFC034B01222360A3235B00200082
:1019A800E25210BD4CE40008F0B587B005000C0009
:1019B8000492002A0DD0CE1CF6B2122E00D984E073
:1019C80000F065FF0490002C5CDB70231C43E4B23C
:1019D8005AE014292AD100F05AFF0226FF270723CC
:1019E800FC35009302970196040080220921A86A19
:1019F800FFF7EFFC049B02970093019606237F22D2
:101A080004430921A86AFFF7E4FC049B072200931A
:101A1800330024B2044324B2029701964D21A86AE8
:101A2800FFF7D7FC204300B207B0F0BD023CE4B298
:101A38000F2C4AD800F02BFFFF2702260723FC357E
:101A4800009302970196802209210590A86AFFF762
:101A5800C0FC7022059B0297184303B20593049BB0
:101A680001960093224306230921A86AFFF7B1FCD7
:101A7800059B02971843049B04B201960093042225
:101A88003300CBE720243443FF2702260723FC3505
:101A980000930297019600220921A86AFFF799FC92
:101AA800002302970093019622000590063309212E
:101AB800A86AFFF78EFC059A002302431000049AD7
:101AC8000297024314B20196D8E70D204042ABE7D3
:101AD80010B50022FFF768FF10BDF0B587B004000D
:101AE800049106295AD800F0D2FE0700200000F021
:101AF80095FC060080282BD1FF25049B7E3EFC34F4
:101B0800A06A029501960096002B06D133000422A4
:101B18002621FFF75EFC074316E03300002226214A
:101B2800FFF757FC0322049B05905B011A4300232F
:101B3800D2B200930295019607330C21A06AFFF7F1
:101B480048FC059D05432F433FB2380007B0F0BD60
:101B58000028FAD1049BFC340225A06A002B07D187
:101B6800FF330293FC3B08220D2101950093D0E737
:101B78000322FF230D2102930092130001953200E6
:101B8800FFF727FC0322049905904B011343DAB2AF
:101B9800FF23019502930096F83BCEE713277F4277
:101BA800D3E77FB504000E0000F038FC002833D1DD
:101BB8009C235B00E35C002B31D0200000F067FE23
:101BC8000500012E15D0022E1DD06A20002E24D12A
:101BD800FF2332000293FD3B019303330093FC344F
:101BE80001330A21A06AFFF7F4FB284300B204B0CE
:101BF80070BDFF230293FD3B019303330093202222
:101C0800FC340133EDE7FF230293FA3B00934022B3
:101C1800FC3401960133E4E714204042E7E76B20E7
:101C2800FBE730B585B004000D0000F0F7FB002895
:101C380045D19C235B00E35C002B07D0002D41D1EC
:101C480029002000FFF7ADFF05B030BD200000F0EF
:101C58001EFE0028F8D1042D36D82800FEF73AFADF
:101C680003111B342500FF2300220293FD3B01933F
:101C780003330093FC3401330A21A06AFFF7A9FB60
:101C8800E2E7FF230293FD3B0193033300936022B5
:101C9800FC340133F0E7FF230293FD3B0193033348
:101CA80000934022FC340133E6E7FF230293FD3B17
:101CB8000193033300932022FC340133DCE7142022
:101CC8004042C1E76B20FBE76A20F9E7F0B507005F
:101CD80085B00E0014003D0000F0A0FBFC35802804
:101CE80014D13A23FF22FF33FE54383BFF3BA86A46
:101CF800029201930093FB3A002E00D132001E217C
:101D0800FFF767FB0300180005B0F0BDFF220223B0
:101D1800A86A02920193002E12D0DB180093EF3AC2
:101D28003021FFF756FB031EEDD1FF210222A86ADE
:101D3800029101920093002C06D0013ACF39DFE7D7
:101D4800042332000093EBE71A003021D8E77FB56F
:101D58000E00050000F09BFDFF230293FD3B01935D
:101D680002330093FC35040032001D21A86A0333B6
:101D7800FFF72FFB204300B204B070BDF0B587B069
:101D880006000F1C00F04AFB802800D007E1381C31
:101D98000CF080F8834A844B04000D000BF066FCBD
:101DA80004900591059B049A5B00100059087F4A2E
:101DB8007F4BFEF72FFB002800D0AEE07D4A7E4B1C
:101DC800200029000BF052FC04900591059B049A11
:101DD8005B0010005908754A754BFEF71BFB00287D
:101DE80000D0C8E06F4A754B200029000BF03EFC7C
:101DF80004900591059B049A5B00100059086B4AF2
:101E08006B4BFEF707FB002800D0B6E0694A6C4B25
:101E1800200029000BF02AFC04900591059B049AE8
:101E28005B0010005908614A614BFEF7F3FA00287D
:101E380000D0A4E00022634B200029000BF016FC20
:101E480004900591059B049A5B0010005908574AB5
:101E5800574BFEF7DFFA002800D092E05A4A5B4B56
:101E6800200029000BF002FC04900591059B049AC0
:101E78005B00100059084D4A4D4BFEF7CBFA00287D
:101E880000D080E00022524B200029000BF0EEFB2E
:101E980004900591059B049A5B0010005908434A79
:101EA800434BFEF7B7FA002800D06EE00022494BFA
:101EB800200029000BF0DAFB04900591059B049A99
:101EC8005B0010005908394A394BFEF7A3FA00287D
:101ED8005DD10022404B200029000BF0C7FB049085
:101EE8000591059B049A5B00100059082F4A304B56
:101EF800FEF790FA00284CD10022384B2000290028
:101F08000BF0B4FB4B005908284A294BFEF782FA1C
:101F18009021002802D1082442E000213000FFF778
:101F280016FF041E24D13300A322FC331F63520082
:101F3800B25C002A1CD09D6A982301205B00F35CE8
:101F480098400AF0E9F8391C09F0C4FB8321C90557
:101F5800FEF7AEFAFF2202230292019300281AD05C
:101F680001330093F73A26212800FFF732FA0400DC
:101F7800200007B0F0BD1021D0E72021CEE73021A6
:101F8800CCE74021CAE75021C8E76021C6E77021A5
:101F9800C4E78021C2E7032322000093E3E7142467
:101FA8006442E5E73333333333331F40FCA9F1D2BE
:101FB8004D62503FCDCCCCCCCCCC244033332F40D9
:101FC800CCCC344000403F409A99999999D94440E3
:101FD80000404F4000405F4000406F4000407F405D
:101FE800F0B587B0050000270C00022600F04FFC72
:101FF800FF2304900293FC353B0001960097602C68
:1020080030D101221D21A86AFFF7E3F9FF230293CB
:10201800FC3B0093019622001E2105900433A86A18
:10202800FFF7D7F9059AFF2302431000049A029399
:10203800024301960097330014B231210522A86AA1
:10204800FFF7C7F9FF230C220443029324B2019639
:102058000097F83B3721A86AFFF7BBF9204300B285
:1020680007B0F0BD3A001D21A86AFFF7B2F9FF23B7
:10207800032202930092019622001E210590F83B4C
:10208800A86AFFF7A6F9059AFF2302431000049AED
:102098000293024301960097330014B231210322C0
:1020A800A86AFFF796F9FF23044302930A2224B291
:1020B80001960097F83BCDE7F0B585B005000E0016
:1020C80000F0ACF9802832D1B31F062B32D8310189
:1020D8002800C9B2FFF784FF041E21D198235B00B2
:1020E800EE541633EB5C002B1AD00120FC35B040BF
:1020F8000AF012F8296B09F0EDFA8321C905FEF7F9
:10210800D7F9FF220223AF6A0292019300280AD06E
:1021180001330093F73A26213800FFF75AF90400F3
:10212800200005B0F0BD032322000093F3E7142438
:102138006442F5E70924FBE77FB50E00050000F0CF
:10214800A6FBFF230293FD3B0193013B0093FC3563
:10215800040032001D21A86A0233FFF73AF9204330
:1021680000B204B070BD70B504000D0000F056F95F
:1021780080280ED16B1F032B0ED869000839200068
:10218800C9B2FFF7D9FF002802D13223FF33E55443
:1021980070BD14204042FBE70A20FBE77FB502929E
:1021A800040001910393029E00F038F9C0B201AD1A
:1021B80000280DD1236820005B6B019998470028FF
:1021C80004D1236820009B6B311C984704B070BD74
:1021D800802810D120002978FFF76EFF0028F5D15C
:1021E8002000311CFFF7CAFD0028EFD12000297A12
:1021F800FFF7B9FFEAE701204042E7E7FC30806AD1
:10220800704710B503689B68984710BD0300FC33FE
:102218009B6A10B50400186803689B689847C1B2A8
:10222800200001F091FA10BD036870B59B6E0400A0
:10223800984700280DD070BDAB6A18680368DB6C3E
:102248009847AB6A1868D96902689268904700286D
:102258000CD12500FC35AB6A186859690268926888
:1022680090470028E8D00F204042E4E70E20FBE723
:1022780030B50C0085B0052924D8FC304900FF256D
:10228800806AD2B2C9B2032C0FD807235B1A022185
:1022980001910131091B4900C9B200914021DBB20B
:1022A8000295FFF796F805B030BD0F235B1A02219F
:1022B80001910531091B4900C9B20091DBB24121E6
:1022C8000295EEE71A204042EDE7000070B50400E1
:1022D8000D00FF220E4901F02DFA0E4B200023605D
:1022E800230000220021FC33FE30DA621A634186A3
:1022F8009A6341879D200126400026545A64A222F1
:102308001964054952002000A1529D6270BDC04663
:1023180000247442FCE400080080FFFFFC30F8B59C
:10232800836A16001C680D0022685969D768200066
:10233800126D9047330001002A002000B847F8BD0D
:102348000300FC3310B59B6A1B685A69FFF7E6FF68
:1023580010BDFC30836A70B51C685969226820007A
:102368001569126D904701002000A84770BD10B58F
:10237800FFF7EFFF10BDFC30F8B5836A0D00D9698F
:1023880016004A1C0AD01C6823682000DF681B6DF1
:102398009847330001002A002000B847F8BD030021
:1023A800FC3310B59B6A1B685A69FFF7E4FF10BD40
:1023B80010B5FC30002307224221806AFEF7A6FFF1
:1023C80010BD1FB5FF2300220293FD3B019300922D
:1023D800FC3024210533806AFEF7FBFF05B000BD01
:1023E80070B504000E00002523682000A0331B6888
:1023F80098472000FFF7DCFFB04201D1012070BDF3
:102408002300FC339B6A013518680A210368EDB282
:102418005B6998470A2DE7D10020F0E7072310B53C
:10242800FC301A000121806AFEF770FF10BD000021
:1024380010B50400FFF7F2FF802810D1FC34002308
:1024480007221921A06AFEF761FF40B20BF0CCFC0D
:102458000022044B0AF046FE0BF064FD10BD00207C
:10246800FCE7C0460000D03F30B585B004000D0041
:10247800FFF7D4FF00280CD1FF230293FD3BFC3467
:10248800019300902A000D21A06AFEF7A2FF05B073
:1024980030BD14204042FAE770B504000E00250054
:1024A800FFF7BCFFFC35802809D198235B00E35C6B
:1024B800062B1AD01321A86AFEF702FF70BD002868
:1024C80013D1A2235B00E15C00290ED1002E0CD0B1
:1024D8004623FF33E35CA86A802B08D1FEF7F0FEA1
:1024E800A22301225B002864E254286CE6E732212B
:1024F800F4E70000F0B587B00C000090FFF78EFFFE
:10250800C6B2802E00D0CFE098230120009A5B004D
:10251800D35C984009F000FE009EFC36316B09F050
:10252800D9F88321C9050290FDF7C2FF00230028CE
:1025380001D0FE239B05019300231D211A00B06AD8
:10254800FEF7E4FE09F09CFD02231E211A00049008
:10255800B06AFEF7DBFE801000B209F091FD00239F
:10256800072220210590B06AFEF7D0FE2121002322
:1025780007220500B06AFEF7C9FE2D02284309F0BC
:102588007FFD9823009A5B000390D05C09F0C4FD9E
:102598000BF080FC0022774B0AF0A4FD0F00060028
:1025A800200009F0B9FD0BF075FC0022724B0AF00F
:1025B80099FD32003B000BF059F800226F4B09F0EF
:1025C800EDFD040005980D000BF064FC00226C4B37
:1025D8000AF088FD02000B002000290009F0DEFD4A
:1025E800040004980D000BF055FC0022654B0AF01E
:1025F80079FD02000B00200029000BF037F80400D9
:1026080001980D000BF046FC00225B4B0AF06AFDB6
:1026180002000B00300039000BF028F802000B0014
:10262800200029000AF018F908F012FE32230D00E4
:102638000400009AFF33D05C09F06EFD0BF02AFC11
:1026480022002B000AF04EFD0022002304000D009A
:10265800FDF7EAFE002801D1002400250022464BA0
:102668002000290009F09AFD0BF05CFC039908F0A2
:10267800AFFE0BF00FFC0022434B09F08FFD040066
:1026880002980D000BF006FC02000B002000290048
:102698000AF028FD08F0DCFD00223C4B0AF022FD80
:1026A80008F078FE07B0F0BD002E60D1009D330021
:1026B800FC3507222521A86AFEF728FE33000722E9
:1026C80026210700A86AFEF721FE3F02384309F0D9
:1026D800D7FC8221C90509F0E3F93300022227213A
:1026E8000190A86AFEF712FE013009F0C9FC8221A8
:1026F800C90509F0D5F9042330211A00061CA86A77
:10270800FEF704FE0027102801D18327FF05462382
:10271800009AFF33D35C0134002B05D10722322104
:10272800A86AFEF7F3FD0400311C381C08F050FEBF
:10273800019908F04DFE061CE00009F0EDFC011CB3
:10274800301C08F045FE0BF0A5FB0600A86B0F0037
:102758000BF0A0FB00220D4B0AF0C4FC02000B009A
:10276800300039000AF078F80022094B96E701207A
:10277800404297E7000010400000204000003C4025
:1027880000003040000034400000114000408F40FD
:1027980080842E4130B585B004000D00FFF73EFE61
:1027A800002828D1012D13D0022D1BD01720002D71
:1027B80022D1FF232A000293FD3B019303330093A8
:1027C800FC3401333021A06AFEF703FE05B030BDAA
:1027D800FF230293FD3B0193033300932022FC3433
:1027E8000133EFE7FF230293FA3B00934022FC34C6
:1027F80001950133E6E714204042E7E770B504008D
:10280800FFF70CFEFC34802804D11221A06AFEF7E1
:1028180057FD70BD3F21A06AFEF752FD3E2105021B
:10282800A06AFEF74DFDADB2284380B2F1E710B5BE
:10283800FFF7E4FF012318400F3800B210BD30B590
:1028480085B004000D00FFF7E9FDFF23002803D140
:102858006B1F5A1E9341FE330293052301930023F5
:10286800FC3400932A000121A06A0233FEF7B1FD6F
:1028780005B030BD030010B50400FC33986A01218F
:10288800FEF711FE00212000FFF7D9FF10BD03005D
:1028980010B50400FC33986A0121FEF704FE0121FB
:1028A8002000FFF7CCFF10BDF0B5012185B0040072
:1028B800FFF7C5FF00281DD102252600FF27FC369B
:1028C800029701950095020005234021B06AFEF7A2
:1028D80080FD00280ED101002000FFF7C5FD00286B
:1028E80008D1062302970195009302003121B06AAE
:1028F800FEF76FFD05B0F0BDF0B50F002D3FFBB240
:1029080004000E0085B0C32B15D80121FFF797FFEF
:10291800FC340500782E24D805213800FDF76EFC1C
:10292800FF2320220293FD3B0193002302430093DF
:10293800D2B205330DE0002917D10121FFF77FFF3F
:10294800FF23050032000293FD3B01930333FC345F
:1029580000930B21A06AFEF73CFD284300B205B0A6
:10296800F0BD30000A211E30D8E711204042F6E7BA
:10297800F0B50600FC36050000230722B06A85B0D2
:102988000F1C2421FEF7C2FC0024A04204D101211F
:102998002800FFF754FF04009221381CC90509F0EC
:1029A8007FF80BF077FA0022184B0AF09BFB08F02F
:1029B800F1FCFF2702230021019300910297020CEA
:1029C8000500D2B2B06A05330631FEF702FD0223D4
:1029D800002101930091029705332A0A1900044344
:1029E800D2B2B06AFEF7F5FC0223002101930091F0
:1029F800029724B20443EAB2B06A05330831FEF7FD
:102A0800E8FC24B2204300B205B0F0BD0000A03FAE
:102A1800F0B50D0085B00121040016000193FFF701
:102A28000EFF002855D12000FFF7F8FC802867D159
:102A3800236831005B6E2000984723680290DF69A5
:102A4800320029002000019BB847002841D1029894
:102A580027000BF0F9F90022454B0AF043FB08F078
:102A680099FCFC37BB6A0190186803681B6A984791
:102A78000500BA6A1068516903689B68984700287E
:102A880029D02700FC37BB6A186803681B6A984777
:102A9800019030000BF0D8F90022364B0AF022FBE7
:102AA800019B02900391581B09F036FB0BF0F2F9D9
:102AB8000022314B09F0D0FE0B0002000298039966
:102AC80009F0CAFE0BF02EFA236878641B6A20000E
:102AD800984705B0F0BDBB6A18680368DB6C984777
:102AE800BB6A186803681B6A9847019B401B8342AE
:102AF800BFD2236820001B6A984705204042E8E7B8
:102B0800002833D1236831005B6E20009847236882
:102B18000290DF69320029002000019BB847002895
:102B2800D7D105232700029AFC375343134A9B1831
:102B38000193BB6A186803681B6A98470500BA6A5C
:102B48001068516903689B689847002899D1BB6A47
:102B580018680368DB6C9847BB6A186803681B6AC7
:102B68009847019B401B8342E9D2C2E70120C5E791
:102B78000000F83F0000204080842E4188130000A8
:102B880070B505000C00FFF749FC002823D12E0082
:102B9800FC360321B06AFEF786FC002C15D0220C07
:102BA8000621B06AD2B2FEF7ECFB220A0721B06A0E
:102BB800D2B2FEF7E6FB0821B06AE2B2FEF7E1FB0B
:102BC80003212800FFF73BFE04E02800FFF76CFE16
:102BD8000028F5D070BD14204042FBE710B5040072
:102BE800FFF71CFC00280FD12300FC33986A022150
:102BF800FEF759FC2000FFF757FE002803D10521F6
:102C08002000FFF71CFE10BD14204042FBE730B542
:102C180085B004000D00FFF701FC802812D10121C6
:102C28002000FFF70CFEFF230293FD3B01930023D6
:102C3800FC3400932A003921A06A0733FEF7C9FB48
:102C480005B030BD14204042FAE7F0B587B0040063
:102C58000E001500FFF7E2FBC0B2002831D16B1E51
:102C6800072B3BD83300AA191978002936D001332D
:102C78009A42F9D1FF2302270293FB3B0197009365
:102C8800FC3410222721A06AFEF7A3FBFF2302933E
:102C98000023019700936A1E3B0005902721A06A34
:102CA800D2B2FEF796FB059B03431FB2002F05D156
:102CB8002B0032002821A06AFEF740FB380007B03D
:102CC800F0BD802807D1012D08D820003178FFF702
:102CD8009EFF0700F2E714277F42EFE76927FBE72B
:102CE800F0B50C0087B001210600FFF7A8FD051E0E
:102CF80022D13000FFF792FBC0B280281FD1052CEB
:102D080036D9FF230227029301970095220AFC3641
:102D18002021D2B2F83BB06AFEF75BFBFF232121EA
:102D280002930590E2B201970095F83BB06AFEF76E
:102D380050FB059F07433DB2280007B0F0BD0028AF
:102D480019D1FF230227E408029301970095A2B244
:102D5800FC362521120AF83BB06AFEF73AFBFF233E
:102D6800262102930590E2B201970095F83BDDE732
:102D780012256D42E0E70125FBE70000F0B58BB0B6
:102D880005000E1C0892FFF749FB002800D07BE0E5
:102D98009C23FC215B00EB5C8905301C002B00D1D7
:102DA80069E0FDF785FB002800D170E0301C0BF0CE
:102DB80071F8384A384BFDF72DFB002867D0012100
:102DC8002800FFF73CFD041E52D1301C0BF062F8BE
:102DD80002000B000020314909F03EFD06900791E2
:102DE80008F0D8FA83B202211A0A2F000593FF23AC
:102DF800019102930094FC37F83BB86AFEF7E9FAB0
:102E08006B4602211A7DFF230191029300940990D9
:102E1800F83BB86A0131FEF7DCFA099B03431CB2A0
:102E28009C235B00ED5C002D1FD1059809F074F917
:102E38000BF030F802000B00069807990AF016FC10
:102E48000BF070F88321C90508F02AFE08F08AFA09
:102E5800FF230293FD3B01930095C2B20899B86A1B
:102E68000533FEF7B6FA044324B2002C00D1BE6342
:102E780020000BB0F0BDFDF71BFB002807D0084968
:102E8800301CFDF701FB98E714246442F0E7652441
:102E9800FBE7C0469DA1B8E34D6240400040DF40DB
:102EA80000009643F0B587B004000D1CFFF7B6FA92
:102EB800002855D10021281CFDF7DCFA2E1C00281B
:102EC80000D02A4E2700FC37B86B0AF0E3FF002237
:102ED800274B0AF007F904900591301C0AF0DAFF35
:102EE80002000B000498059909F058F90022214BBB
:102EF800FDF790FA002836D01F49281CFDF7C4FAC0
:102F0800002830D020000121FFF799FC041E24D1AD
:102F18009221301CC90508F0C3FD184908F0DAFBF6
:102F280008F020FA0226FF23019602930094020A71
:102F380005000421D2B2FA3BB86AFEF74AFAFF2329
:102F480001960293009404900521B86AEAB2F83B0E
:102F5800FEF73FFA049E064334B2200007B0F0BDE6
:102F680014246442F9E76624FBE7C0469A99193F9E
:102F78000000E03F00406F40000048430000FA4670
:102F8800F7B50400FFF74AFA11230193002801D08E
:102F98001B3301932700002505212000FC37FFF78C
:102FA8004EFCBB6A0A2118682E0003685B699847C3
:102FB8000199B86AFEF784F901231840A840ED1872
:102FC8000643F6B2082DF3D119002000FFF737FCAD
:102FD8003000FEBDF0B585B004000D00FFF71EFA05
:102FE800802849D1FF26FC34A06A0296002D22D001
:102FF800022706234022332101970093FEF7E9F9BF
:10300800019700270296009705003B003A003321FC
:10301800A06AFEF7DEF902230296019300970543A2
:1030280019223B21A06A0533FEF7D3F92DB22843B4
:1030380000B205B0F0BD0223019304332A00332106
:103048000093FEF7C6F90223029601930095070044
:103058002B0001223321A06AFEF7BBF90223029656
:103068000193009507431D223B21A06A0533FEF713
:10307800B0F93FB23843DBE714204042D9E77FB5C7
:103088000E0000210500FFF7DAFBFF2304002800EB
:103098000293FA3B019302330093FC303200012182
:1030A800806AFEF796F9012104432800FFF7C7FB61
:1030B80024B2204300B204B070BDF7B505000F007C
:1030C8000400FC35A86A16000193FDF7ABFFA96A56
:1030D80008684969036842681B689847A96A0868CC
:1030E800C969036842681B68984739002000FFF7E0
:1030F80077F9002805D1A86AFDF7A7FF022040420A
:10310800FEBD236820009B6898470028F8D120005E
:10311800FFF757F90028F3D12000FFF77FF980283F
:103128001AD131002000FFF772FD0028E8D13C21B8
:103138002000FFF7E1FB0028E2D120000199FFF70A
:10314800CFFD0028DCD101002000FFF743FF002855
:10315800D6D100236B64D3E780212000FFF78FFFCF
:103168000028DED0CCE710B50400FFF757F9802817
:1031780006D1FF221221FC34A06AFEF702F910BD25
:103188000028FCD1FC34FF223E21A06AFEF7F9F8A2
:10319800FF223F21F0E7F0B50F0087B001210500BD
:1031A8000592FFF74CFB041E52D12800FFF736F9B1
:1031B8002E000300FC36802852D123000722242148
:1031C800B06AFEF7A3F8FF220223029201930028B7
:1031D80041DDDB180093EF3A03334021B06AFEF774
:1031E800F8F898235B00EB5C0400062B0ED1F9334A
:1031F8000293FD3B0193002300933A002221B06A19
:103208000733FEF7E6F8044324B237642800FFF7D3
:10321800AAFF0027FF2302222E00029301920097A3
:10322800FC363A000F21F83BB06AFEF7D2F8FF23CC
:10323800022202930192009704433A000D21B06ADA
:10324800F83BFEF7C6F824B2044324B2BC4227D0A8
:10325800200007B0F0BD0423220000930333BCE72D
:10326800B06A002B1CD10227FF330293F93B2200DE
:103278000093402101970133FEF7ABF8041EE7D114
:103288002800FFF770FF059B052B09D13900B06AAC
:10329800FEF709F928000599FFF7D1FA0400D7E7E6
:1032A8002B00FC330221986AF2E710B505220021B1
:1032B800FFF771FF10BD10B5029BCAB2D9B2FFF774
:1032C8006AFF10BDF7B50191012104001500FFF751
:1032D800B6FA00284ED12000FFF7A0F8802850D178
:1032E80006222000E9B2FFF756FF002842D1270046
:1032F800FC37BE6A0090F36901330FD198235B0055
:10330800E35C0130984008F007FF396B08F0E2F9F8
:10331800354908F0C5FB08F025F8009030680368C7
:103328001B6A984707002600FC36B26A1068516984
:1033380003689B689847002806D023682A00200065
:103348005B6A0199984715E0B36A18680368DB6CF3
:103358009847B36AD96918684B1C0CD103681B6A73
:103368009847009BC01B9842DDD92000FFF7FBFE61
:1033780006204042FEBD03689B6898470028D2D0CB
:10338800F3E723680028D8D1290020005B6E98470E
:1033980005220600E9B22000FFF7FDFE0028E9D16A
:1033A8000523734300932300FC339B6A1868036862
:1033B8001B6A984707002600FC36B26A10685169F4
:1033C80003689B6898470028B7D1B36A18680368F0
:1033D800DB6C9847B36A186803681B6A9847009BB8
:1033E800C01B8342E7D2C0E70000C842F0B589B0ED
:1033F80006910121040017000793FFF720FA0590B2
:1034080005002000FFF70AF80600802860D1FF2F8A
:1034180000D9A2E02600FC36002307222421B06A46
:10342800FDF774FFFF22022302920193002849DD71
:103438004021DB180093AF3A0333B06AFDF7C9FFA8
:103448002000FFF790FEFF23022100200293019144
:103458000090FAB2F83B2031B06AFDF7BAFFFF23BB
:103468000500022100200293019100900200F83B20
:103478000C31B06AFDF7ADFFFF23054302210020A0
:10348800059A029301912A43009015B2F83B020075
:103498000B31B06AFDF79DFF05432DB22600FC36BF
:1034A8003B00069A0021B06AFDF748FF0321B06A85
:1034B800FDF7F9FF03212000FFF7C1F9284300B207
:1034C80009B0F0BD06234022009311000133B4E790
:1034D8000028E3D12000FFF746FE2000FF22022348
:1034E800FC3002920193402F32D9DB180093EF3A57
:1034F80001334021806AFDF76CFF46232600FF3325
:10350800E35CFC36802B04D10021B06AFAB2FDF7E7
:1035180038FF012330210222B06AFDF7F7FE023896
:10352800FD2301001940184203D1079AB06AFDF73C
:1035380028FF402FB2D9FF230293FD3B01930533A7
:10354800009380223521B06AFDF743FF1E27A5E7C7
:103558000623320000930133CBE704204042AFE753
:10356800030010B50400FC339B6A06491868036819
:103578009B6998472000FFF7F6FD236820009B68A9
:10358800984710BD410300007FB50400FEF746FFD1
:10359800802822D101212000FFF751F900281AD1F3
:1035A8002000FFF7E0FDFF23250002260293FB3BE6
:1035B8000093FC350196A0224021A86A0333FDF749
:1035C80008FF002807D13100A86AFDF76CFF072122
:1035D8002000FFF734F904B070BD14204042FAE728
:1035E80070B505000C00002C00D170BD2B00FC3319
:1035F8000021986AFDF764FE013CF4E7F0B5040089
:1036080085B015000391FEF709FF23680290012198
:1036180020009B6D98470190002D04D0A8422FD917
:10362800431B01951D0027000523FC371A001221B2
:10363800B86AFDF76BFE202824D0029B0026802B59
:1036480025D13A23FF33E35CB86AB34231D100266F
:103658002000FC300021039B019A806AFDF70EFED2
:10366800002D03D029002000FFF7BAFFA223002273
:103678005B002000E254FFF776FD300005B0F0BD96
:103688000025D0E70726029B7642802BE0D0029BDC
:10369800002BDDD1013302223021B86AFDF736FE56
:1036A800FD2302381842D3D10299B86AFDF708FE03
:1036B800CEE706231C211A00FDF728FE0028C6D1F4
:1036C80018267642C4E71920404270471920404224
:1036D800704719204042704710B503680021DB6825
:1036E800984710BD19204042704719204042704742
:1036F8001920404270471920404270471920404223
:103708007047192040427047192084B0404204B0E5
:103718007047002070470000004870470000C8C18B
:1037280000207047002070477047704719204042BA
:1037380070477047034B41600360002382608381B8
:103748007047C046ACE5000870B504009020400002
:10375800225C0D00002A0FD12300FC33596949006F
:10376800294359611D6A9B692940994203D1012364
:103778002354A281A27370BD0126637B217BE318C9
:10378800DA7B8E401000B043002D01D03243D0B216
:103798000131C9B2D87321730829ECD1FDF765FE50
:1037A800637BE2180133D073637300232373E2E76A
:1037B8000B4A0C4B91698900C9588166D1695269D5
:1037C8008900C9589200C166D358012203670123B2
:1037D8005B424367044B836703007C331A8070475E
:1037E80074EF0008B4EF000800093D000300092148
:1037F80000225D3310B519773431597701001A70FA
:10380800DA769A7701237C310B704A70014900F00F
:1038180047F810BD00093D0037B50500836F040067
:10382800009101927C358B4204D16B462A889B8893
:103838009A420DD0200006226946783007F05CFCD9
:1038480022007D3220002B781278A16F00F028F832
:1038580037BD704710B500F02DF910BD13B56B4694
:10386800DC1DD97153425A415242012321002240A2
:1038780000F052F9207816BD10B50248FFF798FFFE
:1038880010BDC046E0020020044A030010B51068CD
:10389800002B01D003F006FC10BDC04648000020F4
:1038A800F0B589B004000D0016000593002800D17A
:1038B800CCE0744BC06E1900039305F06BFF72499E
:1038C8000190A06E05F066FF70490700206F05F0B3
:1038D80061FF6F490290606F05F05CFF019B0490E7
:1038E800002B00D1B2E0002F00D1AFE0029B002BEB
:1038F80000D1ABE03900019805F06AFF0499070090
:10390800029805F065FF01000190380005F060FF9E
:103918006066002F00D199E0019B002B00D195E053
:10392800002800D192E0636F206001335A4253416E
:10393800584A5B4213408022D2029B18A36182231B
:103948005B006360FFF7A0FF00234208AA4218D972
:1039580082080833AA4214D9C2080833AA4210D9E7
:1039680002090833AA420CD942090833AA4208D9E5
:1039780082090833AA4204D9C0090833A84200D9E9
:103988000833E3613200331E07D00023022E04D02F
:10399800731E5A1E93415A00012363610723E36291
:1039A800E023DB00E360059B22615A425341002576
:1039B800DB0123620399E06EA560A5626562656319
:1039C80005F0CEFE3049A06E05F0CAFE2F49206FE3
:1039D80005F0C6FE21694B425941236F01311A0691
:1039E800120F042A02D82C48920015580F202B4A8F
:1039F80003409B009B5803225B435A43D24302294E
:103A080026D0E9680A401343EB602149606F05F04E
:103A1800A7FE2368224A93421ED18022214B5201DD
:103A2800196C11431964196C114006910699196BA8
:103A38000A431A631A6B1C490A401A63200003F0F0
:103A48004DFC4023226811680B43136009B0F0BD98
:103A5800E9685B000A40D6E7144A9342EED1802217
:103A6800104BD201D96B1143D963D96B114007911F
:103A78000799D96A0A43DA62DA6A0D490A40DA62B2
:103A8800DCE7C04678EB0008F4EA000888EA00089A
:103A980028EA00080002FCFF1000002088E900085E
:103AA8000030014000100240FFEFFFFF00380040E7
:103AB800FFBFFFFF10B5041E12D003F088FC236877
:103AC800104A93420DD180220F4B5201196B0A43C1
:103AD8001A631A6B0D490A401A631A6C0A401A6471
:103AE80010BD0B4A9342FBD18022074BD201D96A01
:103AF8000A43DA62DA6A07490A40DA62DA6B0A408C
:103B0800DA63EDE70030014000100240FFEFFFFFED
:103B180000380040FFBFFFFFF7B50E001700022472
:103B2800002B29D00568009301F01AFC0190AB68BE
:103B38002342FCD0FF23002E01D0337801362B73AB
:103B48000123AA681A42FCD02B7B002F01D03B70BE
:103B5800013701F005FC009B013B0093019BC01A53
:103B6800FA239B00984209D2009B002BDFD11C004E
:103B78008023AA681A42FCD12000FEBD0124F7E781
:103B8800F0B52D4B0E001B78150085B0002B04D026
:103B98000B002A4A7D3B93424BD8300008F0BCFA10
:103BA800274907F097FD274907F07AFF002403907B
:103BB8000420A04080B208F063FA011C0190039829
:103BC80007F088FD270020490134E4B20290FCF791
:103BD80065FC0028ECD1062F2BD81C4C1C4B0298F6
:103BE8002360676007F0BEFB01380005194B000D24
:103BF800A0609D4217D023691748834213D0AE4274
:103C08000ED9280008F088FA0D4907F063FD0D4920
:103C180007F046FF019907F05DFD07F0A3FB0138A7
:103C28000005000D20610723E2681A42FCD10B4B06
:103C3800236005B0F0BDC0466103002043E0F301F6
:103C4800002474490000FA4600F07F450030004027
:103C580055550000C0E0F301FF0F0000AAAA0000BC
:103C680070B50C000A4B7D3C9C4210D80124094BCE
:103C78001D6E2C431C6602241D6E2542FCD0064B8B
:103C8800064C1C600124064B1C70FFF779FF70BDC1
:103C980043E0F3010010024000300040CCCC0000AB
:103CA80061030020034B1B78002B02D0024B034A10
:103CB8001A6070476103002000300040AAAA000083
:103CC800074B00201A6E920002D5814201D10120D3
:103CD80070478022196E12040A431A66F7E7C04635
:103CE800001002408022064B10B51968054B89B2B6
:103CF8004908C9020448C918120107F0FDF910BDA6
:103D0800E075FF1F00F8FF076803002010B50400E6
:103D1800FFF7E8FF014B185D10BDC046680300209F
:103D28000022F0B51D4B87B01C6801920232029246
:103D3800023203921B689BB25B08013B0493012388
:103D4800059301F069FC00280BD18022144B120660
:103D58001A6101A902A801F0F5FC051E03D001F0C3
:103D68006DFC07B0F0BDA4B20E4B6408E402E6187F
:103D78000D4BE718BE42F2D80C4B3100EB1801206E
:103D88001A685B6801F09AFC002802D108360835E9
:103D9800F0E780231B05E618ECE7C046E075FF1F37
:103DA8000020024000F8FF07FFFFFF07680300201C
:103DB80010B5024B1954FFF7B3FF10BD680300207C
:103DC80070B5040000250800A571217106F038FFC0
:103DD80065712060200070BD10B50400006806F011
:103DE80039FF200010BD00234371704740797047A8
:103DF80010B5040008006279216807F07DF9607940
:103E080010BD000000208E2912D870290AD8013070
:103E180003290DD9002004236439C9B28B424041DB
:103E2800C0B205E003487139C9B2C840012318403F
:103E38007047C046BD91FE200020882907D8702908
:103E480006D803290BD80130884280414042704788
:103E580005487139C9B2C84001231840F7E76739E6
:103E68004B425941C8B2F2E70101A000F0B585B054
:103E780004000E0003921D1CFFF7C4FF002815D094
:103E8800002701978E2E05D82B4B72009F5D2B4B78
:103E9800D35A0193637900932279DB190133934252
:103EA80006DB01230020A37105B0F0BD0223F9E76A
:103EB8000021281CFCF7DEFA431E984100210290DD
:103EC800281CFCF7D7FA002802D080231B06ED181F
:103ED800019808F021F9291C07F0E2FD07F042FAE1
:103EE800310005002000FFF7A7FF002808D0029B3B
:103EF800002B05D00123FA0093405A1E15405D1B84
:103F0800009A2368013262710399009A995463797F
:103F18002268591C6171D654002360790133DAB2E2
:103F2800C019974202D2C0B26071BDE72268C01AB8
:103F380015542D0AF1E7C0466AE700084CE6000868
:103F480010B5131C0A006721FFF790FF10BD10B5CC
:103F5800131C0A007321FFF789FF10BD030000221C
:103F68006C331A7081667047F8B503006C3305002E
:103F78000F00806E19781600002400F0C7F9A86EAB
:103F8800B44202D300F0E9FAF8BD0368395D1B6852
:103F9800984701340A2006F02BFEE4B2EFE7000050
:103FA80037B5032504002A00064901A807F0A4F83C
:103FB8002A00200001A9FFF7D7FF1E2006F018FEEF
:103FC80037BDC04684E00008F8B503006C3305002F
:103FD8000F0016001978806ED2B200F0B9FA0024EA
:103FE800A86EB44203D300F0B8FA2000F8BD036805
:103FF8005B69984738550134E4B2F1E7F0B50C0035
:1040080085B005000800FFF7CBFF02A907222000B2
:10401800FFF7DAFF02AA9078127902AB5B78009278
:1040280002AA5279029901921B0202AA9279C01837
:10403800216002A9898880B28008A271A1802081AC
:1040480009F0D2FE00221C4B09F04CF800221B4B51
:1040580009F048F800221A4B09F008FB0600606EC8
:104068000F0009F017FF02000B003000390009F0BB
:10407800FDFA09F057FF009BE0601802019B181831
:1040880080B2608109F0B0FE00220E4B09F02AF8D8
:1040980000220D4B09F026F80C4B002209F0E6FA35
:1040A80009F040FF682220612100280007F024F869
:1040B800280005B0F0BDC0460000103F00C0924087
:1040C80000C082400000F03E00405F4000004440D5
:1040D800F0B50D000E000C009FB003901435283683
:1040E800210004A8FFF78AFFE3682B6023690435E1
:1040F8006B62B542F4D1042700263500AD0065197E
:104108006B690193AB690198191C0293FCF7C6F916
:10411800002805D0019BA362029B6B61019BAB61E8
:104128000136F6B23500BE42E8DB013F002FE3D18D
:10413800A06909F0AFFE0022002308F02FF806005E
:10414800E0690F0009F0A6FE02000B0030003900FC
:1041580008F024F80600206A0F0009F09BFE020010
:104168000B003000390008F019F80022294B2063B1
:10417800616308F071FB09F0D5FE0427E0600026B2
:104188003500AD006519EB6B01932B6C0198191C78
:104198000293FCF783F9002805D0019B2365029B55
:1041A800EB63019B2B640136F6B23500B742E8DCBD
:1041B800013F002FE3D1206C09F06CFE00220023A0
:1041C80007F0ECFF0600606C0F0009F063FE0200C8
:1041D8000B003000390007F0E1FF0600A06C0F006B
:1041E80009F058FE02000B003000390007F0D6FF36
:1041F800084B0022A065E16508F02EFB09F092FE4D
:10420800682220612100039806F076FF03981FB00A
:10421800F0BDC0460000084030B504009BB0002146
:10422800806E00F08BFA23006C331978A06E00F0D2
:104238006DF8A06E00F091F9051E08D168462100BE
:10424800FFF746FF2800E36863661BB030BD012016
:104258004042FAE700207047038BC08A181A70475B
:10426800C28A018B0300914204D90169885C01323A
:10427800DA82704701204042FBE7C38A028B9A42E8
:1042880002D90269D05C704701204042FBE7836D88
:1042980010B51800D4308268002A03D000225A844E
:1042A800C368984710BD836810B50400002B02D07E
:1042B800032201009847200010BD70B50400283083
:1042C80000F0C2FCE069002803D006F0C3FC00231C
:1042D800E361002520692584A84202D006F0BAFCD3
:1042E8002561A58270BD000010B50400064B03606F
:1042F800FFF7E3FF2000D430FFF7D5FF2000C430DC
:10430800FFF7D1FF200010BD04E800080122431D7B
:10431800DA779140002381764384704770B5838AA9
:1043280005000C008B420AD2202900D2202421004B
:10433800286906F045FD002802D02861AC8270BDCE
:10434800FEE7F7B5846D05002600C436B368876EAE
:10435800002B1AD0E28A238B9A4216D33900200008
:10436800FFF7DCFF29003A002069743106F0C4FE2B
:104378000023E382B36827830197002B01D109F05A
:104388005DFE3000F36801A99847F7BD802370B53A
:10439800DB0005000C00994211D8038C99420BD917
:1043A8000E00202900D220263100E86906F008FD19
:1043B800002803D0E8612E84200070BDFEE70024A9
:1043C800FAE713B56B46D971431DDB7F0400002B58
:1043D8000FD0418C0131FFF7D9FF002808D06B4678
:1043E8000120D979E269638CD154638C01336384E9
:1043F80016BD6B460122D91D283000F030FC43421F
:104408005841F5E770B5431DDB7F04000E00150029
:10441800002B13D0418C8918FFF7B8FF002802D170
:104428000025280070BD638CE0692A00C01831009F
:1044380006F062FE638C5B196384F2E792B228305F
:1044480000F00DFC0028EBD1EBE70300C06910B5C4
:10445800002803D000211A8C06F097FD10BD70B516
:10446800AA23040000291BD1A3652300BE331B78AF
:104478000425012B12D12000638CA17EE26928302B
:1044880000F06CFC031CA84200D92B1C20005DB274
:10449800FFF7DBFF002363840534E377E8B270BDE0
:1044A8001B02E1E7F0B585B002930AAB1F780BABAE
:1044B8001B78040003930300BE331B780E0015001D
:1044C8000193012B3BD111007600FFF727FFF6B2CD
:1044D800002F1BD0019A631DDA770023A676638428
:1044E8003B1C032F00D90323013BDFB2FF000299D5
:1044F8002368F9401B682000C9B2083F98473B0071
:104508000833F4D100212000FFF7A9FF039B002BFB
:1045180012D1AA332000A36531002B00226928306C
:1045280000F0B7FB43425841002340420540E38274
:104538002583280005B0F0BDAA231B02EAE7002561
:10454800F7E707B5019300230093FFF7ABFF0EBD14
:1045580010B50123FFF7F5FF10BD10B50121FFF7D6
:104568007EFF10BD002110B50400C18201830069DF
:10457800884202D0A28A06F008FD00232000638446
:10458800FFF763FF10BD0000F0B504000F250834E5
:1045980089B00600E06F06F09BF9002106F0DCF90F
:1045A800E36F1A092A40042A00D972E03C499200B4
:1045B80051583C4C2B409B001A590B6913409A42A6
:1045C8005DD08836306806F083F9012106F0C4F919
:1045D800336801931B092B400293042B5CD8019B81
:1045E8002B409B001B59053503930920FA21029A99
:1045F8002B4B9200D758039B2B4CBB62A3688900B6
:104608000493666801367043FBF76EFD0022049B35
:104618000593A36804930599049B994231D205999F
:10462800049BF31A5B18D218049B05939042F0D8A8
:104638000920FA21039B8900BB61A3680693666879
:1046480001367043FBF750FD0022069B0793A368D1
:1046580006930799069B994217D20799069BF31A66
:104668005B18D218069B07939042F0D8013D002DA5
:10467800BBD1019806F02CF9290006F06DF909B0B4
:10468800F0BD059B04995B1ACDE7079B06995B1A59
:10469800E7E700231B69FFDE00239B62FBE7C046B8
:1046A8001000002088E9000810E000E0F7B50026B7
:1046B80007000193031D8676066146610683C6617D
:1046C8000662D437D867BB6804000D000092B34275
:1046D80005D00322390038009847BE60FE600022EA
:1046E800631DDA77A61D6B00013DF37727006B4247
:1046F8005D412300009ABF33BE373D701A70019A9E
:1047080020005A702834FFF73FFFF37F0122200072
:10471800074900F0F7F93B78002B07D1200005493D
:1047280000F074FB2000044900F066FBF7BDC046AA
:10473800A0860100974200084B43000810B50A0004
:1047480000230121FFF7B2FF10BD10B50C22002194
:10475800040006F01AFC00232000E36010BD10B529
:104768000C220021040006F010FC00232000E36066
:1047780010BD0000FA2370B5002504009B0083607B
:104788000C4B45600360C430FFF7DFFF2000D430D6
:10479800FFF7E5FF200029009C22283006F0F5FBF2
:1047A8002200054B0832D96D2000D1679B6D8032FD
:1047B800136070BD04E80008B4EF000810B50248A3
:1047C800FFF7D8FF10BDC046680B002010B502489F
:1047D800FFF78AFD10BDC046680B0020124A03008F
:1047E80010B5904217D1202002F08AFC002811D180
:1047F800C0220E4B92015B6D1340802252019342FE
:1048080006D08022920193420CD0002B07D0FEE7FD
:10481800074B186810BD074A00209342FAD102F0EE
:1048280041FCF7E70448F5E7005400400010024057
:1048380048000020005800400024F400F0B5A7B05C
:104848001491149A9A49D20003005058984204D1FE
:1048580088184068002800D027E1964D58088B50EA
:1048680040191900FBF740FC1C23149A924C5A4338
:1048780011590600480840191592FBF735FC159B9D
:104888000390E418E28A238B0D92A17E0D98228A68
:1048980016931218CB1C734316981C92A289714365
:1048A8001218323AD21A0492D2430498D2171040FE
:1048B8000490E2890D98F318121A053AFF3AD31AB0
:1048C8000593DB43059ADB171A4028000E916168AF
:1048D8000592FBF709FCA1681D902800FBF704FC72
:1048E8000E9A730032339B181A9373420C931A9BD7
:1048F8000025F718039B1E9017930120102311958C
:104908001893404216992A078C4624920D9AEBB2C6
:10491800624419921999039A1B93511A7A008A1AB8
:10492800209200221A9B0B92FB1A13931C9A13993C
:104938008A4200D9A2E00B9A24990A4323920022C2
:104948000A920992049A09998A4200D988E0059A3C
:104958008A4200D284E0189A1B998A4200D17FE0EB
:10496800119A01321192072A00D99EE0628A0A99A7
:104978001F92239A0A4322920E9A1599BA1A029202
:10498800199AD2191292209A1092002208924A4A31
:10499800521825920E99029A52181F9991424CD298
:1049A800029A323A9208964247D22299089A069772
:1049B8000A432192039A1299BA1A5218109901922D
:1049C8008C4600210791019A039989181E9A8A42F8
:1049D8001FD81D9A8A421CD3259A918A069A914219
:1049E80017D8964215D2019A0F92002A01DA624628
:1049F8000F920F9A17998A420BD2219A07982C493D
:104A08001043149AD20089181B9A486018920F9A7A
:104A18001792019A0799D218013101920C9AFF3125
:104A280007916146944661448C468021069A490262
:104A3800D2180692079A8A42C5D10C99089A8C46D0
:104A480001320892029A0899D2180292109A624486
:104A58001092129AD218129280225200914299D141
:104A6800099A0A99D2180992802252028A180A923F
:104A780080220A995203914200D063E780214903BA
:104A88008C46139AD21813920B9A62440B92802286
:104A98000B995204914200D048E70C9B01359B1BAF
:104AA8000C93BF19102D00D02CE727B0F0BDC046DD
:104AB800540C002000CA9A3B28E800080E4A03005C
:104AC80010B5914212D90D4A914206D80068FFF7F5
:104AD80085FE0121FFF7B2FE10BD094A0020914270
:104AE800FAD81868FFF77AFE0221F3E70068FFF7A3
:104AF80075FE0021EEE7C046A0860100801A060078
:104B080040420F00F0B587B0041E01910292039352
:104B180000D187E0444EC06D310004F03BFE434FA6
:104B280005003900206E04F035FE0100002D79D013
:104B3800002877D0280004F04BFE2060002871D0B0
:104B48003B4B251D98424ED180223A4B9203D96B9C
:104B58001143D963D96B114004910499D96A0A4366
:104B6800DA62DA6A34490A40DA62230017226433C7
:104B78001A70324B1D603900206E04F0F1FD3100CF
:104B8800E06D04F0EDFD2368019963602000FFF7F4
:104B980095FF039B0022E360029BA0602361230032
:104BA800A261626197331B782600591E8B41DB0492
:104BB8002362230098331B780020591E8B415B0425
:104BC8006362230045331A7064360221305600F0C0
:104BD800CDFB0020305600F0F3FB280000F07EFFEC
:104BE80000281BD0FEE7164B9842C4D18022114BF7
:104BF800D203D96B1143D963D96B1140059105993B
:104C0800D96A0A43DA62DA6A0E490A40DA6223008C
:104C1800182264331A70094B5D60ACE70223A06662
:104C28009534237007B0F0BD14EF0008B4EE000807
:104C38000054004000100240FFFFDFFF4C0C002032
:104C480000580040FFFFBFFF10B5041D6430007816
:104C580040B200F0C1FB200000F097FF10BD70B516
:104C6800060014000120202A0AD8350000229435B5
:104C780093B29C4205D800202A781219D2B22A7021
:104C880070BD2B78885C9B18F31874331870013248
:104C9800EEE7F0B5060087B003910492059300F0A3
:104CA8005FFB0024376B0290351D059B2800049A92
:104CB8000399009701F072F80300022807D100F069
:104CC8004FFB029BC41A642CEED9062023E0042073
:104CD800002B20D100F044FB0600280001F0A1FEC3
:104CE800202809D0632C07D800F03AFB841B280041
:104CF80001F09BFE0028F0D0280001F096FE03008A
:104D08000520632C07D89A0605D402385A0702D41E
:104D18005A1E9341980007B0F0BD10B564230400F3
:104D2800043000F04DFF02280BD0032802D00028E1
:104D38000DD110BD453423780220202BF9D0033043
:104D4800F7E745342378202BF3D00620F1E74534E4
:104D580023780220202BECD00018EAE7F0B587B0C2
:104D680005001F000291059200F0FAFA0390002F47
:104D780006D1012228000299FFF7CFFF07B0F0BD46
:104D880000242B6B0493049B2E1D009330003B00E2
:104D9800059A029900F0ACFF0300022807D100F041
:104DA800DFFA039BC41A642CEDD90620E6E7042039
:104DB800002BE3D100F0D4FA0500300001F031FEF9
:104DC800202809D0632C07D800F0CAFA441B300009
:104DD80001F02BFE0028F0D0300001F026FE030081
:104DE8000520632CCAD89A06C8D402385A07C5D4F5
:104DF8005A1E93419800C1E710B5002805D0002934
:104E080003D0C166043001F0F9F810BD10B50028D0
:104E180005D0002903D00167043001F0EFF810BD78
:104E2800F8B506009136337805000F00041F012BF2
:104E380009D1A36E002B06D0E36E20009847022309
:104E480033700023A3660023012F12D133702E0084
:104E5800226F90369A4202D0200033709047290082
:104E6800802332782800D2B270319B0400F0ECFF26
:104E7800F8BD0122A3663270A36E28007433E118CE
:104E880080235B0401F04EF8F2E770B50600913616
:104E980033780400051F012B05D1AB6E002B02D01F
:104EA8002800EB6E98470223337000232000AB667E
:104EB80001F0A4F870BD426E031F10B51F2A02DC72
:104EC8009A6E01329A66020091321178CAB20129AB
:104ED80006D1996E8023703141185B0401F022F8E5
:104EE80010BD0023903003707047030010B5923353
:104EF8001B78002B01D101F081F810BD044B10B5CF
:104F08001C68200001F08EF8200001F09BFB10BD0A
:104F18004C0C0020044B10B55C68200001F082F8AE
:104F2800200001F08FFB10BD4C0C0020036910B568
:104F3800181E02D01A681268904710BD036910B590
:104F4800181E02D01A681269904710BD036910B57F
:104F5800181E02D01A685269904710BD036910B52F
:104F6800181E02D01A689269904710BD006910B5E2
:104F7800002802D00368DB68984710BD70B50C4D57
:104F88000C49280005F0C0F90B4B1C68002C01D116
:104F9800200070BD0949280005F09AF961682800C9
:104FA80005F096F9280005F0A7F92468EEE7C04651
:104FB800700C00207CE800086C0C002094E80008C5
:104FC8001FB50C00010001A805F026FC202101A84E
:104FD80005F049FC011E02DB01A805F063FC210075
:104FE8005822019805F0E8FF040001A805F0BCFB71
:104FF800200004B010BD0000F0B50C2085B00E00F4
:10500800150004F0A1F8040046600D4E856035686F
:10501800002D10D0696801A805F0FEFB01996068B1
:10502800FFF7CEFF070001A805F09EFB002F02DD69
:105038002E002D68ECE73460256005B0F0BDC04651
:105048006C0C00200161704710B558220400002143
:10505800183005F09AFF0023236710BDFA220023B9
:1050680010B504009200436082600361064A436100
:10507800064B02604367FFF7E7FF2000044A054933
:10508800FFF7BAFF200010BDECE8000869B000087F
:10509800854F000897E8000810B504002368200031
:1050A8005B699847010015281FDC072811DC431CA1
:1050B80044D00028F2D0236FC9B25A1CE3182267E3
:1050C8001976236820001B689847236F562BE5DD67
:1050D80032E008380D28EED8FAF7F2FF0BEDE0EDD4
:1050E800ED2BEDEDEDED19EDED233B2821D07F28DB
:1050F800E1D1236F002BD1DD2000114905F0E8F83C
:105108000022236F013B2367E3181A76C6E72000C5
:105118000C4905F0DDF821002000183105F0E3F80E
:10512800BCE72000084905F0EFF82000FFF78CFFE6
:10513800B4E7200005F0E0F8012010BD0020FCE7EE
:105148009CE80008BEE80008A0E8000830B50400A4
:10515800150085B0002A19D001A805F05DFB0A22C8
:105168002900200005F02EF9002101A805F05EFBBA
:105178000378002B07D00949200005F0A9F8200082
:1051880001A905F0CBF801A805F0EEFA2000FFF719
:105198005BFF2800656105B030BDC046A7E8000880
:1051A800F8B5002304000F0015004361154B1E6875
:1051B800002E13D11449200005F08AF82968200030
:1051C80005F091F81149200005F082F8012220002D
:1051D8000F495242FFF7BAFF05000EE029687068D0
:1051E800FFF7EEFE00280AD129003800B368984777
:1051F800050060612000FFF727FF2800F8BD36682A
:10520800D6E7C0466C0C0020A4E80008A6E8000811
:10521800AAE80008F0B505008DB002AE28220021EA
:10522800300005F0B2FE2A0000232800174F6F3225
:105238001370019339006B6F183001AA9847041E48
:1052480009D11349280005F05FF82800FFF7FCFE94
:1052580020000DB0F0BD01240290390000206B6FD2
:1052680001AA984700280BD0A3000134F0500A2C5B
:10527800F3D10122280007495242FFF767FFE8E708
:10528800320021002800FFF78BFFE2E7BCE80008A6
:10529800C1E80008C4E8000870B50400FFF7FCFE88
:1052A800051E06D02000FFF7B5FF2000024905F0D3
:1052B8000FF8280070BDC046E0E8000810B50248A5
:1052C800FFF7CCFE10BDC046700C002070470000F0
:1052D80070B5104B05001978002901D1012070BD67
:1052E800FA208000FAF700FF0B4C01002068FAF75B
:1052F800FBFE00F081F8041EF0D1032DEED8020069
:1053080001202900404200F031F8044B20001D60C4
:10531800E5E7C046040000204800002008000020FF
:105328008023084A5B00116810B50B430020136006
:10533800FFF7CEFF041E03D1FFF7C8FF200010BD02
:105348000124FBE700200240034A044B11681B7844
:105358005B1813607047C046E80C0020040000206A
:10536800014B18687047C046E80C002010B5FF24B0
:1053780003220B0021000240D20091409B012340F0
:10538800C943934000280ADBC0240B4A80088000E8
:105398008018A40002590A401343035110BD0F227C
:1053A80010400838054A800880008018C2691140FA
:1053B8001943C161F2E7C04600E100E000ED00E0FA
:1053C800002805DB1F2318401E3B8340014A136059
:1053D8007047C04600E100E0002809DB1F231840A1
:1053E8001E3B8340034AD367BFF34F8FBFF36F8FD2
:1053F8007047C04604E100E08022431E52040120A9
:1054080093420DD2C021074A07485360036A090630
:105418001B021B0A0B4303620020072390601360E2
:105428007047C04610E000E000ED00E0002807DB10
:105438001F23C02218401E3B8340024952008B5054
:105448007047C04600E100E0704710B5FFF7FCFF69
:1054580010BD704710B5041E01D1012010BD437F57
:10546800DAB2002B02D10277FFF7F3FF022363774A
:105478002379002B1CD118212368124A5A619A6893
:105488008A439A6062792368002A19D1013A602117
:105498001A619A6800208A4361690A4380219A60E8
:1054A8009A688A43A1690A439A6001236377D5E71A
:1054B8002000E268A16800F007F80028E2D0CCE7F5
:1054C8002269E4E7B71DC10430B51F230400012099
:1054D800013B21D30D00DD400542F9D0102A14D03C
:1054E80005D8002A08D00120082A12D030BD012092
:1054F800182AFBD1062BF9D8206841611821836846
:105508008B43134383600020F0E70120072BF3D976
:10551800ECE70F2BF0D9E9E70120102AE6D0E5D80F
:10552800002AE3D1E8E70000F0B5002808D0841D80
:10553800E37F411D022B05D00423C3630023CB77EF
:105548000120F0BD0E250268466C1368AB4313605A
:105558003368104D2B403360012316689E43166054
:10556800026C1B331A401B3B93400B4E77683B433E
:105578007360C26C836C5A60036D002B05D01A6887
:105588002A401A60436D826D5A6001230020E37738
:10559800C877D6E7FFFEFFFF00000240F8B5811D7F
:1055A800CB7F022B03D00423C3630120F8BD0E2454
:1055B80002681C271368456CA34313600123146811
:1055C8009C4314602A68104C22402A60026C0F4DDC
:1055D8003A4093406E6833436B60C26C836C5A6088
:1055E800036D002B05D01A6822401A60436D826D46
:1055F8005A6001230022CB77431DDA77836B9342ED
:1056080000D098470020D1E7FFFEFFFF00000240CE
:105618000630C07FC0B270470020054B5A698242ED
:1056280005DA044A9A60044A9A605869C00F7047BC
:105638000020024023016745AB89EFCD8022044B4F
:10564800120659690A435A615869C043C00F704726
:1056580000200240F8B505008027FFF781FE7F0291
:105668004619124C23693B420BD12269104B110099
:105678001048194020611A4209D00F4B0120596087
:1056880004E0FFF76DFEB042EBD30320F8BDFFF74F
:1056980067FE80264519F602236918003040334218
:1056A800F4D0FFF75DFEA842F6D3EEE700200240F3
:1056B800FA830000FB830000EC0C0020F7B5174EBE
:1056C8000193337804000D0002200092012B1ED0B4
:1056D8000123FA203370002380007360FFF7BAFFBC
:1056E800002812D10E4F012C12D17B6923437B6114
:1056F800009B2B60BFF36F8F019B6B60FA208000CB
:10570800FFF7A8FF7B69A3437B6100233370FEBDCD
:105718002800009908F0A4FCF0E7C046EC0C002033
:1057280000200240044A05485369C9000340194350
:10573800034B0B43536170470020024007E0FFFF13
:1057480002000100F7B5214F05003B7802240191C2
:10575800012B1AD00123FA203B70002380007B60C4
:10576800FFF778FF041E0ED104236B602B68042B0F
:105778000DD1FA20164A174B516980000B4353612B
:10578800FFF768FF040000233B702000FEBD0123E3
:10579800019A5B421360AE68AB68EA689B18B34233
:1057A8000CD968683100FFF7BDFFFA208000FFF7C9
:1057B80051FF002808D00400019B1E600221044A02
:1057C80053698B435361DEE70136E5E7EC0C0020B3
:1057D80000200240040001000023F0B585B00A68EB
:1057E8001400DC4001D105B0F0BD012514009D4036
:1057F8002C4000942A427AD04A685E0094460322DC
:105808006446224001920322B240019CD243013CEB
:10581800012C6ED8CC688768B44017403C4384603C
:1058280044680127AC432500644624093C409C4059
:105838002C4344608C68C568B44015402C43C46050
:10584800019C022C5FD004682240019CB4401443A0
:105858000460C0246246A402224248D0344A032588
:105868009C08A400A4180F221D40ED00AA40A02700
:10587800266EFF0596430022B8420CD02D4F013208
:10588800B84208D02C4F0132B84204D02B4F033213
:10589800B84200D1023AAA40674632432266244CF5
:1058A800009A2668009DD2433543FF0201D4350093
:1058B8001540674625606668009D3543BF0201D4E0
:1058C80035001540674665601D4C009DE66F354301
:1058D800BF0301D4350015406746E567194C009EA3
:1058E800E56F2E43FF0301D415402E00E667013310
:1058F80075E7019C032CA6D08C68C568B440154098
:105908002C43C4609FE707250F271D40AD00AF401B
:10591800DC08A40004190294246A03972700039C56
:10592800A7433C000F69AF402743029C27628AE7E0
:10593800001802400004005000080050000C0050FD
:10594800081802400418024070B5084D0400EB68BE
:10595800184202D0E86003F05BFD2B69234203D0B4
:1059680020002C6103F058FD70BDC04600180240AD
:1059780003689A69920701D500229A6201229969FF
:10598800114202D199690A439A61704730B5039C64
:1059980000682343120489051A43890D054B45689D
:1059A8000A43640D234352009D4352082A43426030
:1059B80030BDC046FF63FF0310B5436B174C0AB2F6
:1059C800A34202D0164CA34212D1B823002A0ADB04
:1059D800283B102907D0303B202904D00B00403B3E
:1059E8005A4253419B0101680A6813430B6010BD7A
:1059F80000239A4200DAB833CA0701D5F2221343CA
:105A08008A0701D5F4221343102902D190221343A7
:105A1800E9E72029E7D10B43E5E7C04645650008DB
:105A2800D9670008002310B5CA0708D50300413319
:105A38001A7828231A40CA33282A00D1B03B8A078B
:105A480008D502002824413212782240A2420BD104
:105A58004422134309B2002901DAB822134301682A
:105A68000A689A430A6010BDF422F2E7C36AAA2BB7
:105A780002D10023C3627047AA23C26A1B029A425A
:105A8800F9D180239B04F5E7F8B504000E00170050
:105A98001D002268936933409B1B59424B41BB420E
:105AA80001D0002017E06B1CF4D0FFF759FC069BCF
:105AB800C01AA84201D8002DEBD12022636C012026
:105AC80013436364230041331A70220000234232D7
