:020000040800F2
:1000000000200020DD7F00082D8000082D800008E2
:1000100000000000000000000000000000000000E0
:100020000000000000000000000000002D8000081B
:1000300000000000000000002D800008976A000802
:100040002D800008000000002D8000082D80000891
:100050002D800008C56B0008D56B0008E56B000813
:10006000000000002D8000082D8000082D80000871
:100070002D800008056700081D67000800000000CB
:100080002567000800000000000000003D67000830
:1000900000000000556700086D6700082D8000080B
:1000A0002D8000082D8000082D800008957500081F
:0800B000AD750008000000001E
:1000B8000023C25C0133002AFBD1581E70470000A0
:1000C80002B4714649084900095649008E4402BCE9
:1000D8007047C04602B4714649084900095C4900A6
:1000E8008E4402BC7047C046002243088B4274D33A
:1000F80003098B425FD3030A8B4244D3030B8B4221
:1001080028D3030C8B420DD3FF22090212BA030C29
:100118008B4202D31212090265D0030B8B4219D30A
:1001280000E0090AC30B8B4201D3CB03C01A52412A
:10013800830B8B4201D38B03C01A5241430B8B4272
:1001480001D34B03C01A5241030B8B4201D30B035B
:10015800C01A5241C30A8B4201D3CB02C01A524182
:10016800830A8B4201D38B02C01A5241430A8B4245
:1001780001D34B02C01A5241030A8B4201D30B022E
:10018800C01A5241CDD2C3098B4201D3CB01C01A48
:10019800524183098B4201D38B01C01A5241430952
:1001A8008B4201D34B01C01A524103098B4201D340
:1001B8000B01C01A5241C3088B4201D3CB00C01AAD
:1001C800524183088B4201D38B00C01A5241430825
:1001D8008B4201D34B00C01A5241411A00D201464A
:1001E800524110467047FFE701B5002000F0F0F8D3
:1001F80002BDC0460029F7D076E7704703460B4397
:100208007FD4002243088B4274D303098B425FD307
:10021800030A8B4244D3030B8B4228D3030C8B4233
:100228000DD3FF22090212BA030C8B4202D3121219
:10023800090265D0030B8B4219D300E0090AC30BEE
:100248008B4201D3CB03C01A5241830B8B4201D39B
:100258008B03C01A5241430B8B4201D34B03C01A84
:100268005241030B8B4201D30B03C01A5241C30AFC
:100278008B4201D3CB02C01A5241830A8B4201D36D
:100288008B02C01A5241430A8B4201D34B02C01A57
:100298005241030A8B4201D30B02C01A5241CDD2FC
:1002A800C3098B4201D3CB01C01A524183098B4247
:1002B80001D38B01C01A524143098B4201D34B0130
:1002C800C01A524103098B4201D30B01C01A524193
:1002D800C3088B4201D3CB00C01A524183088B421A
:1002E80001D38B00C01A524143088B4201D34B0003
:1002F800C01A5241411A00D2014652411046704775
:100308005DE0CA0F00D04942031000D34042534079
:1003180000229C4603098B422DD3030A8B4212D339
:10032800FC22890112BA030A8B420CD3890192116B
:100338008B4208D3890192118B4204D389013AD0A8
:10034800921100E08909C3098B4201D3CB01C01A7D
:10035800524183098B4201D38B01C01A5241430990
:100368008B4201D34B01C01A524103098B4201D37E
:100378000B01C01A5241C3088B4201D3CB00C01AEB
:10038800524183088B4201D38B00C01A5241D9D203
:1003980043088B4201D34B00C01A5241411A00D284
:1003A8000146634652415B10104601D34042002B80
:1003B80000D54942704763465B1000D3404201B5FF
:1003C800002000F005F802BD0029F8D016E77047B4
:1003D8007047C0468446100062468C461900634642
:1003E80000E0C0461FB50BF099F9002801D40021A0
:1003F800C8421FBD10B50BF0D9F84042013010BDFE
:1004080010B50BF08BF9002801DB002010BD01208E
:1004180010BDC04610B50BF081F9002801DD0020A1
:1004280010BD012010BDC04610B50BF003F900281F
:1004380001DC002010BD012010BDC04610B50BF036
:10044800F9F8002801DA002010BD012010BDC046CF
:10045800844608006146FFE71FB509F061FE0028E1
:1004680001D40021C8421FBD10B509F0E1FD40428A
:10047800013010BD10B509F053FE002801DB002043
:1004880010BD012010BDC04610B509F049FE002876
:1004980001DD002010BD012010BDC04610B509F0D7
:1004A800EFFD002801DC002010BD012010BDC04672
:1004B80010B509F0E5FD002801DA002010BD012083
:1004C80010BDC0461C2101231B04984201D3000C17
:1004D80010391B0A984201D3000A08391B099842AF
:1004E80001D30009043902A2105C40187047C046C5
:1004F80004030202010101010000000000000000E5
:1005080010B5064C2378002B07D1054B002B02D0E1
:10051800044800E000BF0123237010BDE80000205C
:1005280000000000ACC70008044B10B5002B03D036
:100538000349044800E000BF10BDC04600000000A9
:10054800EC000020ACC700080122014B1A7070476C
:100558000401002010B5034B0349186807F096FA08
:10056800002010BDDCCD0008E4C70008074B10B51B
:100578001C680749200007F07DFA064B0A22200074
:10058800197807F0C4FA002010BDC046DCCD000879
:10059800BBC8000801000020074B10B51C680749BC
:1005A800200007F067FA064B0A222000197807F0A6
:1005B800AEFA002010BDC046DCCD0008C8C800084F
:1005C80000000020074B10B51C680749200007F001
:1005D80051FA064B0A222000197807F098FA0020F1
:1005E80010BDC046DCCD0008D6C8000802000020B7
:1005F800074B10B51C680749200007F03BFA064B6B
:100608000A222000197807F082FA002010BDC0469F
:10061800DCCD0008E8C80008060100200300F7B593
:1006280004000D00070008330193EB1B20001E5D3A
:1006380003F03CFA864203D03100200003F088FA28
:10064800019B01349C42F0D1F7BD0000104B70B5FE
:100658001D68022806D028000E4907F021FA01205B
:10066800404270BD486807F04DFE0B4C0B492070A6
:10067800280007F0FFF90A222178280007F047FA36
:100688000749237800208B71FFF7C8FF0020E8E7AF
:10069800DCCD0008F1C800080601002004C90008E4
:1006A80010010020134B70B51D68022806D02800E1
:1006B800114907F0F5F90120404270BD486807F07C
:1006C80021FE0E4C0E492070280007F0D3F90A22AB
:1006D8002178280007F01BFA0A4923780020CB71FB
:1006E800FFF79CFFFA2321789B004B43064A002022
:1006F8001360E2E7DCCD0008F1C800080200002022
:1007080015C90008100100200C010020104B70B51D
:100718001D68022806D028000E4907F0C1F90120FB
:10072800404270BD486807F0EDFD0B4C0B49207046
:10073800280007F09FF90A222178280007F0E7F936
:100748000749237800208B70FFF768FF0020E8E74F
:10075800DCCD0008F1C80008000000202FC90008FF
:1007680010010020104B70B51D68022806D0280023
:100778000E4907F095F90120404270BD486807F01E
:10078800C1FD0B4C0B492070280007F073F90A22B1
:100798002178280007F0BBF90749237800208B80CF
:1007A800FFF73CFF0020E8E7DCCD0008F1C80008AF
:1007B8000100002045C900081001002070B50400A0
:1007C8000025A54200DB70BD0021222007F088FC2F
:1007D800C82007F075FD0121222007F081FCC82000
:1007E80007F06EFD0135ECE7F8B5FF230024114D45
:1007F8002B70114A6300D05A07F0B0FC002817D1BB
:1008080028780BF0A1FE060020000F000BF09CFEDC
:100818000B0080210200C905002008F081F80200C1
:100828000B00300039000BF0AFFA09F041F92870DD
:100838000134DEE705010020F0C9000810B50248C0
:1008480003F000F9FFF7D0FFE002002013B53020D5
:1008580006F048F80F230400CB220093C421B433D8
:1008680000F08EFA2100054800F026FD044B054AE9
:100878001978FA239B004B43136013BD180100201D
:10088800020000200C010020E12170B5674D86B000
:1008980006222800490207F067F80121222007F004
:1008A800C3FB0121222007F01BFC01210B2007F0CC
:1008B800BBFB00210B2007F013FC0A2007F000FD0A
:1008C8005B4E0121300003F0CBF8002802D00A204B
:1008D800FFF774FF0024200003F0E8F85549085595
:1008E8000134082CF7D10C785348544A544B012C46
:1008F80024D18C78047088881070CA791A70897924
:10090800504B1970FA239B0053434F490B60002347
:1009180004930833039309334C4C02930133019336
:100928000B3B009320004A4A4A49023300F0CEFCB0
:10093800002817D01420FFF741FFFEE712780124A2
:100948008A80404A0078127888708A711A78FA2367
:100958009B0053433C480C7003600020CA71FFF7AA
:100968005DFED4E7200004223B4901F0A7FB2000EC
:1009780002F06BFB041E00D0FEE73000374A38490E
:1009880003F03EF807F094FC364B18600320FFF79D
:1009980015FF354A63000121D05A013407F044FBA2
:1009A800082CF6D10024314A63000021D05A0134C2
:1009B80007F03AFB082CF6D12D4B29001C682000C3
:1009C80003F05CF920002B4A2B4903F031F9200091
:1009D8002A4A2B4903F02CF920002A4A2A4903F015
:1009E80027F92000294A2A4903F022F92000294A38
:1009F800294903F01DF92000284A294903F018F96C
:100A08002000284A284903F013F92000274A2849DA
:100A180003F00EF92000274A274903F009F90021BD
:100A28000800FFF797FD06B070BDC046E00C002037
:100A3800E00200201001002000000020010000203A
:100A480002000020060100200C01002018010020EF
:100A58000000FA420040664451050008C0E0F30176
:100A6800809698000801002000CA0008F0C9000814
:100A7800DCCD00085D0500085AC900081507000804
:100A88005EC90008A105000877C900086D070008BD
:100A980084C90008750500089BC9000855060008A8
:100AA800A7C90008F9050008B6C90008AD0600087E
:100AB800BEC90008CD050008DFC9000837B5080021
:100AC800421E9041081AFA210F4D8900AB68009325
:100AD8006C6801346043FFF707FB0022009B019319
:100AE800AB6800930199009B994209D20199009B38
:100AF800E31A5B18D218009B01939042F0D837BDD7
:100B0800019B00995B1AF5E710E000E0CBB20E4AB2
:100B18002C2B0BD9C0220A40C02A11D1CF2B0FD8B9
:100B28003F230A480B409B00074A1B58E0209B00C4
:100B38009B58C00008401843431C00D00800704769
:100B480001204042FBE7C046C0D3000880D300081C
:100B580010B5C06902F01AFD10BD10B5C06902F0E9
:100B680049FD10BDF8B507000C001D008E18B442F1
:100B780000D1F8BD21780022F86902F03FFD013468
:100B880028700135F3E710B507F014FA10BD10B559
:100B98004B1C03D0C8B2002107F0AAF810BD08000A
:100BA80010B511001A00431C02D0C0B207F01CF89F
:100BB80010BD10B5C06902F01CFD10BD10B51C3089
:100BC80007C802F0F9FC10BD10B50C000020110098
:100BD8001A00631C02D0200007F0FAFA10BD10B505
:100BE80007F06AFB10BD10B507F062FB10BD10B529
:100BF800080007F065FB10BD080010B54B1C01D0BC
:100C080007F0BAF810BD00007FB50C0015001E00F3
:100C18004B1C19D00C220021684607F01EFD00234A
:100C280003939D4204D0094B00950393084B02930C
:100C380032006946200007F0D5F8029B002B03D04C
:100C480003226946684698477FBDC046D50C000810
:100C5800B50C0008002010B54B1C02D0080007F0A6
:100C68007DFA10BD080010B51100431C01D007F033
:100C780037FA10BD080010B51100431C01D007F069
:100C8800D3F910BD030010B528331B78002B02D010
:100C980003689B6A984710BD030010B528331B787A
:100CA800002B02D003689B6B984710BD012A02D124
:100CB800016000207047022A05D0032AF9D0002AD3
:100CC800F7D10260F5E70B680360F2E710B5036837
:100CD800984710BDF8B50D0017000C005E18A64225
:100CE80000D1F8BD7B1B2000195D02F031FF0134F3
:100CF800F5E7F8B50D0017000C005E18A64200D104
:100D0800F8BD200002F0D2FE7B1B18550134F5E730
:100D1800032330B585B002930133012501930023E5
:100D2800040019002A00009500F01AF8064B20006C
:100D38002360064BA584E361054B23622300283317
:100D48001D7005B030BDC04618CA000860020020FA
:100D580080841E00704770477047080070477047CE
:100D680010B5C360029B054C0361039B046043619B
:100D7800049B41608260836110BDC0467CCA000844
:100D880070B504008025002062612200A3612D0255
:100D9800049B6560094DE361094B2060A560E06034
:100DA8002161203262CB62C2E0622C3005F09AFDEC
:100DB8000500FFF7ADFF2000256070BD0800FFFFAC
:100DC800D8C7000810B5040000680368DB6B9847B3
:100DD80020682169036882681B6898472068216930
:100DE800036802695B68984710BD10B5006803681E
:100DF8001B6C984710BDF0B585B00393037A1600B5
:100E08000B9ADB089B180400180001930F0005F0EB
:100E18006DFD0500019805F069FD0290227AF3B294
:100E2800082A37D83B43681C2B706379BB4237D1FB
:100E38000B9A039907F0C8FC20680368DB6A984797
:100E4800206821690368C2685B68984720682900A0
:100E58000368019A1E6B029BB047206821690368EA
:100E680002695B689847206803685B6B9847237939
:100E7800BB4207D1217A029BC9080B9A0A985918D4
:100E880007F0A2FC280005F035FD029805F032FDB8
:100E980005B0F0BD360A3E432E70A81C6B70C4E73F
:100EA800A1790B9A07F0D9FBC6E70000F0B585B029
:100EB80002930DAB1B780192039313000C9A040064
:100EC8009446029A6344009353425341009A0E0099
:100ED800D3181800009305F009FD0700009805F0E5
:100EE80005FD31000500019A380007F06DFC019BF3
:100EF800F818029B002B4DD00C9A0A9907F064FC55
:100F08002068E269036801324AD101215B69984788
:100F180020680368DB6A9847206821690368C2680B
:100F28005B689847206839000368009A1E6B2B009D
:100F3800B04720682169036802695B6898472068A0
:100F480003685B6B9847039B002B07D02068E26916
:100F58000368013244D101215B699847E3681C1E8C
:100F680007D000240C9AA24203D0019AA85C9847A3
:100F78000400029B002B06D101990C9A01310B98B1
:100F8800691807F021FC380005F0B4FC280005F0CA
:100F9800B1FC22E00C9BA1795A1C07F05EFBAFE77D
:100FA800DB69984706002068E16903689B689847F1
:100FB8000028ADD020680368DB6C98472068036878
:100FC800DB6998470E9B801B9842ECD3380005F0EC
:100FD80091FC280005F08EFC0F4C200005B0F0BDF8
:100FE80001219B69984720680368DB6998470600D8
:100FF8002068E16903689B6898470028AED020689C
:101008000368DB6C984720680368DB6998470E9B88
:10101800801B9842ECD3D9E73FFDFFFF70B51E0057
:10102800437A0C0088B00179002B06D10192009612
:101038002200FFF7E0FE08B070BD07AD230A6B7011
:10104800FA239B002970AC700493012303930023B7
:1010580002922900032201960093FFF727FFEAE78F
:1010680030B51B24002389B06C442370457A0A00EC
:1010780001799D4208D10133019300942B00FFF7B9
:10108800BAFE207809B030BD07AD2970AA70110AE0
:10109800FA229200697004920122290003920292B6
:1010A800019400930232FFF701FFEAE770B51C00D4
:1010B800130015002343072B0DD8A2420BD3FFF7CB
:1010C800CFFFFF2107230A005B1B1A41A1401140F3
:1010D8000840C0B270BD0B204042FBE770B51E004F
:1010E800437A0C0088B04179002B07D10093019610
:1010F80013002200FFF77FFE08B070BD07AD230A7A
:101108006B70FA239B002970AC70002104930123B3
:10111800019100922900032203930296FFF7C6FE6D
:10112800EAE730B58BB06B46DA77437A0C00417941
:10113800002B09D1012200931F3301926B44220036
:10114800FFF759FE0BB030BD09AD230A6B70FA23C7
:1011580000229B002970AC700493012301921F3276
:101168006A4400922900032203930293FFF79EFE2C
:10117800E8E7F0B51E0085B00AAB1F780BAB1B780B
:10118800050003930CAB1B78140002933300019104
:101198003B43072B37D8BE4235D3FFF761FFFF2209
:1011A800082113000136C91BF6B20A41B3401343A4
:1011B800DB43DBB298431C400443E4B2220028001E
:1011C8000199FFF7AEFF2868FA260368B6001B6A84
:1011D80098470700039B5E43286803681B6A984783
:1011E800C01BB04202D3102040420AE028000199F7
:1011F800FFF736FF0300029A029863401840134233
:10120800EAD105B0F0BD0B20EEE7013970B5020058
:101218000C00002001254B1C00D170BD2B00661A64
:10122800B3401340F3408B4001391843F3E7C06AD9
:10123800002803D170478B42FCD010300378002B74
:10124800F9D11800F6E7F8B50600FFF7F0FF041E1D
:1012580010D035003700043420352C3729684B1C52
:1012680004D03068226803685B6898470435043402
:10127800BD42F3D1F8BD000070B50D1C04000C4947
:10128800281CFFF715F900280ED00A49281CFFF77B
:10129800FBF8002808D02000291C01F039FA0028A2
:1012A80001D1FC34E56270BD0C204042FBE7C0462A
:1012B8000000094300007F4410B5040000F036FA2E
:1012C800014B2000236010BDE0CA0008F0B585B0CE
:1012D8001D000AAB1B78171C01930BAB1A780CABDB
:1012E8001B780E1C0EA909785BB202930DAB039113
:1012F8001B881221040001F0B0FD00282AD120002B
:10130800391C00F00BFC002824D1236820001B6B3B
:10131800311C984700281DD12900200000F09CFDB1
:10132800002817D12000019900F0EDFD002811D107
:10133800236820009B6C0299984700280AD1200056
:10134800039900F09AFA002804D102000121200034
:1013580000F08CFB05B0F0BDFC3070B50400836A6A
:1013680018689969026815688268A847A36A1868A6
:10137800996902685568C268A847A36A0121186874
:1013880003685B699847A36A186899690268556891
:101398000269A847A36A0521186803685B6998472A
:1013A80070BD000070B50D1C04000C49281CFFF727
:1013B8007FF800280ED00A49281CFFF765F8002896
:1013C80008D02000291C01F0A3F9002801D1FC3421
:1013D800E56270BD0C204042FBE7C04600000943AF
:1013E8000040034410B55D2201F098FB10BD0000D9
:1013F800F0B58BB00890099100F0E0FE802800D08D
:1014080057E1089CFC34206B0BF0F4F80022AB4B3E
:101418000AF0BAFC4B005908A94AAA4BFEF7FAFF92
:10142800002816D0E56AA849281CFFF741F80028CB
:1014380030D0A649281CFFF727F800282AD0022216
:101448003621A06AFFF76DFE64223A21A06AFFF7F1
:1014580068FEE36A206B05930BF0CCF89C4A9D4B21
:1014680006000F000AF090FC4B005908944A954B6F
:10147800FEF7D0FF051E20D005980BF0BBF8964A62
:10148800964B09F019FA0BF0FDF800244825059051
:101498002600DCE09249281CFFF70AF80028D8D07B
:1014A8009049281CFEF7F0FF0028D2D002223621EE
:1014B800A06AFFF736FE7F22C7E78B4A8B4B3000C6
:1014C80039000AF061FC4B0059087D4A7D4BFEF754
:1014D800A1FF041E0BD005980BF08CF8844A854BAD
:1014E80009F0EAF90BF0CEF82C0005901CE0784AD8
:1014F800814B300039000AF047FC06900791079BA2
:10150800069A5B00100059086D4A6E4BFEF782FF81
:10151800051E0BD005980BF06DF86F4A774B09F054
:10152800CBF90BF0AFF805904425B1E76E4A744B40
:10153800300039000AF028FC4B005908604A614B1A
:10154800FEF768FF041E05D005980BF053F86D4AA6
:101558006D4BC5E700226D4B300039000AF014FCD2
:1015680006900791079B069A5B0010005908544A99
:10157800544BFEF74FFF051E05D0F4210598890549
:1015880008F0B4FACFE7624A624B300039000AF03B
:10159800FBFB4B0059084A4A4A4BFEF73BFF041E27
:1015A80005D005980BF026F85B4A5C4B98E70022BB
:1015B8005B4B300039000AF0E7FB06900791079B68
:1015C800069A5B00100059083D4A3E4BFEF722FF81
:1015D800051E00D070E00022524B300039000AF09E
:1015E800D3FB4B005908364A364BFEF713FF041E4F
:1015F80061D100224C4B300039000AF0C5FB06903F
:101608000791079B069A5B00100059082C4A2D4B3E
:10161800FEF700FF00284FD10022284B3000390088
:101628000AF0B2FB4B005908254A264BFEF7F2FE9A
:1016380000283ED0089C2F21FC34A06AFFF710FD3B
:1016480030210500A06AFFF70BFD40260400089B27
:1016580008981B689B689847089F099B0599FC3761
:10166800002B00D1F96A089801F052F80721FF23EE
:1016780002220293019200910B0032002A31B86ACB
:10168800FFF777FD0026FF230222029301920096BE
:101698002A002F21F83BB86AFFF76BFDFF230222CF
:1016A80002930192009622003021B86AF83BFFF7B6
:1016B80060FD0BB0F0BD2C004025E9E600407F40FE
:1016C800FCA9F1D24D62503F0080574400007F448E
:1016D8003333333333331F4093E34EE960FD7F3FA9
:1016E8000000CD4300400344CDCCCCCCCCCC24402E
:1016F8004968CBB91457853F33332F4060FD8F3F7E
:10170800CCCC3440DC4B1AA37554953F00403F4085
:101718009A99999999D9444012DA722EC555A53FDC
:1017280000404F4000405F4000406F4010B504004B
:1017380000F09CFC034B01222360A3235B002000E4
:10174800E25210BD90CB0008F0B587B005000C0040
:101758000492002A0DD0CE1CF6B2122E00D984E0D5
:1017680000F065FF0490002C5CDB70231C43E4B29E
:101778005AE014292AD100F05AFF0226FF2707232E
:10178800FC35009302970196040080220921A86A7B
:10179800FFF7EFFC049B02970093019606237F2234
:1017A80004430921A86AFFF7E4FC049B072200937D
:1017B800330024B2044324B2029701964D21A86A4B
:1017C800FFF7D7FC204300B207B0F0BD023CE4B2FB
:1017D8000F2C4AD800F02BFFFF2702260723FC35E1
:1017E800009302970196802209210590A86AFFF7C5
:1017F800C0FC7022059B0297184303B20593049B13
:1018080001960093224306230921A86AFFF7B1FC39
:10181800059B02971843049B04B201960093042287
:101828003300CBE720243443FF2702260723FC3567
:1018380000930297019600220921A86AFFF799FCF4
:101848000023029700930196220005900633092190
:10185800A86AFFF78EFC059A002302431000049A39
:101868000297024314B20196D8E70D204042ABE735
:1018780010B50022FFF768FF10BDF0B587B004006F
:10188800049106295AD800F0D2FE0700200000F083
:1018980095FC060080282BD1FF25049B7E3EFC3456
:1018A800A06A029501960096002B06D13300042207
:1018B8002621FFF75EFC074316E0330000222621AD
:1018C800FFF757FC0322049B05905B011A43002392
:1018D800D2B200930295019607330C21A06AFFF754
:1018E80048FC059D05432F433FB2380007B0F0BDC3
:1018F8000028FAD1049BFC340225A06A002B07D1EA
:10190800FF330293FC3B08220D2101950093D0E799
:101918000322FF230D210293009213000195320048
:10192800FFF727FC0322049905904B011343DAB211
:10193800FF23019502930096F83BCEE713277F42D9
:10194800D3E77FB504000E0000F038FC002833D13F
:101958009C235B00E35C002B31D0200000F067FE85
:101968000500012E15D0022E1DD06A20002E24D18C
:10197800FF2332000293FD3B019303330093FC34B1
:1019880001330A21A06AFFF7F4FB284300B204B030
:1019980070BDFF230293FD3B019303330093202284
:1019A800FC340133EDE7FF230293FA3B0093402216
:1019B800FC3401960133E4E714204042E7E76B204A
:1019C800FBE730B585B004000D0000F0F7FB0028F8
:1019D80045D19C235B00E35C002B07D0002D41D14F
:1019E80029002000FFF7ADFF05B030BD200000F052
:1019F8001EFE0028F8D1042D36D82800FEF76AFB11
:101A080003111B342500FF2300220293FD3B0193A1
:101A180003330093FC3401330A21A06AFFF7A9FBC2
:101A2800E2E7FF230293FD3B019303330093602217
:101A3800FC340133F0E7FF230293FD3B01930333AA
:101A480000934022FC340133E6E7FF230293FD3B79
:101A58000193033300932022FC340133DCE7142084
:101A68004042C1E76B20FBE76A20F9E7F0B50700C1
:101A780085B00E0014003D0000F0A0FBFC35802866
:101A880014D13A23FF22FF33FE54383BFF3BA86AA8
:101A9800029201930093FB3A002E00D132001E21DE
:101AA800FFF767FB0300180005B0F0BDFF22022313
:101AB800A86A02920193002E12D0DB180093EF3A25
:101AC8003021FFF756FB031EEDD1FF210222A86A41
:101AD800029101920093002C06D0013ACF39DFE73A
:101AE800042332000093EBE71A003021D8E77FB5D2
:101AF8000E00050000F09BFDFF230293FD3B0193C0
:101B080002330093FC35040032001D21A86A033318
:101B1800FFF72FFB204300B204B070BDF0B587B0CB
:101B280006000F1C00F04AFB802800D007E1381C93
:101B38000AF060FD834A844B04000D000AF024F982
:101B480004900591059B049A5B00100059087F4A90
:101B58007F4BFEF75FFC002800D0AEE07D4A7E4B4D
:101B6800200029000AF010F904900591059B049AB9
:101B78005B0010005908754A754BFEF74BFC0028AE
:101B880000D0C8E06F4A754B200029000AF0FCF825
:101B980004900591059B049A5B00100059086B4A54
:101BA8006B4BFEF737FC002800D0B6E0694A6C4B57
:101BB800200029000AF0E8F804900591059B049A92
:101BC8005B0010005908614A614BFEF723FC0028AE
:101BD80000D0A4E00022634B200029000AF0D4F8CA
:101BE80004900591059B049A5B0010005908574A18
:101BF800574BFEF70FFC002800D092E05A4A5B4B87
:101C0800200029000AF0C0F804900591059B049A69
:101C18005B00100059084D4A4D4BFEF7FBFB0028AE
:101C280000D080E00022524B200029000AF0ACF8D6
:101C380004900591059B049A5B0010005908434ADB
:101C4800434BFEF7E7FB002800D06EE00022494B2B
:101C5800200029000AF098F804900591059B049A41
:101C68005B0010005908394A394BFEF7D3FB0028AE
:101C78005DD10022404B200029000AF085F804902D
:101C88000591059B049A5B00100059082F4A304BB8
:101C9800FEF7C0FB00284CD10022384B2000290059
:101CA8000AF072F84B005908284A294BFEF7B2FB94
:101CB8009021002802D1082442E000213000FFF7DB
:101CC80016FF041E24D13300A322FC331F635200E5
:101CD800B25C002A1CD09D6A982301205B00F35C4B
:101CE800984008F0A7FD391C08F082F88321C9053F
:101CF800FEF7DEFBFF2202230292019300281AD08E
:101D080001330093F73A26212800FFF732FA04003E
:101D1800200007B0F0BD1021D0E72021CEE7302108
:101D2800CCE74021CAE75021C8E76021C6E7702107
:101D3800C4E78021C2E7032322000093E3E71424C9
:101D48006442E5E73333333333331F40FCA9F1D220
:101D58004D62503FCDCCCCCCCCCC244033332F403B
:101D6800CCCC344000403F409A99999999D9444045
:101D780000404F4000405F4000406F4000407F40BF
:101D8800F0B587B0050000270C00022600F04FFCD4
:101D9800FF2304900293FC353B0001960097602CCA
:101DA80030D101221D21A86AFFF7E3F9FF2302932E
:101DB800FC3B0093019622001E2105900433A86A7B
:101DC800FFF7D7F9059AFF2302431000049A0293FC
:101DD800024301960097330014B231210522A86A04
:101DE800FFF7C7F9FF230C220443029324B201969C
:101DF8000097F83B3721A86AFFF7BBF9204300B2E8
:101E080007B0F0BD3A001D21A86AFFF7B2F9FF2319
:101E1800032202930092019622001E210590F83BAE
:101E2800A86AFFF7A6F9059AFF2302431000049A4F
:101E38000293024301960097330014B23121032222
:101E4800A86AFFF796F9FF23044302930A2224B2F3
:101E580001960097F83BCDE7F0B585B005000E0078
:101E680000F0ACF9802832D1B31F062B32D83101EB
:101E78002800C9B2FFF784FF041E21D198235B0014
:101E8800EE541633EB5C002B1AD00120FC35B04021
:101E980008F0D0FC296B07F0ABFF8321C905FEF7DA
:101EA80007FBFF220223AF6A0292019300280AD09F
:101EB80001330093F73A26213800FFF75AF9040056
:101EC800200005B0F0BD032322000093F3E714249B
:101ED8006442F5E70924FBE77FB50E00050000F032
:101EE800A6FBFF230293FD3B0193013B0093FC35C6
:101EF800040032001D21A86A0233FFF73AF9204393
:101F080000B204B070BD70B504000D0000F056F9C1
:101F180080280ED16B1F032B0ED8690008392000CA
:101F2800C9B2FFF7D9FF002802D13223FF33E554A5
:101F380070BD14204042FBE70A20FBE77FB5029200
:101F4800040001910393029E00F038F9C0B201AD7C
:101F580000280DD1236820005B6B01999847002861
:101F680004D1236820009B6B311C984704B070BDD6
:101F7800802810D120002978FFF76EFF0028F5D1BE
:101F88002000311CFFF7CAFD0028EFD12000297A74
:101F9800FFF7B9FFEAE701204042E7E7FC30806A33
:101FA800704710B503689B68984710BD0300FC3361
:101FB8009B6A10B50400186803689B689847C1B20B
:101FC800200001F091FA10BD036870B59B6E040003
:101FD800984700280DD070BDAB6A18680368DB6CA1
:101FE8009847AB6A1868D9690268926890470028D0
:101FF8000CD12500FC35AB6A1868596902689268EB
:1020080090470028E8D00F204042E4E70E20FBE785
:1020180030B50C0085B0052924D8FC304900FF25CF
:10202800806AD2B2C9B2032C0FD807235B1A0221E7
:1020380001910131091B4900C9B200914021DBB26D
:102048000295FFF796F805B030BD0F235B1A022101
:1020580001910531091B4900C9B20091DBB2412148
:102068000295EEE71A204042EDE7000070B5040043
:102078000D00FF220E4901F02DFA0E4B20002360BF
:10208800230000220021FC33FE30DA621A63418605
:102098009A6341879D200126400026545A64A22253
:1020A8001964054952002000A1529D6270BDC046C6
:1020B8000024744240CC00080080FFFFFC30F8B5D3
:1020C800836A16001C680D0022685969D7682000C9
:1020D800126D9047330001002A002000B847F8BD70
:1020E8000300FC3310B59B6A1B685A69FFF7E6FFCB
:1020F80010BDFC30836A70B51C68596922682000DD
:102108001569126D904701002000A84770BD10B5F1
:10211800FFF7EFFF10BDFC30F8B5836A0D00D969F1
:1021280016004A1C0AD01C6823682000DF681B6D53
:102138009847330001002A002000B847F8BD030083
:10214800FC3310B59B6A1B685A69FFF7E4FF10BDA2
:1021580010B5FC30002307224221806AFEF7A6FF53
:1021680010BD1FB5FF2300220293FD3B019300928F
:10217800FC3024210533806AFEF7FBFF05B000BD63
:1021880070B504000E00002523682000A0331B68EA
:1021980098472000FFF7DCFFB04201D1012070BD55
:1021A8002300FC339B6A013518680A210368EDB2E5
:1021B8005B6998470A2DE7D10020F0E7072310B59F
:1021C800FC301A000121806AFEF770FF10BD000084
:1021D80010B50400FFF7F2FF802810D1FC3400236B
:1021E80007221921A06AFEF761FF40B20AF0ACF994
:1021F8000022044B09F004FB0AF044FA10BD002049
:10220800FCE7C0460000D03F30B585B004000D00A3
:10221800FFF7D4FF00280CD1FF230293FD3BFC34C9
:10222800019300902A000D21A06AFEF7A2FF05B0D5
:1022380030BD14204042FAE770B504000E002500B6
:10224800FFF7BCFFFC35802809D198235B00E35CCD
:10225800062B1AD01321A86AFEF702FF70BD0028CA
:1022680013D1A2235B00E15C00290ED1002E0CD013
:102278004623FF33E35CA86A802B08D1FEF7F0FE03
:10228800A22301225B002864E254286CE6E732218D
:10229800F4E70000F0B587B00C000090FFF78EFF60
:1022A800C6B2802E00D0CFE098230120009A5B00B0
:1022B800D35C984008F0BEFA009EFC36316B07F0FC
:1022C80097FD8321C9050290FEF7F2F80023002844
:1022D80001D0FE239B05019300231D211A00B06A3B
:1022E800FEF7E4FE08F05AFA02231E211A000490B1
:1022F800B06AFEF7DBFE801000B208F04FFA002348
:10230800072220210590B06AFEF7D0FE2121002384
:1023180007220500B06AFEF7C9FE2D02284308F01F
:102328003DFA9823009A5B000390D05C08F082FA8B
:102338000AF060F90022774B09F062FA0F000600F4
:10234800200008F077FA0AF055F90022724B09F0DC
:1023580057FA32003B0009F017FD00226F4B08F0D6
:10236800ABFA040005980D000AF044F900226C4B02
:1023780009F046FA02000B002000290008F09CFA38
:10238800040004980D000AF035F90022654B09F0A5
:1023980037FA02000B002000290009F0F5FC0400C0
:1023A80001980D000AF026F900225B4B09F028FA83
:1023B80002000B003000390009F0E6FC02000B00B7
:1023C8002000290008F0D6FD06F028FB32230D0076
:1023D8000400009AFF33D05C08F02CFA0AF00AF9DE
:1023E80022002B0009F00CFA0022002304000D0043
:1023F800FEF71AF8002801D1002400250022464BD8
:102408002000290008F058FA0AF03CF9039907F06F
:102418006DFB0AF0EFF80022434B08F04DFA040078
:1024280002980D000AF0E6F802000B0020002900CF
:1024380009F0E6F906F0F2FA00223C4B09F0E0F95F
:1024480007F036FB07B0F0BD002E60D1009D3300C9
:10245800FC3507222521A86AFEF728FE330007224B
:1024680026210700A86AFEF721FE3F02384308F03C
:1024780095F98221C90507F0A1FE33000222272120
:102488000190A86AFEF712FE013008F087F9822150
:10249800C90507F093FE042330211A00061CA86A18
:1024A800FEF704FE0027102801D18327FF054623E5
:1024B800009AFF33D35C0134002B05D10722322167
:1024C800A86AFEF7F3FD0400311C381C07F00EFB68
:1024D800019907F00BFB061CE00008F0ABF9011CA2
:1024E800301C07F003FB0AF085F80600A86B0F0004
:1024F8000AF080F800220D4B09F082F902000B0067
:102508003000390008F036FD0022094B96E701201B
:10251800404297E7000010400000204000003C4087
:1025280000003040000034400000114000408F405F
:1025380080842E4130B585B004000D00FFF73EFEC3
:10254800002828D1012D13D0022D1BD01720002DD3
:1025580022D1FF232A000293FD3B0193033300930A
:10256800FC3401333021A06AFEF703FE05B030BD0C
:10257800FF230293FD3B0193033300932022FC3495
:102588000133EFE7FF230293FA3B00934022FC3428
:1025980001950133E6E714204042E7E770B50400EF
:1025A800FFF70CFEFC34802804D11221A06AFEF744
:1025B80057FD70BD3F21A06AFEF752FD3E2105027E
:1025C800A06AFEF74DFDADB2284380B2F1E710B521
:1025D800FFF7E4FF012318400F3800B210BD30B5F3
:1025E80085B004000D00FFF7E9FDFF23002803D1A3
:1025F8006B1F5A1E9341FE33029305230193002358
:10260800FC3400932A000121A06A0233FEF7B1FDD1
:1026180005B030BD030010B50400FC33986A0121F1
:10262800FEF711FE00212000FFF7D9FF10BD0300BF
:1026380010B50400FC33986A0121FEF704FE01215D
:102648002000FFF7CCFF10BDF0B5012185B00400D4
:10265800FFF7C5FF00281DD102252600FF27FC36FD
:10266800029701950095020005234021B06AFEF704
:1026780080FD00280ED101002000FFF7C5FD0028CD
:1026880008D1062302970195009302003121B06A10
:10269800FEF76FFD05B0F0BDF0B50F002D3FFBB2A2
:1026A80004000E0085B0C32B15D80121FFF797FF52
:1026B800FC340500782E24D805213800FDF79EFD4E
:1026C800FF2320220293FD3B019300230243009342
:1026D800D2B205330DE0002917D10121FFF77FFFA2
:1026E800FF23050032000293FD3B01930333FC34C2
:1026F80000930B21A06AFEF73CFD284300B205B009
:10270800F0BD30000A211E30D8E711204042F6E71C
:10271800F0B50600FC36050000230722B06A85B034
:102728000F1C2421FEF7C2FC0024A04204D1012181
:102738002800FFF754FF04009221381CC90507F050
:102748003DFD09F057FF0022184B09F059F807F032
:10275800AFF9FF2702230021019300910297020C91
:102768000500D2B2B06A05330631FEF702FD022336
:10277800002101930091029705332A0A19000443A6
:10278800D2B2B06AFEF7F5FC022300210193009152
:10279800029724B20443EAB2B06A05330831FEF75F
:1027A800E8FC24B2204300B205B0F0BD0000A03F11
:1027B800F0B50D0085B00121040016000193FFF764
:1027C8000EFF002855D12000FFF7F8FC802867D1BC
:1027D800236831005B6E2000984723680290DF6908
:1027E800320029002000019BB847002841D10298F7
:1027F800270009F0D9FE0022454B09F001F807F03F
:1028080057F9FC37BB6A0190186803681B6A984738
:102818000500BA6A1068516903689B6898470028E0
:1028280029D02700FC37BB6A186803681B6A9847D9
:102838000190300009F0B8FE0022364B08F0E0FFA6
:10284800019B02900391581B07F0F4FF09F0D2FE98
:102858000022314B08F08EFB0B000200029803990E
:1028680008F088FB09F00EFF236878641B6A2000D3
:10287800984705B0F0BDBB6A18680368DB6C9847D9
:10288800BB6A186803681B6A9847019B401B834210
:10289800BFD2236820001B6A984705204042E8E71A
:1028A800002833D1236831005B6E200098472368E5
:1028B8000290DF69320029002000019BB8470028F8
:1028C800D7D105232700029AFC375343134A9B1894
:1028D8000193BB6A186803681B6A98470500BA6ABF
:1028E8001068516903689B689847002899D1BB6AAA
:1028F80018680368DB6C9847BB6A186803681B6A2A
:102908009847019B401B8342E9D2C2E70120C5E7F3
:102918000000F83F0000204080842E41881300000A
:1029280070B505000C00FFF749FC002823D12E00E4
:10293800FC360321B06AFEF786FC002C15D0220C69
:102948000621B06AD2B2FEF7ECFB220A0721B06A70
:10295800D2B2FEF7E6FB0821B06AE2B2FEF7E1FB6D
:1029680003212800FFF73BFE04E02800FFF76CFE78
:102978000028F5D070BD14204042FBE710B50400D4
:10298800FFF71CFC00280FD12300FC33986A0221B2
:10299800FEF759FC2000FFF757FE002803D1052158
:1029A8002000FFF71CFE10BD14204042FBE730B5A5
:1029B80085B004000D00FFF701FC802812D1012129
:1029C8002000FFF70CFEFF230293FD3B0193002339
:1029D800FC3400932A003921A06A0733FEF7C9FBAB
:1029E80005B030BD14204042FAE7F0B587B00400C6
:1029F8000E001500FFF7E2FBC0B2002831D16B1EB4
:102A0800072B3BD83300AA191978002936D001338F
:102A18009A42F9D1FF2302270293FB3B01970093C7
:102A2800FC3410222721A06AFEF7A3FBFF230293A0
:102A38000023019700936A1E3B0005902721A06A96
:102A4800D2B2FEF796FB059B03431FB2002F05D1B8
:102A58002B0032002821A06AFEF740FB380007B09F
:102A6800F0BD802807D1012D08D820003178FFF764
:102A78009EFF0700F2E714277F42EFE76927FBE78D
:102A8800F0B50C0087B001210600FFF7A8FD051E70
:102A980022D13000FFF792FBC0B280281FD1052C4D
:102AA80036D9FF230227029301970095220AFC36A4
:102AB8002021D2B2F83BB06AFEF75BFBFF2321214D
:102AC80002930590E2B201970095F83BB06AFEF7D1
:102AD80050FB059F07433DB2280007B0F0BD002812
:102AE80019D1FF230227E408029301970095A2B2A7
:102AF800FC362521120AF83BB06AFEF73AFBFF23A1
:102B0800262102930590E2B201970095F83BDDE794
:102B180012256D42E0E70125FBE70000F0B58BB018
:102B280005000E1C0892FFF749FB002800D07BE047
:102B38009C23FC215B00EB5C8905301C002B00D139
:102B480069E0FDF7B5FC002800D170E0301C09F001
:102B580051FD384A384BFDF75DFC002867D001214C
:102B68002800FFF73CFD041E52D1301C09F042FD3D
:102B780002000B000020314908F0FCF9069007918B
:102B880006F096FF83B202211A0A2F000593FF234D
:102B9800019102930094FC37F83BB86AFEF7E9FA12
:102BA8006B4602211A7DFF2301910293009409903C
:102BB800F83BB86A0131FEF7DCFA099B03431CB203
:102BC8009C235B00ED5C002D1FD1059807F032FEB9
:102BD80009F010FD02000B000698079909F0D4F8D7
:102BE80009F050FD8321C90507F0E8FA06F048FF0F
:102BF800FF230293FD3B01930095C2B20899B86A7E
:102C08000533FEF7B6FA044324B2002C00D1BE63A4
:102C180020000BB0F0BDFDF74BFC002807D0084999
:102C2800301CFDF731FC98E714246442F0E7652472
:102C3800FBE7C0469DA1B8E34D6240400040DF403D
:102C480000009643F0B587B004000D1CFFF7B6FAF4
:102C5800002855D10021281CFDF70CFC2E1C00284B
:102C680000D02A4E2700FC37B86B09F0C3FC0022BD
:102C7800274B08F0C5FD04900591301C09F0BAFCFB
:102C880002000B000498059907F016FE0022214B5C
:102C9800FDF7C0FB002836D01F49281CFDF7F4FBC0
:102CA800002830D020000121FFF799FC041E24D110
:102CB8009221301CC90507F081FA184907F098F8E5
:102CC80006F0DEFE0226FF23019602930094020A14
:102CD80005000421D2B2FA3BB86AFEF74AFAFF238C
:102CE80001960293009404900521B86AEAB2F83B71
:102CF800FEF73FFA049E064334B2200007B0F0BD49
:102D080014246442F9E76624FBE7C0469A99193F00
:102D18000000E03F00406F40000048430000FA46D2
:102D2800F7B50400FFF74AFA11230193002801D0F0
:102D38001B3301932700002505212000FC37FFF7EE
:102D48004EFCBB6A0A2118682E0003685B69984725
:102D58000199B86AFEF784F901231840A840ED18D4
:102D68000643F6B2082DF3D119002000FFF737FC0F
:102D78003000FEBDF0B585B004000D00FFF71EFA67
:102D8800802849D1FF26FC34A06A0296002D22D063
:102D9800022706234022332101970093FEF7E9F921
:102DA800019700270296009705003B003A0033215F
:102DB800A06AFEF7DEF90223029601930097054305
:102DC80019223B21A06A0533FEF7D3F92DB2284317
:102DD80000B205B0F0BD0223019304332A00332169
:102DE8000093FEF7C6F902230296019300950700A7
:102DF8002B0001223321A06AFEF7BBF902230296B9
:102E08000193009507431D223B21A06A0533FEF775
:102E1800B0F93FB23843DBE714204042D9E77FB529
:102E28000E0000210500FFF7DAFBFF23040028004D
:102E38000293FA3B019302330093FC3032000121E4
:102E4800806AFEF796F9012104432800FFF7C7FBC3
:102E580024B2204300B204B070BDF7B505000F00DE
:102E68000400FC35A86A16000193FDF7ABFFA96AB8
:102E780008684969036842681B689847A96A08682E
:102E8800C969036842681B68984739002000FFF742
:102E980077F9002805D1A86AFDF7A7FF022040426C
:102EA800FEBD236820009B6898470028F8D12000C1
:102EB800FFF757F90028F3D12000FFF77FF98028A2
:102EC8001AD131002000FFF772FD0028E8D13C211B
:102ED8002000FFF7E1FB0028E2D120000199FFF76D
:102EE800CFFD0028DCD101002000FFF743FF0028B8
:102EF800D6D100236B64D3E780212000FFF78FFF32
:102F08000028DED0CCE710B50400FFF757F9802879
:102F180006D1FF221221FC34A06AFEF702F910BD87
:102F28000028FCD1FC34FF223E21A06AFEF7F9F804
:102F3800FF223F21F0E7F0B50F0087B0012105001F
:102F48000592FFF74CFB041E52D12800FFF736F913
:102F58002E000300FC36802852D1230007222421AA
:102F6800B06AFEF7A3F8FF22022302920193002819
:102F780041DDDB180093EF3A03334021B06AFEF7D6
:102F8800F8F898235B00EB5C0400062B0ED1F933AC
:102F98000293FD3B0193002300933A002221B06A7B
:102FA8000733FEF7E6F8044324B237642800FFF736
:102FB800AAFF0027FF2302222E0002930192009706
:102FC800FC363A000F21F83BB06AFEF7D2F8FF232F
:102FD800022202930192009704433A000D21B06A3D
:102FE800F83BFEF7C6F824B2044324B2BC4227D00B
:102FF800200007B0F0BD0423220000930333BCE790
:10300800B06A002B1CD10227FF330293F93B220040
:103018000093402101970133FEF7ABF8041EE7D176
:103028002800FFF770FF059B052B09D13900B06A0E
:10303800FEF709F928000599FFF7D1FA0400D7E748
:103048002B00FC330221986AF2E710B50522002113
:10305800FFF771FF10BD10B5029BCAB2D9B2FFF7D6
:103068006AFF10BDF7B50191012104001500FFF7B3
:10307800B6FA00284ED12000FFF7A0F8802850D1DA
:1030880006222000E9B2FFF756FF002842D12700A8
:10309800FC37BE6A0090F36901330FD198235B00B7
:1030A800E35C0130984007F0C5FB396B06F0A0FEE1
:1030B800354907F083F806F0E3FC009030680368B0
:1030C8001B6A984707002600FC36B26A10685169E7
:1030D80003689B689847002806D023682A002000C8
:1030E8005B6A0199984715E0B36A18680368DB6C56
:1030F8009847B36AD96918684B1C0CD103681B6AD6
:103108009847009BC01B9842DDD92000FFF7FBFEC3
:1031180006204042FEBD03689B6898470028D2D02D
:10312800F3E723680028D8D1290020005B6E984770
:1031380005220600E9B22000FFF7FDFE0028E9D1CC
:103148000523734300932300FC339B6A18680368C4
:103158001B6A984707002600FC36B26A1068516956
:1031680003689B6898470028B7D1B36A1868036852
:10317800DB6C9847B36A186803681B6A9847009B1A
:10318800C01B8342E7D2C0E70000C842F0B589B04F
:1031980006910121040017000793FFF720FA059014
:1031A80005002000FFF70AF80600802860D1FF2FED
:1031B80000D9A2E02600FC36002307222421B06AA9
:1031C800FDF774FFFF22022302920193002849DDD4
:1031D8004021DB180093AF3A0333B06AFDF7C9FF0B
:1031E8002000FFF790FEFF230221002002930191A7
:1031F8000090FAB2F83B2031B06AFDF7BAFFFF231E
:103208000500022100200293019100900200F83B82
:103218000C31B06AFDF7ADFFFF2305430221002002
:10322800059A029301912A43009015B2F83B0200D7
:103238000B31B06AFDF79DFF05432DB22600FC3621
:103248003B00069A0021B06AFDF748FF0321B06AE7
:10325800FDF7F9FF03212000FFF7C1F9284300B269
:1032680009B0F0BD06234022009311000133B4E7F2
:103278000028E3D12000FFF746FE2000FF220223AA
:10328800FC3002920193402F32D9DB180093EF3AB9
:1032980001334021806AFDF76CFF46232600FF3387
:1032A800E35CFC36802B04D10021B06AFAB2FDF74A
:1032B80038FF012330210222B06AFDF7F7FE0238F9
:1032C800FD2301001940184203D1079AB06AFDF79F
:1032D80028FF402FB2D9FF230293FD3B019305330A
:1032E800009380223521B06AFDF743FF1E27A5E72A
:1032F8000623320000930133CBE704204042AFE7B6
:10330800030010B50400FC339B6A0649186803687B
:103318009B6998472000FFF7F6FD236820009B680B
:10332800984710BD410300007FB50400FEF746FF33
:10333800802822D101212000FFF751F900281AD155
:103348002000FFF7E0FDFF23250002260293FB3B48
:103358000093FC350196A0224021A86A0333FDF7AB
:1033680008FF002807D13100A86AFDF76CFF072184
:103378002000FFF734F904B070BD14204042FAE78A
:1033880070B505000C00002C00D170BD2B00FC337B
:103398000021986AFDF764FE013CF4E7F0B50400EB
:1033A80085B015000391FEF709FF236802900121FB
:1033B80020009B6D98470190002D04D0A8422FD97A
:1033C800431B01951D0027000523FC371A00122115
:1033D800B86AFDF76BFE202824D0029B0026802BBC
:1033E80025D13A23FF33E35CB86AB34231D10026D2
:1033F8002000FC300021039B019A806AFDF70EFE35
:10340800002D03D029002000FFF7BAFFA2230022D5
:103418005B002000E254FFF776FD300005B0F0BDF8
:103428000025D0E70726029B7642802BE0D0029B3E
:10343800002BDDD1013302223021B86AFDF736FEB8
:10344800FD2302381842D3D10299B86AFDF708FE65
:10345800CEE706231C211A00FDF728FE0028C6D156
:1034680018267642C4E71920404270471920404286
:10347800704719204042704710B503680021DB6887
:10348800984710BD192040427047192040427047A4
:103498001920404270471920404270471920404285
:1034A8007047192040427047192084B0404204B048
:1034B8007047002070470000004870470000C8C1EE
:1034C800002070470020704770477047192040421D
:1034D80070477047034B416003600023826083811B
:1034E8007047C046F0CC000870B50400902040003A
:1034F800225C0D00002A0FD12300FC3359694900D2
:10350800294359611D6A9B692940994203D10123C6
:103518002354A281A27370BD0126637B217BE3182B
:10352800DA7B8E401000B043002D01D03243D0B278
:103538000131C9B2D87321730829ECD1FDF765FEB2
:10354800637BE2180133D073637300232373E2E7CC
:103558000B4A0C4B91698900C9588166D169526937
:103568008900C9589200C166D35801220367012314
:103578005B424367044B836703007C331A807047C0
:1035880080D30008C0D3000800093D0003000921CA
:1035980000225D3310B519773431597701001A705C
:1035A800DA769A7701237C310B704A70014900F072
:1035B80047F810BD00093D0037B50500836F0400CA
:1035C800009101927C358B4204D16B462A889B88F6
:1035D8009A420DD0200006226946783005F0F4F8AA
:1035E80022007D3220002B781278A16F00F028F895
:1035F80037BD704710B500F02DF910BD13B56B46F7
:10360800DC1DD97153425A41524201232100224004
:1036180000F052F9207816BD10B50248FFF798FF60
:1036280010BDC04660020020044A030010B51068AF
:10363800002B01D001F0DCF910BDC0464400002089
:10364800F0B589B004000D0016000593002800D1DC
:10365800CCE0744BC06E1900039303F069FC724907
:103668000190A06E03F064FC70490700206F03F01E
:103678005FFC6F490290606F03F05AFC019B049055
:10368800002B00D1B2E0002F00D1AFE0029B002B4D
:1036980000D1ABE03900019803F068FC04990700F9
:1036A800029803F063FC01000190380003F05EFC0F
:1036B8006066002F00D199E0019B002B00D195E0B6
:1036C800002800D192E0636F206001335A425341D1
:1036D800584A5B4213408022D2029B18A36182237E
:1036E8005B006360FFF7A0FF00234208AA4218D9D5
:1036F80082080833AA4214D9C2080833AA4210D94A
:1037080002090833AA420CD942090833AA4208D947
:1037180082090833AA4204D9C0090833A84200D94B
:103728000833E3613200331E07D00023022E04D091
:10373800731E5A1E93415A00012363610723E362F3
:10374800E023DB00E360059B22615A4253410025D8
:10375800DB0123620399E06EA560A562656265637B
:1037680003F0CCFB3049A06E03F0C8FB2F49206F53
:1037780003F0C4FB21694B425941236F01311A06FA
:10378800120F042A02D82C48920015580F202B4AF1
:1037980003409B009B5803225B435A43D2430229B0
:1037A80026D0E9680A401343EB602149606F03F0B3
:1037B800A5FB2368224A93421ED18022214B520145
:1037C800196C11431964196C114006910699196B0B
:1037D8000A431A631A6B1C490A401A63200001F055
:1037E80037F94023226811680B43136009B0F0BD14
:1037F800E9685B000A40D6E7144A9342EED180227A
:10380800104BD201D96B1143D963D96B1140079181
:103818000799D96A0A43DA62DA6A0D490A40DA6214
:10382800DCE7C04644D00008C0CF000854CF0008E9
:10383800F4CE00080002FCFF0C00002054CE000863
:103848000030014000100240FFEFFFFF0038004049
:10385800FFBFFFFF10B5041E12D001F072F92368F4
:10386800104A93420DD180220F4B5201196B0A4323
:103878001A631A6B0D490A401A631A6C0A401A64D3
:1038880010BD0B4A9342FBD18022074BD201D96A63
:103898000A43DA62DA6A07490A40DA62DA6B0A40EE
:1038A800DA63EDE70030014000100240FFEFFFFF50
:1038B80000380040FFBFFFFFF7B50E0017000224D5
:1038C800002B29D00568009300F054FA0190AB68EA
:1038D8002342FCD0FF23002E01D0337801362B730E
:1038E8000123AA681A42FCD02B7B002F01D03B7021
:1038F800013700F03FFA009B013B0093019BC01A7F
:10390800FA239B00984209D2009B002BDFD11C00B0
:103918008023AA681A42FCD12000FEBD0124F7E7E3
:10392800F0B52D4B0E001B78150085B0002B04D088
:103938000B002A4A7D3B93424BD8300006F07AFFB1
:10394800274906F055FA274906F038FC0024039069
:103958000420A04080B206F021FF011C01900398CA
:1039680006F046FA270020490134E4B20290FCF739
:1039780095FD0028ECD1062F2BD81C4C1C4B029827
:103988002360676006F07CF801380005194B000DCC
:10399800A0609D4217D023691748834213D0AE42D6
:1039A8000ED9280006F046FF0D4906F021FA0D4908
:1039B80006F004FC019906F01BFA06F061F80138DC
:1039C8000005000D20610723E2681A42FCD10B4B69
:1039D800236005B0F0BDC046E102002043E0F301DA
:1039E800002474490000FA4600F07F45003000408A
:1039F80055550000C0E0F301FF0F0000AAAA00001F
:103A080070B50C000A4B7D3C9C4210D80124094B30
:103A18001D6E2C431C6602241D6E2542FCD0064BED
:103A2800064C1C600124064B1C70FFF779FF70BD23
:103A380043E0F3010010024000300040CCCC00000D
:103A4800E1020020034B1B78002B02D0024B034AF3
:103A58001A607047E102002000300040AAAA000066
:103A6800074B00201A6E920002D5814201D1012035
:103A780070478022196E12040A431A66F7E7C04697
:103A8800001002408022064B10B51968054B89B218
:103A98004908C9020448C918120104F095FE10BD6E
:103AA800E075FF1F00F8FF07E802002010B50400CA
:103AB800FFF7E8FF014B185D10BDC046E802002083
:103AC8000022F0B51D4B87B01C68019202320292A9
:103AD800023203921B689BB25B08013B04930123EB
:103AE800059300F09FFA00280BD18022144B120690
:103AF8001A6101A902A800F02BFB051E03D000F0F3
:103B0800A3FA07B0F0BDA4B20E4B6408E402E618AD
:103B18000D4BE718BE42F2D80C4B3100EB180120D0
:103B28001A685B6800F0D0FA002802D10836083518
:103B3800F0E780231B05E618ECE7C046E075FF1F99
:103B48000020024000F8FF07FFFFFF07E8020020FF
:103B580010B5024B1954FFF7B3FF10BDE80200205F
:103B680000207047036910B5181E02D01A68126841
:103B7800904710BD036910B5181E02D01A68126963
:103B8800904710BD036910B5181E02D01A68526913
:103B9800904710BD036910B5181E02D01A689269C3
:103BA800904710BD006910B5002802D00368DB6893
:103BB800984710BD70B50C4D0C49280003F066FFFE
:103BC8000B4B1C68002C01D1200070BD094928004E
:103BD80003F04CFF6168280003F048FF280003F059
:103BE8004DFF2468EEE7C046EC0A002090CD00089F
:103BF800E80A0020A8CD00081FB50C00010001A8A4
:103C080004F09AF9202101A804F0AFF9011E02DBA3
:103C180001A804F0C9F921005822019804F034FDE4
:103C2800040001A804F030F9200004B010BD000021
:103C3800F0B50C2085B00E00150002F053FE04000C
:103C480046600D4E85603568002D10D0696801A862
:103C580004F072F901996068FFF7CEFF070001A828
:103C680004F012F9002F02DD2E002D68ECE7346015
:103C7800256005B0F0BDC046E80A00200161704724
:103C880010B5582204000021183004F0E6FC002387
:103C9800236710BDFA22002310B504009200436088
:103CA80082600361064A4361064B02604367FFF77F
:103CB800E7FF2000044A0549FFF7BAFF200010BDBE
:103CC800B8CD000839870008BD3B0008ABCD000817
:103CD80010B50248FFF7DEFF10BDC046EC0A002011
:103CE8007047000070B5104B05001978002901D104
:103CF800012070BDFA208000FCF7F6F90B4C01009A
:103D08002068FCF7F1F900F081F8041EF0D1032DCA
:103D1800EED8020001202900404200F031F8044B9F
:103D280020001D60E5E7C046030000204400002095
:103D3800040000208023084A5B00116810B50B437B
:103D480000201360FFF7CEFF041E03D1FFF7C8FF62
:103D5800200010BD0124FBE700200240034A044B69
:103D680011681B785B1813607047C046640B00200D
:103D780003000020014B18687047C046640B002000
:103D880010B5FF2403220B0021000240D20091400D
:103D98009B012340C943934000280ADBC0240B4AF7
:103DA800800880008018A40002590A401343035178
:103DB80010BD0F2210400838054A8008800080187E
:103DC800C26911401943C161F2E7C04600E100E051
:103DD80000ED00E0002805DB1F2318401E3B834050
:103DE800014A13607047C04600E100E0002809DB83
:103DF8001F2318401E3B8340034AD367BFF34F8FEE
:103E0800BFF36F8F7047C04604E100E08022431E75
:103E18005204012093420DD2C021074A074853603B
:103E2800036A09061B021B0A0B43036200200723CF
:103E3800906013607047C04610E000E000ED00E0BD
:103E4800002807DB1F23C02218401E3B834002497D
:103E580052008B507047C04600E100E0704710B533
:103E6800FFF7FCFF10BD704710B5041E01D10120FB
:103E780010BD437FDAB2002B02D10277FFF7F3FFC0
:103E8800022363772379002B1CD118212368124A57
:103E98005A619A688A439A6062792368002A19D11C
:103EA800013A60211A619A6800208A4361690A43CD
:103EB80080219A609A688A43A1690A439A6001231B
:103EC8006377D5E72000E268A16800F007F80028CA
:103ED800E2D0CCE72269E4E7B71DC10430B51F235F
:103EE80004000120013B21D30D00DD400542F9D03B
:103EF800102A14D005D8002A08D00120082A12D088
:103F080030BD0120182AFBD1062BF9D82068416161
:103F1800182183688B43134383600020F0E7012056
:103F2800072BF3D9ECE70F2BF0D9E9E70120102A8A
:103F3800E6D0E5D8002AE3D1E8E70000F0B500288C
:103F480008D0841DE37F411D022B05D00423C363E1
:103F58000023CB770120F0BD0E250268466C13685C
:103F6800AB4313603368104D2B4033600123166850
:103F78009E431660026C1B331A401B3B93400B4E4A
:103F880077683B437360C26C836C5A60036D002B87
:103F980005D01A682A401A60436D826D5A60012361
:103FA8000020E377C877D6E7FFFEFFFF0000024056
:103FB800F8B5811DCB7F022B03D00423C3630120F6
:103FC800F8BD0E2402681C271368456CA3431360D0
:103FD800012314689C4314602A68104C22402A600C
:103FE800026C0F4D3A4093406E6833436B60C26C6D
:103FF800836C5A60036D002B05D01A6822401A6042
:10400800436D826D5A6001230022CB77431DDA7716
:10401800836B934200D098470020D1E7FFFEFFFF53
:10402800000002400020054B5A69824205DA044A22
:104038009A60044A9A605869C00F7047002002408D
:1040480023016745AB89EFCD8022044B12065969DD
:104058000A435A615869C043C00F704700200240A4
:10406800F8B505008027FFF785FE7F024619124C38
:1040780023693B420BD12269104B110010481940AB
:1040880020611A4209D00F4B0120596004E0FFF764
:1040980071FEB042EBD30320F8BDFFF76BFE80261C
:1040A8004519F6022369180030403342F4D0FFF76F
:1040B80061FEA842F6D3EEE700200240FA83000032
:1040C800FB830000680B0020F7B5174E0193337887
:1040D80004000D0002200092012B1ED00123FA20BB
:1040E8003370002380007360FFF7BAFF002812D1F5
:1040F8000E4F012C12D17B6923437B61009B2B60FF
:10410800BFF36F8F019B6B60FA208000FFF7A8FF59
:104118007B69A3437B6100233370FEBD28000099AF
:1041280008F04EFBF0E7C046680B00200020024074
:10413800044A05485369C90003401943034B0B431C
:10414800536170470020024007E0FFFF02000100B2
:10415800F7B5214F05003B7802240191012B1AD0B5
:104168000123FA203B70002380007B60FFF778FF73
:10417800041E0ED104236B602B68042B0DD1FA208A
:10418800164A174B516980000B435361FFF768FFCC
:10419800040000233B702000FEBD0123019A5B420E
:1041A8001360AE68AB68EA689B18B3420CD96868BC
:1041B8003100FFF7BDFFFA208000FFF751FF00280C
:1041C80008D00400019B1E600221044A53698B43F6
:1041D8005361DEE70136E5E7680B00200020024066
:1041E800040001000023F0B585B00A681400DC4023
:1041F80001D105B0F0BD012514009D402C4000946C
:104208002A427AD04A685E009446032264462240D5
:1042180001920322B240019CD243013C012C6ED88A
:10422800CC688768B44017403C43846044680127E1
:10423800AC432500644624093C409C402C43446020
:104248008C68C568B44015402C43C460019C022C9E
:104258005FD004682240019CB44014430460C02429
:104268006246A402224248D0344A03259C08A4008E
:10427800A4180F221D40ED00AA40A027266EFF05B6
:1042880096430022B8420CD02D4F0132B84208D0D4
:104298002C4F0132B84204D02B4F0332B84200D120
:1042A800023AAA40674632432266244C009A26689E
:1042B800009DD2433543FF0201D4350015406746BF
:1042C80025606668009D3543BF0201D4350015405E
:1042D800674665601D4C009DE66F3543BF0301D4FA
:1042E800350015406746E567194C009EE56F2E437B
:1042F800FF0301D415402E00E667013375E7019CE2
:10430800032CA6D08C68C568B44015402C43C46003
:104318009FE707250F271D40AD00AF40DC08A4002C
:1043280004190294246A03972700039CA7433C00BE
:104338000F69AF402743029C27628AE700180240B2
:104348000004005000080050000C005008180240FB
:104358000418024070B5084D0400EB68184202D0FA
:10436800E86002F023FC2B69234203D020002C6173
:1043780002F020FC70BDC0460018024010B5114C78
:104388001149236802000B40034323608023002067
:104398009B009A420ED10D4B0D49186806235843CD
:1043A800FBF7A2FE8022431CD2006169080010407E
:1043B800114200D110BD002B01D0013BF5E70320CD
:1043C800F8E7C04600700040FFF9FFFF44000020F6
:1043D80040420F00F0B5040085B0002802D101204A
:1043E80005B0F0BD0368DB0710D423689B075CD4D5
:1043F80023681B0700D5C1E023685B0700D5F2E0FE
:10440800E369002B00D079E10020E9E73822AF4DBD
:10441800AB681340EA68102B09D1D3439B0708D136
:104428002B689B03E1D56368002BDED1D7E7082B07
:10443800F6D0802263685202934211D12A6813434E
:104448002B60FFF797FC80270600BF022B683B42D2
:10445800CBD1FFF78FFC801B6428F7D90320BFE777
:10446800A021C9028B4208D180232968DB020B43B3
:104478002B602B681A432A60E3E72A6894490A40AC
:104488002A602A6893490A402A60002BD9D1FFF78D
:1044980071FC80270600BF022B683B42A5D0FFF7BE
:1044A80069FC801B6428F7D9D8E73822874DAB68A8
:1044B8001340EA68102B28D103210A40022A26D18A
:1044C8002A68520503D5E268002A00D187E769689F
:1044D80062698148120201400A436A60002B0CD1CC
:1044E8002B687E4A7E491340226913432B602B6850
:1044F8007C4A9B045B0FDA400A607B4B1868FFF725
:10450800F1FB002800D173E769E7002BD8D0E368F6
:10451800002B20D02B68714A802713402269FF00A6
:1045280013432B6080232A685B0013432B60FFF73B
:1045380021FC06002B683B4207D06A68636966491C
:104548001B020A4013436B6052E7FFF713FC801B02
:104558000228EFD982E72B68644A802713402B6032
:10456800FFF708FC0600FF002B683B4200D13FE73D
:10457800FFF700FC801B0228F6D96FE73822534D5D
:10458800AB681340182B08D12B6E9B0700D433E778
:10459800A369002B00D02FE721E7A2690123002A95
:1045A80010D02A6E022713432B66FFF7E3FB0600A1
:1045B8002B6E3B4200D01FE7FFF7DCFB801B022875
:1045C800F6D94BE72A6E02279A432A66FFF7D2FBF1
:1045D80006002B6E3B4200D10EE7FFF7CBFB801B9A
:1045E8000228F6D93AE73822384DAB681340202B19
:1045F80008D1EB6D9B0700D402E7A368002B00D01D
:10460800FEE6ECE680220021EB6B52050091134296
:1046180008D1EB6B1343EB63EB6B13400393039BE2
:10462800012300938027324E7F0033683B4215D028
:10463800A368012B22D1EA6D1343EB65FFF79AFBC0
:1046480002270600EB6D3B4238D0009B012B00D0BF
:10465800D6E6EB6B274A1340EB63D1E633683B435E
:104668003360FFF787FB019033683B42E0D1FFF7E7
:1046780081FB019BC01A0228F6D9EFE6EA6D052BEB
:1046880005D1013B1343EB65EA6D0123D4E7012112
:104698008A43EA65EA6D03318A43EA65002BCDD186
:1046A800FFF768FB02270600EB6D3B42CDD0FFF712
:1046B80061FB114B801B9842F6D9CFE6FFF75AFBF6
:1046C8000D4B801B9842BDD9C8E6C0460010024079
:1046D800FFFFFEFFFFFFFBFFFF80FFFFFFC7FFFF9E
:1046E800440000200024F40004000020FFFEFFFF27
:1046F80000700040FFFFFFEF8813000038213F4D96
:10470800AA680A40102A51D03D4A022B38D12B689A
:10471800802713402B60FFF72DFB0600BF042B6892
:104728003B4227D1616A236AEA680B4335498026F0
:104738000A401343E26AB6041343226B1343A26A86
:1047480012021343EB6080232A685B0413432B6037
:104758008023EA685B051343EB60FFF70BFB04005B
:104768002B68334200D04FE6FFF704FB001B0228FA
:10477800F6D973E6FFF7FEFA801B0228CFD96DE65B
:104788002B68802613402B60FFF7F4FA0400B60468
:104798002B68334204D1EB681B4A1340EB6033E6C5
:1047A800FFF7E8FA001B0228F2D957E6012B00D1DF
:1047B80015E60322E868216A02408A4200D00EE624
:1047C8007022616A02408A4200D008E6FE21A26A8D
:1047D800C90101401202914200D000E6F822E16AC4
:1047E800920302408A4200D0F9E5236B400F40074C
:1047F800C01A431E9841C0B2F2E5C04600100240FC
:10480800FFFFFFFE8C80C11FFCFFFEEF382370B551
:104818001D4CA2681A4205D123681C489B045B0FF3
:10482800D84070BDA2681A40082A27D0A2681A404A
:10483800102A17D1E368E168DB43E5684906490FA8
:104848006F322D0A013115409B0709D11048FBF73B
:104858004BFCE1686843490F0131FBF745FCE0E791
:104868000A48F4E7A2681A40202A09D0A268002062
:104878001340182BD5D1FA20C001D2E70448D0E75D
:1048880080200002CDE7C046001002400024F4005A
:1048980000127A00F7B504000D00002801D10120AC
:1048A800FEBD07274A4E33683B408B422AD3226815
:1048B80093073BD4D20748D4072733683B40AB4221
:1048C8000AD93368BB432B433360FFF753FA01908F
:1048D80033683B40AB426BD123683E4D5B076FD4D6
:1048E800FFF794FFAB683C491B051B0F9B005B5807
:1048F8001F210B40D840394A394B10601868FFF720
:10490800F1F9CDE73368BB430B433360FFF732FA65
:10491800019033683B40AB42C9D0FFF72BFA019BAB
:10492800C01A304B9842F4D90320B9E729495307F4
:1049380004D5E0238868DB0103438B608B682A4831
:104948000340A06803438B60B4E76268214F012AE3
:1049580019D13B689B03A2D50721BB688B4313433E
:10496800BB60FFF707FA01903823BA681A406368FA
:10497800DB009A42A0D0FFF7FDF9019BC01A194B42
:104988009842F1D9D0E7022A03D13B689B01E3D4CE
:1049980085E7002A03D13B685B05DDD47FE7022366
:1049A800032A03D1396E1942D6D178E7F96DFAE7AF
:1049B800FFF7E0F9019BC01A0A4B984288D9B3E780
:1049C800AB680A4A1340E2681343AB6088E7C04605
:1049D8000020024000100240B4CE0008440000202D
:1049E8000400002088130000FFF0FFFFFF8FFFFF87
:1049F800064B07499B68074A5B045B0F9B005B58A3
:104A08001F2110680B40D8407047C0460010024074
:104A180094CE000844000020072230B5F025094B49
:104A280002609C682D01144044609C682C4084609E
:104A3800E0249B68E4012340C360034B1B681340D8
:104A48000B6030BD0010024000200240704700009B
:104A5800F8B504000120002C66D0636A002B64D1ED
:104A6800822261685200914200D0E3610023250050
:104A7800A3625D352B78DAB2002B05D123005C33B5
:104A880020001A70FFF7E2FF022340222B702168F2
:104A9800E6680B689343E0220B60D200002396423D
:104AA80047D880204001964200D0A3628222842702
:104AB800636852001340A2683F023A40022713433A
:104AC8002269A5693A4013430122676917403B43AD
:104AD8008027BF002F403B43E769373217403B43ED
:104AE800276A4832174080223B43A76A9201174041
:104AF8003B43102708220B60636A2D0C3B40676B11
:104B080017403B43F0273F013E40334304263540DE
:104B18002B4303434B60CB69084803400020CB611B
:104B2800012320665D342370F8BD0023236163618F
:104B38009CE7F02218001201B5E7C046FFF7FFFF17
:104B4800704770B504000120002C10D02500022306
:104B580040215D352B702268200013685C348B433C
:104B68001360FFF7EDFF002060602870207070BDB3
:104B780070B5050002233D352B700368114A196A88
:104B88000400114207D1196A0F4A114203D10121C9
:104B98001A688A431A60200002F025FB23000020CF
:104BA800483318703C340A3B187058709870D870A5
:104BB800187158719871D8711872587228702070CD
:104BC80070BDC0461111000044040000010003003C
:104BD800012010B53D310C78E2B2844215D100189D
:104BE80008701B680A498B4202D00A498B420DD1D2
:104BF8009A6809490A40062A06D007398A4203D02A
:104C0800012219680A431A60002010BD1968F9E7E3
:104C1800002C014000040040070001000368084A16
:104C2800196A114207D1196A064A114203D10121B2
:104C38001A688A431A6001233D30037000207047C8
:104C480011110000440400000121036810B5DA685E
:104C58008A43DA601C6A074A144206D11C6A064A6B
:104C6800144202D11A688A431A6001233D30037046
:104C7800002010BD1111000044040000020030B5EE
:104C880002243C32157803002000012D08D01800BA
:104C98003D3004701B6859610123037000201070B7
:104CA80030BD7047704700000222036810B51969CB
:104CB800040011420ED0D96811420BD0053A1A618E
:104CC800043202779B699B0700D186E001F006FE5B
:104CD80000232377042223681969114211D0D96867
:104CE80011420ED0093A1A61073222779A69C02315
:104CF8009B0020001A4200D175E001F0EFFD00236F
:104D0800237708222368196911420ED0D968114205
:104D18000BD0113A1A610D322277DB6920009B070C
:104D280067D001F0DBFD002323771022236819697F
:104D3800114210D0D96811420DD0213A1A611932A6
:104D48002277DA69C0239B0020001A4257D001F06D
:104D5800C5FD00232377012223681969114207D072
:104D6800D968114204D0033A20001A6101F08BFD82
:104D7800802223681969114208D0D968114205D0E8
:104D8800023AFF3A20001A6100F0E1F923681A6933
:104D9800D20507D5DA68120604D51C4A20001A6124
:104DA80000F0D6F9402223681969114207D0D96862
:104DB800114204D0813A20001A61FFF773FF2022C4
:104DC80023681969114207D0D968114204D0413AC1
:104DD80020001A6100F0BAF910BD01F07BFD200037
:104DE800FFF75FFF74E701F075FD2000FFF759FF3B
:104DF80085E701F06FFD2000FFF753FF93E701F00F
:104E080069FD2000FFF74DFFA3E7C046FFFEFFFF47
:104E180010B5174C0368A04202D0164A904208D138
:104E2800702293434A681343134A1A40CB681343CA
:104E380008E0124A9042F7D0114A9042F4D0114A41
:104E48009042F1D0802293434A69134303608B68F0
:104E5800C3620B688362A04205D0094B984202D016
:104E6800084B984201D10B6903630123436110BDCC
:104E7800002C014000040040FFFCFFFF0020004020
:104E8800004401400048014070B504000120002C96
:104E980023D025003D352B78DAB2002B05D123002D
:104EA8003C3320001A7002F079F902232B70206835
:104EB800211DFFF7ADFF22000123002048321370A7
:104EC80047340A3A137053709370D3701371537147
:104ED8009371D371137223702B7070BD1F2310B59B
:104EE800012419408C408A40036AA3430362036A81
:104EF8001A43026210BD0000030010B508291ED035
:104F080005D8002911D0042916D0020004E00200B7
:104F18000C2917D0102917D0012043321278824269
:104F280009D11A000220433211E002003E3201206A
:104F3800147884420AD010BD02003F32F7E702001D
:104F48004032F4E74132F2E74232F0E702201070D3
:104F58001C6801222000FFF7C1FF134B9C4213D0AD
:104F6800124B9C420AD0124B9C4207D0114B9C42D8
:104F78000FD0012322681343236012E08023626C60
:104F88001B0213436364F4E78023626C1B02134320
:104F98006364A368084A1340062B02D0073A934279
:104FA800E7D10020C7E7C046002C0140004401407B
:104FB80000480140000400400700010010B5FFF759
:104FC8009BFF10BD030070B508294DD009D80029F2
:104FD8001BD0042941D00200433214780432E0B2D5
:104FE80008E0020047320C2945D0102954D043303C
:104FF8000478E0B21278D2B2012C50D1012A2BD118
:105008001A0002204332107041E005001C003E35B2
:105018002E784434F0B22278D2B2012E3FD1012A40
:105028001AD102222A7022701C6801222000FFF780
:1050380055FF1C4B9C4202D01B4B9C4207D1A368D6
:105048001A4A1340062B06D0073A934203D001238D
:10505800226813432360002070BD05001C003F3503
:105068002E784534F0B2D6E705001C0040352E787E
:105078004634F0B2CFE70400413425781278E8B21C
:10508800D2B2012D0BD1012AE6D1022222701A00D8
:10509800022047321070C7E704004234EDE70120D0
:1050A800DAE7C046002C0140000400400700010078
:1050B8001F2310B5042419408C408A40036AA34377
:1050C8000362036A1A43026210BD00000300020073
:1050D80010B5002905D144320120147884420AD041
:1050E80010BD042901D14532F6E7082901D047321D
:1050F800F2E74632F0E7022010701C680422200014
:10510800FFF7D6FF8023626C1B02134363640A4BCC
:105118009C4202D0094B9C4207D1A368084A13401D
:10512800062B06D0073A934203D001232268134383
:1051380023600020D4E7C046002C01400004004052
:105148000700010010B5FFF7C1FF10BD7047704799
:105158007047000030B5EFF31084012282F3108805
:105168000168134D0B682B400B6084F31088EFF334
:10517800108182F3108802680E4C93682340936074
:1051880081F31088C36E012B0AD1EFF3108183F3EA
:105198001088102402681368A343136081F31088F1
:1051A800030020228C331A600023C366436730BD96
:1051B800DFFEFFFFFEFFFFEF30B5EFF310840122A3
:1051C80082F31088802501680B68AB430B6084F379
:1051D8001088EFF3108182F310884023026810686A
:1051E8000343136081F3108830BD030088331B68C4
:1051F80010B5212B06D1020056321388002B02D19C
:10520800FFF7DAFF10BD036D01681C7801338C626B
:1052180003651388013B9BB21380F3E703008833CF
:105228001B6810B5212B06D1010056310B88002BC5
:1052380002D1FFF7C1FF10BD026D04681388023266
:10524800DB05DB0DA36202650B88013B9BB20B807B
:10525800F1E70000030088331B6870B5212B21D1CA
:105268000300010080246A331B885631002B19D0B3
:105278000A88002A17D1EFF31084013282F31088CC
:105288000168114D8B682B408B6084F31088EFF315
:10529800108182F31088402302681068034313606A
:1052A80081F3108870BD0568EA69224208D0026D52
:1052B80016780132AE6202650A88013A92B20A8013
:1052C800013B9BB2D2E7C046FFFF7FFF0300883354
:1052D8001B6870B5212B21D10300010080246A339B
:1052E8001B885631002B19D00A88002A17D1EFF3F2
:1052F8001084013282F310880168124D8B682B40AC
:105308008B6084F31088EFF3108182F310884023B8
:10531800026810680343136081F3108870BD066843
:10532800F26922420AD0056D2A880235D205D20DCB
:10533800B26205650A88013A92B20A80013B9BB2C3
:10534800D0E7C046FFFF7FFF7047000030B505007B
:1053580088352C6803000220202C37D10138002919
:1053680034D0002A32D080209C684001844205D184
:105378001869002802D10130014227D119651900A6
:1053880054310A804A801A0000219032116021228B
:1053980080212A608022586E92054901904216D1D8
:1053A800144A8C4203D11969002900D1124A9A671C
:1053B800EFF31081012282F310881A688023906825
:1053C8001B040343936081F31088002030BD0B4A0F
:1053D8008C4203D11969002900D1094A9A67EFF371
:1053E8001081012282F310881A6880231068034311
:1053F8001360E8E75D520008D5520008F351000831
:1054080025520008806A0023020010B55E3213801E
:10541800083A138002F098F810BD7047F7B5016894
:10542800C14DCB6904000A6888682B4210D1202539
:105438002B4200D19BE08026760515400640354377
:1054480000D194E0636F2000002B00D085E085E058
:10545800B64D05400095B64D009E1540354300D128
:1054680085E0250001269035334205D0D70503D5C0
:105478000E622F683E432E60022633420CD0C707C7
:105488000AD527000E6290373E680197B446042675
:1054980067463E43019F3E60042633420CD0C7074F
:1054A8000AD527000E6290373E680197B446022657
:1054B80067463E43019F3E600826B446334209D002
:1054C8002027009E1740374304D066460E622F6897
:1054D8003E432E6080263601334206D0570104D55C
:1054E8000E6220212E68314329602968002935D0B1
:1054F80020210B420AD080235B0511400340194349
:1055080004D0636F002B01D02000984722682B68D5
:105518004027966828223E40134020001E4322D090
:10552800FFF718FE23689B683B4218D0EFF3108101
:10553800012383F31088250004CD9368BB4393604F
:1055480081F31088E86F002809D07A4B8363FEF74F
:105558002FFD002802D0E86F836B9847F7BD200025
:1055680001F0F2FFFAE701F0EFFF2E60F6E7E56ED3
:10557800012D00D09FE01026334200D19BE032423B
:1055880000D198E00E62896840230A001A40194247
:1055980057D0211DCA6F1068426892B2002ADDD028
:1055A80027005C373F889742D8D927005E373A8072
:1055B800026820208446104000906046024232D1A2
:1055C800EFF3108785F3108820685B4E026832403D
:1055D800026087F31088EFF3108785F3108820683E
:1055E8008268AA43826087F31088EFF3108785F3F7
:1055F8001088206882689A43826087F310882300A5
:1056080062468C331A60009BE366EFF3108085F3E3
:10561800108822680F351368AB43136080F3108835
:10562800C86FFEF78BFC02232200236723005C323D
:105638005E331B881188C91A89B22000FFF7EDFE76
:105648008CE7230020005C335E30198803880088CB
:105658009BB2002800D181E7C91A89B2002900D17C
:105668007CE7EFF3108785F310882068334E0368D2
:105678003340036087F31088EFF3108785F31088B1
:1056880020682F4E83683340836087F31088230097
:1056980020208C331860E2666267EFF3108085F390
:1056A8001088102522681368AB43136080F31088B4
:1056B80002232367C1E780256D032B4206D04602EB
:1056C80004D520000D6201F07BFF47E780210B42E3
:1056D80007D080252D0411402840014301D0A36F35
:1056E800B1E640210B4216D00A4214D0EFF31080E5
:1056F800012383F31088226813688B43136080F3B7
:1057080010882300202288331A6000232000A36712
:1057180001F013FF22E7190214D5510012D5200019
:1057280000F0B9FD1AE7C0460F080000010000109C
:10573800200100040D540008FFFEFFFFDFFEFFFFFD
:10574800FEFFFFEFDB0100D408E7002A00DB05E7D6
:10575800200000F09FFD01E70100F8B503008C313F
:105768000C6860331A880368222C47D15B6A846D01
:10577800134002002370836D5E3201338365138802
:10578800013B9BB21380128893B2002A32D1EFF307
:105798001086012484F3108805681B4F2A683A4054
:1057A8002A6086F31088EFF3108684F31088056862
:1057B800AA68A243AA6086F3108820220A600367B9
:1057C800C26E4367A24216D1C366EFF3108482F318
:1057D8001088102301680A689A430A6084F31088C5
:1057E8000268D169194200D0136203005C3319883A
:1057F800FFF713FEF8BD01F099FEFBE7082299694F
:105808000A439A61F6E7C046DFFEFFFF0200F8B5DB
:1058180003008C32116860331C880368222946D142
:10582800596A836D214019800100023383655E3116
:105838000B88013B9BB20B8009888BB2002932D1BF
:10584800EFF31086012484F3108805681A4F29683D
:105858003940296086F31088EFF3108684F31088A6
:105868000568A968A143A96086F310882021116002
:105878000367C26E4367A24216D1C366EFF3108472
:1058880082F31088102301680A689A430A6084F337
:1058980010880268D169194200D0136203005C3392
:1058A8001988FFF7BAFDF8BD01F040FEFBE70822B2
:1058B80099690A439A61F6E7DFFEFFFF0300F0B536
:1058C80060331B8885B0029303680400DD691A6899
:1058D80003929A68019202008C321268222A00D040
:1058E800B2E0030068331B88002B02D020231D423E
:1058F80025D123005E331B889AB2002B1DD02300CC
:1059080068331B88934218D9EFF31080012282F381
:10591800108821684F4D8B682B408B6080F310886E
:105928004D4B6367EFF3108182F3108820232268C0
:1059380010680343136081F3108805B0F0BD26009A
:10594800236802995B6AA26D0B401370A36D5E36E3
:105958000133A36533882268013B9BB23380072358
:10596800D5691D422FD0063B1D4208D00399C905B1
:1059780005D5210013629031086803430B600223A8
:105988001D4209D00199C90706D52100136290313B
:105998000868DB1803430B6004231D4209D00199F2
:1059A800C90706D51362220090321168023B0B43E7
:1059B8001360270090373B68002B04D0200001F0CB
:1059C800C3FD00233B60328893B2002A00D08DE7E4
:1059D800EFF31086012181F3108820681F4F0268B9
:1059E8003A40026086F31088EFF3108081F3108844
:1059F80021681B4E8A6832408A6080F31088220032
:105A080020218C3211602367E26E6367012A17D167
:105A1800E366EFF3108082F31088102321680A6888
:105A28009A430A6080F310882268D169194200D02D
:105A3800136223005C3320001988FFF7EEFC55E75A
:105A4800200001F073FD51E7082299690A439A6121
:105A580073E7C046FFFFFFEF61570008FFFEFFFF37
:105A6800FEFFFFEF0300F0B560331B8885B002939B
:105A780003680400DD691A6803929A6801920200BB
:105A88008C321268222A00D0B0E0030068331B88E9
:105A9800002B02D020231D4225D123005E331B8812
:105AA8009AB2002B1DD0230068331B88934218D963
:105AB800EFF31080012282F3108821684E4D8B6825
:105AC8002B408B6080F310884C4B6367EFF3108199
