:020000040800F2
:1000000000200020A5270008F5270008F527000894
:1000100000000000000000000000000000000000E0
:10002000000000000000000000000000F5270008AC
:100030000000000000000000F5270008271F00084E
:10004000F527000800000000F5270008F527000844
:10005000F5270008E91F0008F91F0008092000081B
:1000600000000000F5270008F5270008F527000824
:10007000F5270008DD1C0008F51C00080000000042
:10008000FD1C00080000000000000000151D000815
:10009000000000002D1D0008451D0008F527000880
:1000A000F5270008F5270008F52700088126000835
:0800B000992600080000000081
:1000B80002B4714649084900095C49008E4402BCF3
:1000C8007047C046002243088B4274D303098B4211
:1000D8005FD3030A8B4244D3030B8B4228D3030C10
:1000E8008B420DD3FF22090212BA030C8B4202D3B2
:1000F8001212090265D0030B8B4219D300E0090ADA
:10010800C30B8B4201D3CB03C01A5241830B8B42E2
:1001180001D38B03C01A5241430B8B4201D34B03CB
:10012800C01A5241030B8B4201D30B03C01A524130
:10013800C30A8B4201D3CB02C01A5241830A8B42B5
:1001480001D38B02C01A5241430A8B4201D34B029E
:10015800C01A5241030A8B4201D30B02C01A524102
:10016800CDD2C3098B4201D3CB01C01A52418309B6
:100178008B4201D38B01C01A524143098B4201D3F0
:100188004B01C01A524103098B4201D30B01C01A1B
:100198005241C3088B4201D3CB00C01A5241830895
:1001A8008B4201D38B00C01A524143088B4201D3C2
:1001B8004B00C01A5241411A00D201465241104622
:1001C8007047FFE701B5002000F006F802BDC04601
:1001D8000029F7D076E770477047C04610B5064C3F
:1001E8002378002B07D1054B002B02D0044800E0F0
:1001F80000BF0123237010BD9800002000000000FC
:100208007C300008044B10B5002B03D00349044888
:1002180000E000BF10BDC046000000009C000020A8
:100228007C30000810B50121242002F0E1FA10BD4D
:1002380010B5FA240121A400242002F035FB200087
:1002480002F074FB0021242002F02EFB200002F0B3
:100258006DFB10BD7047000070B5104B0500197894
:10026800002901D1012070BDFA208000FFF72AFF84
:100278000B4C01002068FFF725FF00F081F8041EF1
:10028800F0D1032DEED8020001202900404200F0F1
:1002980031F8044B20001D60E5E7C046000000204F
:1002A80040000020040000208023084A5B001168F9
:1002B80010B50B4300201360FFF7CEFF041E03D1D7
:1002C800FFF7C8FF200010BD0124FBE70020024013
:1002D800034A044B11681B785B1813607047C046CB
:1002E800B400002000000020014B18687047C04689
:1002F800B400002010B5FF2403220B0021000240A7
:10030800D20091409B012340C943934000280ADB57
:10031800C0240B4A800880008018A40002590A40B3
:100328001343035110BD0F2210400838054A8008B6
:1003380080008018C26911401943C161F2E7C046C4
:1003480000E100E000ED00E0002805DB1F23184075
:100358001E3B8340014A13607047C04600E100E03D
:10036800002809DB1F2318401E3B8340034AD3673C
:10037800BFF34F8FBFF36F8F7047C04604E100E0B3
:100388008022431E5204012093420DD2C021074A05
:1003980007485360036A09061B021B0A0B430362E2
:1003A80000200723906013607047C04610E000E00B
:1003B80000ED00E0002807DB1F23C02218401E3B89
:1003C8008340024952008B507047C04600E100E06C
:1003D800704710B5FFF7FCFF10BD704710B5041E3D
:1003E80001D1012010BD437FDAB2002B02D1027780
:1003F800FFF7F3FF022363772379002B1CD1182121
:100408002368124A5A619A688A439A606279236813
:10041800002A19D1013A60211A619A6800208A439A
:1004280061690A4380219A609A688A43A1690A43EC
:100438009A6001236377D5E72000E268A16800F09D
:1004480007F80028E2D0CCE72269E4E7B71DC10429
:1004580030B51F2304000120013B21D30D00DD40EE
:100468000542F9D0102A14D005D8002A08D0012056
:10047800082A12D030BD0120182AFBD1062BF9D842
:1004880020684161182183688B43134383600020EF
:10049800F0E70120072BF3D9ECE70F2BF0D9E9E7B8
:1004A8000120102AE6D0E5D8002AE3D1E8E70000C9
:1004B800F0B5002808D0841DE37F411D022B05D02C
:1004C8000423C3630023CB770120F0BD0E25026807
:1004D800466C1368AB4313603368104D2B40336090
:1004E800012316689E431660026C1B331A401B3B9F
:1004F80093400B4E77683B437360C26C836C5A60C1
:10050800036D002B05D01A682A401A60436D826D6E
:100518005A6001230020E377C877D6E7FFFEFFFF84
:1005280000000240F8B5811DCB7F022B03D00423C5
:10053800C3630120F8BD0E2402681C271368456CAC
:10054800A3431360012314689C4314602A68104C69
:1005580022402A60026C0F4D3A4093406E68334344
:100568006B60C26C836C5A60036D002B05D01A68EF
:1005780022401A60436D826D5A6001230022CB77B6
:10058800431DDA77836B934200D098470020D1E768
:10059800FFFEFFFF0000024070B5084D0400EB6845
:1005A800184202D0E86001F013FD2B69234203D002
:1005B80020002C6101F010FD70BDC04600180240FB
:1005C80010B5114C1149236802000B400343236006
:1005D800802300209B009A420ED10D4B0D491868CC
:1005E80006235843FFF76EFD8022431CD200616941
:1005F80008001040114200D110BD002B01D0013B72
:10060800F5E70320F8E7C04600700040FFF9FFFF58
:100618004000002040420F00F0B5040085B00028DB
:1006280002D1012005B0F0BD0368DB0710D42368B0
:100638009B075CD423681B0700D5C1E023685B07D0
:1006480000D5F2E0E369002B00D079E10020E9E76A
:100658003822AF4DAB681340EA68102B09D1D34359
:100668009B0708D12B689B03E1D56368002BDED17B
:10067800D7E7082BF6D0802263685202934211D143
:100688002A6813432B60FFF72FFE80270600BF025E
:100698002B683B42CBD1FFF727FE801B6428F7D994
:1006A8000320BFE7A021C9028B4208D18023296813
:1006B800DB020B432B602B681A432A60E3E72A68A6
:1006C80094490A402A602A6893490A402A60002B04
:1006D800D9D1FFF709FE80270600BF022B683B42ED
:1006E800A5D0FFF701FE801B6428F7D9D8E7382288
:1006F800874DAB681340EA68102B28D103210A40C4
:10070800022A26D12A68520503D5E268002A00D1B8
:1007180087E7696862698148120201400A436A6092
:10072800002B0CD12B687E4A7E4913402269134363
:100738002B602B687C4A9B045B0FDA400A607B4B7A
:100748001868FFF789FD002800D173E769E7002BD7
:10075800D8D0E368002B20D02B68714A802713403B
:100768002269FF0013432B6080232A685B00134330
:100778002B60FFF7B9FD06002B683B4207D06A687B
:10078800636966491B020A4013436B6052E7FFF72F
:10079800ABFD801B0228EFD982E72B68644A8027CB
:1007A80013402B60FFF7A0FD0600FF002B683B42BB
:1007B80000D13FE7FFF798FD801B0228F6D96FE7C5
:1007C8003822534DAB681340182B08D12B6E9B076A
:1007D80000D433E7A369002B00D02FE721E7A269F3
:1007E8000123002A10D02A6E022713432B66FFF735
:1007F8007BFD06002B6E3B4200D01FE7FFF774FD20
:10080800801B0228F6D94BE72A6E02279A432A66EC
:10081800FFF76AFD06002B6E3B4200D10EE7FFF79B
:1008280063FD801B0228F6D93AE73822384DAB68B9
:100838001340202B08D1EB6D9B0700D402E7A36877
:10084800002B00D0FEE6ECE680220021EB6B52057F
:100858000091134208D1EB6B1343EB63EB6B13402E
:100868000393039B012300938027324E7F00336854
:100878003B4215D0A368012B22D1EA6D1343EB65E7
:10088800FFF732FD02270600EB6D3B4238D0009B94
:10089800012B00D0D6E6EB6B274A1340EB63D1E679
:1008A80033683B433360FFF71FFD019033683B42D9
:1008B800E0D1FFF719FD019BC01A0228F6D9EFE62F
:1008C800EA6D052B05D1013B1343EB65EA6D012366
:1008D800D4E701218A43EA65EA6D03318A43EA6570
:1008E800002BCDD1FFF700FD02270600EB6D3B4240
:1008F800CDD0FFF7F9FC114B801B9842F6D9CFE613
:10090800FFF7F2FC0D4B801B9842BDD9C8E6C046E4
:1009180000100240FFFFFEFFFFFFFBFFFF80FFFF0D
:10092800FFC7FFFF400000200024F400040000205F
:10093800FFFEFFFF00700040FFFFFFEF881300007D
:1009480038213F4DAA680A40102A51D03D4A022B4F
:1009580038D12B68802713402B60FFF7C5FC0600B1
:10096800BF042B683B4227D1616A236AEA680B43BC
:10097800354980260A401343E26AB6041343226BC2
:100988001343A26A12021343EB6080232A685B04B4
:1009980013432B608023EA685B051343EB60FFF782
:1009A800A3FC04002B68334200D04FE6FFF79CFC01
:1009B800001B0228F6D973E6FFF796FC801B022875
:1009C800CFD96DE62B68802613402B60FFF78CFC8F
:1009D8000400B6042B68334204D1EB681B4A134069
:1009E800EB6033E6FFF780FC001B0228F2D957E6DC
:1009F800012B00D115E60322E868216A02408A42E9
:100A080000D00EE67022616A02408A4200D008E6F1
:100A1800FE21A26AC90101401202914200D000E6FB
:100A2800F822E16A920302408A4200D0F9E5236B7A
:100A3800400F4007C01A431E9841C0B2F2E5C046B5
:100A480000100240FFFFFFFE8C80C11FFCFFFEEF7D
:100A5800382370B51D4CA2681A4205D123681C487A
:100A68009B045B0FD84070BDA2681A40082A27D0A3
:100A7800A2681A40102A17D1E368E168DB43E568E9
:100A88004906490F6F322D0A013115409B0709D1DC
:100A98001048FFF717FBE1686843490F0131FFF77A
:100AA80011FBE0E70A48F4E7A2681A40202A09D0B7
:100AB800A26800201340182BD5D1FA20C001D2E734
:100AC8000448D0E780200002CDE7C046001002406D
:100AD8000024F40000127A00F7B504000D00002885
:100AE80001D10120FEBD07274A4E33683B408B42A7
:100AF8002AD3226893073BD4D20748D40727336800
:100B08003B40AB420AD93368BB432B433360FFF702
:100B1800EBFB019033683B40AB426BD123683E4D01
:100B28005B076FD4FFF794FFAB683C491B051B0FAD
:100B38009B005B581F210B40D840394A394B106045
:100B48001868FFF789FBCDE73368BB430B43336075
:100B5800FFF7CAFB019033683B40AB42C9D0FFF7AF
:100B6800C3FB019BC01A304B9842F4D90320B9E764
:100B78002949530704D5E0238868DB0103438B60C8
:100B88008B682A480340A06803438B60B4E7626817
:100B9800214F012A19D13B689B03A2D50721BB68C5
:100BA8008B431343BB60FFF79FFB01903823BA6860
:100BB8001A406368DB009A42A0D0FFF795FB019BBF
:100BC800C01A194B9842F1D9D0E7022A03D13B68E1
:100BD8009B01E3D485E7002A03D13B685B05DDD49C
:100BE8007FE70223032A03D1396E1942D6D178E769
:100BF800F96DFAE7FFF778FB019BC01A0A4B984298
:100C080088D9B3E7AB680A4A1340E2681343AB607C
:100C180088E7C0460020024000100240D430000897
:100C2800400000200400002088130000FFF0FFFFB0
:100C3800FF8FFFFF704770470222036810B51969DC
:100C4800040011420ED0D96811420BD0053A1A613E
:100C5800043202779B699B0700D186E001F0DBF83C
:100C680000232377042223681969114211D0D96817
:100C780011420ED0093A1A61073222779A69C023C5
:100C88009B0020001A4200D175E001F0C4F800234F
:100C9800237708222368196911420ED0D9681142B6
:100CA8000BD0113A1A610D322277DB6920009B07BD
:100CB80067D001F0B0F80023237710222368196960
:100CC800114210D0D96811420DD0213A1A61193257
:100CD8002277DA69C0239B0020001A4257D001F01E
:100CE8009AF800232377012223681969114207D053
:100CF800D968114204D0033A20001A6101F060F863
:100D0800802223681969114208D0D968114205D098
:100D1800023AFF3A20001A6100F0A9F823681A691C
:100D2800D20507D5DA68120604D51C4A20001A61D4
:100D380000F09EF8402223681969114207D0D9684B
:100D4800114204D0813A20001A61FFF774FF202273
:100D580023681969114207D0D968114204D0413A71
:100D680020001A6100F082F810BD01F050F8200050
:100D7800FFF760FF74E701F04AF82000FFF75AFF19
:100D880085E701F044F82000FFF754FF93E701F0EE
:100D98003EF82000FFF74EFFA3E7C046FFFEFFFF27
:100DA80010B5174C0368A04202D0164A904208D1E9
:100DB800702293434A681343134A1A40CB6813437B
:100DC80008E0124A9042F7D0114A9042F4D0114AF2
:100DD8009042F1D0802293434A69134303608B68A1
:100DE800C3620B688362A04205D0094B984202D0C7
:100DF800084B984201D10B6903630123436110BD7D
:100E0800002C014000040040FFFCFFFF00200040D0
:100E1800004401400048014070B504000120002C46
:100E280023D025003D352B78DAB2002B05D12300DD
:100E38003C3320001A7001F05DFB02232B70206800
:100E4800211DFFF7ADFF2200012300204832137057
:100E580047340A3A137053709370D37013715371F7
:100E68009371D371137223702B7070BD70477047E4
:100E78007047000030B5EFF31084012282F3108828
:100E88000168134D0B682B400B6084F31088EFF357
:100E9800108182F3108802680E4C93682340936097
:100EA80081F31088C36E012B0AD1EFF3108183F30D
:100EB8001088102402681368A343136081F3108814
:100EC800030020228C331A600023C366436730BDB9
:100ED800DFFEFFFFFEFFFFEF30B5EFF310840122C6
:100EE80082F31088802501680B68AB430B6084F39C
:100EF8001088EFF3108182F310884023026810688D
:100F08000343136081F3108830BD030088331B68E6
:100F180010B5212B06D1020056321388002B02D1BE
:100F2800FFF7DAFF10BD036D01681C7801338C628E
:100F380003651388013B9BB21380F3E703008833F2
:100F48001B6810B5212B06D1010056310B88002BE8
:100F580002D1FFF7C1FF10BD026D04681388023289
:100F6800DB05DB0DA36202650B88013B9BB20B809E
:100F7800F1E70000030088331B6870B5212B21D1ED
:100F88000300010080246A331B885631002B19D0D6
:100F98000A88002A17D1EFF31084013282F31088EF
:100FA8000168114D8B682B408B6084F31088EFF338
:100FB800108182F31088402302681068034313608D
:100FC80081F3108870BD0568EA69224208D0026D75
:100FD80016780132AE6202650A88013A92B20A8036
:100FE800013B9BB2D2E7C046FFFF7FFF0300883377
:100FF8001B6870B5212B21D10300010080246A33BE
:101008001B885631002B19D00A88002A17D1EFF314
:101018001084013282F310880168124D8B682B40CE
:101028008B6084F31088EFF3108182F310884023DB
:10103800026810680343136081F3108870BD066866
:10104800F26922420AD0056D2A880235D205D20DEE
:10105800B26205650A88013A92B20A80013B9BB2E6
:10106800D0E7C046FFFF7FFF30B5050088352C6804
:1010780003000220202C37D10138002934D0002A5F
:1010880032D080209C684001844205D1186900282C
:1010980002D10130014227D11965190054310A8063
:1010A8004A801A00002190321160212280212A6092
:1010B8008022586E92054901904216D1144A8C42FA
:1010C80003D11969002900D1124A9A67EFF31081F8
:1010D800012282F310881A68802390681B04034356
:1010E800936081F31088002030BD0B4A8C4203D1F5
:1010F8001969002900D1094A9A67EFF31081012282
:1011080082F310881A688023106803431360E8E7A5
:101118007D0F0008F50F0008130F0008450F0008A1
:10112800806A0023020010B55E321380083A1380EB
:1011380001F080FA10BD7047F7B50168C14DCB6961
:1011480004000A6888682B4210D120252B4200D160
:101158009BE08026760515400640354300D194E093
:10116800636F2000002B00D085E085E0B64D054078
:101178000095B64D009E1540354300D185E0250009
:1011880001269035334205D0D70503D50E622F6866
:101198003E432E60022633420CD0C7070AD52700EB
:1011A8000E6290373E680197B446042667463E4370
:1011B800019F3E60042633420CD0C7070AD527009A
:1011C8000E6290373E680197B446022667463E4352
:1011D800019F3E600826B446334209D02027009E6E
:1011E8001740374304D066460E622F683E432E6090
:1011F80080263601334206D0570104D50E622021DD
:101208002E68314329602968002935D020210B42F6
:101218000AD080235B0511400340194304D0636F53
:10122800002B01D02000984722682B684027966839
:1012380028223E40134020001E4322D0FFF71AFE0A
:1012480023689B683B4218D0EFF31081012383F396
:101258001088250004CD9368BB43936081F3108800
:10126800E86F002809D07A4B8363FFF75BF9002801
:1012780002D0E86F836B9847F7BD200001F0DAF9D8
:10128800FAE701F0D7F92E60F6E7E56E012D00D0F8
:101298009FE01026334200D19BE0324200D198E013
:1012A8000E62896840230A001A40194257D0211D4E
:1012B800CA6F1068426892B2002ADDD027005C37F6
:1012C8003F889742D8D927005E373A8002682020A5
:1012D8008446104000906046024232D1EFF31087F6
:1012E80085F3108820685B4E02683240026087F3FD
:1012F8001088EFF3108785F3108820688268AA4366
:10130800826087F31088EFF3108785F310882068D0
:1013180082689A43826087F31088230062468C3380
:101328001A60009BE366EFF3108085F3108822684B
:101338000F351368AB43136080F31088C86FFFF74D
:10134800B7F802232200236723005C325E331B8830
:101358001188C91A89B22000FFF7EDFE8CE7230037
:1013680020005C335E301988038800889BB200280F
:1013780000D181E7C91A89B2002900D17CE7EFF3CF
:10138800108785F310882068334E03683340036064
:1013980087F31088EFF3108785F3108820682F4EA5
:1013A80083683340836087F31088230020208C33C0
:1013B8001860E2666267EFF3108085F310881025E5
:1013C80022681368AB43136080F3108802232367F5
:1013D800C1E780256D032B4206D0460204D52000C4
:1013E8000D6201F063F947E780210B4207D08025A1
:1013F8002D0411402840014301D0A36FB1E64021DC
:101408000B4216D00A4214D0EFF31080012383F365
:101418001088226813688B43136080F310882300B8
:10142800202288331A6000232000A36701F0FBF80C
:1014380022E7190214D5510012D5200000F09BFBB9
:101448001AE7C0460F080000010000102001000440
:1014580029110008FFFEFFFFDFFEFFFFFEFFFFEF81
:10146800DB0100D408E7002A00DB05E7200000F0D4
:1014780081FB01E70100F8B503008C310C6860338B
:101488001A880368222C47D15B6A846D13400200D6
:101498002370836D5E32013383651388013B9BB2F1
:1014A8001380128893B2002A32D1EFF310860124F8
:1014B80084F3108805681B4F2A683A402A6086F32F
:1014C8001088EFF3108684F310880568AA68A24391
:1014D800AA6086F3108820220A600367C26E4367F9
:1014E800A24216D1C366EFF3108482F3108810234A
:1014F80001680A689A430A6084F310880268D1690F
:10150800194200D0136203005C331988FFF713FEF9
:10151800F8BD01F081F8FBE7082299690A439A614E
:10152800F6E7C046DFFEFFFF0200F8B503008C3285
:10153800116860331C880368222946D1596A836D73
:10154800214019800100023383655E310B88013B1D
:101558009BB20B8009888BB2002932D1EFF3108639
:10156800012484F3108805681A4F296839402960D6
:1015780086F31088EFF3108684F310880568A9684D
:10158800A143A96086F31088202111600367C26E09
:101598004367A24216D1C366EFF3108482F3108822
:1015A800102301680A689A430A6084F31088026865
:1015B800D169194200D0136203005C331988FFF720
:1015C800BAFDF8BD01F028F8FBE7082299690A433B
:1015D8009A61F6E7DFFEFFFF0300F0B560331B8872
:1015E80085B0029303680400DD691A6803929A685B
:1015F800019202008C321268222A00D0B2E0030065
:1016080068331B88002B02D020231D4225D12300DC
:101618005E331B889AB2002B1DD0230068331B88C9
:10162800934218D9EFF31080012282F310882168C1
:101638004F4D8B682B408B6080F310884D4B636750
:10164800EFF3108182F31088202322681068034387
:10165800136081F3108805B0F0BD26002368029955
:101668005B6AA26D0B401370A36D5E360133A365F0
:1016780033882268013B9BB233800723D5691D421A
:101688002FD0063B1D4208D00399C90505D5210076
:1016980013629031086803430B6002231D4209D08E
:1016A8000199C90706D52100136290310868DB1833
:1016B80003430B6004231D4209D00199C90706D5CD
:1016C8001362220090321168023B0B43136027001B
:1016D80090373B68002B04D0200000F0ABFF0023BC
:1016E8003B60328893B2002A00D08DE7EFF3108672
:1016F800012181F3108820681F4F02683A40026078
:1017080086F31088EFF3108081F3108821681B4E50
:101718008A6832408A6080F31088220020218C3247
:1017280011602367E26E6367012A17D1E366EFF35E
:10173800108082F31088102321680A689A430A608F
:1017480080F310882268D169194200D013622300FF
:101758005C3320001988FFF7EEFC55E7200000F005
:101768005BFF51E7082299690A439A6173E7C0460B
:10177800FFFFFFEF7D140008FFFEFFFFFEFFFFEFF6
:101788000300F0B560331B8885B00293036804003A
:10179800DD691A6803929A68019202008C32126815
:1017A800222A00D0B0E0030068331B88002B02D047
:1017B80020231D4225D123005E331B889AB2002BBB
:1017C8001DD0230068331B88934218D9EFF310808B
:1017D800012282F3108821684E4D8B682B408B6064
:1017E80080F310884C4B6367EFF3108182F3108805
:1017F8002023226810680343136081F3108805B022
:10180800F0BD260023680298596AA26D0140118034
:101818000232A2655E363288013A92B232800722DD
:10182800DD6915422FD0063A154208D00399C9053B
:1018380005D521001A629031086802430A60022225
:10184800154209D00199C90706D521001A629031BD
:101858000868921802430A600422154209D00199C7
:10186800C90706D51A6222000223903211680B4379
:101878001360270090373B68002B04D0200000F04D
:10188800D9FE00233B60328893B2002A00D08FE74C
:10189800EFF31086012181F3108820681F4F02683A
:1018A8003A40026086F31088EFF3108081F31088C5
:1018B80021681B4E8A6832408A6080F310882200B3
:1018C80020218C3211602367E26E6367012A17D1E9
:1018D800E366EFF3108082F31088102321680A680A
:1018E8009A430A6080F310882268D169194200D0AF
:1018F800136223005C3320001988FFF71CFC57E7AC
:10190800200000F089FE53E7082299690A439A618A
:1019180075E7C046FFFFFFEF31150008FFFEFFFF28
:10192800FEFFFFEF0200F0B58432117803000220B9
:1019380001291FD01C000121883422301170206039
:10194800EFF3108681F310880C271D682868B843C8
:10195800286086F31088EFF3108081F310881968E7
:1019680008230D682B430B6080F310882023002088
:1019780023601070F0BD0200F0B5843211780300C6
:10198800022001291FD01C00012188342230117047
:101998002060EFF3108681F310880C271D682868F3
:1019A800B843286086F31088EFF3108081F310881D
:1019B800196804230D682B430B6080F310882023DB
:1019C800002023601070F0BD030088338C301B6842
:1019D800006818437047000003005C3370B58165E8
:1019E80080241A805A800023816843676401A142D9
:1019F8003FD10369591E8B41FF215B428B4341490B
:101A08005B18010060310B800300002190331960DE
:101A18002231043B1960EFF31084012383F310880B
:101A280001688D682B438B6084F3108880258021A2
:101A3800466E84680369AD054901AE423FD1050091
:101A480068352D8895423AD88C4233D1002B22D163
:101A58002D4B4367EFF31081012383F31088802314
:101A680002685B0590680343936081F31088002047
:101A780070BD002905D101697F230029C1D18033B8
:101A8800BFE780246405A142BBD101693F23002937
:101A9800B7D14033B5E71D4B4367EFF310810123FE
:101AA80083F310880268FF3314682343136081F3BB
:101AB8001088CFE7154A4267002BCBD0EDE78C4260
:101AC8001AD1002B0AD1124B4367EFF3108101237F
:101AD80083F3108802681F3310680AE00D4B4367D0
:101AE800EFF31081012383F3108802682033106814
:101AF800FF3303431360B8E7064A4267002BEFD170
:101B0800E3E7C046FF01000089170008E115000857
:101B1800311500087D14000803008C3070B5046886
:101B28000220202C25D10138002922D0002A20D0DB
:101B380080209C684001844205D11869002802D1A0
:101B48000130014215D10020D866186840680002AB
:101B58000CD5EFF31085012080F3108880201C68D5
:101B6800C00426683043206085F310881800FFF70A
:101B780033FF70BD70477047836810B50400002BB1
:101B880005D00322010098470023A360E36010BD3D
:101B9800836810B50400002B02D003220100984787
:101BA800200010BD0D4A03000020934214D00C4AB7
:101BB8000130934210D00B4A013093420CD00A4AAC
:101BC8000130934208D0094A9B185A42534158425F
:101BD800074B1840074BC0187047C046002C0140FF
:101BE80000040040002000400044014000B8FEBF4F
:101BF8000500FFFFFFFF000070B504000069FFF754
:101C0800D1FF05002000103000F0E4FB0022084B53
:101C1800AD00EA5026002500E260B4356436B542CE
:101C280004D0103D2800FFF7B3FFF8E7200070BD8F
:101C3800B8000020F8B5040008000E00FFF7B2FF56
:101C4800224FB84200D1FEE72569002D00D0FEE7FB
:101C580022001F4B0C328000C25023002C33266117
:101C68001D702600203325636563A563E56325643D
:101C78006564A5641D705D7003231036E36530004C
:101C88002566E46000F052FB20006430FFF774FF23
:101C980020007430FFF770FF20008430FFF76CFFDE
:101CA80020009430FFF768FF2000A430FFF764FF9E
:101CB8008023300025606560A5606561E761A561E6
:101CC80025626562A362FFF7A7F8F8BDFFFF000071
:101CD800B8000020044B10B51868002802D0043062
:101CE800FEF7AAFF10BDC046B800002010B5FFF7E8
:101CF800F1FF10BD044B10B55868002802D004301D
:101D0800FEF79AFF10BDC046B8000020044B10B57E
:101D18009868002802D00430FEF78EFF10BDC04638
:101D2800B8000020044B10B5D868002802D0043051
:101D3800FEF782FF10BDC046B8000020044B10B566
:101D48001869002802D00430FEF776FF10BDC0469F
:101D5800B800002010B50C220021040001F0A2F800
:101D680000232000E36010BDF8B50500070004005B
:101D78000E006435B43728001035FFF7EBFFBD427D
:101D8800F9D10023310020002361FFF753FF200021
:101D9800F8BD836810B5002B01D101F067F9C3685D
:101DA800984710BD10B5002800D1FEE700F0BCFA36
:101DB8000068C36E002B02D06430FFF7EAFF10BD45
:101DC80010B5FFF7EFFF10BD030010B5002800D1D4
:101DD800FEE7007F0138072812D8FEF769F90416D4
:101DE8001112111111140124180000F09DFA240198
:101DF8000068643400198368002B01D0FFF7C9FF1D
:101E080010BD0324F0E70424EEE70224ECE710B544
:101E1800FFF7DAFF10BD10B5FFF7D6FF10BD10B5FC
:101E280000F080FF10BD10B500F086FF10BD000067
:101E38007FB5002304280FD81B4B5A6BFEF738F9DF
:101E4800030F18212A0001210A435A635B6B0B40D8
:101E58000193019BA023DB05180007B000BD0221F8
:101E68000A435A635B6B0B400293029B0F4BF3E7E9
:101E780004210A435A635B6B0B400393039B0C4B8F
:101E8800EAE708210A435A635B6B0B400493049BFF
:101E9800084BE1E720210A435A635B6B0B4005932B
:101EA800059B054BD8E7C0460010024000040050CF
:101EB80000080050000C005000140050F7B5134BF8
:101EC80006001900019300F0EAF9FFF76BFE104FC6
:101ED8008400E359002B0DD1B420FFF7A0FF01992E
:101EE8000500300000F0DBF901002800FFF73CFF97
:101EF800E3591D603B591C68002C06D02000FFF7F1
:101F08007BFEB4212000FFF78EFFF7BDA431000847
:101F1800B800002010B5FEF7E7F910BD704710B5FE
:101F2800FEF7D6F9FEF755FAFFF7F8FF10BD704730
:101F380080210E4B4905DA6B84B00A43DA63DA6B09
:101F48000A4001210192019A1A6C0A431A641A6C18
:101F58000A4080210292029A9A6B49010A439A63C5
:101F68009B6B0B400393039B04B070470010024027
:101F780010B5FFF7DDFFFEF797F9FFF7D8FF00F080
:101F8800C7FB0248FEF72AFA10BDC0461C00002015
:101F980010B50C220021040000F084FF0023E36048
:101FA80010BD0000002310B501280BD114225A439C
:101FB800064B101DC0188168002902D09B181B69A8
:101FC800984710BD01334008DBB2EDE7CC00002094
:101FD80010B5FFF7E7FF10BD10B5FFF7E3FF10BD21
:101FE80010B50120FEF7D8FA0220FEF7D5FA10BD89
:101FF80010B50420FEF7D0FA0820FEF7CDFA10BD80
:1020080070B50C241025A8B2013CFEF7C5FA6D0086
:10201800002CF8D170BD0000F8B505252E4F2F4CC7
:1020280038002570FFF7B4FF2D4E25753000FFF7F7
:10203800AFFF2300013528332A481D70FFF7A8FF9A
:10204800230029483C331D70FFF7A2FF2300013508
:10205800503326481D706037FFF79AFF24483D70BB
:102068006036FFF795FF23483570FFF791FF23008F
:1020780021488C331D70FFF78BFF23001F48A033C6
:102088001D70FFF785FF23001D48B4331D70FFF74F
:102098007FFF23001B48C8331D70FFF779FF23001B
:1020A8001948DC331D70FFF773FF23002600F03357
:1020B80016481D70FF36FFF76BFF15487571FFF75F
:1020C80067FF14487576FFF763FF962312485B0095
:1020D800E554FFF75DFFF8BDD0000020CC000020DC
:1020E800E4000020F80000200C010020200100205E
:1020F80034010020480100205C010020700100200C
:102108008401002098010020AC010020C0010020BB
:10211800D4010020E8010020FC01002010B5044C87
:10212800143C201DFFF734FD024B9C42F8D110BD32
:102138000C020020CC000020431C04D10020704772
:10214800834204D00C310B685A1CF9D1F6E7012000
:10215800F5E70000F7B506000C00431C00D1FEE7C8
:102168000F23474A0340C0B29B0009389D580328F3
:102178000ED8FDF79DFF02222C31C02332009B01AF
:102188001A409A4204D108233E4A11680B4313604F
:102198003006000FFFF74CFE2900032203006943B5
:1021A8004A438068D743104398600720204003289B
:1021B8003FD8FDF77DFF553F1549C02332009B01ED
:1021C8001A409A42E4D12F4A10231168DEE7082109
:1021D8002C4A13688B43DAE72A4A10211368F9E777
:1021E8006004420E01924A009446019A7F2A0ED05A
:1021F800360711D50F265A6A10002A0A524352434D
:102208005643B04306000198424316435E62604657
:102218001A683A40024310E01A6A0F2610000A00B2
:102228004A435643B04306000198424316431E6290
:10223800EDE7FEE71A683A400A431A60220712D50A
:102248005A682A435A6002E0186802431A60A406D2
:10225800A40F012C0AD0022C0DD0DA683A4008E00D
:102268001A683A40F2E75A68AA43EBE7DA683A4054
:102278000A43DA60F7BDDA6849003A40F8E7C04631
:1022880094300008000001400B685A1C01D100205E
:1022980002E0834201D1486870470C31F4E700231B
:1022A80010B5421C02D0FFF7EFFF0300180010BD65
:1022B8004B68002B02D10120404202E0834201D149
:1022C800086870470C31F3E710B5002802D0FFF713
:1022D800EFFF10BD01204042FBE70000A0220D4B9C
:1022E800D20019680C480A4300211A6099601A68DC
:1022F80002401A6080225201DA601A6807480240D8
:102308001A60074A99611A628022064B12059A6080
:102318007047C04600100240FFFFF6FEFFFFFBFFBC
:102328003B03000000ED00E0043870470368234ACF
:1023380086B093420BD18021214B09011A6C0A43C4
:102348001A641B6C0B400193019B06B070471D4A31
:10235800934209D102211A4BDA6B0A43DA63DB6B29
:102368000B400293029BF0E7174A93420AD180215F
:10237800134B09021A6C0A431A641B6C0B40039333
:10238800039BE2E7114A93420AD180210C4B890250
:102398001A6C0A431A641B6C0B400493049BD4E721
:1023A8000B4A9342D1D18021054BC9021A6C0A43CA
:1023B8001A641B6C0B400593059BC6E7002C014073
:1023C800001002400004004000200040004401408A
:1023D800004801400368134A934205D1124A134941
:1023E800136C0B40136407E0114A934205D1022194
:1023F8000D4AD36B8B43D36370470E4A934203D184
:10240800094A0D49136CECE70C4A934203D1064A7A
:102418000B49136CE5E70B4A9342EDD1024A0A498E
:10242800136CDEE7002C014000100240FFF7FFFFAD
:102438000004004000200040FF7FFFFF00440140EF
:10244800FFFFFDFF00480140FFFFFBFF0300421CA8
:1024580013D00E4A904213D007D80D4A904211D09B
:102468000C4A1320934207D0FEE70B4A90420BD048
:102478000A4A16209342F7D170470E204042FBE7E4
:102488000D20F9E71020F7E71520F5E7002C0140AB
:102498000004004000200040004401400048014082
:1024A8000300421C13D00E4A904213D007D80D4A9D
:1024B800904211D00C4A1320934207D0FEE70B4AF2
:1024C80090420BD00A4A16209342F7D170470E204B
:1024D8004042FBE70E20F9E71020F7E71520F5E763
:1024E800002C01400004004000200040004401404E
:1024F80000480140F8B50400FFF718FF2068FFF70F
:10250800A5FF226DE16CFDF7F5FE2068FFF79EFF41
:10251800FDF71AFF27683800FFF7C2FF05003800EB
:10252800FFF794FF854209D02800226DE16CFDF782
:10253800E1FE2068FFF7B4FFFDF706FFF8BD0000D5
:1025480010B5B1300278064B9200D058FFF73CFA2C
:1025580022231840223843425841C0B210BDC04619
:102568000C02002010B5B1300278064B9200D0580A
:10257800FFF72AFA21231840213843425841C0B2B4
:1025880010BDC0460C02002070B5040015000028DC
:102598001BD00300060000209C331960B03630566B
:1025A800FDF7DEFE23002100C233B8311B8809681D
:1025B800B1342078C918054B8000C058AAB2FEF77C
:1025C80053FD00203056FDF7BFFE70BD0C02002001
:1025D80010B500280BD00300A4331B68013306D1C3
:1025E800B1300278024B9200D058FFF79BF910BD2A
:1025F8000C02002010B500280BD00300A4331B6880
:10260800013306D1B1300278024B9200D058FFF75F
:10261800B2F910BD0C020020030010B594331B68FA
:102628000438984710BD030010B598331B68043868
:10263800984710BD0122036810B5D9690400043811
:10264800114201D01A620BE00222D9691142F9D174
:102658000422D9691142F5D10822D9691142F1D170
:10266800FFF76EFF002805D1210001222000AE31BE
:10267800FFF752FA10BD000010B51B20FDF79AFEB7
:10268800024B1868FEF758FD10BDC0460C0200202A
:102698001C2010B5FDF78EFE034B5868002801D0AA
:1026A800FEF74AFD10BDC0460C020020010010B51F
:1026B8000122AE31FFF730FA10BD000003000A49CD
:1026C80010B50868C318EFF30882934205D90C22A5
:1026D8000120064B40421A6010BD054A054C121BEA
:1026E8009342F4D20B60F7E744000020CC040020AA
:1026F8000020002000040000FEE700001622012050
:10270800014B40421A607047CC04002001207047FA
:1027180010B592B03422002105A800F0C3FB1022A6
:10272800002101A800F0BEFB80208000FDF748FFD3
:1027380080235B000893002309930E9308330F93BB
:1027480080239B0210938023022440229B0505A826
:1027580005940A920C940D941193FDF75DFF0028DF
:1027680000D0FEE7072303900490210001A80193FD
:102778000294FEF7B1F9002800D0FEE712B010BDB0
:1027880010B500F0F1F810BD10B500E000BFFDF77E
:1027980049FDFDF74DFD00F0D7F8FAE70D488546ED
:1027A800FFF79CFD0C480D490D4A002302E0D45860
:1027B800C4500433C4188C42F9D30A4A0A4C002383
:1027C80001E013600432A242FBD300F085FBFFF75F
:1027D800DBFFFEE70020002000000020980000201A
:1027E8009C34000898000020D4040020FEE7000074
:1027F800F7B5C3B2040001912C2B29D8E022264951
:102808009B005C58D20002401443631C37D00F264B
:1028180025093540214FAD00EB592640F340DB0731
:102828000DD520001E49FFF787FC002802D02000A4
:10283800FFF744FB0122B2407B5993437B51019B34
:10284800052B27D81800FDF733FC16211B1D1F2365
:10285800C0220240C02A12D1CF2B10D83F231149E1
:1028680003409B005B58E0210B4A9B009B58C90022
:102878000C401C43C9E700212000FFF76BFCF7BDA3
:102888001021F9E72021F7E70321F5E70121F3E714
:102898000921F1E7FEE7C046A03300081402002032
:1028A800A431000860330008C3B210B52C2B17D828
:1028B800E022184C9B00D20002401859104303062E
:1028C80000221B0F042B02D8134A9B009A580F248E
:1028D800124B20408000C358002918D0936110BDC6
:1028E800C0220240C02A0ED1CF2B0CD83F230C4C5B
:1028F80003409B001B59E024064A9B009B58E400B8
:1029080020401843DBE7012000224042DFE79362C2
:10291800E5E7C046A033000808000020943000080E
:102928006033000810B5FFF7F5FA10BD70B5041E46
:1029380009D0FFF7EFFA050000F01AF8FFF7EAFAF6
:10294800401BA042F8D370BD054B10B5002B06D034
:10295800044800F00FF8002801D000E000BF10BDC7
:10296800000000002802002010B5FFF701FB10BD91
:1029780070477047AA23A8215B00C35A4900405AF0
:102988004033181A3F2318407047AA235B00C25AE5
:10299800043BC35A9A4203D0FC30C26CD05C7047E7
:1029A80001204042FBE7A923AB225B005200C35C35
:1029B800805AC0B2834202D3C01A3F307047C01A4F
:1029C8000138FBE713B56B460268D97107335468C1
:1029D80019000122A04716BD0300010070B5C233DB
:1029E800C4311A880C6812193F2422401A80020048
:1029F800BE3212881D880024AA4217D01D88403292
:102A08001C880B4B521BA4B21A4004D54023013A30
:102A18005B421A43013240231B1B9A4200D91A0019
:102A28000A6001240349FFF7AFFD6442200070BD2E
:102A38003F000080E1290008F0B5036885B09B6875
:102A48000191039204009847A92340275B00E35AA9
:102A58000500FF1A0123237423009433029368337B
:102A6800DB6B013309D1AE235B00E25C002A04D0A2
:102A780000220298E254FFF7ABFD236820009B6810
:102A880098470028F9D0039EBE4226D8AE4224D8E3
:102A9800A92327005B00E35AFC37386D9A19C01840
:102AA800402A33D83200019900F03CFA3500A922B7
:102AB8003F215200A35A02989B190B40A352FFF7DB
:102AC80051FD002806D1FC342A0017490298E56513
:102AD800FFF75AFD039805B0F0BDBD4200D93D008F
:102AE80023682A005B68019920009847019B200011
:102AF8005B1901932368761B9B689847A9235B00A1
:102B0800E75A133BFF3B0500DF1BBDE74025ED1AE5
:102B18002A00019900F006FA019B386D721B5919B9
:102B280000F000FAC3E7C046E1290008F7B5037CC6
:102B380004000D00002B16D0FDF7D6FBA927AB2605
:102B480001907F007600E25BA35B9A420BD0002DD8
:102B5800FAD0FDF7C9FB019BC01A8542F3D8A92317
:102B6800A25B5B00E252F7BD10B5914201D1012191
:102B780049420400FC342364029BA263636403009B
:102B8800AA221133E36400235200E1638352020056
:102B980051322265AB2252006365835210BD00009A
:102BA8000023F0B54360FA239B0083601C4B0400AC
:102BB80003600123FC345B42E3631A4F1A4B85B070
:102BC80005000E00786A03929D4203D1BB6AE36355
:102BD800A0630AE0154B19000293FFF760FB8642D9
:102BE80014D1BB6AE3637B6AA3630123039A5B4244
:102BF800012A00D1E363009301232800A26BE16B53
:102C08005B42FFF7B1FF280005B0F0BD300008496E
:102C1800FFF75AFB0299E0633000FFF755FBD7E74F
:102C28005C340008A0330008280200205C3100084A
:102C3800143100080300FC33DB6B10B504000133CA
:102C48000ED1036800215B6A9847AE235B00E25C03
:102C5800002A05D120000132E2549430FFF7CAFC63
:102C680010BD10B50400FFF7E5FFAA23A8225B00FA
:102C78005200E15AA35A994208D02100FC31C96C8C
:102C8800C85C3F2101330B40A35210BD01204042D4
:102C9800FBE7000010B5002202480349FFF780FF58
:102CA80010BDC046280200200044004010B50400B2
:102CB800FFF738FEE060236820005B69984700282A
:102CC80008DAFFF72FFEE368C01AA3689842F2D328
:102CD8000120404210BDF8B506000F001500002481
:102CE800AC4201D12000F8BD3000FFF7DFFF00281B
:102CF800F8DB38550134F3E7F7B50F0016001D006F
:102D08001C1E01900BD000240198FFF7CFFF00286C
:102D180005DBB84203D030550134A542F4D1200078
:102D2800FEBD000010B5034B0100186800F030F834
:102D380010BDC0464800002010B5034B01001868BC
:102D480000F0FAF810BDC0464800002070B50F4EDC
:102D58000D0031680400002902D100F0ABF83060A2
:102D68002900200000F0A6F8431C03D101256D427C
:102D7800280070BD0323C51C9D43A842F8D0291A1A
:102D8800200000F097F80130F2D1EFE78C03002023
:102D98000323F7B5CD1C9D43083506000C2D34D20E
:102DA8000C25A94233D8300000F06CF8344F3B684A
:102DB8001C00002C2FD129003000FFF7C7FF0400AA
:102DC800431C58D13C682100002949D1002C4CD023
:102DD80023683000E318019300F06CF8019B8342EC
:102DE80043D123683000ED1A2900FFF7AFFF013007
:102DF8003BD023685B1923603B68002B3DD05A68A1
:102E0800A24230D100225A6012E0002DC9DA0C2308
:102E180033600020FEBD2168491B1ED40B2917D939
:102E280062192560A34211D13A606368116053604A
:102E3800300000F02FF8200007220B30231D9043AC
:102E4800C21A9842E6D01B1AA350E3E75A60ECE78F
:102E58006268A342D7D13A60EAE723006468A8E72A
:102E68000C004968B0E71300C7E70C233000336053
:102E780000F010F8CDE70560DAE75B60FFDEC046DA
:102E88009003002010B5024800F04AF810BDC04673
:102E9800D004002010B5024800F043F810BDC04629
:102EA800D004002003008218934200D170471970A3
:102EB8000133F9E7002370B5064D040008002B60C4
:102EC800FFF7FCFB431C03D12B68002B00D02360C9
:102ED80070BDC046CC04002070B500260C4C0D4DCA
:102EE800641BA410A64209D1002600F0C3F80A4CBE
:102EF8000A4D641BA410A64205D170BDB300EB585F
:102F080098470136EEE7B300EB5898470136F2E7E9
:102F18008434000884340008943400088434000899
:102F280070477047002310B59A4200D110BDCC5CA1
:102F3800C4540133F8E7000070B505000C1E10D02A
:102F4800043C2368002B00DAE4182800FFF79AFFF6
:102F58001D4A1368002B05D1636014602800FFF731
:102F680099FF70BDA34208D9206821188B42F3D17C
:102F780019685B6809182160EEE71A005B68002B86
:102F880001D0A342F9D911685018A0420BD120688A
:102F98000918501811608342E0D118685B6841181D
:102FA80011605360DAE7A04202D90C232B60D5E701
:102FB800206821188B4203D119685B6809182160C1
:102FC80063605460CAE7C04690030020062010B52D
:102FD80000F02CF80120FFF78FFB70B504000D00FE
:102FE8001F2904D9162303600120404270BDC36B1A
:102FF800002B04D08A009B181A68002A08D12000E8
:1030080000F030F82A000100200000F019F8EDE780
:10301800012A09D0511C03D1162303600120E5E7DA
:1030280000212800196090470020DFE710B5034B06
:1030380001001868FFF7D1FF10BDC0464800002006
:10304800002370B5064D0400080011002B60FFF73F
:1030580055FB431C03D12B68002B00D0236070BDA7
:10306800CC04002010B5FFF751FB10BD10B5FFF7D9
:10307800ADFF0000F8B5C046F8BC08BC9E467047D6
:0C308800F8B5C046F8BC08BC9E46704776
:10309400010000000200000004000000080000001D
:1030A400100000002000000040000000800000002C
:1030B40000010000000200000004000000080000FD
:1030C400001000000020000000400000008000000C
:1030D40000000000000000000000000000000000EC
:1030E40000000000000000000000000000000000DC
:1030F40001000000020000000300000004000000C2
:10310400060000000700000008000000090000009D
:103114000300000000440040120100000A00000007
:1031240000380140120100000A300000003801405C
:10313400120100000F0000000044004012010000D2
:10314400170000000038014012000000FFFFFFFFDD
:1031540000000000000000000200000000440040E5
:1031640012010000090000000038014012010000B3
:103174000930000000380140120100000E00000078
:103184000044004012010000160000000038014015
:1031940012000000FFFFFFFF00000000000000001D
:1031A400040000000020004012840000060000001B
:1031B40000040040128100000601000000440140A8
:1031C4001285000007000000002C0140128210004C
:1031D4000701000000040040120101000702000082
:1031E4000020004012840000070300000048014052
:1031F4001285000008000000002C0140128200002B
:1032040009000000002C01401202010009300000F6
:10321400002C0140120201000A000000002C0140B1
:10322400128201000A300000002C014012820100C9
:103234000B000000002C01401202020010000000EC
:10324400002C014012021100100100000004004093
:103254001281010011000000002C014012821100B3
:1032640011010000000400401201020011020000DC
:10327400002000401280000013000000002C0140D8
:10328400120101001400000000040040128100003B
:1032940015000000000400401201010016000000A7
:1032A400002C01401281010016010000004401407D
:1032B4001282100017000000004801401282100022
:1032C40018000000004401401282000019000000B0
:1032D40000480140128200001D000000002C014043
:1032E400128210001E000000002C01401202110086
:1032F4001F000000002C0140128211002600000073
:103304000004004012810000270000000004004077
:10331400120101003000000000440140128200004C
:103324003100000000480140128200003200000019
:10333400002C01401282100033000000002C0140D8
:103344001202110040000000002000401282000020
:10335400FFFFFFFF0000000000000000000000006D
:10336400010000000200000003000000040000004F
:103374000500000006000000070000000D0000002A
:103384000E000000100000001100000012000000F8
:103394001A0000001B0000001C00000000000000D8
:1033A400010000000200000003000000040000000F
:1033B40005000000060000000700000008000000EF
:1033C400090000000A0000000B0000000C000000CF
:1033D4000D0000000E0000000F00000010000000AF
:1033E400110000001200000013000000140000008F
:1033F400150000001600000017000000180000006F
:10340400190000001A0000001B0000001C0000004E
:103414001D0000001E0000001F0000002600000028
:10342400270000002D0000002E0000002F000000E7
:1034340030000000310000003200000033000000C2
:103444004000000041000000093000000A30000084
:103454000000000000000000CD290008412A0008F7
:10346400AF2900087B2900087D2900086B2C00087F
:1034740093290008DF2C0008012D0008352B0008D3
:10348400892700080D020008212000089D2C00084F
:08349400E501000825210008F4
:10349C000100000004000000000000500004005077
:1034AC0000080050000C0050001400500030024086
:1034BC000000000000000000000000000000000000
:1034CC0000000000000000000000000001000000EF
:1034DC000024F400D80400204C0000200000000060
:1034EC0094030020FC030020640400200000000072
:1034FC0000000000000000000000000000000000C0
:10350C0000000000000000000000000000000000AF
:10351C00000000000000000000000000000000009F
:08352C00000000000000000097
:04000005080027A523
:00000001FF
