:020000040800F2
:100000000020002019880008698800086988000815
:1000100000000000000000000000000000000000E0
:1000200000000000000000000000000069880008D7
:10003000000000000000000069880008D36D00087F
:1000400069880008698800086988000869880008CC
:10005000698800088D6F00089D6F0008AD6F00086B
:1000600000000000698800086988000869880008A5
:10007000698800086988000800000000456A0008D7
:10008000000000005D6A00080000000000000000A1
:10009000756A0008000000008D6A00086988000881
:1000A000698800086988000869880008ED7A0008F6
:1000B000057B0008217B0008000000000000000014
:1000C00002780B78002A03D0013001319A42F7D030
:1000D000D01A70470023C25C0133002AFBD1581E9E
:1000E0007047000002B4714649084900095C4900A4
:1000F0008E4402BC7047C04603B4714649084000B4
:100100004900095E49008E4403BC70470022430841
:100110008B4274D303098B425FD3030A8B4244D3CF
:10012000030B8B4228D3030C8B420DD3FF22090211
:1001300012BA030C8B4202D31212090265D0030BD0
:100140008B4219D300E0090AC30B8B4201D3CB03C6
:10015000C01A5241830B8B4201D38B03C01A524108
:10016000430B8B4201D34B03C01A5241030B8B420A
:1001700001D30B03C01A5241C30A8B4201D3CB02F5
:10018000C01A5241830A8B4201D38B02C01A5241DA
:10019000430A8B4201D34B02C01A5241030A8B42DD
:1001A00001D30B02C01A5241CDD2C3098B4201D3F5
:1001B000CB01C01A524183098B4201D38B01C01A73
:1001C000524143098B4201D34B01C01A52410309EA
:1001D0008B4201D30B01C01A5241C3088B4201D399
:1001E000CB00C01A524183088B4201D38B00C01A46
:1001F000524143088B4201D34B00C01A5241411A6D
:1002000000D20146524110467047FFE701B5002079
:1002100000F0F0F802BDC0460029F7D076E770473D
:1002200003460B437FD4002243088B4274D3030957
:100230008B425FD3030A8B4244D3030B8B4228D3F8
:10024000030C8B420DD3FF22090212BA030C8B421E
:1002500002D31212090265D0030B8B4219D300E0BE
:10026000090AC30B8B4201D3CB03C01A5241830B43
:100270008B4201D38B03C01A5241430B8B4201D3F3
:100280004B03C01A5241030B8B4201D30B03C01A1C
:100290005241C30A8B4201D3CB02C01A5241830A96
:1002A0008B4201D38B02C01A5241430A8B4201D3C5
:1002B0004B02C01A5241030A8B4201D30B02C01AEF
:1002C0005241CDD2C3098B4201D3CB01C01A524156
:1002D00083098B4201D38B01C01A524143098B42DF
:1002E00001D34B01C01A524103098B4201D30B01C8
:1002F000C01A5241C3088B4201D3CB00C01A5241ED
:1003000083088B4201D38B00C01A524143088B42B1
:1003100001D34B00C01A5241411A00D2014652414A
:10032000104670475DE0CA0F00D04942031000D369
:100330004042534000229C4603098B422DD3030ABE
:100340008B4212D3FC22890112BA030A8B420CD3CE
:10035000890192118B4208D3890192118B4204D3F7
:1003600089013AD0921100E08909C3098B4201D377
:10037000CB01C01A524183098B4201D38B01C01AB1
:10038000524143098B4201D34B01C01A5241030928
:100390008B4201D30B01C01A5241C3088B4201D3D7
:1003A000CB00C01A524183088B4201D38B00C01A84
:1003B0005241D9D243088B4201D34B00C01A52415B
:1003C000411A00D20146634652415B10104601D3E8
:1003D0004042002B00D54942704763465B1000D372
:1003E000404201B5002000F005F802BD0029F8D018
:1003F00016E770477047C0468446100062468C4638
:100400001900634600E0C0461FB50BF0A5FC0028AC
:1004100001D40021C8421FBD10B50BF0E5FB4042DE
:10042000013010BD10B50BF097FC002801DB002057
:1004300010BD012010BDC04610B50BF08DFC00288A
:1004400001DD002010BD012010BDC04610B50BF02D
:100450000FFC002801DC002010BD012010BDC046AB
:1004600010B50BF005FC002801DA002010BD0120BA
:1004700010BDC046844608006146FFE71FB50AF07C
:100480006DF9002801D40021C8421FBD10B50AF043
:10049000EDF84042013010BD10B50AF05FF90028B8
:1004A00001DB002010BD012010BDC04610B50AF0D0
:1004B00055F9002801DD002010BD012010BDC04607
:1004C00010B50AF0FBF8002801DC002010BD012067
:1004D00010BDC04610B50AF0F1F8002801DA00207E
:1004E00010BD012010BDC046002B11D1002A0FD134
:1004F000002900D1002802D00021C943080007B418
:10050000024802A14018029003BDC046E9FEFFFF69
:1005100003B4684601B5029809F03AFD019B9E4676
:1005200002B00CBC7047C0461C2101231B0498423A
:1005300001D3000C10391B0A984201D3000A083974
:100540001B09984201D30009043902A2105C40182B
:100550007047C046040302020101010100000000CF
:100560000000000010B5002903D1FFF7DDFF2030A7
:1005700002E00800FFF7D8FF10BDC04610B5064CDA
:100580002378002B07D1054B002B02D0044800E054
:1005900000BF0123237010BD700100200000000087
:1005A0009CCD0008044B10B5002B03D00349044830
:1005B00000E000BF10BDC046000000007401002034
:1005C0009CCD0008BFF34F8F034B044ADA60BFF3A2
:1005D0004F8FC046FDE7C04600ED00E00400FA057D
:1005E000034B1B78002B02D00122024B1A7070477C
:1005F000000000208C01002070B504000025A542F9
:1006000000DB70BD0021202008F08CF9C82008F024
:1006100079FA0121202008F085F9C82008F072FA43
:100620000135ECE7F0B50E0004000021300085B084
:1006300008F019F801270500B368BB4219D8102249
:100640002900200007F066FFA368012B0ED10D4999
:1006500001A807F0F9FE210001A807F09CFF0100A6
:10066000200007F024FF01A807F0A7FE200005B036
:10067000F0BD3900300007F0F6FF4540EDB201371C
:10068000DAE7C046C0CD0008F0B5002701243E00DF
:100690003D0087B004938B680290013B0391059263
:1006A00001936442019B9E4213DD049B9D4222DD27
:1006B00023003A000399029807F0EEFF029807B072
:1006C000F0BD019A671C01353400964211D01E001E
:1006D000E8E7049B9D42EBDC3100039807F0C3FF81
:1006E000059A731C9042ECD0019A9642EFD10135E5
:1006F000671C1C00EBE70249029807F0A5FEDDE746
:1007000016D6000813B5302006F080FA0F23040037
:10071000C9220093C421DB1801F016F82100084813
:1007200001F0AEFA0749084807F08EFE074C08486A
:10073000210007F089FE2100064807F085FE13BD61
:10074000C4010020C2CD0008B801002016D6000860
:100750009C0100209001002010B5054807F02DFEF7
:10076000044807F02AFE044807F027FE10BDC046E3
:10077000900100209C010020B801002010B5142039
:1007800008F0C0F9074C200007F01DFA002808D037
:10079000200007F018FA0028F1D0200007F0E4FB51
:1007A000F6E710BDFC040020F0B587B0010004009E
:1007B00003A807F08CFE03A96846FFF733FF03A8E0
:1007C00007F0FBFD1D4903A807F03EFE694603A89C
:1007D00007F0E1FE1A4907F0EBFE0100200007F0E8
:1007E000D4FE03A807F0E9FD164DFA27280002F011
:1007F000CFF806267F000E3002D1013E002E11D127
:1008000000222800216803F053FB002802D10230A7
:10081000FFF7F2FE280003F0FCF8684607F0CDFD74
:1008200007B0F0BDFA213800090107F0BCFD08F05F
:1008300069F9280002F0ACF8DDE7C046C9CD000830
:10084000CBCD0008C40100209621F0B506228DB062
:100850004748890107F04AFB0121202008F006F8EB
:1008600001210B2008F002F800210B2008F05AF8B3
:10087000404E0121300003F021FE002802D00A2062
:10088000FFF7BAFE002003F02BFE2F2843D12E38AD
:1008900003F026FE0700022003F022FE04000320DE
:1008A00003F01EFE3449050009A807F0CDFD0A2219
:1008B000390006A807F02EFE06A909A807F06BFE6E
:1008C0002E4B0100180007F0F2FD06A807F075FD99
:1008D00009A807F072FDFA20621E94418000284B9F
:1008E00068431C70274B186000230493083303935C
:1008F0000933254D0293013301930B3B00932800EC
:10090000224A2349023301F0C5F9041E14D01420F1
:10091000FFF772FEFEE72F21002003F0F5FD6621B0
:10092000012003F0F1FD0121022003F0EDFD78210B
:10093000032003F0E9FDD7E704221649280002F05E
:10094000A1F8280003F065F808F0D4F8124D134A16
:1009500013492860300003F081FD08F0CBF8114BFB
:10096000286003201C70FFF747FE0DB0F0BDC046A5
:10097000FC04002080030020CDCD0008B801002039
:100980000100002004000020C40100200000FA4201
:1009900000C06444E1050008B4010020FA44B0013D
:1009A000809698008D01002070B588B0FFF7E6FEB4
:1009B00000242A4B2A4E195D300007F02CF901342F
:1009C000052008F09FF8082CF3D1FA2008F09AF8D7
:1009D000300007F0F8F804AC00280ADD00253000EC
:1009E00007F0C2FA60550120013508F08BF80D2D93
:1009F000F5D11C4E1C49300007F07BFD002510226C
:100A0000615D01A807F086FD01A9300007F0BDFD7A
:100A1000013501A807F0D1FC0D2DF0D12378062B6C
:100A200017D16378032B14D1E37822791B029B182A
:100A30006279A0791202121801200C490A60E27949
:100A4000217A120252180A490B600A4B1A6008B048
:100A500070BD01235B421A000020F4E7FACD0008C4
:100A6000FC0400209001002016D60008A8010020F8
:100A7000B0010020AC01002030B587B0FFF77EFE4A
:100A80000024264B264D195D280007F0C4F80134D8
:100A9000052008F037F8082CF3D1FA2008F032F8D6
:100AA000280007F090F800280BDD0024280007F04C
:100AB0005BFA6B4618550120013408F023F8082C26
:100AC000F4D1184D1849280007F013FD00246B4697
:100AD0001022195D03A807F01DFD03A9280007F0E7
:100AE00054FD013403A807F068FC082CEFD16B46D5
:100AF0001B78062B0ED16B465B78062B0AD16F2232
:100B00000A4B01201A600023094A1360094A136046
:100B100007B030BD012300205B42F5E7F2CD0008AD
:100B2000FC0400209001002016D60008A801002037
:100B3000B0010020AC01002070B588B0FFF71EFEA8
:100B40000024254B254E195D300007F064F8013470
:100B5000052007F0D7FF082CF3D1FA2007F0D2FFC9
:100B6000300007F030F804AC00280ADD0025300022
:100B700007F0FAF960550120013507F0C3FF082D91
:100B8000F5D1174E1749300007F0B3FC00251022AD
:100B9000615D01A807F0BEFC01A9300007F0F5FC7B
:100BA000013501A807F009FC082DF0D12378062BA8
:100BB0000DD16378062B0AD16F220B4B1A600123EB
:100BC00018000A4A13600A4A136008B070BD012376
:100BD00000205B42F5E7C046EACD0008FC04002097
:100BE0009001002016D60008A8010020B0010020C6
:100BF000AC01002070B588B0FFF7C0FD0024254B84
:100C0000254E195D300007F006F80134052007F085
:100C100079FF082CF3D1FA2007F074FF300006F0BA
:100C2000D2FF04AC00280ADD0025300007F09CF953
:100C300060550120013507F065FF082DF5D1174EED
:100C40001749300007F055FC00251022615D01A80E
:100C500007F060FC01A9300007F097FC013501A8FE
:100C600007F0ABFB082DF0D12378062B0DD163786C
:100C7000062B0AD16F220B4B01201A6002230A4A6D
:100C800013600A4A136008B070BD012300205B4264
:100C9000F5E7C046E2CD0008FC04002090010020EA
:100CA00016D60008A8010020B0010020AC010020E9
:100CB000F0B55C489FB003F0F3FB5B4B1B78002B57
:100CC00065D107F017FF594A594913680968C31AD3
:100CD0008B425CD9574910600CA807F0B5FBFFF7B1
:100CE00063FE5549002868D00FA807F0F0FB0FA954
:100CF00012A807F0ECFB514C12A8210007F058FC99
:100D000005004F4B0A22196815A807F014FC2800AB
:100D100015A907F040FC210007F04AFC0500494BEB
:100D20000A22196818A807F006FC18A9280007F07D
:100D300032FC210007F03CFC0400434B0A221968F6
:100D40001BA807F0F8FB1BA9200007F024FC0100FA
:100D50000CA807F0ACFB1BA807F02FFB18A807F0A6
:100D60002CFB15A807F029FB12A807F026FB0FA8FB
:100D700007F023FB0CA91BA807F0A9FB1BA8FFF792
:100D800013FD1BA807F019FB0CA807F016FB2F4951
:100D90000B78DFB2002B08D000232D4A13702D4AA8
:100DA0000B7014789C425DD013702B4802F031FE1A
:100DB0000122274B1A701FB0F0BD18A807F087FB5F
:100DC00018A91BA807F083FB24491BA807F0F0FB18
:100DD00001000CA807F06BFB1BA807F0EEFA18A89F
:100DE00007F0EBFA15491BA807F02EFB1C491BA8BE
:100DF00007F0D1FB01000CA807F0C7FB1BA807F008
:100E0000DCFA0CA91BA807F062FB1BA8FFF7CCFCBF
:100E10001BA807F0D2FAFA20800007F073FEFFF754
:100E2000D1FBC0468003002001000020B401002057
:100E30000400002016D60008B8010020D1CD00081B
:100E4000B0010020A8010020AC0100208C0100208E
:100E5000000000208D010020C4010020D3CD000837
:100E600090010020F449684607F0EEFA2200694636
:100E7000F24803F02DF869460500F14807F0B6F88E
:100E8000F0491BA807F0E0FA68461BA907F0FFFB32
:100E900006001BA807F091FA042E00DCF4E13300F1
:100EA000220069461BA807F0F7FB1BA9684607F05C
:100EB00018FB1BA807F081FA69461BA807F007FB7F
:100EC00023003A221BA912A8FFF7DEFB1BA807F09C
:100ED00074FA69461BA807F0FAFA01233A221BA903
:100EE00015A8FFF7D1FB1BA807F067FA12A91BA8EA
:100EF00007F0EDFA1BA918A8FFF794FB1BA807F051
:100F00005CFA18A915A807F083FB002804D06846EE
:100F100012A907F0CCFA3C0018A807F04EFA15A861
:100F200007F04BFA12A807F048FA002D00D0ABE109
:100F3000002C00D1A8E169461BA807F0C8FA1BA93C
:100F40002B002C2203A8FFF79FFB1BA807F035FA04
:100F5000BD4C03A8210007F05BFB002800D18DE108
:100F600069461BA807F0B3FA1BA901232C2206A887
:100F7000FFF78AFB1BA807F020FAB44906A807F080
:100F800054FB002860D0AC490CA807F05DFAFFF7CD
:100F90000BFD2100002800D17AE10FA807F097FA95
:100FA0000FA912A807F093FAA94C12A8210007F084
:100FB000FFFA0500A74B0A22196815A807F0BBFA2B
:100FC000280015A907F0E7FA210007F0F1FA05005B
:100FD000A14B0A22196818A807F0ADFA18A9280031
:100FE00007F0D9FA210007F0E3FA04009B4B0A222C
:100FF00019681BA807F09FFA1BA9200007F0CBFA7D
:1010000001000CA807F053FA1BA807F0D6F918A89E
:1010100007F0D3F915A807F0D0F912A807F0CDF919
:101020000FA807F0CAF9FA20800007F06BFD0CA9A1
:101030001BA807F04CFA1BA8FFF7B6FB1BA807F08C
:10104000BCF90CA807F0B9F9854906A807F0EDFA34
:10105000002826D069461BA807F039FA2C22022363
:101060001BA918A8FFF710FB1BA807F0A6F97D49DC
:101070001BA807F0E9F918A91BA807F08CFA724B16
:101080000100180007F013FA1BA807F096F918A83A
:1010900007F026FBC1B2012003F036FA18A807F0CA
:1010A0008CF9714906A807F0C0FA00281ED06946DD
:1010B0001BA807F00CFA2C2202231BA918A8FFF783
:1010C000E3FA1BA807F079F9604918A807F0ADFA10
:1010D00042425041654B187018A807F001FBC1B29D
:1010E000022003F011FA18A807F067F9604906A872
:1010F00007F09BFA00281BD069461BA807F0E7F908
:1011000002232C221BA918A8FFF7BEFA1BA807F080
:1011100054F918A807F0E4FAFA23C1B29B004B4334
:10112000544A0320136003F0EFF918A807F045F9BB
:10113000514906A807F079FA002879D03E4C09A851
:10114000210007F081F9694618A807F0C0F90223C9
:101150002C2218A91BA8FFF797FA41491BA807F0F2
:1011600064FA05001BA807F028F918A807F025F96C
:10117000002D00D1DFE0FFF77FFC3349002800D1CC
:10118000AFE00FA807F0A3F90FA912A807F09FF985
:101190002F4C12A8210007F00BFA05002D4B0A2254
:1011A000196815A807F0C7F9280015A907F0F3F981
:1011B000210007F0FDF90500274B0A22196818A83D
:1011C00007F0B9F918A9280007F0E5F9210007F0A0
:1011D000EFF90400214B0A2219681BA807F0ABF9AC
:1011E0001BA9200007F0D7F9010009A807F05FF953
:1011F0001BA807F0E2F818A807F0DFF815A807F019
:10120000DCF812A807F0D9F80FA807F0D6F8FA20F2
:10121000800007F077FC09A91BA807F058F91BA864
:10122000FFF7C2FA1BA807F0C8F809A807F0C5F82D
:1012300006A807F0C2F821E016D60008C401002075
:10124000FC040020DACD0008B8010020C0CD000861
:10125000D1CD0008B0010020A8010020AC01002081
:10126000DCCD0008CDCD0008C7CD0008010000206E
:10127000DECD000804000020E0CD00080320FFF7C9
:10128000BBF903A807F099F8684607F096F88CE5D3
:1012900018A807F01CF918A91BA807F018F970493D
:1012A0001BA807F085F901000CA807F000F91BA89E
:1012B00007F083F818A807F080F86A491BA807F020
:1012C000C3F869491BA807F066F901000CA807F0EC
:1012D0005CF91BA807F071F8FA20800007F012FCF7
:1012E0008FE518A807F0F3F818A91BA807F0EFF886
:1012F0005B491BA807F05CF9010009A807F0D7F8C3
:101300001BA807F05AF818A807F057F855491BA86A
:1013100007F09AF854491BA807F03DF9010009A805
:1013200007F033F91BA807F048F8FA20800007F00F
:10133000E9FB09A966E5694618A807F0C8F8022381
:101340002C2218A91BA8FFF79FF948491BA807F0F2
:101350006CF905001BA807F030F818A807F02DF865
:10136000002D5ED021000CA807F06EF8FFF7E4FB1B
:101370003F4900288CD00FA807F0A9F80FA912A8A0
:1013800007F0A5F8374C12A8210007F011F9050065
:10139000384B0A22196815A807F0CDF8280015A9BE
:1013A00007F0F9F8210007F003F90500324B0A2293
:1013B000196818A807F0BFF818A9280007F0EBF87B
:1013C000210007F0F5F804002C4B0A2219681BA82D
:1013D00007F0B1F81BA9200007F0DDF801000CA808
:1013E00007F065F81BA806F0E8FF18A806F0E5FF6F
:1013F00015A806F0E2FF12A806F0DFFF0FA806F01E
:10140000DCFFFA20800007F07DFB0CA91BA807F089
:101410005EF81BA8FFF7C8F91BA806F0CEFF0CA8C2
:1014200001E7694618A807F052F802232C2218A9F0
:101430001BA8FFF729F912491BA807F0F6F80500C9
:101440001BA806F0BAFF18A806F0B7FF002D00D1C0
:10145000EBE621000CA806F0F7FFFFF7CBFB87E7D0
:10146000D3CD0008D1CD000890010020C7CD0008E1
:10147000B8010020B0010020A8010020AC0100202C
:10148000DECD000837B50800421E9041081AFA2147
:101490000F4D8900AB6800936C6801346043FEF720
:1014A00035FE0022009B0193AB6800930199009BDD
:1014B000994209D20199009BE31A5B18D218009B4C
:1014C00001939042F0D837BD019B00995B1AF5E774
:1014D00010E000E0CBB20E4A242B0BD9C0220A4008
:1014E000C02A11D1C92B0FD83F230A480B409B00BB
:1014F000074A1B58E0209B009B58C0000840184337
:10150000431C00D00800704701204042FBE7C04662
:101510003CD5000814D5000810B5C06902F064FD80
:1015200010BD10B5C06902F093FD10BDF8B50700FD
:101530000C001D008E18B44200D1F8BD21780022A5
:10154000F86902F089FD013428700135F3E710B520
:1015500007F0CFF810BD10B54B1C03D0C8B2002166
:1015600006F04AFE10BD080010B511001A00431C19
:1015700002D0C0B206F0BCFD10BD10B5C06902F0CB
:1015800066FD10BD10B51C3007C802F043FD10BD4C
:1015900010B50C00002011001A00631C02D02000BE
:1015A00007F038FA10BD10B507F0A8FA10BD10B555
:1015B00007F0A0FA10BD10B5080007F0A3FA10BD9F
:1015C000080010B54B1C01D006F05AFE10BD0000FB
:1015D0007FB50C0015001E004B1C19D00C220021F9
:1015E000684607F097FD002303939D4204D0094B02
:1015F00000950393084B029332006946200006F0E1
:1016000075FE029B002B03D003226946684698476B
:101610007FBDC0469516000875160008002010B55D
:101620004B1C02D0080007F0BBF910BD080010B534
:101630001100431C01D007F075F910BD080010B56A
:101640001100431C01D007F011F910BD030010B5C3
:1016500028331B78002B02D003689B6A984710BD83
:10166000030010B528331B78002B02D003689B6B56
:10167000984710BD012A02D1016000207047022A5C
:1016800005D0032AF9D0002AF7D10260F5E70B68EC
:101690000360F2E710B50368984710BDF8B50D0078
:1016A00017000C005E18A64200D1F8BD7B1B20007D
:1016B000195D02F029FF0134F5E7F8B50D001700B8
:1016C0000C005E18A64200D1F8BD200002F008FF11
:1016D0007B1B18550134F5E7032330B585B0029321
:1016E0000133012501930023040019002A0000950D
:1016F00000F01AF8064B20002360064BA584E36136
:10170000054B2362230028331D7005B030BDC04651
:101710000CCE00080C03002080841E007047704728
:10172000704708007047704710B5C360029B054CB6
:101730000361039B04604361049B41608260836199
:1017400010BDC04670CE000870B504008025002092
:1017500062612200A3612D02049B6560094DE36173
:10176000094B2060A560E0602161203262CB62C23B
:10177000E0622C3005F04AFA0500FFF7ADFF2000CB
:10178000256070BD0800FFFFB4CD000810B504004F
:1017900000680368DB6B98472068216903688268EA
:1017A0001B68984720682169036802695B6898474D
:1017B00010BD10B5006803681B6C984710BDF0B5EC
:1017C00085B00393037A16000B9ADB089B1804007C
:1017D000180001930F0005F01DFA0500019805F0AF
:1017E00019FA0290227AF3B2082A37D83B43681CD0
:1017F0002B706379BB4237D10B9A039907F03DFDFB
:1018000020680368DB6A9847206821690368C2681A
:101810005B689847206829000368019A1E6B029B49
:10182000B04720682169036802695B6898472068AF
:1018300003685B6B98472379BB4207D1217A029BEF
:10184000C9080B9A0A98591807F017FD280005F0E7
:10185000E5F9029805F0E2F905B0F0BD360A3E431D
:101860002E70A81C6B70C4E7A1790B9A07F052FC8C
:10187000C6E70000F0B585B002930DAB1B7801926E
:10188000039313000C9A04009446029A6344009355
:1018900053425341009A0E00D3181800009305F0EC
:1018A000B9F90700009805F0B5F931000500019A73
:1018B000380007F0E2FC019BF818029B002B4DD08A
:1018C0000C9A0A9907F0D9FC2068E2690368013292
:1018D0004AD101215B69984720680368DB6A984711
:1018E000206821690368C2685B68984720683900EE
:1018F0000368009A1E6B2B00B047206821690368BB
:1019000002695B689847206803685B6B9847039B94
:10191000002B07D02068E2690368013244D101211D
:101920005B699847E3681C1E07D000240C9AA2420A
:1019300003D0019AA85C98470400029B002B06D1B3
:1019400001990C9A01310B98691807F096FC380040
:1019500005F064F9280005F061F922E00C9BA179FB
:101960005A1C07F0D7FBAFE7DB69984706002068F1
:10197000E16903689B6898470028ADD02068036838
:10198000DB6C984720680368DB6998470E9B801BD7
:101990009842ECD3380005F041F9280005F03EF9F3
:1019A0000F4C200005B0F0BD01219B6998472068CD
:1019B0000368DB69984706002068E16903689B6853
:1019C00098470028AED020680368DB6C98472068F1
:1019D0000368DB6998470E9B801B9842ECD3D9E7DC
:1019E0003FFDFFFF70B51E00437A0C0088B00179FF
:1019F000002B06D1019200962200FFF7E0FE08B00E
:101A000070BD07AD230A6B70FA239B002970AC7080
:101A100004930123039300230292290003220196D9
:101A20000093FFF727FFEAE730B51B24002389B0B6
:101A30006C442370457A0A0001799D4208D1013334
:101A4000019300942B00FFF7BAFE207809B030BD57
:101A500007AD2970AA70110AFA22920069700492E7
:101A60000122290003920292019400930232FFF7AF
:101A700001FFEAE770B51C00130015002343072B94
:101A80000DD8A2420BD3FFF7CFFFFF2107230A0097
:101A90005B1B1A41A14011400840C0B270BD0B2031
:101AA0004042FBE770B51E00437A0C0088B04179D4
:101AB000002B07D10093019613002200FFF77FFE51
:101AC00008B070BD07AD230A6B70FA239B00297024
:101AD000AC7000210493012301910092290003229C
:101AE00003930296FFF7C6FEEAE730B58BB06B466C
:101AF000DA77437A0C004179002B09D10122009357
:101B00001F3301926B442200FFF759FE0BB030BD2A
:101B100009AD230A6B70FA2300229B002970AC7078
:101B20000493012301921F326A4400922900032288
:101B300003930293FFF79EFEE8E7F0B51E0085B021
:101B40000AAB1F780BAB1B78050003930CAB1B781B
:101B500014000293330001913B43072B37D8BE4258
:101B600035D3FFF761FFFF22082113000136C91B9F
:101B7000F6B20A41B3401343DB43DBB298431C4047
:101B80000443E4B2220028000199FFF7AEFF286861
:101B9000FA260368B6001B6A98470700039B5E435A
:101BA000286803681B6A9847C01BB04202D3102004
:101BB00040420AE028000199FFF736FF0300029A2D
:101BC0000298634018401342EAD105B0F0BD0B20E3
:101BD000EEE7013970B502000C00002001254B1C16
:101BE00000D170BD2B00661AB3401340F3408B4008
:101BF00001391843F3E7C06A002803D170478B42CC
:101C0000FCD010300378002BF9D11800F6E7F8B5B6
:101C10000600FFF7F0FF041E10D035003700043433
:101C200020352C3729684B1C04D0306822680368A3
:101C30005B68984704350434BD42F3D1F8BD000019
:101C400070B50D1C04000C49281CFEF743FC00284D
:101C50000ED00A49281CFEF729FC002808D02000D5
:101C6000291C01F039FA002801D1FC34E56270BD6D
:101C70000C204042FBE7C0460000094300007F44BF
:101C800010B5040000F036FA014B2000236010BDAF
:101C9000D4CE0008F0B585B01D000AAB1B78171C28
:101CA00001930BAB1A780CAB1B780E1C0EA90978AC
:101CB0005BB202930DAB03911B881221040001F06B
:101CC000B0FD00282AD12000391C00F00BFC0028B0
:101CD00024D1236820001B6B311C984700281DD19C
:101CE0002900200000F09CFD002817D12000019958
:101CF00000F0EDFD002811D1236820009B6C0299B3
:101D0000984700280AD12000039900F09AFA002889
:101D100004D102000121200000F08CFB05B0F0BDD1
:101D2000FC3070B50400836A186899690268156808
:101D30008268A847A36A1868996902685568C268EA
:101D4000A847A36A0121186803685B699847A36ADA
:101D500018689969026855680269A847A36A05214D
:101D6000186803685B69984770BD000070B50D1C6A
:101D700004000C49281CFEF7ADFB00280ED00A49D0
:101D8000281CFEF793FB002808D02000291C01F036
:101D9000A3F9002801D1FC34E56270BD0C2040425B
:101DA000FBE7C046000009430040034410B55D2234
:101DB00001F098FB10BD0000F0B58BB008900991C0
:101DC00000F0E0FE802800D057E1089CFC34206B36
:101DD0000AF00CFF0022AB4B0AF0F4FA4B00590852
:101DE000A94AAA4BFEF728FB002816D0E56AA849A5
:101DF000281CFEF76FFB002830D0A649281CFEF7F0
:101E000055FB00282AD002223621A06AFFF76DFE7A
:101E100064223A21A06AFFF768FEE36A206B05930B
:101E20000AF0E4FE9C4A9D4B06000F000AF0CAFA35
:101E30004B005908944A954BFEF7FEFA051E20D038
:101E400005980AF0D3FE964A964B09F053F80AF02B
:101E500015FF0024482505902600DCE09249281C47
:101E6000FEF738FB0028D8D09049281CFEF71EFB4F
:101E70000028D2D002223621A06AFFF736FE7F2248
:101E8000C7E78B4A8B4B300039000AF09BFA4B00B6
:101E900059087D4A7D4BFEF7CFFA041E0BD00598FA
:101EA0000AF0A4FE844A854B09F024F80AF0E6FE05
:101EB0002C0005901CE0784A814B300039000AF074
:101EC00081FA06900791079B069A5B00100059085B
:101ED0006D4A6E4BFEF7B0FA051E0BD005980AF05E
:101EE00085FE6F4A774B09F005F80AF0C7FE0590AA
:101EF0004425B1E76E4A744B300039000AF062FAAB
:101F00004B005908604A614BFEF796FA041E05D053
:101F100005980AF06BFE6D4A6D4BC5E700226D4BCC
:101F2000300039000AF04EFA06900791079B069A96
:101F30005B0010005908544A544BFEF77DFA051E09
:101F400005D0F4210598890508F0EEF8CFE7624A3C
:101F5000624B300039000AF035FA4B0059084A4A02
:101F60004A4BFEF769FA041E05D005980AF03EFEBA
:101F70005B4A5C4B98E700225B4B300039000AF06B
:101F800021FA06900791079B069A5B0010005908FA
:101F90003D4A3E4BFEF750FA051E00D070E000228D
:101FA000524B300039000AF00DFA4B005908364AFE
:101FB000364BFEF741FA041E61D100224C4B300033
:101FC00039000AF0FFF906900791079B069A5B001B
:101FD000100059082C4A2D4BFEF72EFA00284FD13D
:101FE0000022284B300039000AF0ECF94B00590868
:101FF000254A264BFEF720FA00283ED0089C2F21C8
:10200000FC34A06AFFF710FD30210500A06AFFF73D
:102010000BFD40260400089B08981B689B689847A6
:10202000089F099B0599FC37002B00D1F96A089895
:1020300001F052F80721FF2302220293019200913E
:102040000B0032002A31B86AFFF777FD0026FF2324
:1020500002220293019200962A002F21F83BB86ACF
:10206000FFF76BFDFF2302220293019200962200EC
:102070003021B86AF83BFFF760FD0BB0F0BD2C00D3
:102080004025E9E600407F40FCA9F1D24D62503F77
:102090000080574400007F443333333333331F40D1
:1020A00093E34EE960FD7F3F0000CD4300400344D1
:1020B000CDCCCCCCCCCC24404968CBB91457853F8F
:1020C00033332F4060FD8F3FCCCC3440DC4B1AA320
:1020D0007554953F00403F409A99999999D9444049
:1020E00012DA722EC555A53F00404F4000405F40B8
:1020F00000406F4010B5040000F09CFC034B01222F
:102100002360A3235B002000E25210BD84CF0008AF
:10211000F0B587B005000C000492002A0DD0CE1C4B
:10212000F6B2122E00D984E000F065FF0490002C76
:102130005CDB70231C43E4B25AE014292AD100F07E
:102140005AFF0226FF270723FC35009302970196CA
:10215000040080220921A86AFFF7EFFC049B029784
:102160000093019606237F2204430921A86AFFF702
:10217000E4FC049B07220093330024B2044324B2FE
:10218000029701964D21A86AFFF7D7FC204300B2C1
:1021900007B0F0BD023CE4B20F2C4AD800F02BFF90
:1021A000FF2702260723FC35009302970196802221
:1021B00009210590A86AFFF7C0FC7022059B0297D1
:1021C000184303B20593049B019600932243062310
:1021D0000921A86AFFF7B1FC059B02971843049BED
:1021E00004B20196009304223300CBE72024344349
:1021F000FF2702260723FC35009302970196002251
:102200000921A86AFFF799FC002302970093019621
:102210002200059006330921A86AFFF78EFC059A73
:10222000002302431000049A0297024314B201965D
:10223000D8E70D204042ABE710B50022FFF768FF5A
:1022400010BDF0B587B00400049106295AD800F0FB
:10225000D2FE0700200000F095FC060080282BD15C
:10226000FF25049B7E3EFC34A06A029501960096F1
:10227000002B06D1330004222621FFF75EFC074322
:1022800016E0330000222621FFF757FC0322049BAF
:1022900005905B011A430023D2B200930295019688
:1022A00007330C21A06AFFF748FC059D05432F4327
:1022B0003FB2380007B0F0BD0028FAD1049BFC34CF
:1022C0000225A06A002B07D1FF330293FC3B0822B2
:1022D0000D2101950093D0E70322FF230D210293E6
:1022E0000092130001953200FFF727FC03220499A6
:1022F00005904B011343DAB2FF2301950293009638
:10230000F83BCEE713277F42D3E77FB504000E00EA
:1023100000F038FC002833D19C235B00E35C002BE9
:1023200031D0200000F067FE0500012E15D0022EEE
:102330001DD06A20002E24D1FF2332000293FD3BE2
:10234000019303330093FC3401330A21A06AFFF7A1
:10235000F4FB284300B204B070BDFF230293FD3BA1
:102360000193033300932022FC340133EDE7FF2374
:102370000293FA3B00934022FC3401960133E4E7D8
:1023800014204042E7E76B20FBE730B585B004003E
:102390000D0000F0F7FB002845D19C235B00E35CB7
:1023A000002B07D0002D41D129002000FFF7ADFF01
:1023B00005B030BD200000F01EFE0028F8D1042D2D
:1023C00036D82800FDF78EFE03111B342500FF23AD
:1023D00000220293FD3B019303330093FC3401334D
:1023E0000A21A06AFFF7A9FBE2E7FF230293FD3B66
:1023F0000193033300936022FC340133F0E7FF23A1
:102400000293FD3B0193033300934022FC340133DC
:10241000E6E7FF230293FD3B019303330093202261
:10242000FC340133DCE714204042C1E76B20FBE7BA
:102430006A20F9E7F0B5070085B00E0014003D00F2
:1024400000F0A0FBFC35802814D13A23FF22FF3393
:10245000FE54383BFF3BA86A029201930093FB3A7B
:10246000002E00D132001E21FFF767FB0300180089
:1024700005B0F0BDFF220223A86A02920193002E4C
:1024800012D0DB180093EF3A3021FFF756FB031E02
:10249000EDD1FF210222A86A029101920093002C43
:1024A00006D0013ACF39DFE7042332000093EBE78F
:1024B0001A003021D8E77FB50E00050000F09BFD23
:1024C000FF230293FD3B019302330093FC3504008C
:1024D00032001D21A86A0333FFF72FFB204300B20F
:1024E00004B070BDF0B587B006000F1C00F04AFBC9
:1024F000802800D007E1381C0AF078FB834A844B1F
:1025000004000D0009F05EFF04900591059B049AFC
:102510005B00100059087F4A7F4BFDF78DFF0028B4
:1025200000D0AEE07D4A7E4B2000290009F04AFF32
:1025300004900591059B049A5B0010005908754AA8
:10254000754BFDF779FF002800D0C8E06F4A754B46
:102550002000290009F036FF04900591059B049A9C
:102560005B00100059086B4A6B4BFDF765FF0028B4
:1025700000D0B6E0694A6C4B2000290009F022FF28
:1025800004900591059B049A5B0010005908614A6C
:10259000614BFDF751FF002800D0A4E00022634BFF
:1025A0002000290009F00EFF04900591059B049A74
:1025B0005B0010005908574A574BFDF73DFF0028B4
:1025C00000D092E05A4A5B4B2000290009F0FAFE45
:1025D00004900591059B049A5B00100059084D4A30
:1025E0004D4BFDF729FF002800D080E00022524B20
:1025F0002000290009F0E6FE04900591059B049A4D
:102600005B0010005908434A434BFDF715FF0028B3
:1026100000D06EE00022494B2000290009F0D2FED4
:1026200004900591059B049A5B0010005908394AF3
:10263000394BFDF701FF00285DD10022404B2000FF
:10264000290009F0BFFE04900591059B049A5B00E8
:10265000100059082F4A304BFDF7EEFE00284CD1F0
:102660000022384B2000290009F0ACFE4B0059082D
:10267000284A294BFDF7E0FE9021002802D10824CA
:1026800042E000213000FFF716FF041E24D1330082
:10269000A322FC331F635200B25C002A1CD09D6A47
:1026A000982301205B00F35C984008F0E1FB391CA3
:1026B00007F0BCFE8321C905FDF70CFFFF220223B2
:1026C0000292019300281AD001330093F73A262191
:1026D0002800FFF732FA0400200007B0F0BD1021F7
:1026E000D0E72021CEE73021CCE74021CAE75021B6
:1026F000C8E76021C6E77021C4E78021C2E7032351
:1027000022000093E3E714246442E5E733333333D4
:1027100033331F40FCA9F1D24D62503FCDCCCCCC1D
:10272000CCCC244033332F40CCCC344000403F400D
:102730009A99999999D9444000404F4000405F4090
:1027400000406F4000407F40F0B587B00500002793
:102750000C00022600F04FFCFF2304900293FC358E
:102760003B0001960097602C30D101221D21A86A00
:10277000FFF7E3F9FF230293FC3B0093019622004D
:102780001E2105900433A86AFFF7D7F9059AFF23A5
:1027900002431000049A029302430196009733000B
:1027A00014B231210522A86AFFF7C7F9FF230C22D2
:1027B0000443029324B201960097F83B3721A86A9C
:1027C000FFF7BBF9204300B207B0F0BD3A001D216E
:1027D000A86AFFF7B2F9FF23032202930092019641
:1027E00022001E210590F83BA86AFFF7A6F9059A7A
:1027F000FF2302431000049A0293024301960097BC
:10280000330014B231210322A86AFFF796F9FF239F
:10281000044302930A2224B201960097F83BCDE7C5
:10282000F0B585B005000E0000F0ACF9802832D17B
:10283000B31F062B32D831012800C9B2FFF784FF3D
:10284000041E21D198235B00EE541633EB5C002B61
:102850001AD00120FC35B04008F00AFB296B07F0C4
:10286000E5FD8321C905FDF735FEFF220223AF6A8E
:102870000292019300280AD001330093F73A2621EF
:102880003800FFF75AF90400200005B0F0BD03231B
:1028900022000093F3E714246442F5E70924FBE7E0
:1028A0007FB50E00050000F0A6FBFF230293FD3B61
:1028B0000193013B0093FC35040032001D21A86AFE
:1028C0000233FFF73AF9204300B204B070BD70B58F
:1028D00004000D0000F056F980280ED16B1F032B69
:1028E0000ED8690008392000C9B2FFF7D9FF0028C7
:1028F00002D13223FF33E55470BD14204042FBE780
:102900000A20FBE77FB50292040001910393029E27
:1029100000F038F9C0B201AD00280DD123682000C5
:102920005B6B01999847002804D1236820009B6BBA
:10293000311C984704B070BD802810D12000297840
:10294000FFF76EFF0028F5D12000311CFFF7CAFD0C
:102950000028EFD12000297AFFF7B9FFEAE701202C
:102960004042E7E7FC30806A704710B503689B6817
:10297000984710BD0300FC339B6A10B5040018682B
:1029800003689B689847C1B2200001F0DBFA10BDD4
:10299000036870B59B6E0400984700280DD070BD89
:1029A000AB6A18680368DB6C9847AB6A1868D9692A
:1029B00002689268904700280CD12500FC35AB6A6C
:1029C000186859690268926890470028E8D00F207B
:1029D0004042E4E70E20FBE730B50C0085B0052946
:1029E00024D8FC304900FF25806AD2B2C9B2032C3A
:1029F0000FD807235B1A022101910131091B4900FD
:102A0000C9B200914021DBB20295FFF796F805B0FC
:102A100030BD0F235B1A022101910531091B4900CA
:102A2000C9B20091DBB241210295EEE71A20404283
:102A3000EDE7000070B504000D00FF220E4901F023
:102A40002DFA0E4B20002360230000220021FC33CE
:102A5000FE30DA621A6341869A6341879D2001261F
:102A6000400026545A64A2221964054952002000ED
:102A7000A1529D6270BDC0460024744234D000084B
:102A80000080FFFFFC30F8B5836A16001C680D005B
:102A900022685969D7682000126D90473300010001
:102AA0002A002000B847F8BD0300FC3310B59B6A2C
:102AB0001B685A69FFF7E6FF10BDFC30836A70B5EA
:102AC0001C685969226820001569126D9047010041
:102AD0002000A84770BD10B5FFF7EFFF10BDFC3018
:102AE000F8B5836A0D00D96916004A1C0AD01C6823
:102AF00023682000DF681B6D9847330001002A001F
:102B00002000B847F8BD0300FC3310B59B6A1B6872
:102B10005A69FFF7E4FF10BD10B5FC30002307220F
:102B20004221806AFEF7A6FF10BD1FB5FF230022D9
:102B30000293FD3B01930092FC3024210533806A0F
:102B4000FEF7FBFF05B000BD70B504000E000025C8
:102B500023682000A0331B6898472000FFF7DCFFA4
:102B6000B04201D1012070BD2300FC339B6A0135C6
:102B700018680A210368EDB25B6998470A2DE7D10E
:102B80000020F0E7072310B5FC301A000121806A0D
:102B9000FEF770FF10BD000010B50400FFF7F2FF54
:102BA000802810D1FC34002307221921A06AFEF7E7
:102BB00061FF40B209F0C4FF0022044B09F03EF966
:102BC0000AF05CF810BD0020FCE7C0460000D03FD2
:102BD00030B585B004000D00FFF7D4FF00280CD1FC
:102BE000FF230293FD3BFC34019300902A000D214A
:102BF000A06AFEF7A2FF05B030BD14204042FAE7FC
:102C000070B504000E002500FFF7BCFFFC358028DE
:102C100009D198235B00E35C062B1AD01321A86A24
:102C2000FEF702FF70BD002813D1A2235B00E15C18
:102C300000290ED1002E0CD04623FF33E35CA86A96
:102C4000802B08D1FEF7F0FEA22301225B0028644E
:102C5000E254286CE6E73221F4E70000F0B587B0D3
:102C60000C000090FFF78EFFC6B2802E00D0CFE0A0
:102C700098230120009A5B00D35C984008F0F8F894
:102C8000009EFC36316B07F0D1FB8321C905029011
:102C9000FDF720FC0023002801D0FE239B050193B3
:102CA00000231D211A00B06AFEF7E4FE08F094F834
:102CB00002231E211A000490B06AFEF7DBFE80108A
:102CC00000B208F089F80023072220210590B06A9D
:102CD000FEF7D0FE2121002307220500B06AFEF78F
:102CE000C9FE2D02284308F077F89823009A5B006C
:102CF0000390D05C08F0BCF809F078FF0022774B15
:102D000009F09CF80F000600200008F0B1F809F067
:102D10006DFF0022724B09F091F832003B0009F080
:102D200051FB00226F4B08F0E5F8040005980D00F8
:102D300009F05CFF00226C4B09F080F802000B00E8
:102D40002000290008F0D6F8040004980D0009F0CE
:102D50004DFF0022654B09F071F802000B002000C6
:102D6000290009F02FFB040001980D0009F03EFF37
:102D700000225B4B09F062F802000B0030003900C2
:102D800009F020FB02000B002000290008F010FCD5
:102D900007F010F832230D000400009AFF33D05CD6
:102DA00008F066F809F022FF22002B0009F046F82F
:102DB0000022002304000D00FDF748FB002801D18C
:102DC000002400250022464B2000290008F092F83C
:102DD00009F054FF039907F0A7F909F007FF002253
:102DE000434B08F087F8040002980D0009F0FEFE3E
:102DF00002000B002000290009F020F806F0DAFF9D
:102E000000223C4B09F01AF807F0A4F807B0F0BD17
:102E1000002E60D1009D3300FC3507222521A86AD1
:102E2000FEF728FE3300072226210700A86AFEF7D6
:102E300021FE3F02384307F0CFFF8221C90507F08A
:102E4000DBFC3300022227210190A86AFEF712FE64
:102E5000013007F0C1FF8221C90507F0CDFC042332
:102E600030211A00061CA86AFEF704FE002710286D
:102E700001D18327FF054623009AFF33D35C013439
:102E8000002B05D107223221A86AFEF7F3FD0400CA
:102E9000311C381C07F048F9019907F045F9061C68
:102EA000E00007F0E5FF011C301C07F03DF909F0D8
:102EB0009DFE0600A86B0F0009F098FE00220D4B46
:102EC00008F0BCFF02000B003000390008F070FB76
:102ED0000022094B96E70120404297E7000010408E
:102EE0000000204000003C40000030400000344022
:102EF0000000114000408F4080842E4130B585B0E5
:102F000004000D00FFF73EFE002828D1012D13D04C
:102F1000022D1BD01720002D22D1FF232A0002935F
:102F2000FD3B019303330093FC3401333021A06A4D
:102F3000FEF703FE05B030BDFF230293FD3B019376
:102F4000033300932022FC340133EFE7FF23029385
:102F5000FA3B00934022FC3401950133E6E714204C
:102F60004042E7E770B50400FFF70CFEFC34802810
:102F700004D11221A06AFEF757FD70BD3F21A06A5F
:102F8000FEF752FD3E210502A06AFEF74DFDADB2EF
:102F9000284380B2F1E710B5FFF7E4FF01231840A2
:102FA0000F3800B210BD30B585B004000D00FFF73A
:102FB000E9FDFF23002803D16B1F5A1E9341FE3306
:102FC0000293052301930023FC3400932A0001217E
:102FD000A06A0233FEF7B1FD05B030BD030010B5A5
:102FE0000400FC33986A0121FEF711FE0021200045
:102FF000FFF7D9FF10BD030010B50400FC33986A39
:103000000121FEF704FE01212000FFF7CCFF10BDD7
:10301000F0B5012185B00400FFF7C5FF00281DD1E0
:1030200002252600FF27FC36029701950095020035
:1030300005234021B06AFEF780FD00280ED1010073
:103040002000FFF7C5FD002808D10623029701954F
:10305000009302003121B06AFEF76FFD05B0F0BDAC
:10306000F0B50F002D3FFBB204000E0085B0C32B5E
:1030700015D80121FFF797FFFC340500782E24D8DE
:1030800005213800FDF7CCF8FF2320220293FD3BF9
:103090000193002302430093D2B205330DE00029CF
:1030A00017D10121FFF77FFFFF23050032000293B4
:1030B000FD3B01930333FC3400930B21A06AFEF720
:1030C0003CFD284300B205B0F0BD30000A211E309F
:1030D000D8E711204042F6E7F0B50600FC360500BF
:1030E00000230722B06A85B00F1C2421FEF7C2FC22
:1030F0000024A04204D101212800FFF754FF04005E
:103100009221381CC90507F077FB09F06FFD0022FA
:10311000184B08F093FE06F01DFFFF270223002145
:10312000019300910297020C0500D2B2B06A0533F8
:103130000631FEF702FD0223002101930091029760
:1031400005332A0A19000443D2B2B06AFEF7F5FC2F
:103150000223002101930091029724B20443EAB2B2
:10316000B06A05330831FEF7E8FC24B2204300B210
:1031700005B0F0BD0000A03FF0B50D0085B0012105
:10318000040016000193FFF70EFF002855D1200020
:10319000FFF7F8FC802867D1236831005B6E2000C0
:1031A000984723680290DF69320029002000019BC4
:1031B000B847002841D10298270009F0F1FC00220D
:1031C000454B08F03BFE06F0C5FEFC37BB6A01909C
:1031D000186803681B6A98470500BA6A1068516945
:1031E00003689B689847002829D02700FC37BB6AF2
:1031F000186803681B6A98470190300009F0D0FCFA
:103200000022364B08F01AFE019B02900391581BD6
:1032100007F02EFE09F0EAFC0022314B08F0C8F955
:103220000B0002000298039908F0C2F909F026FD8C
:10323000236878641B6A2000984705B0F0BDBB6A1C
:1032400018680368DB6C9847BB6A186803681B6AD8
:103250009847019B401B8342BFD2236820001B6A12
:10326000984705204042E8E7002833D12368310021
:103270005B6E2000984723680290DF6932002900C6
:103280002000019BB8470028D7D105232700029AC8
:10329000FC375343134A9B180193BB6A18680368B1
:1032A0001B6A98470500BA6A1068516903689B68F1
:1032B0009847002899D1BB6A18680368DB6C984767
:1032C000BB6A186803681B6A9847019B401B8342CE
:1032D000E9D2C2E70120C5E70000F83F0000204026
:1032E00080842E418813000070B505000C00FFF7A4
:1032F00049FC002823D12E00FC360321B06AFEF7DA
:1033000086FC002C15D0220C0621B06AD2B2FEF742
:10331000ECFB220A0721B06AD2B2FEF7E6FB0821D5
:10332000B06AE2B2FEF7E1FB03212800FFF73BFEA3
:1033300004E02800FFF76CFE0028F5D070BD1420D3
:103340004042FBE710B50400FFF71CFC00280FD13A
:103350002300FC33986A0221FEF759FC2000FFF796
:1033600057FE002803D105212000FFF71CFE10BDE9
:1033700014204042FBE730B585B004000D00FFF794
:1033800001FC802812D101212000FFF70CFEFF2351
:103390000293FD3B01930023FC3400932A00392162
:1033A000A06A0733FEF7C9FB05B030BD14204042C8
:1033B000FAE7F0B587B004000E001500FFF7E2FB56
:1033C000C0B2002831D16B1E072B3BD83300AA199D
:1033D0001978002936D001339A42F9D1FF23022708
:1033E0000293FB3B01970093FC3410222721A06A33
:1033F000FEF7A3FBFF2302930023019700936A1EAD
:103400003B0005902721A06AD2B2FEF796FB059BF0
:1034100003431FB2002F05D12B0032002821A06AE0
:10342000FEF740FB380007B0F0BD802807D1012D22
:1034300008D820003178FFF79EFF0700F2E7142735
:103440007F42EFE76927FBE7F0B50C0087B0012169
:103450000600FFF7A8FD051E22D13000FFF792FB02
:10346000C0B280281FD1052C36D9FF230227029332
:1034700001970095220AFC362021D2B2F83BB06AAF
:10348000FEF75BFBFF23212102930590E2B2019737
:103490000095F83BB06AFEF750FB059F07433DB22D
:1034A000280007B0F0BD002819D1FF230227E40847
:1034B000029301970095A2B2FC362521120AF83B2F
:1034C000B06AFEF73AFBFF23262102930590E2B291
:1034D00001970095F83BDDE712256D42E0E70125F5
:1034E000FBE70000F0B58BB005000E1C0892FFF75B
:1034F00049FB002800D07BE09C23FC215B00EB5CB7
:103500008905301C002B00D169E0FCF7E3FF00289F
:1035100000D170E0301C09F069FB384A384BFCF7E9
:103520008BFF002867D001212800FFF73CFD041E17
:1035300052D1301C09F05AFB02000B000020314927
:1035400008F036F80690079106F004FD83B20221D8
:103550001A0A2F000593FF23019102930094FC3770
:10356000F83BB86AFEF7E9FA6B4602211A7DFF23A1
:103570000191029300940990F83BB86A0131FEF77B
:10358000DCFA099B03431CB29C235B00ED5C002D1D
:103590001FD1059807F06CFC09F028FB02000B0016
:1035A0000698079908F00EFF09F068FB8321C9050A
:1035B00007F022F906F0B6FCFF230293FD3B0193CE
:1035C0000095C2B20899B86A0533FEF7B6FA04430B
:1035D00024B2002C00D1BE6320000BB0F0BDFCF77C
:1035E00079FF002807D00849301CFCF75FFF98E7F7
:1035F00014246442F0E76524FBE7C0469DA1B8E3CC
:103600004D6240400040DF4000009643F0B587B077
:1036100004000D1CFFF7B6FA002855D10021281C24
:10362000FCF73AFF2E1C002800D02A4E2700FC375A
:10363000B86B09F0DBFA0022274B08F0FFFB04907F
:103640000591301C09F0D2FA02000B00049805998C
:1036500007F050FC0022214BFCF7EEFE002836D08C
:103660001F49281CFCF722FF002830D02000012130
:10367000FFF799FC041E24D19221301CC90507F0E4
:10368000BBF8184906F0D2FE06F04CFC0226FF23D8
:10369000019602930094020A05000421D2B2FA3B7B
:1036A000B86AFEF74AFAFF23019602930094049049
:1036B0000521B86AEAB2F83BFEF73FFA049E0643DA
:1036C00034B2200007B0F0BD14246442F9E7662448
:1036D000FBE7C0469A99193F0000E03F00406F4069
:1036E000000048430000FA46F7B50400FFF74AFA25
:1036F00011230193002801D01B33019327000025DB
:1037000005212000FC37FFF74EFCBB6A0A21186830
:103710002E0003685B6998470199B86AFEF784F93F
:1037200001231840A840ED180643F6B2082DF3D146
:1037300019002000FFF737FC3000FEBDF0B585B062
:1037400004000D00FFF71EFA802849D1FF26FC3443
:10375000A06A0296002D22D00227062340223321A0
:1037600001970093FEF7E9F9019700270296009769
:1037700005003B003A003321A06AFEF7DEF9022380
:10378000029601930097054319223B21A06A053355
:10379000FEF7D3F92DB2284300B205B0F0BD0223E5
:1037A000019304332A0033210093FEF7C6F9022364
:1037B00002960193009507002B0001223321A06A95
:1037C000FEF7BBF9022302960193009507431D22E1
:1037D0003B21A06A0533FEF7B0F93FB23843DBE77F
:1037E00014204042D9E77FB50E0000210500FFF705
:1037F000DAFBFF23040028000293FA3B0193023313
:103800000093FC3032000121806AFEF796F9012115
:1038100004432800FFF7C7FB24B2204300B204B0E2
:1038200070BDF7B505000F000400FC35A86A16004E
:103830000193FDF7ABFFA96A08684969036842680C
:103840001B689847A96A0868C969036842681B68C9
:10385000984739002000FFF777F9002805D1A86ABA
:10386000FDF7A7FF02204042FEBD236820009B68B1
:1038700098470028F8D12000FFF757F90028F3D126
:103880002000FFF77FF980281AD131002000FFF7D0
:1038900072FD0028E8D13C212000FFF7E1FB002861
:1038A000E2D120000199FFF7CFFD0028DCD1010013
:1038B0002000FFF743FF0028D6D100236B64D3E735
:1038C00080212000FFF78FFF0028DED0CCE710B565
:1038D0000400FFF757F9802806D1FF221221FC349B
:1038E000A06AFEF702F910BD0028FCD1FC34FF22CB
:1038F0003E21A06AFEF7F9F8FF223F21F0E7F0B57C
:103900000F0087B0012105000592FFF74CFB041E54
:1039100052D12800FFF736F92E000300FC3680282C
:1039200052D1230007222421B06AFEF7A3F8FF2218
:10393000022302920193002841DDDB180093EF3A45
:1039400003334021B06AFEF7F8F898235B00EB5C84
:103950000400062B0ED1F9330293FD3B01930023A3
:1039600000933A002221B06A0733FEF7E6F80443D9
:1039700024B237642800FFF7AAFF0027FF230222A2
:103980002E00029301920097FC363A000F21F83B7B
:10399000B06AFEF7D2F8FF23022202930192009749
:1039A00004433A000D21B06AF83BFEF7C6F824B292
:1039B000044324B2BC4227D0200007B0F0BD04234A
:1039C000220000930333BCE7B06A002B1CD102270E
:1039D000FF330293F93B220000934021019701330A
:1039E000FEF7ABF8041EE7D12800FFF770FF059B38
:1039F000052B09D13900B06AFEF709F928000599AD
:103A0000FFF7D1FA0400D7E72B00FC330221986AB4
:103A1000F2E710B505220021FFF771FF10BD10B5C8
:103A2000029BCAB2D9B2FFF76AFF10BDF7B5019188
:103A3000012104001500FFF7B6FA00284ED120003E
:103A4000FFF7A0F8802850D106222000E9B2FFF746
:103A500056FF002842D12700FC37BE6A0090F36968
:103A600001330FD198235B00E35C0130984007F0ED
:103A7000FFF9396B06F0DAFC354906F0BDFE06F0B9
:103A800051FA0090306803681B6A984707002600C7
:103A9000FC36B26A1068516903689B689847002831
:103AA00006D023682A0020005B6A0199984715E038
:103AB000B36A18680368DB6C9847B36AD9691868F9
:103AC0004B1C0CD103681B6A9847009BC01B984293
:103AD000DDD92000FFF7FBFE06204042FEBD036853
:103AE0009B6898470028D2D0F3E723680028D8D1F4
:103AF000290020005B6E984705220600E9B22000ED
:103B0000FFF7FDFE0028E9D105237343009323004E
:103B1000FC339B6A186803681B6A984707002600F5
:103B2000FC36B26A1068516903689B6898470028A0
:103B3000B7D1B36A18680368DB6C9847B36A186832
:103B400003681B6A9847009BC01B8342E7D2C0E70B
:103B50000000C842F0B589B00691012104001700A9
:103B60000793FFF720FA059005002000FFF70AF8F9
:103B70000600802860D1FF2F00D9A2E02600FC3685
:103B8000002307222421B06AFDF774FFFF220223DD
:103B900002920193002849DD4021DB180093AF3ADF
:103BA0000333B06AFDF7C9FF2000FFF790FEFF2343
:103BB00002210020029301910090FAB2F83B2031DB
:103BC000B06AFDF7BAFFFF2305000221002002932F
:103BD000019100900200F83B0C31B06AFDF7ADFF97
:103BE000FF23054302210020059A029301912A43F5
:103BF000009015B2F83B02000B31B06AFDF79DFF53
:103C000005432DB22600FC363B00069A0021B06A1F
:103C1000FDF748FF0321B06AFDF7F9FF03212000FB
:103C2000FFF7C1F9284300B209B0F0BD06234022D6
:103C3000009311000133B4E70028E3D12000FFF71F
:103C400046FE2000FF220223FC3002920193402F07
:103C500032D9DB180093EF3A01334021806AFDF737
:103C60006CFF46232600FF33E35CFC36802B04D137
:103C70000021B06AFAB2FDF738FF01233021022299
:103C8000B06AFDF7F7FE0238FD2301001940184223
:103C900003D1079AB06AFDF728FF402FB2D9FF235E
:103CA0000293FD3B01930533009380223521B06AD6
:103CB000FDF743FF1E27A5E70623320000930133DB
:103CC000CBE704204042AFE7030010B50400FC330B
:103CD0009B6A0649186803689B6998472000FFF7AC
:103CE000F6FD236820009B68984710BD4103000043
:103CF0007FB50400FEF746FF802822D10121200075
:103D0000FFF751F900281AD12000FFF7E0FDFF234B
:103D1000250002260293FB3B0093FC350196A0226E
:103D20004021A86A0333FDF708FF002807D13100BE
:103D3000A86AFDF76CFF07212000FFF734F904B0F3
:103D400070BD14204042FAE770B505000C00002C4D
:103D500000D170BD2B00FC330021986AFDF764FE92
:103D6000013CF4E7F0B5040085B015000391FEF7BF
:103D700009FF23680290012120009B6D9847019064
:103D8000002D04D0A8422FD9431B01951D00270008
:103D90000523FC371A001221B86AFDF76BFE2028B4
:103DA00024D0029B0026802B25D13A23FF33E35CED
:103DB000B86AB34231D100262000FC300021039BB9
:103DC000019A806AFDF70EFE002D03D02900200025
:103DD000FFF7BAFFA22300225B002000E254FFF7A6
:103DE00076FD300005B0F0BD0025D0E70726029B28
:103DF0007642802BE0D0029B002BDDD101330222E2
:103E00003021B86AFDF736FEFD2302381842D3D1BF
:103E10000299B86AFDF708FECEE706231C211A00B6
:103E2000FDF728FE0028C6D118267642C4E71920DF
:103E30004042704719204042704719204042704765
:103E400010B503680021DB68984710BD1920404277
:103E5000704719204042704719204042704719208E
:103E60004042704719204042704719204042704735
:103E7000192084B0404204B0704700207047000011
:103E8000004870470000C8C10020704700207047FC
:103E9000704770471920404270477047034B41609C
:103EA00003600023826083817047C046E4D000082D
:103EB000F8B50400080016000D00FCF70BF92368A4
:103EC00002001F68290033002000B847F8BD000039
:103ED000F0B503680F009B6D012185B00600150049
:103EE00098470400A84202D9002D00D02C00601C85
:103EF00002F090FE33682200010005005B6A30008A
:103F000098470200183292B20600182A12D80C4BB9
:103F1000134101221900114013420BD1295501A868
:103F2000290004F091FA380001A904F0DAFA01A896
:103F300004F043FA280002F071FE300005B0F0BD35
:103F4000FEFFFDFE70B5040090204000225C0D00D5
:103F5000002A0FD12300FC335969490029435961D4
:103F60001D6A9B692940994203D101232354A281F0
:103F7000A27370BD0126637B217BE318DA7B8E4040
:103F80001000B043002D01D03243D0B20131C9B28C
:103F9000D87321730829ECD1FDF71BFE637BE2186F
:103FA0000133D073637300232373E2E70B4A0C4B96
:103FB00091698900C958C165D16952698900C95898
:103FC00092000166D3580122436601235B42836657
:103FD000044BC366030070331A80704714D5000881
:103FE0003CD5000800093D0003000921002251339F
:103FF00010B519773431597701001A70DA769A774B
:10400000012370310B704A70014900F053F810BD64
:1040100000093D0037B50500C36E04000091019210
:1040200070358B4204D16B462A889B889A420DD00A
:104030002000062269466C3005F01FF9220071321B
:1040400020002B781278E16E00F034F837BD70470D
:1040500010B500F02DF910BD13B56B46DC1DD971FC
:1040600053425A41524201232100224000F052F9AA
:10407000207816BD10B50248FFF798FF10BDC04666
:104080000C030020084A030010B51068002B04D070
:10409000064A934202D101F0E3F810BD044A93426C
:1040A000FBD101F0CDF8F8E74C00002000300140D2
:1040B00000380040F0B587B004000D0016000593ED
:1040C000002800D1C5E06E4B006E1900039303F089
:1040D000EFF86C490190E06D03F0EAF86A490700D7
:1040E000606E03F0E5F869490290A06E03F0E0F815
:1040F000019B0490002B00D1ABE0002F00D1A8E081
:10410000029B002B00D1A4E03900019803F0EEF8E7
:1041100004990700029803F0E9F8010001903800C3
:1041200003F0E4F8A065002F00D192E0019B002B82
:1041300000D18EE0002800D18BE0A36E2060013317
:104140005A425341524A5B4213408022D2029B188A
:10415000A36182235B006360FFF794FF00234208A2
:10416000AA4218D982080833AA4214D9C2080833CF
:10417000AA4210D902090833AA420CD942090833CD
:10418000AA4208D982090833AA4204D9C0090833CF
:10419000A84200D90833E3613200331E07D0002360
:1041A000022E04D0731E5A1E93415A0001236361EC
:1041B0000723E362059B22615A4253410025DB013C
:1041C00023620399206EA560A562E560656203F035
:1041D00055F82C49E06D03F051F82B49606E03F05F
:1041E0004DF821694B425941636E01311A06120F95
:1041F000042A02D82748920015580F20264A034067
:104200009B009B5803225B435A43D243022922D08E
:10421000E9680A401343EB601C49A06E03F02EF8D6
:1042200023681E4A93421AD180221D4B5201596BBA
:1042300011435963596A0A435A625A6A19490A4032
:104240005A62200001F03EF84023226811680B43B7
:10425000136007B0F0BDE9685B000A40DAE7124A74
:104260009342EED180220E4BD201996B1143996398
:10427000996A0A439A629A6A0C490A409A62E0E78C
:10428000ECD20008B0D2000874D2000838D200087E
:104290000002FCFF14000020D4D1000800300140CF
:1042A00000100240FFEFFFFF00380040FFBFFFFF9C
:1042B00010B5041E12D001F068F82368104A93422A
:1042C0000DD180220F4B5201596A0A435A625A6A31
:1042D0000D490A405A625A6B0A405A6310BD0B4A94
:1042E0009342FBD18022074BD201996A0A439A621A
:1042F0009A6A07490A409A629A6B0A409A63EDE704
:104300000030014000100240FFEFFFFF0038004086
:10431000FFBFFFFFF7B50E0017000224002B29D0C6
:104320000568009300F04CF90190AB682342FCD083
:10433000FF23002E01D0337801362B730123AA68A6
:104340001A42FCD02B7B002F01D03B70013700F0CC
:1043500037F9009B013B0093019BC01AFA239B0095
:10436000984209D2009B002BDFD11C008023AA6851
:104370001A42FCD12000FEBD0124F7E7F0B52D4B19
:104380000E001B78150085B0002B04D00B002A4AC4
:104390006C3B93424BD8300006F06AFD274906F08B
:1043A00045F8274906F028FA002403900420A0408D
:1043B00080B206F011FD011C0190039806F036F85A
:1043C000270020490134E4B20290FCF779F8002874
:1043D000ECD1062F2BD81C4C1C4B02982360676035
:1043E00005F0A0FD01380005194B000DA0609D42AD
:1043F00017D023691748834213D0AE420ED9280044
:1044000006F036FD0D4906F011F80D4906F0F4F9F5
:10441000019906F00BF805F085FD01380005000D47
:1044200020610723E2681A42FCD10B4B236005B0E0
:10443000F0BDC046810300208E44B00100247449C1
:104440000088104700F07F450030004055550000BF
:10445000FA44B001FF0F0000AAAA000070B50C00DA
:104460000A4B6C3C9C4210D80124094B1D6D2C4317
:104470001C6502241D6D2542FCD0064B064C1C60B9
:104480000124064B1C70FFF779FF70BD8E44B0010C
:104490000010024000300040CCCC0000810300201E
:1044A000034B1B78002B02D0024B034A1A60704763
:1044B0008103002000300040AAAA0000074B002022
:1044C0001A6D920002D5814201D1012070478022ED
:1044D000196D12040A431A65F7E7C046001002403E
:1044E00082B06B460022DA718022073312019042BB
:1044F00004D2044A80180278D2B21A701878C0B276
:1045000002B0704700000808802370B51B0104004A
:104510000D0098420AD200F00DFA002806D1044B93
:104520002A00E11800F028FA00F01CFA70BDC0461D
:10453000000008087047000070B50500FA200D4B18
:1045400080001978FBF7E2FD0B4C01002068FBF7B7
:10455000DDFD00F081F804000120002C09D1032DBD
:1045600007D802382200290000F030F82000034B61
:104570001D6070BD080000204C0000200C000020D1
:104580000223084A10B5116800200B431360FFF79F
:10459000D3FF041E03D1FFF7CDFF200010BD01247F
:1045A000FBE7C04600200240034A044B11681B7819
:1045B0005B1813607047C046840300200800002089
:1045C000014B18687047C0468403002010B5FF24D3
:1045D00003220B0021000240D20091409B012340A6
:1045E000C943934000280ADBC0240B4A800880009E
:1045F0008018A40002590A401343035110BD0F2232
:1046000010400838054A800880008018C2691140AF
:104610001943C161F2E7C04600E100E000ED00E0AF
:10462000002805DB1F2318401E3B8340014A13600E
:104630007047C04600E100E0002809DB1F23184056
:104640001E3B8340034AD367BFF34F8FBFF36F8F87
:104650007047C04604E100E08022431E520401205E
:1046600093420DD2C021074A07485360036A0906E6
:104670001B021B0A0B430362002007239060136098
:104680007047C04610E000E000ED00E0002807DBC6
:104690001F23C02218401E3B8340024952008B500A
:1046A0007047C04600E100E0704710B5FFF7FCFF1F
:1046B00010BD704710B5041E01D1012010BD437F0D
:1046C000DAB2002B02D10277FFF7F3FF0223637700
:1046D0002379002B1CD118212368124A5A619A6849
:1046E0008A439A6062792368002A19D1013A6021CD
:1046F0001A619A6800208A4361690A4380219A609E
:104700009A688A43A1690A439A6001236377D5E7CF
:104710002000E268A16800F007F80028E2D0CCE7AA
:104720002269E4E7B71DC10430B501250400280063
:1047300029420ED01F23013B21D30800D840284234
:10474000F9D0102A14D005D8002A08D00120082A50
:1047500012D030BD0120182AFBD1062BF9D82068D1
:104760004161182183688B43134383600020F0E785
:104770000120072BF3D9ECE70F2BF0D9E9E7012053
:10478000102AE6D0E5D8002AE3D1E8E730B5841D49
:10479000E27F0300022A06D00422C2630120002225
:1047A0000533DA7730BD02680E2011681C2581437D
:1047B000116001211068884310605A6C186C2A40FF
:1047C0000D00954045600020E177E8E770B5841D55
:1047D000E37F022B03D00423C363012070BD0E21AD
:1047E00003681C251A688A431A60012219689143DC
:1047F0001960436C016C2B4015009D404D60E277C1
:104800000022431DDA77836B934200D09847002043
:10481000E4E70000284A802190694900030030B590
:104820000B40084205D002232448446923434361D6
:104830000B00802091698000014205D001211F4CAE
:10484000034365692943616180209169C000014289
:1048500005D00821194C0343656929436161802013
:1048600091690001014205D00421144C034365699C
:1048700029436161802091698001014205D01021A6
:104880000E4C03436569294361619169890305D52C
:1048900020200A4C034361690143616180209169D2
:1048A0004002014205D04021044C0343656929437D
:1048B0006161936130BDC046002002408803002042
:1048C00070B50400FFF77CFE01260500184B9A69BD
:1048D000324221D102229969114200D09A619A692B
:1048E000D20515D49A69920512D49A6952050FD44B
:1048F0009A6912050CD49A69920409D499698022A4
:10490000080092021040114202D19B69DB0308D5D6
:10491000FFF780FF012004E0621CD8D0002C01D1F9
:10492000032070BDFFF74CFE401BA042CED9F7E735
:10493000002002400122084B0020596811420AD091
:10494000EFF3108172B60548D8600548D86081F34E
:10495000108858681040704700200240EFCDAB89A6
:10496000050403020123034A002051680B435360EE
:104970007047C04600200240F8B5124F06003B7C4D
:104980000D0014000220012B0FD001230E483B74B0
:10499000FFF796FF002806D17861022E06D12C6021
:1049A0000948FFF78DFF00233B74F8BD012E02D1AB
:1049B000A4B22C80F4E70120002EF4D1E4B22C70D4
:1049C000EEE7C0468803002050C3000000239C4649
:1049D000F0B585B00B6864461A00E24001D105B01D
:1049E000F0BD6246012595401A002A4001922B42F3
:1049F00000D181E04B6800930323009A1340624684
:104A000056000322B2405C1ED243012C77D8CC68FA
:104A10008768B44017403C43012784604468AC4336
:104A20002500009C24093C406746BC402C43446060
:104A30008C68C568B44015402C43C460022B67D015
:104A4000B340046822401343C0220360009B9202DB
:104A5000134251D00124394AA026536BF605234353
:104A6000536363469A08364B9200D2186346023469
:104A70001C400F23A400A34095689D430023B0422F
:104A800010D0304E0133B0420CD02F4E0133B04223
:104A900008D02E4E0133B04204D02D4BC3185E1EF9
:104AA000B3410533A3402B4393602A4B019A9D6881
:104AB000019C009ED2432C43F60201D42C001440EA
:104AC0009C60DD68019C009E2C43B60201D42C0042
:104AD0001440DC605D68019C009E2C43B60301D449
:104AE0002C0014405C601C68019D009E2543F60369
:104AF00001D4144025001D6001239C446AE7032B68
:104B00009ED08C68C568B44015402C43C46097E7BC
:104B10000725FC083D400F27AD00AF40A400041955
:104B20000294246A03972700039CA7433C000F6963
:104B3000AF402743029C276282E7C0460010024034
:104B4000000001400004005000080050000C00501C
:104B500000E4FFAF00040140044B10B55A69104255
:104B600002D0586102F0FCF910BDC04600040140BB
:104B70008023034A5B0011680B4313607047C046F3
:104B8000007000400C221E4B70B5DC682240082AE1
:104B900034D00C2A0CD0042A28D1186810231840CD
:104BA00043425841174B40421840174BC01870BD44
:104BB000A2021648120F805C80222402D968A40F3A
:104BC00052020134114209D0114A0023002105F09C
:104BD0007BF922000023FBF787FCE8E71A68102323
:104BE0001A4201D0084AF0E70A4AEEE780205B68E3
:104BF00000021B045B0F01339840D8E70448D6E756
:104C000000100240001BB70000093D0014D200084C
:104C100000127A000024F400F0B5050085B00028E9
:104C200055D00C23BC4C0268E668E7681E40802320
:104C30005B0219001F40D2073DD42B689B0700D5AB
:104C400086E02B68DB0628D5002E00D0D7E023684D
:104C50009B0502D5AB69002B39D080276268AF492C
:104C60002B6A0A401A435B0B01333F029F4062608C
:104C70006168EA690902090A12060A436260E1688A
:104C8000A7480B061B0FC35CA64ADF40A64B176064
:104C90001868FFF751FC002830D12B681B0700D59E
:104CA000E4E02B685B0700D506E16B6A002B00D0BF
:104CB0008BE1002022E0082E03D00C2E09D1002F1A
:104CC00007D023689B03B8D56B68002BB5D10120B2
:104CD00014E06A688A4213D1226813432360FFF705
:104CE0006FFC00908022236892021342A5D1FFF747
:104CF00067FC009BC01A6428F4D9032005B0F0BDFE
:104D0000A021C9028A4205D180222168D2020A4329
:104D10002260E1E7216885480140216021680B405D
:104D20000393039B824923680B402360002AD6D15A
:104D3000FFF746FC0090802223689202134200D1C4
:104D40007BE7FFF73DFC009BC01A6428F3D9D4E74A
:104D5000EA68042E03D00C2E24D1002F22D1236820
:104D60005B0701D5002AB2D061682B6971481B022C
:104D700001400B430921636023688B431343236085
:104D8000FFF700FFE368664A1B061B0FD35C65490B
:104D9000D840654B08601868FFF7CEFB002800D1AB
:104DA0004FE7ABE72368002A18D009218B43134350
:104DB0002360FFF705FC070004222368134207D095
:104DC00062682B695B491B020A401343636038E742
:104DD000FFF7F6FBC01B0228EED98EE701229343B2
:104DE0002360FFF7EDFB070004222368134200D184
:104DF00027E7FFF7E5FBC01B0228F5D97DE7AB6984
:104E0000002B20D0802322685B0013432360FFF730
:104E1000D7FB070080222368920013420DD06368FD
:104E20003E4A13402A6A134363606268EB691202C8
:104E30001B06120A134363602FE7FFF7C1FBC01B79
:104E40000228E7D959E723683B4A13402360FFF75C
:104E5000B7FB0700802223689200134200D11CE7B1
:104E6000FFF7AEFBC01B0228F4D946E76A690123AD
:104E7000002A10D0226D13432365FFF7A1FB070022
:104E80000222236D134200D00BE7FFF799FBC01BF2
:104E90000228F5D931E7226D9A432265FFF790FB8E
:104EA00007000222236D134200D1FAE6FFF788FBC8
:104EB000C01B0228F5D920E780230021A26B5B05E7
:104EC00000911A4204D1A26B1343A3630123009300
:104ED00080221A4F52003B68134208D08022AB68F0
:104EE000520093422CD1226D134323654DE0802262
:104EF0003B68520013433B60FFF762FB0190802246
:104F00003B6852001342E9D1FFF75AFB019BC01ADC
:104F10006428F4D9F1E6C04600100240FF1FFFFFED
:104F200025D200084C0000200C000020FFFFFEFFEF
:104F3000FFFFFBFFFFE0FFFFFFFEFFFF00700040F1
:104F4000002B16D1236D514A13402365236D504A1F
:104F500013402365FFF734FB07008022236D920086
:104F600013421AD0FFF72CFB4A4BC01B9842F4D9CE
:104F7000C3E6A021C9008B4218D18023216DDB003C
:104F80000B432365236D1A432265FFF719FB0700C6
:104F90008022236D9200134210D0009B012B00D081
:104FA00083E6A36B3C4A1340A3637EE6236D374A36
:104FB00013402365236D364A134096E7FFF700FB45
:104FC000344BC01B9842E3D997E60C2E43D0334AAA
:104FD000022B2ED12368802713402360FFF7F0FABD
:104FE0000600BF0423683B421DD1E96AAB6AE26850
:104FF0000B432B4980260A4013432A6BB604134304
:10500000E360802322685B0413432360FFF7D8FA30
:1050100005002368334200D04BE6FFF7D1FA401B6E
:105020000228F6D969E6FFF7CBFA801B0228D9D906
:1050300063E62368802613402360FFF7C1FA05006A
:10504000B6042368334200D133E6FFF7B9FA401BB8
:105050000228F6D951E6012B00D138E68023E0681A
:10506000AA6A5B020340934200D030E6F023EA6A6A
:105070009B030340934200D029E6C0231B04184041
:105080002B6BC01A431E9841C0B237E6FFFEFFFFEC
:10509000FFFBFFFF88130000FFFFFFEFFFFFFFFE96
:1050A000FFFF02FFF7B5041E019101D10120FEBDF3
:1050B00001255B4E019A33682B40934231D322681D
:1050C000930743D4D20749D401253368019A2B4072
:1050D000934209D93368AB433360FFF771FA070095
:1050E00033682B4200D08CE022684E4D530700D528
:1050F0008FE0120706D5EA6823694B49DB000A40B6
:105100001343EB60FFF73EFDEB68484A1B061B0F9D
:10511000D35C4749D840474B08601868FFF70CFA42
:10512000C5E73368019AAB4313433360FFF748FA8E
:1051300007003368019A2B409342C0D0FFF740FA32
:105140003D4BC01B9842F4D90320B0E7F02035490D
:10515000CB688343A0680343CB60B3E7314D6268FB
:105160002B68022A18D19B03A0D50321EB688B433F
:105170001343EB60FFF724FA63680700022B18D192
:105180000C22EB681340082B9ED0FFF719FA2A4B2C
:10519000C01B9842F4D9D7E7032A02D19B01E4D47B
:1051A00084E7012A02D15B07DFD47FE79B05DCD4CB
:1051B0007CE7032B0BD10C22EB681340934283D086
:1051C000FFF7FEF91C4BC01B9842F4D9BCE7012B3A
:1051D00011D00C22EB68134200D175E7FFF7F0F90C
:1051E000154BC01B9842F4D9AEE7FFF7E9F9124B13
:1051F000C01B9842A8D80C22EB681340042BF4D1B2
:1052000062E7FFF7DDF90C4BC01B984200D867E757
:105210009AE7EB6809490B40E1680B43EB6068E7EC
:105220000020024000100240FFC7FFFF25D2000807
:105230004C0000200C00002088130000FFF8FFFF46
:10524000044B054ADB6805495B055B0FCB5C1068C6
:10525000D8407047001002404C0000201DD20008CA
:10526000044B054ADB6805499B045B0FCB5C106867
:10527000D8407047001002404C0000201DD20008AA
:105280000F2310B5032403600B4BDA682240426001
:10529000DA68ED342240E0248260DA68E4002240DB
:1052A000C2600122DB68DB0823400361034B1B68FB
:1052B00013400B6010BDC0460010024000200240A9
:1052C00070470000F8B504000120002C54D0636A38
:1052D000002B52D1822261685200914200D0E361DA
:1052E00000232500A36251352B78DAB2002B05D1BB
:1052F0002300503320001A70FFF7E2FF02264022FD
:10530000822084272E70216840000B683F0293435F
:105310000B606368A2690340A0683840802703439C
:10532000E0683F0138400343206938273040034399
:105330006069013E304003438020800010400343F9
:10534000E069120C38400343206A48373840802710
:105350000343A06ABF01384003430B6004231020BD
:105360001A40636A034000201A434A60CB69054A29
:105370001340CB6160652E70F8BD0023236163612B
:10538000AEE7C046FFF7FFFF704770B5040001208D
:10539000002C10D025000223402151352B702268AB
:1053A0002000136850348B431360FFF7EDFF00209B
:1053B00060602870207070BD80220368D205904222
:1053C00005D00D4A904202D00C4A904207D170227B
:1053D00093434A6813430A4A1340CA68134380221E
:1053E00093430A69134303608B68C3620B6883624B
:1053F000012343617047C04600080140001401408A
:10540000FFFCFFFF1F2310B5012419408C408A4088
:10541000036AA3430362036A1A43026210BD70B5B4
:1054200004000120002C1DD0250039352B78DAB27C
:10543000002B05D12300383320001A7002F00FF83A
:1054400002232B702068211DFFF7B6FF22000123E5
:1054500000203E3213703D34043A13705370937041
:1054600023702B7070BD000070B505000223393524
:105470002B7003680C4A196A0400114203D1012100
:105480001A688A431A60200001F0DAFF2300002026
:105490003E3318703834043B187058709870D870C8
:1054A0002870207070BDC04611110000010003007B
:1054B000012010B539310C78E2B2844216D10018BF
:1054C000087080211B68C9058B4205D009498B42B1
:1054D00002D009498B420AD107219A680A40062A5C
:1054E00003D0012219680A431A60002010BD196810
:1054F000F9E7C04600080140001401400368064A6D
:10550000196A114203D101211A688A431A600123E2
:105510003930037000207047111100000121036829
:1055200010B5DA688A43DA601C6A054A144202D16F
:105530001A688A431A60012339300370002010BDB5
:10554000111100000300020010B5002905D13A3204
:105550000120147884420AD010BD042901D13B32C5
:10556000F6E7082901D03D32F2E73C32F0E70220AD
:1055700010701C6801222000FFF744FF8023DB0528
:105580009C4205D0084B9C4202D0084B9C4204D15F
:105590000722A3681340062B03D00123226813437C
:1055A00023600020D8E7C0460008014000140140F5
:1055B00010B5FFF7C7FF10BD0300020010B50029AA
:1055C00020D13A320120147884421AD1022010707E
:1055D0001C6801222000FFF715FF8023DB059C4299
:1055E00005D00D4B9C4202D00C4B9C4204D10722AB
:1055F000A3681340062B03D00123226813432360C2
:10560000002010BD042901D13B32DBE7082901D07D
:105610003D32D7E73C32D5E7000801400014014095
:10562000020030B502243832157803002000012D25
:1056300008D01800393004701B68596101230370C9
:105640000020107030BD704770470222036810B50B
:105650001969040011420DD0D96811420AD0053AE7
:105660001A61043202769B699B075ED001F0CAFA88
:1056700000232376042223681969114210D0D968C7
:1056800011420DD0093A1A61073222769A69C02375
:105690009B0020001A424ED001F0B4FA002323767A
:1056A00008222368196911420ED0D96811420BD023
:1056B000113A1A610D322276DB6920009B0740D037
:1056C00001F0A0FA00232376102223681969114201
:1056D00010D0D96811420DD0213A1A6119322276C0
:1056E000DA69C0239B0020001A4230D001F08AFA08
:1056F00000232376012223681969114207D0D96853
:10570000114204D0033A20001A6101F050FA4022FD
:1057100023681969114207D0D968114204D0813A2F
:1057200020001A61FFF790FF10BD01F067FA20001A
:10573000FFF789FF9CE701F061FA2000FFF783FF84
:10574000ACE701F05BFA2000FFF77DFFBAE701F05C
:1057500055FA2000FFF777FFCAE7000030B5EFF3F6
:105760001084012282F310880168124D0B682B40CF
:105770000B6084F31088EFF3108482F310880168C3
:105780008B6893438B6084F31088036E93420AD135
:10579000EFF3108183F31088102402681368A34389
:1057A000136081F310882022031DDA67002303664B
:1057B000836630BDDFFEFFFF30B5EFF310840122BA
:1057C00082F31088802501680B68AB430B6084F37B
:1057D0001088EFF3108182F310884023026810686C
:1057E0000343136081F3108830BDC36F10B5212BC4
:1057F00006D1020052321388002B02D1FFF7DCFFE2
:1058000010BDC36C01681C7801338C62C3641388BB
:10581000013B9BB21380F3E7C36F10B5212B06D178
:10582000010052310B88002B02D1FFF7C5FF10BDDC
:10583000C26C046813880232DB05DB0DA362C2640C
:105840000B88013B9BB20B80F1E7704710B5C46F2A
:1058500003000220202C37D10138002934D0002A3F
:1058600032D080209C68400184420CD0D964190059
:1058700050310A804A801A0000210832D167212263
:10588000DA67124A12E018690028EFD10C000130E3
:105890000440014218D1D964190050310A804A806D
:1058A0001A000832D4672122DA67094ADA66EFF370
:1058B0001081012282F310881A6880231068034344
:1058C000136081F31088002010BDC046EB5700081C
:1058D00019580008806A0023020010B55A3213805C
:1058E000083A138002F0E0F810BD7047F7B506687B
:1058F000B14BF16904003068B56819420CD120231E
:10590000194200D1A7E0184200D1A4E0A36E200004
:10591000002B00D095E095E001232A001A401D429B
:1059200015D0022519422FD129423ED0022327004B
:10593000042533620837FB6F2B43FB67294236D1BE
:105940000B073ED52023034013430DD139E09B4F75
:10595000384200D17FE0022519420CD14B07EFD528
:105960000B072ED583062CD508233362E218D56F9A
:105970002B43D36725E0C3050BD42942EED14B0757
:10598000DED5002A13D1EBE7C30502D42942CDD1DD
:10599000F5E70123250033620835EF6F3B43EB67E2
:1059A0008B07ECD5002AD9D0C0E74B07C8D5042314
:1059B000220033620832D56F023B2B43D3670B07BB
:1059C000D2D4802325001B010835194206D042019C
:1059D00004D533622023EA6F1343EB67EB6F002B90
:1059E00030D02023194206D0184204D0A36E002BD9
:1059F00001D0200098472268EB6F40279668282244
:105A00003E40134020001E4321D0FFF7A7FE23682D
:105A10009B683B4217D0EFF31081012383F310887A
:105A200022689368BB43936081F31088606F0028FD
:105A300009D0634B8363FEF7C9FE002802D0606F74
:105A4000836B9847F7BD200002F02EF8FAE702F0CA
:105A50002BF8EE67F6E7236E012B00D09AE01022B8
:105A6000114200D196E0104200D193E03262B16859
:105A700040260F003740314253D0616F08684168BB
:105A800089B20029DED0250058352D888D42D9D91C
:105A900025005A352980016820200D000540019518
:105AA000014230D1EFF3108783F310882568454A0F
:105AB00029681140296087F31088EFF3108783F37A
:105AC00010882568A9689943A96087F31088EFF3C7
:105AD000108C83F31088210080C9BD68B543BD6078
