:020000040800F2
:100000000050002009B4000859B4000859B4000891
:1000100000000000000000000000000000000000E0
:1000200000000000000000000000000059B40008BB
:10003000000000000000000059B400086B9E00089A
:1000400059B4000859B400085D47000859B40008C5
:1000500059B4000825A0000835A0000845A00008F4
:100060000000000059B4000859B4000859B4000851
:1000700059B4000859B4000815AC0008AD9A00083E
:10008000C59A0008DD9A0008F59A000800000000F3
:100090000D9B0008CD540008259B00089D540008C6
:1000A000B554000859B4000859B40008E1AB000881
:1000B000F9AB000839AC00080000000000000000A7
:1000C00002B4714649084900095C49008E4402BCEB
:1000D0007047C04603B47146490840004900095EB4
:1000E00049008E4403BC7047002243088B4274D3FE
:1000F00003098B425FD3030A8B4244D3030B8B4229
:1001000028D3030C8B420DD3FF22090212BA030C31
:100110008B4202D31212090265D0030B8B4219D312
:1001200000E0090AC30B8B4201D3CB03C01A524132
:10013000830B8B4201D38B03C01A5241430B8B427A
:1001400001D34B03C01A5241030B8B4201D30B0363
:10015000C01A5241C30A8B4201D3CB02C01A52418A
:10016000830A8B4201D38B02C01A5241430A8B424D
:1001700001D34B02C01A5241030A8B4201D30B0236
:10018000C01A5241CDD2C3098B4201D3CB01C01A50
:10019000524183098B4201D38B01C01A524143095A
:1001A0008B4201D34B01C01A524103098B4201D348
:1001B0000B01C01A5241C3088B4201D3CB00C01AB5
:1001C000524183088B4201D38B00C01A524143082D
:1001D0008B4201D34B00C01A5241411A00D2014652
:1001E000524110467047FFE701B5002000F0F0F8DB
:1001F00002BDC0460029F7D076E7704703460B439F
:100200007FD4002243088B4274D303098B425FD30F
:10021000030A8B4244D3030B8B4228D3030C8B423B
:100220000DD3FF22090212BA030C8B4202D3121221
:10023000090265D0030B8B4219D300E0090AC30BF6
:100240008B4201D3CB03C01A5241830B8B4201D3A3
:100250008B03C01A5241430B8B4201D34B03C01A8C
:100260005241030B8B4201D30B03C01A5241C30A04
:100270008B4201D3CB02C01A5241830A8B4201D375
:100280008B02C01A5241430A8B4201D34B02C01A5F
:100290005241030A8B4201D30B02C01A5241CDD204
:1002A000C3098B4201D3CB01C01A524183098B424F
:1002B00001D38B01C01A524143098B4201D34B0138
:1002C000C01A524103098B4201D30B01C01A52419B
:1002D000C3088B4201D3CB00C01A524183088B4222
:1002E00001D38B00C01A524143088B4201D34B000B
:1002F000C01A5241411A00D201465241104670477D
:100300005DE0CA0F00D04942031000D34042534081
:1003100000229C4603098B422DD3030A8B4212D341
:10032000FC22890112BA030A8B420CD38901921173
:100330008B4208D3890192118B4204D389013AD0B0
:10034000921100E08909C3098B4201D3CB01C01A85
:10035000524183098B4201D38B01C01A5241430998
:100360008B4201D34B01C01A524103098B4201D386
:100370000B01C01A5241C3088B4201D3CB00C01AF3
:10038000524183088B4201D38B00C01A5241D9D20B
:1003900043088B4201D34B00C01A5241411A00D28C
:1003A0000146634652415B10104601D34042002B88
:1003B00000D54942704763465B1000D3404201B507
:1003C000002000F005F802BD0029F8D016E77047BC
:1003D0007047C0468446100062468C46190063464A
:1003E00000E0C0461FB50EF001FA002801D400213C
:1003F000C8421FBD10B50EF041F94042013010BD9A
:1004000010B50EF0F3F9002801DB002010BD01202B
:1004100010BDC04610B50EF0E9F9002801DD00203E
:1004200010BD012010BDC04610B50EF06BF90028BC
:1004300001DC002010BD012010BDC04610B50EF03B
:1004400061F9002801DA002010BD012010BDC0466E
:10045000844608006146FFE71FB50CF0C9FE00287E
:1004600001D40021C8421FBD10B50CF049FE404226
:10047000013010BD10B50CF0BBFE002801DB0020E0
:1004800010BD012010BDC04610B50CF0B1FE002813
:1004900001DD002010BD012010BDC04610B50CF0DC
:1004A00057FE002801DC002010BD012010BDC04611
:1004B00010B50CF04DFE002801DA002010BD01201F
:1004C00010BDC0461C2101231B04984201D3000C1F
:1004D00010391B0A984201D3000A08391B099842B7
:1004E00001D30009043902A2105C40187047C046CD
:1004F00004030202010101010000000000000000ED
:10050000002B11D1002A0FD1002900D1002802D0E0
:100510000021C943080007B4024802A14018029014
:1005200003BDC046ADFEFFFF03B4684601B50298A7
:100530000CF078FA019B9E4602B00CBC7047C04696
:1005400010B5002903D1FFF7BDFF203002E00800FD
:10055000FFF7B8FF10BDC04610B5064C2378002B3E
:1005600007D1054B002B02D0044800E000BF012357
:10057000237010BDA00100200000000030F800082A
:10058000044B10B5002B03D00349044800E000BF22
:1005900010BDC04600000000A401002030F8000893
:1005A00070B504000025A54200DB70BD00212D20A0
:1005B0000AF0B0FFC8200BF09DF801212D200AF0B1
:1005C000A9FFC8200BF096F80135ECE703004118AD
:1005D00000208B4200D170471A7801335040F8E771
:1005E00070B5012186B02D200AF038FF01210A20C4
:1005F0000AF034FF012109200AF030FF01211C20FC
:100600000AF02CFF01212D200AF084FF01210A208D
:100610000AF080FF002109200AF07CFF00211C2045
:100620000AF078FF012118200AF018FF0021182095
:100630000AF070FF0024200003F00EF82C4D28551E
:100640000134062CF7D12B78542B13D0294B0024DE
:100650002B8004236B80284BAB8020002E5D02F0A2
:10066000FBFF864203D03100200003F009F801347B
:10067000062CF2D100230493083303930933029329
:10068000013301930B3B1D4900931D481D4A023362
:1006900000F0B8FC011E03D01420FFF781FFFEE735
:1006A000194804F0E5FA194C200005F013F8002869
:1006B00002D10A30FFF774FF2000032104F074FF19
:1006C0002000032104F086FF80212000090104F0AE
:1006D00093FF80212000890104F0EAFF20000C49EB
:1006E00004F000FF0B4802F0FBFF06B070BDC046EF
:1006F000BC01002054050000011E000000006644FB
:10070000D00100200000FA42080400201803002055
:1007100066666640B40300200A4B0B4A13B59A6024
:10072000402230201A7309F0B3FA14230400152272
:100730000093C421BA3300F0BFF92100034800F050
:1007400057FC13BD1803002008040020D00100202E
:1007500030B5174B174C5A78174D22705B8885B00F
:1007600063800A232800237105F00CF828006D46E9
:1007700004F0D2FF11490CF089FD11490CF0C4FEC0
:100780000CF01AF92B00A06007CC07C30C2128003D
:10079000FFF71CFF002328730D222900094801F0F0
:1007A000A3FE002802D10230FFF7FAFE05B030BDEB
:1007B000BC010020C4010020180300200000C84232
:1007C0000000A041D001002010B507480AF092FFB8
:1007D000FFF7BEFFFA2080000AF0E2FD034BC118CC
:1007E000034803F097F810BD70170000C0D4010053
:1007F000B403002037B50800421E9041081AFA21C0
:100800000F4D8900AB6800936C6801346043FFF7BB
:100810006BFC0022009B0193AB6800930199009B45
:10082000994209D20199009BE31A5B18D218009BE8
:1008300001939042F0D837BD019B00995B1AF5E710
:1008400010E000E0CBB20E4A322B0BD9C0220A4096
:10085000C02A11D1CF2B0FD83F230A480B409B0051
:10086000074A1B58E0209B009B58C00008401843D3
:10087000431C00D00800704701204042FBE7C046FF
:10088000DC0201089C02010810B5C06902F01AFDE3
:1008900010BD10B5C06902F049FD10BDF8B50700E4
:1008A0000C001D008E18B44200D1F8BD2178002242
:1008B000F86902F03FFD013428700135F3E710B507
:1008C0000AF079FD10BD10B54B1C03D0C8B2002151
:1008D0000AF09AFC10BD080010B511001A00431C64
:1008E00002D0C0B20AF00CFC10BD10B5C06902F015
:1008F0001CFD10BD10B51C3007C802F0F9FC10BD7E
:1009000010B50C00002011001A00631C02D020005A
:100910000AF078FE10BD10B50AF0E8FE10BD10B563
:100920000AF0E0FE10BD10B508000AF0E3FE10BDAD
:10093000080010B54B1C01D00AF0AAFC10BD000045
:100940007FB50C0015001E004B1C19D00C22002195
:1009500068460BF04DF9002303939D4204D0094BE8
:1009600000950393084B02933200694620000AF079
:10097000C5FC029B002B03D00322694668469847BA
:100980007FBDC046050A0008E5090008002010B533
:100990004B1C02D008000AF0FBFD10BD080010B58A
:1009A0001100431C01D00AF0B5FD10BD080010B5C0
:1009B0001100431C01D00AF051FD10BD030010B519
:1009C00028331B78002B02D003689B6A984710BD20
:1009D000030010B528331B78002B02D003689B6BF3
:1009E000984710BD012A02D1016000207047022AF9
:1009F00005D0032AF9D0002AF7D10260F5E70B6889
:100A00000360F2E710B50368984710BDF8B50D0014
:100A100017000C005E18A64200D1F8BD7B1B200019
:100A2000195D02F02DFE0134F5E7F8B50D00170051
:100A30000C005E18A64200D1F8BD200002F00CFEAA
:100A40007B1B18550134F5E7032330B585B00293BD
:100A50000133012501930023040019002A000095A9
:100A600000F01AF8064B20002360064BA584E361D2
:100A7000054B2362230028331D7005B030BDC046EE
:100A80005CF800084003002080841E007047704717
:100A9000704708007047704710B5C360029B054C53
:100AA0000361039B04604361049B41608260836136
:100AB00010BDC046C0F8000870B5040080250020B5
:100AC00062612200A3612D02049B6560094DE36110
:100AD000094B2060A560E0602161203262CB62C2D8
:100AE000E0622C3009F0D4F80500FFF7ADFF2000DC
:100AF000256070BD0800FFFF48F8000810B504002D
:100B000000680368DB6B9847206821690368826886
:100B10001B68984720682169036802695B689847E9
:100B200010BD10B5006803681B6C984710BDF0B588
:100B300085B00393037A16000B9ADB089B18040018
:100B4000180001930F0009F0A7F80500019809F0BB
:100B5000A3F80290227AF3B2082A37D83B43681CE4
:100B60002B706379BB4237D10B9A03990BF0CFF806
:100B700020680368DB6A9847206821690368C268B7
:100B80005B689847206829000368019A1E6B029BE6
:100B9000B04720682169036802695B68984720684C
:100BA00003685B6B98472379BB4207D1217A029B8C
:100BB000C9080B9A0A9859180BF0A9F8280009F0EF
:100BC0006FF8029809F06CF805B0F0BD360A3E43A4
:100BD0002E70A81C6B70C4E7A1790B9A0BF008F873
:100BE000C6E70000F0B585B002930DAB1B7801920B
:100BF000039313000C9A04009446029A63440093F2
:100C000053425341009A0E00D3181800009309F084
:100C100043F80700009809F03FF831000500019AF9
:100C200038000BF074F8019BF818029B002B4DD094
:100C30000C9A0A990BF06BF82068E269036801329C
:100C40004AD101215B69984720680368DB6A9847AD
:100C5000206821690368C2685B689847206839008A
:100C60000368009A1E6B2B00B04720682169036857
:100C700002695B689847206803685B6B9847039B31
:100C8000002B07D02068E2690368013244D10121BA
:100C90005B699847E3681C1E07D000240C9AA242A7
:100CA00003D0019AA85C98470400029B002B06D150
:100CB00001990C9A01310B9869180BF028F838004B
:100CC00008F0EEFF280008F0EBFF22E00C9BA17972
:100CD0005A1C0AF08DFFAFE7DB69984706002068D1
:100CE000E16903689B6898470028ADD020680368D5
:100CF000DB6C984720680368DB6998470E9B801B74
:100D00009842ECD3380008F0CBFF280008F0C8FF69
:100D10000F4C200005B0F0BD01219B699847206869
:100D20000368DB69984706002068E16903689B68EF
:100D300098470028AED020680368DB6C984720688D
:100D40000368DB6998470E9B801B9842ECD3D9E778
:100D50003FFDFFFF70B51E00437A0C0088B001799B
:100D6000002B06D1019200962200FFF7E0FE08B0AA
:100D700070BD07AD230A6B70FA239B002970AC701D
:100D80000493012303930023029229000322019676
:100D90000093FFF727FFEAE730B51B24002389B053
:100DA0006C442370457A0A0001799D4208D10133D1
:100DB000019300942B00FFF7BAFE207809B030BDF4
:100DC00007AD2970AA70110AFA2292006970049284
:100DD0000122290003920292019400930232FFF74C
:100DE00001FFEAE770B51C00130015002343072B31
:100DF0000DD8A2420BD3FFF7CFFFFF2107230A0034
:100E00005B1B1A41A14011400840C0B270BD0B20CD
:100E10004042FBE770B51E00437A0C0088B0417970
:100E2000002B07D10093019613002200FFF77FFEED
:100E300008B070BD07AD230A6B70FA239B002970C0
:100E4000AC70002104930123019100922900032238
:100E500003930296FFF7C6FEEAE730B58BB06B4608
:100E6000DA77437A0C004179002B09D101220093F3
:100E70001F3301926B442200FFF759FE0BB030BDC7
:100E800009AD230A6B70FA2300229B002970AC7015
:100E90000493012301921F326A4400922900032225
:100EA00003930293FFF79EFEE8E7F0B51E0085B0BE
:100EB0000AAB1F780BAB1B78050003930CAB1B78B8
:100EC00014000293330001913B43072B37D8BE42F5
:100ED00035D3FFF761FFFF22082113000136C91B3C
:100EE000F6B20A41B3401343DB43DBB298431C40E4
:100EF0000443E4B2220028000199FFF7AEFF2868FE
:100F0000FA260368B6001B6A98470700039B5E43F6
:100F1000286803681B6A9847C01BB04202D31020A0
:100F200040420AE028000199FFF736FF0300029AC9
:100F30000298634018401342EAD105B0F0BD0B207F
:100F4000EEE7013970B502000C00002001254B1CB2
:100F500000D170BD2B00661AB3401340F3408B40A4
:100F600001391843F3E7C06A002803D170478B4268
:100F7000FCD010300378002BF9D11800F6E7F8B553
:100F80000600FFF7F0FF041E10D0350037000434D0
:100F900020352C3729684B1C04D030682268036840
:100FA0005B68984704350434BD42F3D1F8BD0000B6
:100FB00070B50D1C04000C49281CFFF779FA0028B5
:100FC0000ED00A49281CFFF75FFA002808D020003D
:100FD000291C01F039FA002801D1FC34E56270BD0A
:100FE0000C204042FBE7C0460000094300007F445C
:100FF00010B5040000F036FA014B2000236010BD4C
:1010000024F90008F0B585B01D000AAB1B78171C49
:1010100001930BAB1A780CAB1B780E1C0EA9097848
:101020005BB202930DAB03911B881221040001F007
:10103000B0FD00282AD12000391C00F00BFC00284C
:1010400024D1236820001B6B311C984700281DD138
:101050002900200000F09CFD002817D120000199F4
:1010600000F0EDFD002811D1236820009B6C02994F
:10107000984700280AD12000039900F09AFA002826
:1010800004D102000121200000F08CFB05B0F0BD6E
:10109000FC3070B50400836A1868996902681568A5
:1010A0008268A847A36A1868996902685568C26887
:1010B000A847A36A0121186803685B699847A36A77
:1010C00018689969026855680269A847A36A0521EA
:1010D000186803685B69984770BD000070B50D1C07
:1010E00004000C49281CFFF7E3F900280ED00A4938
:1010F000281CFFF7C9F9002808D02000291C01F09E
:10110000A3F9002801D1FC34E56270BD0C204042F7
:10111000FBE7C046000009430040034410B55D22D0
:1011200001F098FB10BD0000F0B58BB0089009915C
:1011300000F0E0FE802800D057E1089CFC34206BD2
:101140000EF09EFA0022AB4B0DF086FE4B005908C4
:10115000A94AAA4BFFF75EF9002816D0E56AA8490C
:10116000281CFFF7A5F9002830D0A649281CFFF756
:101170008BF900282AD002223621A06AFFF76DFEE3
:1011800064223A21A06AFFF768FEE36A206B0593A8
:101190000EF076FA9C4A9D4B06000F000DF05CFEA7
:1011A0004B005908944A954BFFF734F9051E20D09F
:1011B00005980EF065FA964A964B0CF0E5FB0EF09A
:1011C000A7FA0024482505902600DCE09249281C57
:1011D000FFF76EF90028D8D09049281CFFF754F982
:1011E0000028D2D002223621A06AFFF736FE7F22E5
:1011F000C7E78B4A8B4B300039000DF02DFE4B00BA
:1012000059087D4A7D4BFFF705F9041E0BD0059860
:101210000EF036FA844A854B0CF0B6FB0EF078FAE5
:101220002C0005901CE0784A814B300039000DF00D
:1012300013FE06900791079B069A5B001000590861
:101240006D4A6E4BFFF7E6F8051E0BD005980EF0C1
:1012500017FA6F4A774B0CF097FB0EF059FA05908E
:101260004425B1E76E4A744B300039000DF0F4FDAF
:101270004B005908604A614BFFF7CCF8041E05D0BB
:1012800005980EF0FDF96D4A6D4BC5E700226D4BD8
:10129000300039000DF0E0FD06900791079B069A9B
:1012A0005B0010005908544A544BFFF7B3F8051E71
:1012B00005D0F421059889050BF080FCCFE7624A40
:1012C000624B300039000DF0C7FD4B0059084A4A07
:1012D0004A4BFFF79FF8041E05D005980EF0D0F991
:1012E0005B4A5C4B98E700225B4B300039000DF005
:1012F000B3FD06900791079B069A5B001000590802
:101300003D4A3E4BFFF786F8051E00D070E00022F4
:10131000524B300039000DF09FFD4B005908364A02
:10132000364BFFF777F8041E61D100224C4B30009A
:1013300039000DF091FD06900791079B069A5B001E
:10134000100059082C4A2D4BFFF764F800284FD1A4
:101350000022284B300039000DF07EFD4B0059086B
:10136000254A264BFFF756F800283ED0089C2F212F
:10137000FC34A06AFFF710FD30210500A06AFFF7DA
:101380000BFD40260400089B08981B689B68984743
:10139000089F099B0599FC37002B00D1F96A089832
:1013A00001F052F80721FF230222029301920091DB
:1013B0000B0032002A31B86AFFF777FD0026FF23C1
:1013C00002220293019200962A002F21F83BB86A6C
:1013D000FFF76BFDFF230222029301920096220089
:1013E0003021B86AF83BFFF760FD0BB0F0BD2C0070
:1013F0004025E9E600407F40FCA9F1D24D62503F14
:101400000080574400007F443333333333331F406D
:1014100093E34EE960FD7F3F0000CD43004003446D
:10142000CDCCCCCCCCCC24404968CBB91457853F2B
:1014300033332F4060FD8F3FCCCC3440DC4B1AA3BC
:101440007554953F00403F409A99999999D94440E5
:1014500012DA722EC555A53F00404F4000405F4054
:1014600000406F4010B5040000F09CFC034B0122CB
:101470002360A3235B002000E25210BDD4F90008D2
:10148000F0B587B005000C000492002A0DD0CE1CE8
:10149000F6B2122E00D984E000F065FF0490002C13
:1014A0005CDB70231C43E4B25AE014292AD100F01B
:1014B0005AFF0226FF270723FC3500930297019667
:1014C000040080220921A86AFFF7EFFC049B029721
:1014D0000093019606237F2204430921A86AFFF79F
:1014E000E4FC049B07220093330024B2044324B29B
:1014F000029701964D21A86AFFF7D7FC204300B25E
:1015000007B0F0BD023CE4B20F2C4AD800F02BFF2C
:10151000FF2702260723FC350093029701968022BD
:1015200009210590A86AFFF7C0FC7022059B02976D
:10153000184303B20593049B0196009322430623AC
:101540000921A86AFFF7B1FC059B02971843049B89
:1015500004B20196009304223300CBE720243443E5
:10156000FF2702260723FC350093029701960022ED
:101570000921A86AFFF799FC0023029700930196BE
:101580002200059006330921A86AFFF78EFC059A10
:10159000002302431000049A0297024314B20196FA
:1015A000D8E70D204042ABE710B50022FFF768FFF7
:1015B00010BDF0B587B00400049106295AD800F098
:1015C000D2FE0700200000F095FC060080282BD1F9
:1015D000FF25049B7E3EFC34A06A0295019600968E
:1015E000002B06D1330004222621FFF75EFC0743BF
:1015F00016E0330000222621FFF757FC0322049B4C
:1016000005905B011A430023D2B200930295019624
:1016100007330C21A06AFFF748FC059D05432F43C3
:101620003FB2380007B0F0BD0028FAD1049BFC346B
:101630000225A06A002B07D1FF330293FC3B08224E
:101640000D2101950093D0E70322FF230D21029382
:101650000092130001953200FFF727FC0322049942
:1016600005904B011343DAB2FF23019502930096D4
:10167000F83BCEE713277F42D3E77FB504000E0087
:1016800000F038FC002833D19C235B00E35C002B86
:1016900031D0200000F067FE0500012E15D0022E8B
:1016A0001DD06A20002E24D1FF2332000293FD3B7F
:1016B000019303330093FC3401330A21A06AFFF73E
:1016C000F4FB284300B204B070BDFF230293FD3B3E
:1016D0000193033300932022FC340133EDE7FF2311
:1016E0000293FA3B00934022FC3401960133E4E775
:1016F00014204042E7E76B20FBE730B585B00400DB
:101700000D0000F0F7FB002845D19C235B00E35C53
:10171000002B07D0002D41D129002000FFF7ADFF9D
:1017200005B030BD200000F01EFE0028F8D1042DC9
:1017300036D82800FEF7C4FC03111B342500FF2314
:1017400000220293FD3B019303330093FC340133E9
:101750000A21A06AFFF7A9FBE2E7FF230293FD3B02
:101760000193033300936022FC340133F0E7FF233D
:101770000293FD3B0193033300934022FC34013379
:10178000E6E7FF230293FD3B0193033300932022FE
:10179000FC340133DCE714204042C1E76B20FBE757
:1017A0006A20F9E7F0B5070085B00E0014003D008F
:1017B00000F0A0FBFC35802814D13A23FF22FF3330
:1017C000FE54383BFF3BA86A029201930093FB3A18
:1017D000002E00D132001E21FFF767FB0300180026
:1017E00005B0F0BDFF220223A86A02920193002EE9
:1017F00012D0DB180093EF3A3021FFF756FB031E9F
:10180000EDD1FF210222A86A029101920093002CDF
:1018100006D0013ACF39DFE7042332000093EBE72B
:101820001A003021D8E77FB50E00050000F09BFDBF
:10183000FF230293FD3B019302330093FC35040028
:1018400032001D21A86A0333FFF72FFB204300B2AB
:1018500004B070BDF0B587B006000F1C00F04AFB65
:10186000802800D007E1381C0DF00AFF834A844B22
:1018700004000D000DF0F0FA04900591059B049A08
:101880005B00100059087F4A7F4BFEF7C3FD00281C
:1018900000D0AEE07D4A7E4B200029000DF0DCFA3E
:1018A00004900591059B049A5B0010005908754A45
:1018B000754BFEF7AFFD002800D0C8E06F4A754BAE
:1018C000200029000DF0C8FA04900591059B049AA8
:1018D0005B00100059086B4A6B4BFEF79BFD00281C
:1018E00000D0B6E0694A6C4B200029000DF0B4FA34
:1018F00004900591059B049A5B0010005908614A09
:10190000614BFEF787FD002800D0A4E00022634B66
:10191000200029000DF0A0FA04900591059B049A7F
:101920005B0010005908574A574BFEF773FD00281B
:1019300000D092E05A4A5B4B200029000DF08CFA4F
:1019400004900591059B049A5B00100059084D4ACC
:101950004D4BFEF75FFD002800D080E00022524B87
:10196000200029000DF078FA04900591059B049A57
:101970005B0010005908434A434BFEF74BFD00281B
:1019800000D06EE00022494B200029000DF064FADF
:1019900004900591059B049A5B0010005908394A90
:1019A000394BFEF737FD00285DD10022404B200067
:1019B00029000DF051FA04900591059B049A5B00F3
:1019C000100059082F4A304BFEF724FD00284CD157
:1019D0000022384B200029000DF03EFA4B00590838
:1019E000284A294BFEF716FD9021002802D1082431
:1019F00042E000213000FFF716FF041E24D133001F
:101A0000A322FC331F635200B25C002A1CD09D6AE3
:101A1000982301205B00F35C98400BF073FF391CA6
:101A20000BF04EFA8321C905FEF742FDFF22022387
:101A30000292019300281AD001330093F73A26212D
:101A40002800FFF732FA0400200007B0F0BD102193
:101A5000D0E72021CEE73021CCE74021CAE7502152
:101A6000C8E76021C6E77021C4E78021C2E70323ED
:101A700022000093E3E714246442E5E73333333371
:101A800033331F40FCA9F1D24D62503FCDCCCCCCBA
:101A9000CCCC244033332F40CCCC344000403F40AA
:101AA0009A99999999D9444000404F4000405F402D
:101AB00000406F4000407F40F0B587B00500002730
:101AC0000C00022600F04FFCFF2304900293FC352B
:101AD0003B0001960097602C30D101221D21A86A9D
:101AE000FFF7E3F9FF230293FC3B009301962200EA
:101AF0001E2105900433A86AFFF7D7F9059AFF2342
:101B000002431000049A02930243019600973300A7
:101B100014B231210522A86AFFF7C7F9FF230C226E
:101B20000443029324B201960097F83B3721A86A38
:101B3000FFF7BBF9204300B207B0F0BD3A001D210A
:101B4000A86AFFF7B2F9FF230322029300920196DD
:101B500022001E210590F83BA86AFFF7A6F9059A16
:101B6000FF2302431000049A029302430196009758
:101B7000330014B231210322A86AFFF796F9FF233C
:101B8000044302930A2224B201960097F83BCDE762
:101B9000F0B585B005000E0000F0ACF9802832D118
:101BA000B31F062B32D831012800C9B2FFF784FFDA
:101BB000041E21D198235B00EE541633EB5C002BFE
:101BC0001AD00120FC35B0400BF09CFE296B0BF0C5
:101BD00077F98321C905FEF76BFCFF220223AF6A68
:101BE0000292019300280AD001330093F73A26218C
:101BF0003800FFF75AF90400200005B0F0BD0323B8
:101C000022000093F3E714246442F5E70924FBE77C
:101C10007FB50E00050000F0A6FBFF230293FD3BFD
:101C20000193013B0093FC35040032001D21A86A9A
:101C30000233FFF73AF9204300B204B070BD70B52B
:101C400004000D0000F056F980280ED16B1F032B05
:101C50000ED8690008392000C9B2FFF7D9FF002863
:101C600002D13223FF33E55470BD14204042FBE71C
:101C70000A20FBE77FB50292040001910393029EC4
:101C800000F038F9C0B201AD00280DD12368200062
:101C90005B6B01999847002804D1236820009B6B57
:101CA000311C984704B070BD802810D120002978DD
:101CB000FFF76EFF0028F5D12000311CFFF7CAFDA9
:101CC0000028EFD12000297AFFF7B9FFEAE70120C9
:101CD0004042E7E7FC30806A704710B503689B68B4
:101CE000984710BD0300FC339B6A10B504001868C8
:101CF00003689B689847C1B2200001F091FA10BDBB
:101D0000036870B59B6E0400984700280DD070BD25
:101D1000AB6A18680368DB6C9847AB6A1868D969C6
:101D200002689268904700280CD12500FC35AB6A08
:101D3000186859690268926890470028E8D00F2017
:101D40004042E4E70E20FBE730B50C0085B00529E2
:101D500024D8FC304900FF25806AD2B2C9B2032CD6
:101D60000FD807235B1A022101910131091B490099
:101D7000C9B200914021DBB20295FFF796F805B099
:101D800030BD0F235B1A022101910531091B490067
:101D9000C9B20091DBB241210295EEE71A20404220
:101DA000EDE7000070B504000D00FF220E4901F0C0
:101DB0002DFA0E4B20002360230000220021FC336B
:101DC000FE30DA621A6341869A6341879D200126BC
:101DD000400026545A64A22219640549520020008A
:101DE000A1529D6270BDC0460024744284FA00086E
:101DF0000080FFFFFC30F8B5836A16001C680D00F8
:101E000022685969D7682000126D9047330001009D
:101E10002A002000B847F8BD0300FC3310B59B6AC8
:101E20001B685A69FFF7E6FF10BDFC30836A70B586
:101E30001C685969226820001569126D90470100DD
:101E40002000A84770BD10B5FFF7EFFF10BDFC30B4
:101E5000F8B5836A0D00D96916004A1C0AD01C68BF
:101E600023682000DF681B6D9847330001002A00BB
:101E70002000B847F8BD0300FC3310B59B6A1B680F
:101E80005A69FFF7E4FF10BD10B5FC3000230722AC
:101E90004221806AFEF7A6FF10BD1FB5FF23002276
:101EA0000293FD3B01930092FC3024210533806AAC
:101EB000FEF7FBFF05B000BD70B504000E00002565
:101EC00023682000A0331B6898472000FFF7DCFF41
:101ED000B04201D1012070BD2300FC339B6A013563
:101EE00018680A210368EDB25B6998470A2DE7D1AB
:101EF0000020F0E7072310B5FC301A000121806AAA
:101F0000FEF770FF10BD000010B50400FFF7F2FFF0
:101F1000802810D1FC34002307221921A06AFEF783
:101F200061FF40B20DF056FB0022044B0CF0D0FCD8
:101F30000DF0EEFB10BD0020FCE7C0460000D03FD6
:101F400030B585B004000D00FFF7D4FF00280CD198
:101F5000FF230293FD3BFC34019300902A000D21E6
:101F6000A06AFEF7A2FF05B030BD14204042FAE798
:101F700070B504000E002500FFF7BCFFFC3580287B
:101F800009D198235B00E35C062B1AD01321A86AC1
:101F9000FEF702FF70BD002813D1A2235B00E15CB5
:101FA00000290ED1002E0CD04623FF33E35CA86A33
:101FB000802B08D1FEF7F0FEA22301225B002864EB
:101FC000E254286CE6E73221F4E70000F0B587B070
:101FD0000C000090FFF78EFFC6B2802E00D0CFE03D
:101FE00098230120009A5B00D35C98400BF08AFC98
:101FF000009EFC36316B0AF063FF8321C905029015
:10200000FEF756FA0023002801D0FE239B0501931A
:1020100000231D211A00B06AFEF7E4FE0BF026FC37
:1020200002231E211A000490B06AFEF7DBFE801026
:1020300000B20BF01BFC0023072220210590B06AA0
:10204000FEF7D0FE2121002307220500B06AFEF72B
:10205000C9FE2D0228430BF009FC9823009A5B006F
:102060000390D05C0BF04EFC0DF00AFB0022774B86
:102070000CF02EFC0F00060020000BF043FC0DF0CE
:10208000FFFA0022724B0CF023FC32003B000CF0F4
:10209000E3FE00226F4B0BF077FC040005980D0067
:1020A0000DF0EEFA00226C4B0CF012FC02000B005B
:1020B000200029000BF068FC040004980D000DF0CE
:1020C000DFFA0022654B0CF003FC02000B0020003D
:1020D00029000CF0C1FE040001980D000DF0D0FAAB
:1020E00000225B4B0CF0F4FB02000B0030003900C7
:1020F0000CF0B2FE02000B00200029000BF0A2FF42
:102100000AF0A2FB32230D000400009AFF33D05CDA
:102110000BF0F8FB0DF0B4FA22002B000CF0D8FB0A
:102120000022002304000D00FEF77EF9002801D1F3
:10213000002400250022464B200029000BF024FC3F
:102140000DF0E6FA03990AF039FD0DF099FA002234
:10215000434B0BF019FC040002980D000DF090FAAF
:1021600002000B00200029000CF0B2FB0AF06CFB0F
:1021700000223C4B0CF0ACFB0AF036FC07B0F0BD83
:10218000002E60D1009D3300FC3507222521A86A6E
:10219000FEF728FE3300072226210700A86AFEF773
:1021A00021FE3F0238430BF061FB8221C9050BF091
:1021B0006DF83300022227210190A86AFEF712FE73
:1021C00001300BF053FB8221C9050BF05FF80423AB
:1021D00030211A00061CA86AFEF704FE002710280A
:1021E00001D18327FF054623009AFF33D35C0134D6
:1021F000002B05D107223221A86AFEF7F3FD040067
:10220000311C381C0AF0DAFC01990AF0D7FC061CD4
:10221000E0000BF077FB011C301C0AF0CFFC0DF046
:102220002FFA0600A86B0F000DF02AFA00220D4BC2
:102230000CF04EFB02000B00300039000BF002FFE7
:102240000022094B96E70120404297E7000010402A
:102250000000204000003C400000304000003440BE
:102260000000114000408F4080842E4130B585B081
:1022700004000D00FFF73EFE002828D1012D13D0E9
:10228000022D1BD01720002D22D1FF232A000293FC
:10229000FD3B019303330093FC3401333021A06AEA
:1022A000FEF703FE05B030BDFF230293FD3B019313
:1022B000033300932022FC340133EFE7FF23029322
:1022C000FA3B00934022FC3401950133E6E71420E9
:1022D0004042E7E770B50400FFF70CFEFC348028AD
:1022E00004D11221A06AFEF757FD70BD3F21A06AFC
:1022F000FEF752FD3E210502A06AFEF74DFDADB28C
:10230000284380B2F1E710B5FFF7E4FF012318403E
:102310000F3800B210BD30B585B004000D00FFF7D6
:10232000E9FDFF23002803D16B1F5A1E9341FE33A2
:102330000293052301930023FC3400932A0001211A
:10234000A06A0233FEF7B1FD05B030BD030010B541
:102350000400FC33986A0121FEF711FE00212000E1
:10236000FFF7D9FF10BD030010B50400FC33986AD5
:102370000121FEF704FE01212000FFF7CCFF10BD74
:10238000F0B5012185B00400FFF7C5FF00281DD17D
:1023900002252600FF27FC360297019500950200D2
:1023A00005234021B06AFEF780FD00280ED1010010
:1023B0002000FFF7C5FD002808D1062302970195EC
:1023C000009302003121B06AFEF76FFD05B0F0BD49
:1023D000F0B50F002D3FFBB204000E0085B0C32BFB
:1023E00015D80121FFF797FFFC340500782E24D87B
:1023F00005213800FDF702FFFF2320220293FD3B59
:102400000193002302430093D2B205330DE000296B
:1024100017D10121FFF77FFFFF2305003200029350
:10242000FD3B01930333FC3400930B21A06AFEF7BC
:102430003CFD284300B205B0F0BD30000A211E303B
:10244000D8E711204042F6E7F0B50600FC3605005B
:1024500000230722B06A85B00F1C2421FEF7C2FCBE
:102460000024A04204D101212800FFF754FF0400FA
:102470009221381CC9050AF009FF0DF001F900226C
:10248000184B0CF025FA0AF0AFFAFF2702230021BF
:10249000019300910297020C0500D2B2B06A053395
:1024A0000631FEF702FD02230021019300910297FD
:1024B00005332A0A19000443D2B2B06AFEF7F5FCCC
:1024C0000223002101930091029724B20443EAB24F
:1024D000B06A05330831FEF7E8FC24B2204300B2AD
:1024E00005B0F0BD0000A03FF0B50D0085B00121A2
:1024F000040016000193FFF70EFF002855D12000BD
:10250000FFF7F8FC802867D1236831005B6E20005C
:10251000984723680290DF69320029002000019B60
:10252000B847002841D1029827000DF083F8002217
:10253000454B0CF0CDF90AF057FAFC37BB6A019015
:10254000186803681B6A98470500BA6A10685169E1
:1025500003689B689847002829D02700FC37BB6A8E
:10256000186803681B6A9847019030000DF062F804
:102570000022364B0CF0ACF9019B02900391581BE2
:102580000BF0C0F90DF07CF80022314B0BF05AFD36
:102590000B000200029803990BF054FD0DF0B8F8FF
:1025A000236878641B6A2000984705B0F0BDBB6AB9
:1025B00018680368DB6C9847BB6A186803681B6A75
:1025C0009847019B401B8342BFD2236820001B6AAF
:1025D000984705204042E8E7002833D123683100BE
:1025E0005B6E2000984723680290DF693200290063
:1025F0002000019BB8470028D7D105232700029A65
:10260000FC375343134A9B180193BB6A186803684D
:102610001B6A98470500BA6A1068516903689B688D
:102620009847002899D1BB6A18680368DB6C984703
:10263000BB6A186803681B6A9847019B401B83426A
:10264000E9D2C2E70120C5E70000F83F00002040C2
:1026500080842E418813000070B505000C00FFF740
:1026600049FC002823D12E00FC360321B06AFEF776
:1026700086FC002C15D0220C0621B06AD2B2FEF7DF
:10268000ECFB220A0721B06AD2B2FEF7E6FB082172
:10269000B06AE2B2FEF7E1FB03212800FFF73BFE40
:1026A00004E02800FFF76CFE0028F5D070BD142070
:1026B0004042FBE710B50400FFF71CFC00280FD1D7
:1026C0002300FC33986A0221FEF759FC2000FFF733
:1026D00057FE002803D105212000FFF71CFE10BD86
:1026E00014204042FBE730B585B004000D00FFF731
:1026F00001FC802812D101212000FFF70CFEFF23EE
:102700000293FD3B01930023FC3400932A003921FE
:10271000A06A0733FEF7C9FB05B030BD1420404264
:10272000FAE7F0B587B004000E001500FFF7E2FBF2
:10273000C0B2002831D16B1E072B3BD83300AA1939
:102740001978002936D001339A42F9D1FF230227A4
:102750000293FB3B01970093FC3410222721A06ACF
:10276000FEF7A3FBFF2302930023019700936A1E49
:102770003B0005902721A06AD2B2FEF796FB059B8D
:1027800003431FB2002F05D12B0032002821A06A7D
:10279000FEF740FB380007B0F0BD802807D1012DBF
:1027A00008D820003178FFF79EFF0700F2E71427D2
:1027B0007F42EFE76927FBE7F0B50C0087B0012106
:1027C0000600FFF7A8FD051E22D13000FFF792FB9F
:1027D000C0B280281FD1052C36D9FF2302270293CF
:1027E00001970095220AFC362021D2B2F83BB06A4C
:1027F000FEF75BFBFF23212102930590E2B20197D4
:102800000095F83BB06AFEF750FB059F07433DB2C9
:10281000280007B0F0BD002819D1FF230227E408E3
:10282000029301970095A2B2FC362521120AF83BCB
:10283000B06AFEF73AFBFF23262102930590E2B22D
:1028400001970095F83BDDE712256D42E0E7012591
:10285000FBE70000F0B58BB005000E1C0892FFF7F7
:1028600049FB002800D07BE09C23FC215B00EB5C53
:102870008905301C002B00D169E0FDF719FE002806
:1028800000D170E0301C0CF0FBFE384A384BFDF7ED
:10289000C1FD002867D001212800FFF73CFD041E80
:1028A00052D1301C0CF0ECFE02000B00002031492C
:1028B0000BF0C8FB069007910AF096F883B202214C
:1028C0001A0A2F000593FF23019102930094FC370D
:1028D000F83BB86AFEF7E9FA6B4602211A7DFF233E
:1028E0000191029300940990F83BB86A0131FEF718
:1028F000DCFA099B03431CB29C235B00ED5C002DBA
:102900001FD105980AF0FEFF0CF0BAFE02000B0082
:10291000069807990CF0A0FA0CF0FAFE8321C9057D
:102920000AF0B4FC0AF048F8FF230293FD3B019340
:102930000095C2B20899B86A0533FEF7B6FA0443A7
:1029400024B2002C00D1BE6320000BB0F0BDFDF717
:10295000AFFD002807D00849301CFDF795FD98E72A
:1029600014246442F0E76524FBE7C0469DA1B8E368
:102970004D6240400040DF4000009643F0B587B014
:1029800004000D1CFFF7B6FA002855D10021281CC1
:10299000FDF770FD2E1C002800D02A4E2700FC37C2
:1029A000B86B0CF06DFE0022274B0BF091FF0490EA
:1029B0000591301C0CF064FE02000B000498059990
:1029C0000AF0E2FF0022214BFDF724FD002836D05B
:1029D0001F49281CFDF758FD002830D02000012198
:1029E000FFF799FC041E24D19221301CC9050AF07E
:1029F0004DFC18490AF064FA09F0DEFF0226FF23B5
:102A0000019602930094020A05000421D2B2FA3B17
:102A1000B86AFEF74AFAFF230196029300940490E5
:102A20000521B86AEAB2F83BFEF73FFA049E064376
:102A300034B2200007B0F0BD14246442F9E76624E4
:102A4000FBE7C0469A99193F0000E03F00406F4005
:102A5000000048430000FA46F7B50400FFF74AFAC1
:102A600011230193002801D01B3301932700002577
:102A700005212000FC37FFF74EFCBB6A0A211868CD
:102A80002E0003685B6998470199B86AFEF784F9DC
:102A900001231840A840ED180643F6B2082DF3D1E3
:102AA00019002000FFF737FC3000FEBDF0B585B0FF
:102AB00004000D00FFF71EFA802849D1FF26FC34E0
:102AC000A06A0296002D22D002270623402233213D
:102AD00001970093FEF7E9F9019700270296009706
:102AE00005003B003A003321A06AFEF7DEF902231D
:102AF000029601930097054319223B21A06A0533F2
:102B0000FEF7D3F92DB2284300B205B0F0BD022381
:102B1000019304332A0033210093FEF7C6F9022300
:102B200002960193009507002B0001223321A06A31
:102B3000FEF7BBF9022302960193009507431D227D
:102B40003B21A06A0533FEF7B0F93FB23843DBE71B
:102B500014204042D9E77FB50E0000210500FFF7A1
:102B6000DAFBFF23040028000293FA3B01930233AF
:102B70000093FC3032000121806AFEF796F90121B2
:102B800004432800FFF7C7FB24B2204300B204B07F
:102B900070BDF7B505000F000400FC35A86A1600EB
:102BA0000193FDF7ABFFA96A0868496903684268A9
:102BB0001B689847A96A0868C969036842681B6866
:102BC000984739002000FFF777F9002805D1A86A57
:102BD000FDF7A7FF02204042FEBD236820009B684E
:102BE00098470028F8D12000FFF757F90028F3D1C3
:102BF0002000FFF77FF980281AD131002000FFF76D
:102C000072FD0028E8D13C212000FFF7E1FB0028FD
:102C1000E2D120000199FFF7CFFD0028DCD10100AF
:102C20002000FFF743FF0028D6D100236B64D3E7D1
:102C300080212000FFF78FFF0028DED0CCE710B501
:102C40000400FFF757F9802806D1FF221221FC3437
:102C5000A06AFEF702F910BD0028FCD1FC34FF2267
:102C60003E21A06AFEF7F9F8FF223F21F0E7F0B518
:102C70000F0087B0012105000592FFF74CFB041EF1
:102C800052D12800FFF736F92E000300FC368028C9
:102C900052D1230007222421B06AFEF7A3F8FF22B5
:102CA000022302920193002841DDDB180093EF3AE2
:102CB00003334021B06AFEF7F8F898235B00EB5C21
:102CC0000400062B0ED1F9330293FD3B0193002340
:102CD00000933A002221B06A0733FEF7E6F8044376
:102CE00024B237642800FFF7AAFF0027FF2302223F
:102CF0002E00029301920097FC363A000F21F83B18
:102D0000B06AFEF7D2F8FF230222029301920097E5
:102D100004433A000D21B06AF83BFEF7C6F824B22E
:102D2000044324B2BC4227D0200007B0F0BD0423E6
:102D3000220000930333BCE7B06A002B1CD10227AA
:102D4000FF330293F93B22000093402101970133A6
:102D5000FEF7ABF8041EE7D12800FFF770FF059BD4
:102D6000052B09D13900B06AFEF709F92800059949
:102D7000FFF7D1FA0400D7E72B00FC330221986A51
:102D8000F2E710B505220021FFF771FF10BD10B565
:102D9000029BCAB2D9B2FFF76AFF10BDF7B5019125
:102DA000012104001500FFF7B6FA00284ED12000DB
:102DB000FFF7A0F8802850D106222000E9B2FFF7E3
:102DC00056FF002842D12700FC37BE6A0090F36905
:102DD00001330FD198235B00E35C013098400AF087
:102DE00091FD396B0AF06CF835490AF04FFA09F099
:102DF000E3FD0090306803681B6A984707002600CF
:102E0000FC36B26A1068516903689B6898470028CD
:102E100006D023682A0020005B6A0199984715E0D4
:102E2000B36A18680368DB6C9847B36AD969186895
:102E30004B1C0CD103681B6A9847009BC01B98422F
:102E4000DDD92000FFF7FBFE06204042FEBD0368EF
:102E50009B6898470028D2D0F3E723680028D8D190
:102E6000290020005B6E984705220600E9B2200089
:102E7000FFF7FDFE0028E9D10523734300932300EB
:102E8000FC339B6A186803681B6A98470700260092
:102E9000FC36B26A1068516903689B68984700283D
:102EA000B7D1B36A18680368DB6C9847B36A1868CF
:102EB00003681B6A9847009BC01B8342E7D2C0E7A8
:102EC0000000C842F0B589B0069101210400170046
:102ED0000793FFF720FA059005002000FFF70AF896
:102EE0000600802860D1FF2F00D9A2E02600FC3622
:102EF000002307222421B06AFDF774FFFF2202237A
:102F000002920193002849DD4021DB180093AF3A7B
:102F10000333B06AFDF7C9FF2000FFF790FEFF23DF
:102F200002210020029301910090FAB2F83B203177
:102F3000B06AFDF7BAFFFF230500022100200293CB
:102F4000019100900200F83B0C31B06AFDF7ADFF33
:102F5000FF23054302210020059A029301912A4391
:102F6000009015B2F83B02000B31B06AFDF79DFFEF
:102F700005432DB22600FC363B00069A0021B06ABC
:102F8000FDF748FF0321B06AFDF7F9FF0321200098
:102F9000FFF7C1F9284300B209B0F0BD0623402273
:102FA000009311000133B4E70028E3D12000FFF7BC
:102FB00046FE2000FF220223FC3002920193402FA4
:102FC00032D9DB180093EF3A01334021806AFDF7D4
:102FD0006CFF46232600FF33E35CFC36802B04D1D4
:102FE0000021B06AFAB2FDF738FF01233021022236
:102FF000B06AFDF7F7FE0238FD23010019401842C0
:1030000003D1079AB06AFDF728FF402FB2D9FF23FA
:103010000293FD3B01930533009380223521B06A72
:10302000FDF743FF1E27A5E7062332000093013377
:10303000CBE704204042AFE7030010B50400FC33A7
:103040009B6A0649186803689B6998472000FFF748
:10305000F6FD236820009B68984710BD41030000DF
:103060007FB50400FEF746FF802822D10121200011
:10307000FFF751F900281AD12000FFF7E0FDFF23E8
:10308000250002260293FB3B0093FC350196A0220B
:103090004021A86A0333FDF708FF002807D131005B
:1030A000A86AFDF76CFF07212000FFF734F904B090
:1030B00070BD14204042FAE770B505000C00002CEA
:1030C00000D170BD2B00FC330021986AFDF764FE2F
:1030D000013CF4E7F0B5040085B015000391FEF75C
:1030E00009FF23680290012120009B6D9847019001
:1030F000002D04D0A8422FD9431B01951D002700A5
:103100000523FC371A001221B86AFDF76BFE202850
:1031100024D0029B0026802B25D13A23FF33E35C89
:10312000B86AB34231D100262000FC300021039B55
:10313000019A806AFDF70EFE002D03D029002000C1
:10314000FFF7BAFFA22300225B002000E254FFF742
:1031500076FD300005B0F0BD0025D0E70726029BC4
:103160007642802BE0D0029B002BDDD1013302227E
:103170003021B86AFDF736FEFD2302381842D3D15C
:103180000299B86AFDF708FECEE706231C211A0053
:10319000FDF728FE0028C6D118267642C4E719207C
:1031A0004042704719204042704719204042704702
:1031B00010B503680021DB68984710BD1920404214
:1031C000704719204042704719204042704719202B
:1031D00040427047192040427047192040427047D2
:1031E000192084B0404204B07047002070470000AE
:1031F000004870470000C8C1002070470020704799
:10320000704770471920404270477047034B416038
:1032100003600023826083817047C04634FB00084E
:1032200070B5040090204000225C0D00002A0FD1F0
:103230002300FC3359694900294359611D6A9B6980
:103240002940994203D101232354A281A27370BD66
:103250000126637B217BE318DA7B8E401000B043AC
:10326000002D01D03243D0B20131C9B2D8732173DD
:103270000829ECD1FDF765FE637BE2180133D073BA
:10328000637300232373E2E70B4A0C4B91698900B7
:10329000C958C165D16952698900C958920001664F
:1032A000D3580122436601235B428366044BC36605
:1032B000030070331A8070479C020108DC02010889
:1032C00000093D00030009210022513310B5197790
:1032D0003431597701001A70DA769A770123703108
:1032E0000B704A70014900F053F810BD00093D0011
:1032F00037B50500C36E04000091019270358B4212
:1033000004D16B462A889B889A420DD02000062261
:1033100069466C3008F0FBFC2200713220002B78EB
:103320001278E16E00F034F837BD704710B500F048
:103330002DF910BD13B56B46DC1DD97153425A41AE
:10334000524201232100224000F052F9207816BD9C
:1033500010B50248FFF798FF10BDC046400300209B
:10336000084A030010B51068002B04D0064A9342A7
:1033700002D104F00FFA10BD044A9342FBD104F0CD
:10338000F9F9F8E77C0000200030014000380040E7
:10339000F0B587B004000D0016000593002800D199
:1033A000C5E06E4B006E1900039306F0CDFF6C492B
:1033B0000190E06D06F0C8FF6A490700606E06F0F4
:1033C000C3FF69490290A06E06F0BEFF019B049006
:1033D000002B00D1ABE0002F00D1A8E0029B002B16
:1033E00000D1A4E03900019806F0CCFF0499070051
:1033F000029806F0C7FF01000190380006F0C2FFF6
:10340000A065002F00D192E0019B002B00D18EE03F
:10341000002800D18BE0A36E206001335A42534153
:10342000524A5B4213408022D2029B18A36182233E
:103430005B006360FFF794FF00234208AA4218D99B
:1034400082080833AA4214D9C2080833AA4210D904
:1034500002090833AA420CD942090833AA4208D902
:1034600082090833AA4204D9C0090833A84200D906
:103470000833E3613200331E07D00023022E04D04C
:10348000731E5A1E93415A00012363610723E362AE
:10349000059B22615A4253410025DB0123620399B7
:1034A000206EA560A562E560656206F033FF2C49D9
:1034B000E06D06F02FFF2B49606E06F02BFF2169AF
:1034C0004B425941636E01311A06120F052A02D888
:1034D0002748920015580F20264A03409B009B580E
:1034E00003225B435A43D243022922D0E9680A40AF
:1034F0001343EB601C49A06E06F00CFF23681E4AC4
:1035000093421AD180221D4B5201596B11435963CA
:10351000596A0A435A625A6A19490A405A62200093
:1035200004F0E4FE4023226811680B43136007B0E7
:10353000F0BDE9685B000A40DAE7124A9342EED137
:1035400080220E4BD201996B11439963996A0A4309
:103550009A629A6A0C490A409A62E0E7D4FD000830
:103560008CFD000850FD000814FD00080002FCFF5F
:1035700040000020B0FC0008003001400010024074
:10358000FFEFFFFF00380040FFBFFFFF10B5041E34
:1035900012D004F00EFF2368104A93420DD180220E
:1035A0000F4B5201596A0A435A625A6A0D490A403E
:1035B0005A625A6B0A405A6310BD0B4A9342FBD1C0
:1035C0008022074BD201996A0A439A629A6A074994
:1035D0000A409A629A6B0A409A63EDE70030014014
:1035E00000100240FFEFFFFF00380040FFBFFFFF69
:1035F000F7B50E0017000224002B29D005680093B0
:1036000002F018F90190AB682342FCD0FF23002E92
:1036100001D0337801362B730123AA681A42FCD0FB
:103620002B7B002F01D03B70013702F003F9009B88
:10363000013B0093019BC01AFA239B00984209D2D8
:10364000009B002BDFD11C008023AA681A42FCD10A
:103650002000FEBD0124F7E782B06B460022DA713C
:10366000C02207335201904204D2044A80180278E3
:10367000D2B21A701878C0B202B0704700000808C1
:10368000C02370B55B0104000D0098420AD202F01D
:103690008FFA002806D1044B2A00E11802F0AAFA9A
:1036A00002F09EFA70BDC0460000080870B50A4ED0
:1036B00001253368094C190029402B4209D1E31D2B
:1036C000D9778023802220001B02617000F079F9F5
:1036D0003560200070BDC046C0030020C403002038
:1036E00010B5040000F02EF90123237010BD000076
:1036F000F0B58DB00B1E0591049200D1D9E0FA21EE
:1037000018008900FCF7F0FC6F4906000598FCF7EB
:10371000EBFCE1216D4DC7B24543751B2800090143
:10372000FCF7E2FCE123C4B21B01C0B258433C21C8
:10373000281AFCF7D9FCFB01F61A2301F61A3C23E0
:10374000C5B26B43F61A172304AA9B1801930BAB5F
:10375000009316239B18152204A95218049809A94E
:1037600000F01FFA1B2304AA9B1800931A239B182E
:10377000192204A9521804980AA900F070FAFA2133
:1037800005988900FCF736FD0B9BF6B2CB189C46DA
:10379000FA239B009C4503D34D4B01369C44F6B263
:1037A0003B2E02D900260135EDB204AB9B7DF31808
:1037B000DBB23B2B03D93C3B0135DBB2EDB23B2DF9
:1037C00003D93C3D0134EDB2E4B204AA527DAA18FB
:1037D000D2B23B2A03D93C3A0134D2B2E4B2172C1C
:1037E00003D9183C0137E4B2FFB21726049804A9A4
:1037F000097D0078611804ACC9B2361900285CD183
:10380000172904D918390137C9B2FFB20BE00B29C7
:1038100009D93478002C4ED00137FFB230700C2912
:1038200001D00C39C9B21A2004AC001900780590F7
:10383000022845D1193000190578FA20C0002D184A
:1038400003242800204006901C20254213D1214C3F
:103850006C432000059D0794E8411F4D04001D2086
:10386000AC4208D8079C1938C441069D1B48A042A9
:103870006D4128001C30192404AD641924783C19CA
:10388000E4B2844201D9241AE4B280256D00029585
:103890003078019060460090049800F049F92A00C1
:1038A0002100049800F05EF92A000F21049800F02E
:1038B0009DF80DB0F0BD0120B0E71729B3D9A1E7FD
:1038C0000748059C205CD6E7005C26058051010076
:1038D00018FCFFFF295C8FC2285C8F020AD7A30067
:1038E000D3FB0008F8B50F0015000600FFF7DEFE59
:1038F000040000F063F80100012D02D9032800D173
:103900000021200000F076FA390030002200FFF795
:10391000EFFEF8BD10B5002902D1037A002B02D0CA
:103920000322FFF7DFFFFFF7C1FE00F0EDFB00F021
:1039300039F810BD0022024B1A605A601A727047A3
:10394000B4030020802310B50C4C5B05A26B13431D
:10395000A36303F07BFB8023E2681B021343E36055
:10396000074B5A68920703D5082219680A431A6060
:10397000042219680A431A6010BDC04600100240B4
:103980000070004010B572B60423054A11680B435D
:10399000136003F07FFB03F073FB03F061FB10BDCA
:1039A0000070004010B572B60423034A11680B433F
:1039B0001360FFF7E7FF10BD007000400730C07FC5
:1039C000704770B50400150008001E00002903D0E0
:1039D000022901D0032903D10734E07700F0BAFAB5
:1039E0003100280000F004FB70BD0000802330B5DA
:1039F0009B00040085B010009A4220D1A51DE977F4
:103A00001F2914D930293BD03F2916D1E87F237FC5
:103A1000E27EA17E0390601DC07F451EA8410290FA
:103A2000206A0190607F00908020800035E00029AE
:103A300023D0234BCB40DB07E8D405B030BD617603
:103A40001F2911D930292BD03F29F6D1607EA37CC4
:103A5000627C217C0390207E451EA8410290606913
:103A60000190E07C009027E0002904D0144BCB406B
:103A7000DB07E2D5EAE78020400000F095FCDCE7B8
:103A80001F230393631DDB7F00215A1E9341029382
:103A9000236A0A0001930B00009100F0F1FBCCE7D0
:103AA0001F230393237E00215A1E934102936369CF
:103AB0000A0001930B00009180204000EDE7C04612
:103AC0008A8000804378012B03D0FA239B0099421F
:103AD00004D280239B009A4201D101627047416168
:103AE000FCE73B2904D880239B009A4201D141770F
:103AF0007047C174FCE73B2904D880239B009A429D
:103B000001D1017770478174FCE730B5172909D8D6
:103B100080250478AD00AB4205D1C176002C01D1DF
:103B20000530C27730BD4174002CFBD10276F9E735
:103B3000F8B5040016001D0006AB80CB1A78089B70
:103B4000FFF7E3FF31002000089AFFF7D4FF2900B8
:103B50002000089AFFF7C5FF39002000089AFFF7F8
:103B6000B1FFF8BD4B1E1E2B05D880239B009A4247
:103B700000D181760174704730B50F25002385B0E0
:103B80006D442B700300421D0400011D08330330F7
:103B9000009500F0E9FA2B785A1E9341A37005B006
:103BA00030BDF8B50D00040017001E00FFF7E4FF5C
:103BB000002D01D0E3782B70002F01D023793B70CA
:103BC000002E01D063793370069B002B02D0A368CE
:103BD000069A1360079B002B02D0A378079A1370F4
:103BE000F8BD0000F0B585B01E000AAB80CB040024
:103BF0001B78150003930291FFF7BEFFFA239B0089
:103C00009F4200D2A7603B2E00D866713B2D00D8A2
:103C10002571029B172B00D8E3702378002B01D16C
:103C2000039BA370A37862795D1EAB412179E07894
:103C30000093A36800F070FA0122024B1A7005B0DD
:103C4000F0BDC046EC03002003000200010010B5E7
:103C50000F330E320D310C3000F0F0FA10BDF8B514
:103C60000E00040015001F00FFF7EEFF002E01D02C
:103C7000E37B3370002D01D0A37B2B70002F01D08C
:103C8000637B3B70069B002B02D0237B069A13704C
:103C9000F8BD0000F0B51626002387B06E44172744
:103CA000337080236F4404000D009B00039702963D
:103CB000994220D103000200010020330193033B0D
:103CC0001B3200932800013B1A3100F017FD3378B6
:103CD0005A1E9341621DD3773B781F2B06D8022BC7
:103CE00023D805D00634E37707B0F0BD3F2BF9D0D9
:103CF00000230634F7E7030002000100802014339C
:103D00000193013B00931132013B1031400000F060
:103D1000F5FC33785A1E934123763B781F2B0DD840
:103D2000022B02D80CD06376DEE7084A8021DA4005
:103D30008900D20706D58D42F5D1D3E73F2BF2D0CB
:103D40000023F0E78D42D3D0FAE7C0468880008098
:103D500010B5040002700B00511E8A416178D0B288
:103D6000022903D001394A425141C9B2E21DD27F32
:103D7000022A02D0032A00D0002200F041FB0122D7
:103D8000184B424020001A70FFF7F6FE2000FFF7A4
:103D90005BFF802120004900FFF77CFF237C013B73
:103DA0001E2B09D9A37B2374E3786374A3886382F1
:103DB000A3686361A3782376802120008900FFF740
:103DC00069FFA37E013B1E2B0AD9A37BA278A376B1
:103DD000E378E376A388A383A3682362631DDA777D
:103DE00010BDC046EC03002010B50A000021FFF70B
:103DF000AFFF10BD802313B5040080221B02FFF724
:103E0000E0FD01212000FFF7EFFF064B1A78002AA2
:103E100006D113000C21200001920092FFF7E2FE70
:103E200013BDC046EC0300208446F0B517008DB0EA
:103E3000624601930D0000232A4802A9139E159C97
:103E400004F0D8F902AB9B78129A137002AB5B783E
:103E5000019A137002AB1B783B70002D03D002ABAC
:103E60000133DB7F2B70149B002B05D002ABDB787A
:103E7000012B2BD1149A1370002E10D01A4A039BD9
:103E80001178FA2201399200012921D85B425B04A2
:103E9000580C5043154B1968FCF726F93060002C7C
:103EA00012D00122079BD9098A43190416D5227022
:103EB0001A0203D4042221780A432270002B03DB68
:103EC00008232278134323700DB0F0BD0023D1E7FF
:103ED00007490968C81A50430131DDE702210A4346
:103EE000E5E7C04610000020ED030020F0030020AD
:103EF00000000020F8B5134E134B34681D682700EE
:103F000028003900FCF7F0F84743013CBD4201D0DE
:103F1000002CF4D18023013821001B02984201D2E9
:103F20007F2C05D9E8090138984200D3FEE77F21AC
:103F3000064B3160186001312800FCF7D5F8044CBD
:103F40002060F8BD040000200C00002000000020CC
:103F5000F0030020022804D0032807D0002807D04F
:103F6000FEE780231B02034A13607047024BFAE707
:103F7000024BF8E70C00002040420F008890000040
:103F800010B588B00400FFF7E5FF022C0DD120002A
:103F900005F074FF20230093802368465B020193A1
:103FA00003F028FC002821D0FEE7032C0DD12000CF
:103FB00005F064FF202300938C2368469B03019344
:103FC00003F018FC002811D0FEE7002C0DD12000D2
:103FD00005F054FF20230093802368469B02019341
:103FE00003F008FC002801D0FEE7FEE708B010BD92
:103FF00010B50D4B0D4C7F2811D880221202914232
:104000000DD21860216000232068984203DDFCF780
:1040100059FA1F231B1A064A0133137010BD802260
:104020001A60FFF767FFEEE70400002000000020A1
:1040300008000020F8B58023184C060022680D0007
:10404000174F1B029A4202D23B687F2B0CD9154BAB
:104050001A68D368DB061BD513695B025B0E3B60F5
:1040600013695B045B0C2360002E05D0002D03D088
:104070003B68336023682B6000232068984203DD8F
:10408000FCF720FA1F231B1A074A01331370F8BDEF
:1040900080233B60FFF72EFFE6E7C04600000020CC
:1040A00004000020100000200800002010B50400CB
:1040B0000D4803F07DFE0D4A0D49136D02200B40A3
:1040C000136501F0F3FB022001F0F0FB002C0AD095
:1040D0000023084A1360084A1360084A1360084A1C
:1040E0001360084A136010BD100000200010024049
:1040F000FFFFFBFF0404002000040020FC0300205D
:10410000F8030020F4030020024B1B68D868C006A7
:10411000C00F70471000002010B50C00104986B089
:10412000097808AB1B78012904D0411E0B2904D95A
:1041300006B010BD1728FBD800233B2CF8D83B2A2B
:10414000F6D801A9013B8A705A42534100220870F7
:1041500004484C70CB70CA600A6103F06FFEE7E759
:10416000EE03002010000020F0B589B003AD06007A
:10417000170001911422002128001C0007F038FDCF
:10418000002E26D0019B002B23D0002F21D000220F
:104190002900184803F0E4FF2B78019A33706B78FC
:1041A0001370AB783B700E9B002B04D0EB78012B87
:1041B00011D10E9A1370002C0BD00F4B1A78049B60
:1041C000012A0AD10D4858430D4B1968FBF78CFFA3
:1041D000206009B0F0BD0023EBE7FA200949800018
:1041E0000968022A02D199434843EDE7CB1A5843A4
:1041F0000131EBE710000020ED03002018FCFFFF69
:10420000F00300200000002013B50C00632811D833
:1042100001390B290ED8511E1E290BD8591E06290B
:1042200008D801A9C8708A70034800224C700B702E
:1042300003F06AFE13BDC04610000020F0B5150063
:10424000002285B007000E00019303AC0392904258
:1042500012D0914210D095420ED093420CD0210042
:10426000064803F0A5FFE378019A3B70637833704A
:10427000A3782B702378137005B0F0BD10000020D8
:10428000F0B5434F8DB03F780191BC46190012AB99
:104290001E78634614AC257815AC24783D4F0B90FE
:1042A000012B12D0501E0B2812D9FA213A4A2406AB
:1042B00007923A4A08941468139B601C584389007B
:1042C000FBF712FF241A039435E0172AEDD80025D6
:1042D000019B581E1E28E8D83B29E6D83B2EE4D87F
:1042E00002AB5970FA219E701A70139B89008B42A1
:1042F00033D22B4A127812060892284A1668701C8C
:104300005843FBF7F1FE274B1B78013B012B21D8CB
:10431000C0430390013D6B425D4102ABDD70002361
:10432000019902AA013205930693D17709939C4221
:1043300016D1194B079302A90022380003F036FE6C
:1043400002210022080001F07BFA022001F0A2FA0B
:104350000DB0F0BD361A0396DCE700230893D9E7C9
:104360000123A343DB01A2070ED50793630704D4FF
:104370008023079A1B04134307932407DBD480236D
:10438000079A1B061343D5E7802212021343ECE77A
:10439000EE030020100000208080808000000020BC
:1043A00008000020ED03002010B58024010009481A
:1043B000FF220368A400A14207D1DC681440064A2A
:1043C0002243DA6003F0C6FB10BDDC681440034AE8
:1043D000F6E7C046100000207FFDFFFF7FFEFFFFD5
:1043E0008021064B89001A680123884203D1906816
:1043F000400B184070479068000BFAE7100000204F
:10440000F0B51C00002393B0160009AA1370152202
:1044100004AD521913700AAA13701922521913709D
:104420001A22521913701B22521913700BAA1370FF
:104430001D22521913701E22521913701F22521975
:1044400013700CAA137021225219137022225219D0
:1044500013702322521913700DAA137025225219BA
:104460001370262252191370272252191370984A7A
:10447000AB751070974AEB751170974A97490E9378
:1044800011604142484180010F93109350601361C5
:10449000934D9361D361536102F0D8FD002C0CD091
:1044A00002F0D4FD02F0D2FD80232A6D1B031343DA
:1044B0002B652B6D8B4A13402B65802380202A6D42
:1044C000DB0213432B654000FFF78AFF824F069003
:1044D0003B689A68DB680592834A0792DB0601D540
:1044E000002C17D03000FFF74BFD07997F48FFF7EE
:1044F000A1FD380003F00EFC7D4B0022380011A90D
:104500001193012403F000FD734803F0D3FE200053
:1045100013B0F0BDC02280212B6D920213404902DE
:104520008B4200D1C8E0802189028B4200D1C5E0D6
:10453000934203D103239E4200D1C1E0192304AA70
:104540009B181A2204A952181B2104A809180BA8A9
:10455000FFF774FE162204A95218172109AB04A80C
:10456000091800930AA80EABFFF7FEFD614B624AE3
:1045700018681168FFF73CFD069B002B16D01D2321
:1045800004AA9B18039315239B1802930FAB019366
:1045900021239B181F2204A952181E2104A80918C0
:1045A0008020009340000CABFFF73EFC8023059D6C
:1045B000059A9B011D401A4215D0232304AA9B187B
:1045C000039322239B18029310AB019327239B187C
:1045D0000093262380209B18252204A952188000CE
:1045E0000DA9FFF721FC0020FFF760FD3000FFF769
:1045F000C7FC3D493D48FFF71DFD374803F08AFBE6
:1046000004AB9A7DD97D0AAB187809AB1B7800936F
:104610000E9BFFF781FD192304AA9B181A2204A9F7
:1046200052181B2104A809180BA81B7812780978C6
:104630000078FFF7E9FD069B002B1CD01F2204A980
:1046400052181E2104A809181D2004AE80190078F4
:104650000CAB1B781278097803901520801900782C
:1046600002900F98019021208019007800908020FE
:104670004000FFF705FE002D00D145E7262323204B
:1046800004AA9B18252204AD4019007804A95218E9
:104690000DA91B7812780978039022204019007820
:1046A00002901098019027204019007800908020F7
:1046B0008000FFF7E5FD27E702233CE723003AE708
:1046C0003000FFF75DFC09480799FFF7B3FC1BE7D3
:1046D000EE030020ED030020100000200028004021
:1046E00000100240FFFFF7FF1C0000201800002010
:1046F00006010101040000200000002030B585B053
:10470000089C002A0CD0002B0AD0002C08D00B9D4E
:10471000009403950A9D0295099D0195FFF784FB7E
:1047200005B030BD044B10B51B68002B02D0034A06
:104730001068984710BDC046040400200004002003
:10474000044B10B51B68002B02D0034A1068984731
:1047500010BDC046FC030020F803002010B5044C37
:10476000200003F055FA200003F088FD10BDC0467C
:1047700010000020034B10B51B68002B01D0002057
:10478000984710BDF403002000207047038BC08AB7
:10479000181A7047C28A018B0300914204D901693B
:1047A000885C0132DA82704701204042FBE7C38A0D
:1047B000028B9A4202D90269D05C704701204042C4
:1047C000FBE7836D10B51800D4308268002A03D04F
:1047D00000225A84C368984710BD836810B504004E
:1047E000002B02D0032201009847200010BD70B5B5
:1047F0000400283000F0F8FCE069002803D006F03F
:10480000B9FF0023E361002520692584A84202D076
:1048100006F0B0FF2561A58270BD000010B5040050
:10482000064B0360FFF7E3FF2000D430FFF7D5FF0E
:104830002000C430FFF7D1FF200010BDE8FB0008C6
:104840000122431DDA77914000238176438470472B
:1048500070B5838A05000C008B420AD2202900D251
:1048600020242100286907F079F8002802D0286167
:10487000AC8270BDFEE7F7B5846D05002600C43636
:10488000B368876E002B1AD0E28A238B9A4216D324
:1048900039002000FFF7DCFF29003A00206974315D
:1048A00007F035FA0023E382B36827830197002BD2
:1048B00001D10AF0B9FF3000F36801A99847F7BDAC
:1048C000802370B5DB0005000C00994211D8038CE1
:1048D00099420BD90E00202900D220263100E86928
:1048E00007F03CF8002803D0E8612E84200070BD5A
:1048F000FEE70024FAE713B56B46D971431DDB7F51
:104900000400002B0FD0418C0131FFF7D9FF0028A4
:1049100008D06B460120D979E269638CD154638C4D
:104920000133638416BD6B460122D91D283000F087
:1049300066FC43425841F5E770B5431DDB7F040038
:104940000E001500002B13D0418C8918FFF7B8FF1B
:10495000002802D10025280070BD638CE0692A0080
:10496000C018310007F0D3F9638C5B196384F2E758
:1049700092B2283000F043FC0028EBD1EBE70300B3
:10498000C06910B5002803D000211A8C07F030F957
:1049900010BD70B5AA23040000291BD1A365230014
:1049A000BE331B780425012B12D12000638CA17E1D
:1049B000E269283000F0A2FC031CA84200D92B1C9D
:1049C00020005DB2FFF7DBFF002363840534E3774B
:1049D000E8B270BD1B02E1E7F0B585B002930AAB07
:1049E0001F780BAB1B78040003930300BE331B78C6
:1049F0000E0015000193012B3BD111007600FFF74B
:104A000027FFF6B2002F1BD0019A631DDA7700232F
:104A1000A67663843B1C032F00D90323013BDFB23E
:104A2000FF0002992368F9401B682000C9B2083FC3
:104A300098473B000833F4D100212000FFF7A9FF7D
:104A4000039B002B12D1AA332000A36531002B0059
:104A50002269283000F0EDFB4342584100234042D8
:104A60000540E3822583280005B0F0BDAA231B0280
:104A7000EAE70025F7E707B5019300230093FFF766
:104A8000ABFF0EBD10B50123FFF7F5FF10BD10B54C
:104A90000121FFF77EFF10BD002110B50400C18287
:104AA00001830069884202D0A28A07F0A1F800239E
:104AB00020006384FFF763FF10BD0000F0B5040021
:104AC0000F25083489B00600E06F06F083FC002152
:104AD00006F0C4FCE36F1A092A40052A00D972E0E7
:104AE0003C49920051583C4C2B409B001A590B6991
:104AF00013409A425DD08836306806F06BFC012185
:104B000006F0ACFC336801931B092B400293052B84
:104B10005CD8019B2B409B001B5905350393092052
:104B2000FA21029A2B4B9200D758039B2B4CBB6265
:104B3000A36889000493666801367043FBF7D4FAD2
:104B40000022049B0593A36804930599049B994252
:104B500031D20599049BF31A5B18D218049B059374
:104B60009042F0D80920FA21039B8900BB61A36819
:104B70000693666801367043FBF7B6FA0022069B7F
:104B80000793A36806930799069B994217D2079942
:104B9000069BF31A5B18D218069B07939042F0D835
:104BA000013D002DBBD1019806F014FC290006F050
:104BB00055FC09B0F0BD059B04995B1ACDE7079B36
:104BC00006995B1AE7E700231B69FFDE00239B625F
:104BD000FBE7C04640000020B0FC000810E000E009
:104BE000F7B5002607000193031D8676066146612E
:104BF0000683C6610662D437D867BB6804000D001F
:104C00000092B34205D00322390038009847BE60B5
:104C1000FE600022631DDA77A61D6B00013DF3776D
:104C200027006B425D412300009ABF33BE373D70C1
:104C30001A70019A20005A702834FFF73FFFF37F63
:104C400001222000074900F017FA3B78002B07D11A
:104C50002000054900F0AAFB2000044900F09CFB5D
:104C6000F7BDC046A0860100C3470008774800088A
:104C700010B50A0000230121FFF7B2FF10BD10B5E7
:104C80000C220021040006F0B3FF00232000E360A3
:104C900010BD10B50C220021040006F0A9FF00236E
:104CA0002000E36010BD0000FA2370B50025040069
:104CB0009B0083600C4B45600360C430FFF7DFFF4F
:104CC0002000D430FFF7E5FF200029009C22283087
:104CD00006F08EFF2200054B0832D96D2000D16707
:104CE0009B6D8032136070BDE8FB0008DC02010898
:104CF00010B50248FFF7D8FF10BDC04608040020D9
:104D000010B50248FFF78AFD10BDC0460804002018
:104D1000214A030010B5904214D1082002F03AFE57
:104D2000002836D1C0221D4B9201DB6C134080223B
:104D3000520193422BD08022920193422AD0002B21
:104D400008D0FEE7164A904207D1102002F022FE5A
:104D500000281ED102F00EFD1BE0124A00209342F3
:104D600017D10130FF3002F015FE002811D1C0220A
:104D70000A4B9202DB6C134080225202934206D00F
:104D800080229202934205D0002BE3D0FEE7064B2F
:104D9000186810BD0548FCE70054004000100240B0
:104DA00000580040007800407C0000200024F400FF
:104DB000F0B5A7B01491149A9A49D2000300505844
:104DC000984204D188184068002800D027E1964D09
:104DD00058088B5040191900FBF786F91C23149AC8
:104DE000924C5A4311590600480840191592FBF796
:104DF0007BF9159B0390E418E28A238B0D92A17E28
:104E00000D98228A16931218CB1C734316981C9285
:104E1000A28971431218323AD21A0492D2430498EA
:104E2000D21710400490E2890D98F318121A053A2F
:104E3000FF3AD31A0593DB43059ADB171A40280083
:104E40000E9161680592FBF74FF9A1681D9028004B
:104E5000FBF74AF90E9A730032339B181A93734288
:104E60000C931A9B0025F718039B1E9017930120A3
:104E7000102311951893404216992A078C462492C4
:104E80000D9AEBB2624419921999039A1B93511A25
:104E90007A008A1A209200221A9B0B92FB1A139313
:104EA0001C9A13998A4200D9A2E00B9A24990A43CA
:104EB000239200220A920992049A09998A4200D9FF
:104EC00088E0059A8A4200D284E0189A1B998A42A7
:104ED00000D17FE0119A01321192072A00D99EE099
:104EE000628A0A991F92239A0A4322920E9A15996E
:104EF000BA1A0292199AD2191292209A109200228A
:104F000008924A4A521825920E99029A52181F99ED
:104F100091424CD2029A323A9208964247D2229952
:104F2000089A06970A432192039A1299BA1A5218BC
:104F3000109901928C4600210791019A03998918D2
:104F40001E9A8A421FD81D9A8A421CD3259A918A9A
:104F5000069A914217D8964215D2019A0F92002ACA
:104F600001DA62460F920F9A17998A420BD2219A60
:104F700007982C491043149AD20089181B9A48604C
:104F800018920F9A1792019A0799D218013101923B
:104F90000C9AFF3107916146944661448C4680210A
:104FA000069A4902D2180692079A8A42C5D10C99EC
:104FB000089A8C4601320892029A0899D2180292F5
:104FC000109A62441092129AD218129280225200C1
:104FD000914299D1099A0A99D218099280225202D3
:104FE0008A180A9280220A995203914200D063E7FC
:104FF000802149038C46139AD21813920B9A62446B
:105000000B9280220B995204914200D048E70C9BEE
:1050100001359B1B0C93BF19102D00D02CE727B036
:10502000F0BDC046F804002000CA9A3B0CFC000802
:105030000E4A030010B5914212D90D4A914206D88A
:105040000068FFF765FE0121FFF7B2FE10BD094AB7
:1050500000209142FAD81868FFF75AFE0221F3E7C0
:105060000068FFF755FE0021EEE7C046A08601006C
:10507000801A060040420F00F0B585B0041E019171
:105080000292039300D199E04D4EC06D310005F0BE
:105090005BF94C4F05003900206E05F055F9010011
:1050A000002D00D18AE0002800D187E0280005F01B
:1050B00069F92060002800D180E0434B251D98420B
:1050C0004AD18022414B9203996B11439963996AAB
:1050D0000A439A629A6A3E490A409A62230017225A
:1050E00064331A703B4B1D603900206E05F012F9D5
:1050F0003100E06D05F00EF923680199636020002E
:10510000FFF796FF039B0022E360029BA0602361F0
:105110002300A261626197331B782600591E8B41E0
:10512000DB042362230098331B780020591E8B4137
:105130005B046362230045331A70643602213056E3
:1051400000F07EFB0020305600F0A4FB280000F0A9
:105150001FFF00282ED0FEE71F4B984213D180225C
:105160001A4BD203996B11439963996A0A439A6265
:105170009A6A1A490A409A622300182264331A7004
:10518000144B5D60B0E7164B9842ADD180220F4BB7
:10519000D205996B11439963996A0A439A629A6A94
:1051A00010490A409A622300152264331A70094B91
:1051B0009D6099E70223A0669534237005B0F0BD89
:1051C00030020108D00101080054004000100240E4
:1051D000FFFFDFFFEC04002000580040FFFFBFFF8F
:1051E00000780040FFFFFFBF10B5041D6430007859
:1051F00040B200F05BFB200000F021FF10BD70B555
:10520000060014000120202A0AD835000022943517
:1052100093B29C4205D800202A781219D2B22A7083
:1052200070BD2B78885C9B18F318743318700132AA
:10523000EEE7F0B5060087B003910492059300F005
:10524000F9FA0024376B0290351D059B2800049A5B
:105250000399009700F0FCFF0300022807D100F03B
:10526000E9FA029BC41A642CEED9062023E004203C
:10527000002B20D100F0DEFA0600280001F0DFFE4E
:10528000202809D0632C07D800F0D4FA841B28000A
:1052900001F0D9FE0028F0D0280001F0D4FE030070
:1052A0000520632C07D89A0605D402385A0702D481
:1052B0005A1E9341980007B0F0BD10B56423040056
:1052C000043000F0D7FE02280BD0032802D00028BB
:1052D0000DD110BD453423780220202BF9D00330A6
:1052E000F7E745342378202BF3D00620F1E7453447
:1052F00023780220202BECD00018EAE7F0B587B025
:1053000005001F000291059200F094FA0390002F0F
:1053100006D1012228000299FFF7CFFF07B0F0BDA8
:1053200000242B6B0493049B2E1D009330003B0044
:10533000059A029900F036FF0300022807D100F019
:1053400079FA039BC41A642CEDD90620E6E7042001
:10535000002BE3D100F06EFA0500300001F06FFE83
:10536000202809D0632C07D800F064FA441B3000D1
:1053700001F069FE0028F0D0300001F064FE030067
:105380000520632CCAD89A06C8D402385A07C5D457
:105390005A1E93419800C1E710B5002805D0002996
:1053A00003D0C166043001F083F810BD10B50028A9
:1053B00005D0002903D00167043001F079F810BD51
:1053C000F8B506009136337805000F00041F012B55
:1053D00009D1A36E002B06D0E36E2000984702236C
:1053E00033700023A3660023012F12D133702E00E7
:1053F000226F90369A4202D02000337090472900E5
:10540000802332782800D2B270319B0400F076FFFE
:10541000F8BD0122A3663270A36E28007433E11830
:1054200080235B0400F0D8FFF2E770B506009136E8
:1054300033780400051F012B05D1AB6E002B02D081
:105440002800EB6E98470223337000232000AB66E0
:1054500001F02EF870BD426E031F10B51F2A02DC4A
:105460009A6E01329A66020091321178CAB201290D
:1054700006D1996E8023703141185B0400F0ACFFB7
:1054800010BD0023903003707047030010B59233B5
:105490001B78002B01D101F00BF810BD044B10B5A7
:1054A0001C68200001F018F8200001F0D9FB10BDA5
:1054B000EC040020044B10B55C68200001F00CF8EF
:1054C000200001F0CDFB10BDEC040020044B10B512
:1054D0009C68200001F000F8200001F0C1FB10BD25
:1054E000EC04002010B50400081C0AF0C9F8044AB6
:1054F000044B08F0A7FD0AF00BF9A06110BDC046EF
:105500009A9999999999B93F70B504000E001500C0
:10551000017B8068FFF794F9A068310003681B687D
:105520009847A068290A03681B689847A068E9B2F1
:1055300003681B689847A068FFF7A9FA70BD80222E
:1055400010B500211202FFF7DFFF43425841C0B2FD
:1055500010BD70B504000D00017B8068FFF770F985
:10556000A068290003681B6898470021A068FFF71E
:1055700010FA0222217BA068FFF784FAA068036872
:105580001B6998470300051E09D0A06803685B6982
:105590009847C5B2A06803685B699847C3B22D02FB
:1055A000581980B270BD000070B50C000170002168
:1055B0000500FFF7CEFF0200054B28001A40E3006C
:1055C000E401234300211A43FFF79EFF70BDC0464C
:1055D00007F8000010B5417000210400FFF7B9FF83
:1055E000072302009A43637892B2002120001A43F5
:1055F000FFF78AFF10BD000010B5418000210400B4
:10560000FFF7A7FF0200234B00211A406388200008
:105610001A43FFF779FF80226388520193422ED00C
:105620000BD8002B16D08022120193421DD00521E9
:105630002000E289FFF768FF10BDC02149018B42BD
:10564000F5D1154BE281E3618023DB052362FA2368
:10565000DB0108E0A023DB01E381104BE361104B89
:105660002362FA231B01E384E1E7A0239B01E3818A
:105670000C4BE3610C4B2362FA235B01F3E78023BD
:105680009B01E381094BE361FE239B052362FA231F
:105690009B01E8E7FFE700000000204100004842CE
:1056A000CDCCCC3E0000C841CDCC4C3F0000A04149
:1056B00010B5818000210400FFF74BFF0200044B6E
:1056C00000211A40A38820001A43FFF71DFF10BDD8
:1056D000FFDF000070B50400FFF731FF051E18D092
:1056E00003212000FFF760FF07212000FFF772FF72
:1056F000C02120004901FFF77FFF802120008901A0
:10570000FFF7D6FFFE239B05A361002363610023FF
:10571000A384280070BD0000F8B504210400FFF741
:1057200018FF05B20020A31DDB7F834218D06069FB
:1057300009F0A6FF0022114B09F0CAF80600E08923
:105740000F0009F047FF02000B003000390009F09C
:10575000BFF800220A4B09F0BBF809F0FFFE00B2C7
:10576000281A08F083F8051CA169E06907F08EFD8E
:10577000011C281C07F0A4FBF8BDC04600005940DE
:105780000000303F70B500210400FFF7E2FE002169
:1057900002002000FFF7B8FE022529002000FFF7D5
:1057A000D8FE2842F9D070BD7047000070B50500E2
:1057B000FA200D4B80001978FAF796FC0B4C01008B
:1057C0002068FAF791FC00F081F804000120002C19
:1057D00009D1032D07D802382200290000F030F843
:1057E0002000034B1D6070BD340000207C000020B1
:1057F000380000200223084A10B5116800200B432E
:105800001360FFF7D3FF041E03D1FFF7CDFF200085
:1058100010BD0124FBE7C04600200240034A044BB0
:1058200011681B785B1813607047C0461005002094
:1058300034000020014B18687047C0461005002056
:1058400010B5FF2403220B0021000240D20091403A
:105850009B012340C943934000280ADBC0240B4A24
:10586000800880008018A40002590A4013430351A5
:1058700010BD0F2210400838054A800880008018AB
:10588000C26911401943C161F2E7C04600E100E07E
:1058900000ED00E0002805DB1F2318401E3B83407D
:1058A000014A13607047C04600E100E0002809DBB0
:1058B0001F2318401E3B8340034AD367BFF34F8F1B
:1058C000BFF36F8F7047C04604E100E08022431EA3
:1058D0005204012093420DD2C021074A0748536069
:1058E000036A09061B021B0A0B43036200200723FD
:1058F000906013607047C04610E000E000ED00E0EB
:10590000002807DB1F23C02218401E3B83400249AA
:1059100052008B507047C04600E100E0704710B560
:10592000FFF7FCFF10BD704710B5041E01D1012028
:1059300010BD437FDAB2002B02D10277FFF7F3FFED
:10594000022363772379002B1CD118212368124A84
:105950005A619A688A439A6062792368002A19D149
:10596000013A60211A619A6800208A4361690A43FA
:1059700080219A609A688A43A1690A439A60012348
:105980006377D5E72000E268A16800F007F80028F7
:10599000E2D0CCE72269E4E7B71DC10430B50125A8
:1059A0000400280029420ED01F23013B21D3080008
:1059B000D8402842F9D0102A14D005D8002A08D09F
:1059C0000120082A12D030BD0120182AFBD1062B55
:1059D000F9D820684161182183688B4313438360A1
:1059E0000020F0E70120072BF3D9ECE70F2BF0D9CB
:1059F000E9E70120102AE6D0E5D8002AE3D1E8E75C
:105A000030B5841DE27F0300022A06D00422C2635F
:105A1000012000220533DA7730BD02680E201168BC
:105A20001C258143116001211068884310605A6C65
:105A3000186C2A400D00954045600020E177E8E7AA
:105A400070B5841DE37F022B03D00423C3630120C0
:105A500070BD0E2103681C251A688A431A60012252
:105A6000196891431960436C016C2B4015009D40EF
:105A70004D60E2770022431DDA77836B934200D0BA
:105A800098470020E4E70630C07FC0B270470000AE
:105A9000284A802190694900030030B50B40084234
:105AA00005D0022324484469234343610B0080202E
:105AB00091698000014205D001211F4C03436569B3
:105AC0002943616180209169C000014205D008210D
:105AD000194C034365692943616180209169000184
