:020000040800F2
:1000000000200020417D0008917D0008917D0008BE
:1000100000000000000000000000000000000000E0
:10002000000000000000000000000000917D0008BA
:100030000000000000000000917D00081B6A00081D
:10004000917D000800000000917D0008917D00086E
:10005000917D0008496B0008596B0008696B000826
:1000600000000000917D0008917D0008917D00084E
:10007000917D000889660008A16600080000000064
:10008000A96600080000000000000000C16600082A
:1000900000000000D9660008F1660008917D0008A4
:1000A000917D0008917D0008917D00081975000878
:0800B00031750008000000009A
:1000B80002B4714649084900095649008E4402BCF9
:1000C8007047C04602B4714649084900095C4900B6
:1000D8008E4402BC7047C046002243088B4274D34A
:1000E80003098B425FD3030A8B4244D3030B8B4231
:1000F80028D3030C8B420DD3FF22090212BA030C3A
:100108008B4202D31212090265D0030B8B4219D31A
:1001180000E0090AC30B8B4201D3CB03C01A52413A
:10012800830B8B4201D38B03C01A5241430B8B4282
:1001380001D34B03C01A5241030B8B4201D30B036B
:10014800C01A5241C30A8B4201D3CB02C01A524192
:10015800830A8B4201D38B02C01A5241430A8B4255
:1001680001D34B02C01A5241030A8B4201D30B023E
:10017800C01A5241CDD2C3098B4201D3CB01C01A58
:10018800524183098B4201D38B01C01A5241430962
:100198008B4201D34B01C01A524103098B4201D350
:1001A8000B01C01A5241C3088B4201D3CB00C01ABD
:1001B800524183088B4201D38B00C01A5241430835
:1001C8008B4201D34B00C01A5241411A00D201465A
:1001D800524110467047FFE701B5002000F0F0F8E3
:1001E80002BDC0460029F7D076E7704703460B43A7
:1001F8007FD4002243088B4274D303098B425FD318
:10020800030A8B4244D3030B8B4228D3030C8B4243
:100218000DD3FF22090212BA030C8B4202D3121229
:10022800090265D0030B8B4219D300E0090AC30BFE
:100238008B4201D3CB03C01A5241830B8B4201D3AB
:100248008B03C01A5241430B8B4201D34B03C01A94
:100258005241030B8B4201D30B03C01A5241C30A0C
:100268008B4201D3CB02C01A5241830A8B4201D37D
:100278008B02C01A5241430A8B4201D34B02C01A67
:100288005241030A8B4201D30B02C01A5241CDD20C
:10029800C3098B4201D3CB01C01A524183098B4257
:1002A80001D38B01C01A524143098B4201D34B0140
:1002B800C01A524103098B4201D30B01C01A5241A3
:1002C800C3088B4201D3CB00C01A524183088B422A
:1002D80001D38B00C01A524143088B4201D34B0013
:1002E800C01A5241411A00D2014652411046704785
:1002F8005DE0CA0F00D04942031000D3404253408A
:1003080000229C4603098B422DD3030A8B4212D349
:10031800FC22890112BA030A8B420CD3890192117B
:100328008B4208D3890192118B4204D389013AD0B8
:10033800921100E08909C3098B4201D3CB01C01A8D
:10034800524183098B4201D38B01C01A52414309A0
:100358008B4201D34B01C01A524103098B4201D38E
:100368000B01C01A5241C3088B4201D3CB00C01AFB
:10037800524183088B4201D38B00C01A5241D9D213
:1003880043088B4201D34B00C01A5241411A00D294
:100398000146634652415B10104601D34042002B90
:1003A80000D54942704763465B1000D3404201B50F
:1003B800002000F005F802BD0029F8D016E77047C4
:1003C8007047C0468446100062468C461900634652
:1003D80000E0C0461FB509F0C3FE002801D4002183
:1003E800C8421FBD10B509F003FE4042013010BDE0
:1003F80010B509F0B5FE002801DB002010BD012072
:1004080010BDC04610B509F0ABFE002801DD002084
:1004180010BD012010BDC04610B509F02DFE002802
:1004280001DC002010BD012010BDC04610B509F048
:1004380023FE002801DA002010BD012010BDC046AF
:10044800844608006146FFE71FB508F08BFB0028CB
:1004580001D40021C8421FBD10B508F00BFB404273
:10046800013010BD10B508F07DFB002801DB00202D
:1004780010BD012010BDC04610B508F073FB002860
:1004880001DD002010BD012010BDC04610B508F0E8
:1004980019FB002801DC002010BD012010BDC0465A
:1004A80010B508F00FFB002801DA002010BD01206C
:1004B80010BDC0461C2101231B04984201D3000C27
:1004C80010391B0A984201D3000A08391B099842BF
:1004D80001D30009043902A2105C40187047C046D5
:1004E80004030202010101010000000000000000F5
:1004F80010B5064C2378002B07D1054B002B02D0F2
:10050800044800E000BF0123237010BDE000002074
:1005180000000000ACB10008044B10B5002B03D05C
:100528000349044800E000BF10BDC04600000000B9
:10053800E4000020ACB100080122014B1A7070479A
:10054800FC0000200300F7B504000D000700083385
:100558000193EB1B20001E5D03F02AFB864203D0AB
:100568003100200003F076FB019B01349C42F0D15E
:10057800F7BD70B504000025A54200DB70BD002161
:10058800222007F05FFCC82007F04CFD0121222043
:1005980007F058FCC82007F045FD0135ECE70300DB
:1005A800411800208B4200D170471A78013350401F
:1005B800F8E700000121F0B50400831185B00B4075
:1005C800039343110B400293C51003118610471083
:1005D8000B400D400E400F4001400A20019307F0E8
:1005E80031FC642007F01EFD3900092007F02AFCC1
:1005F800642007F017FD3100082007F023FC642071
:1006080007F010FD29001F2007F01CFC642007F0EC
:1006180009FD01991D2007F015FC642007F002FD73
:100628000299CF2007F00EFC642007F0FBFC039929
:10063800CE2007F007FC642007F0F4FCE111CD2080
:1006480007F000FC642007F0EDFCFA20034BC00023
:100658001C7007F0E7FC05B0F0BDC046080100209B
:1006680013B5302006F000F90F230400CB220093C5
:10067800C421B43300F006FC2100054800F09EFEBA
:10068800044B054A1978FA239B004B43136013BDAA
:100698002401002003000020100100201FB5124A89
:1006A800124B917801AC1970928811495A70114A0D
:1006B80009781278120252185A60220003CB03C23A
:1006C80008212000FFF76BFF210020720023092278
:1006D800094802F0DDFD0122084B1860084B022092
:1006E8001A70FFF746FF1FBD140100201C010020EF
:1006F800040100200801002024010020000100203E
:10070800FD000020E12170B5062286B0604849024C
:1007180007F0ECF80121222007F038FB0121222004
:1007280007F090FB01210B2007F030FB00210B2084
:1007380007F088FB0A2007F075FC01210A2007F062
:1007480025FB0121092007F021FB0121082007F0E2
:100758001DFB01211F2007F019FB01211D2007F0B7
:1007680015FB0121CF2007F011FB0121CE2007F056
:100778000DFB0121CD2007F009FB0021162007F011
:1007880005FB0021172007F001FB0021182007F0C6
:10079800FDFA0021192007F0F9FA0021232007F0BB
:1007A800F5FA0021242007F0F1FA0021142007F0BF
:1007B800EDFA0021152007F0E9FA364D012128004D
:1007C80003F0D0F9002802D00A20FFF7D2FE002457
:1007D800200003F0EDF9304908550134082CF7D111
:1007E8000E782E4C2E482F4B2F4A452E23D18E782B
:1007F80026708C880470C87918708B791370FA2366
:100808009B004343294A136000230493083303934E
:100818000933274C0293013301930B3B00932000CB
:10082800244A2549023300F0D3FD002816D01420AD
:10083800FFF79FFEFEE7127845268A711A78FA2399
:100848009B00007853438880184824780360002070
:100858000E708C70CA71FFF775FED5E72000042270
:10086800164901F0ADFC200002F071FC002800D010
:10087800FEE7134A1349280003F044F907F0CAFBBE
:10088800114B18600320FFF774FE06B070BDC04618
:100898006C0C0020EC020020140100200000002055
:1008A80001000020030000200200002010010020A9
:1008B800240100200000FA42004066444105000877
:1008C800C0E0F301809698000C010020F0B585B0D7
:1008D800B04800AF03F038F91620FF250124402660
:1008E80007F0EEFA002806D00020FFF7EBFB061110
:1008F8001D2935414C00FE25F7E7172007F0E0FADF
:100908000224002802D025430120EEE7A543FBE797
:10091800182007F0D5FA0423002803D01D43032428
:100928000220E2E79D43FAE7192007F0C9FA0823F5
:10093800002803D01D4304240320D6E79D43FAE78B
:10094800232007F0BDFA1023002803D01D430524F7
:100958000420CAE79D43FAE7242007F0B1FA2023D0
:10096800002803D01D4306240520BEE79D43FAE76F
:10097800142007F0A5FA002803D0354307240620E1
:10098800B3E7B543FAE7152007F09AFA00284CD0E8
:1009980080231D43804BFB601B78AB4203D0FB6870
:1009A8001D70FFF77BFE7D4B7D4D1A78002A0CD019
:1009B80000227C4E7C491A7033787960934237D094
:1009C800080002F0C4FB00223270AB79012B0DD174
:1009D80007F020FB754D2B68C01A754B1B689842B1
:1009E80004D907F017FB2860FFF758FE714B1A78F7
:1009F800002A03D000221A70FFF750FE6E4B1A78B7
:100A0800002A00D1BFE0002501261D706B4B187825
:100A1800FFF7D0FD2800FF350138062858D8FFF722
:100A280051FB616C77828D98A3007F231D40B1E74D
:100A38006B46012178683B6001F080FC03006A4640
:100A48000733DB08DB00D31A9D460200B86069460D
:100A580078686E4602F024FD002819D1BB68072B80
:100A680016D83278AB789A420FD17278AB889A420E
:100A78000BD1B078B379052807D8FFF723FB031209
:100A8800181E202201224B4B1A700220FFF771FD1D
:100A9800454802F05CFB0022424B1A703B689D46B9
:100AA80093E70121444A1170444A1370EDE7AB7093
:100AB80029000020FFF746FDE7E7AB80F8E7AB71B8
:100AC800F6E7FA229200EB71534339490B60EFE7DE
:100AD800162007F0F5F9002802D0002035439EE7DC
:100AE800B5439CE7172007F0EBF90223002802D052
:100AF8001D43012093E79D43FBE7182007F0E0F929
:100B08000423002802D01D43022088E79D43FBE709
:100B1800192007F0D5F90823002802D01D43032027
:100B28007DE79D43FBE7232007F0CAF9102300283F
:100B380002D01D43042072E79D43FBE7242007F001
:100B4800BFF92023002802D01D43052067E79D43F5
:100B5800FBE7142007F0B4F94023002802D01D4316
:100B6800200059E79D43FBE7152007F0A9F9002865
:100B78000CD080231D43FB681B78AB4201D0FB6877
:100B88001D70FFF78BFDBD4605B0F0BD7F231D40EE
:100B9800F1E7C046EC02002004010020FC00002020
:100BA80014010020FD000020240100200C01002079
:100BB8001001002007010020050100200601002087
:100BC80037B50800421E9041081AFA210F4D8900D6
:100BD800AB6800936C6801346043FFF77DFA00222C
:100BE800009B0193AB6800930199009B994209D23D
:100BF8000199009BE31A5B18D218009B019390425D
:100C0800F0D837BD019B00995B1AF5E710E000E0CA
:100C1800CBB20E4A2C2B0BD9C0220A40C02A11D1C4
:100C2800CF2B0FD83F230A480B409B00074A1B587D
:100C3800E0209B009B58C00008401843431C00D08C
:100C48000800704701204042FBE7C04644BB00084B
:100C580004BB000810B5C06902F01AFD10BD10B53C
:100C6800C06902F049FD10BDF8B507000C001D0071
:100C78008E18B44200D1F8BD21780022F86902F03C
:100C88003FFD013428700135F3E710B507F044F84B
:100C980010BD10B54B1C03D0C8B2002106F070FF80
:100CA80010BD080010B511001A00431C02D0C0B2D4
:100CB80006F0E2FE10BD10B5C06902F01CFD10BDC3
:100CC80010B51C3007C802F0F9FC10BD10B50C00B7
:100CD800002011001A00631C02D0200007F02AF936
:100CE80010BD10B507F09AF910BD10B507F092F9CC
:100CF80010BD10B5080007F095F910BD080010B533
:100D08004B1C01D006F080FF10BD00007FB50C0021
:100D180015001E004B1C19D00C220021684607F054
:100D280063FA002303939D4204D0094B0095039373
:100D3800084B029332006946200006F09BFF029B95
:100D4800002B03D003226946684698477FBDC046FA
:100D5800D90D0008B90D0008002010B54B1C02D0B1
:100D6800080007F0ADF810BD080010B51100431CCD
:100D780001D007F067F810BD080010B51100431C3A
:100D880001D007F003F810BD030010B528331B7815
:100D9800002B02D003689B6A984710BD030010B56A
:100DA80028331B78002B02D003689B6B984710BD33
:100DB800012A02D1016000207047022A05D0032AC7
:100DC800F9D0002AF7D10260F5E70B680360F2E773
:100DD80010B50368984710BDF8B50D0017000C0052
:100DE8005E18A64200D1F8BD7B1B2000195D02F0F9
:100DF80031FF0134F5E7F8B50D0017000C005E1857
:100E0800A64200D1F8BD200002F0D2FE7B1B185587
:100E18000134F5E7032330B585B00293013301258A
:100E280001930023040019002A00009500F01AF825
:100E3800064B20002360064BA584E361054B236223
:100E4800230028331D7005B030BDC046ECB1000842
:100E58006C02002080841E007047704770470800AD
:100E68007047704710B5C360029B054C0361039B34
:100E780004604361049B41608260836110BDC04689
:100E880050B2000870B5040080250020626122007D
:100E9800A3612D02049B6560094DE361094B206045
:100EA800A560E0602161203262CB62C2E0622C3032
:100EB80005F0DAFC0500FFF7ADFF2000256070BDE6
:100EC8000800FFFFD8B1000810B5040000680368E7
:100ED800DB6B984720682169036882681B6898471C
:100EE80020682169036802695B68984710BD10B5DE
:100EF800006803681B6C984710BDF0B585B0039374
:100F0800037A16000B9ADB089B180400180001935B
:100F18000F0005F0ADFC0500019805F0A9FC029052
:100F2800227AF3B2082A37D83B43681C2B706379BE
:100F3800BB4237D10B9A039907F096F920680368EA
:100F4800DB6A9847206821690368C2685B6898472C
:100F5800206829000368019A1E6B029BB04720682D
:100F68002169036802695B689847206803685B6BBE
:100F780098472379BB4207D1217A029BC9080B9A6B
:100F88000A98591807F070F9280005F075FC0298BE
:100F980005F072FC05B0F0BD360A3E432E70A81C61
:100FA8006B70C4E7A1790B9A07F01EF9C6E7000039
:100FB800F0B585B002930DAB1B7801920393130033
:100FC8000C9A04009446029A634400935342534196
:100FD800009A0E00D3181800009305F049FC07008A
:100FE800009805F045FC31000500019A380007F02B
:100FF8003BF9019BF818029B002B4DD00C9A0A99DB
:1010080007F032F92068E269036801324AD1012108
:101018005B69984720680368DB6A984720682169FC
:101028000368C2685B689847206839000368009ABB
:101038001E6B2B00B04720682169036802695B6852
:101048009847206803685B6B9847039B002B07D081
:101058002068E2690368013244D101215B6998473D
:10106800E3681C1E07D000240C9AA24203D0019A00
:10107800A85C98470400029B002B06D101990C9AA2
:1010880001310B98691807F0EFF8380005F0F4FB08
:10109800280005F0F1FB22E00C9BA1795A1C07F00F
:1010A800A3F8AFE7DB69984706002068E1690368A1
:1010B8009B6898470028ADD020680368DB6C984788
:1010C80020680368DB6998470E9B801B9842ECD325
:1010D800380005F0D1FB280005F0CEFB0F4C2000AE
:1010E80005B0F0BD01219B69984720680368DB695A
:1010F800984706002068E16903689B6898470028BC
:10110800AED020680368DB6C984720680368DB6909
:1011180098470E9B801B9842ECD3D9E73FFDFFFF11
:1011280070B51E00437A0C0088B00179002B06D1F7
:10113800019200962200FFF7E0FE08B070BD07ADEF
:10114800230A6B70FA239B002970AC700493012367
:101158000393002302922900032201960093FFF7CC
:1011680027FFEAE730B51B24002389B06C442370BD
:10117800457A0A0001799D4208D101330193009410
:101188002B00FFF7BAFE207809B030BD07AD2970F3
:10119800AA70110AFA2292006970049201222900A9
:1011A80003920292019400930232FFF701FFEAE7EB
:1011B80070B51C00130015002343072B0DD8A2425D
:1011C8000BD3FFF7CFFFFF2107230A005B1B1A4150
:1011D800A14011400840C0B270BD0B204042FBE75F
:1011E80070B51E00437A0C0088B04179002B07D1F6
:1011F8000093019613002200FFF77FFE08B070BD30
:1012080007AD230A6B70FA239B002970AC7000218C
:10121800049301230191009229000322039302966B
:10122800FFF7C6FEEAE730B58BB06B46DA77437A4C
:101238000C004179002B09D1012200931F33019240
:101248006B442200FFF759FE0BB030BD09AD230AED
:101258006B70FA2300229B002970AC700493012361
:1012680001921F326A4400922900032203930293D9
:10127800FFF79EFEE8E7F0B51E0085B00AAB1F78C1
:101288000BAB1B78050003930CAB1B78140002937F
:10129800330001913B43072B37D8BE4235D3FFF7C4
:1012A80061FFFF22082113000136C91BF6B20A416B
:1012B800B3401343DB43DBB298431C400443E4B21E
:1012C800220028000199FFF7AEFF2868FA26036874
:1012D800B6001B6A98470700039B5E4328680368AB
:1012E8001B6A9847C01BB04202D3102040420AE054
:1012F80028000199FFF736FF0300029A029863401D
:1013080018401342EAD105B0F0BD0B20EEE70139D1
:1013180070B502000C00002001254B1C00D170BDE7
:101328002B00661AB3401340F3408B400139184331
:10133800F3E7C06A002803D170478B42FCD0103015
:101348000378002BF9D11800F6E7F8B50600FFF787
:10135800F0FF041E10D035003700043420352C3738
:1013680029684B1C04D03068226803685B6898477A
:1013780004350434BD42F3D1F8BD000070B50D1C2E
:1013880004000C49281CFFF78BF800280ED00A49E6
:10139800281CFFF771F8002808D02000291C01F04C
:1013A80039FA002801D1FC34E56270BD0C204042B6
:1013B800FBE7C0460000094300007F4410B5040065
:1013C80000F036FA014B2000236010BDB4B20008CB
:1013D800F0B585B01D000AAB1B78171C01930BAB49
:1013E8001A780CAB1B780E1C0EA909785BB2029315
:1013F8000DAB03911B881221040001F0B0FD0028F9
:101408002AD12000391C00F00BFC002824D12368C5
:1014180020001B6B311C984700281DD12900200093
:1014280000F09CFD002817D12000019900F0EDFD87
:10143800002811D1236820009B6C02999847002846
:101448000AD12000039900F09AFA002804D102007A
:101458000121200000F08CFB05B0F0BDFC3070B518
:101468000400836A18689969026815688268A84741
:10147800A36A1868996902685568C268A847A36A88
:101488000121186803685B699847A36A1868996915
:10149800026855680269A847A36A052118680368A5
:1014A8005B69984770BD000070B50D1C04000C49BD
:1014B800281CFEF7F5FF00280ED00A49281CFEF765
:1014C800DBFF002808D02000291C01F0A3F9002820
:1014D80001D1FC34E56270BD0C204042FBE7C046F8
:1014E800000009430040034410B55D2201F098FB59
:1014F80010BD0000F0B58BB00890099100F0E0FE37
:10150800802800D057E1089CFC34206B09F072FD5C
:101518000022AB4B09F05AF94B005908A94AAA4BCB
:10152800FEF770FF002816D0E56AA849281CFEF7C8
:10153800B7FF002830D0A649281CFEF79DFF0028D9
:101548002AD002223621A06AFFF76DFE64223A21D2
:10155800A06AFFF768FEE36A206B059309F04AFD6D
:101568009C4A9D4B06000F0009F030F94B005908C2
:10157800944A954BFEF746FF051E20D0059809F0C2
:1015880039FD964A964B07F0B9FE09F07BFD002419
:10159800482505902600DCE09249281CFEF780FFCC
:1015A8000028D8D09049281CFEF766FF0028D2D022
:1015B80002223621A06AFFF736FE7F22C7E78B4A50
:1015C8008B4B3000390009F001F94B0059087D4A6E
:1015D8007D4BFEF717FF041E0BD0059809F00AFD96
:1015E800844A854B07F08AFE09F04CFD2C000590D3
:1015F8001CE0784A814B3000390009F0E7F8069082
:101608000791079B069A5B00100059086D4A6E4BBC
:10161800FEF7F8FE051E0BD0059809F0EBFC6F4AA3
:10162800774B07F06BFE09F02DFD05904425B1E7D7
:101638006E4A744B3000390009F0C8F84B0059085D
:10164800604A614BFEF7DEFE041E05D0059809F0DE
:10165800D1FC6D4A6D4BC5E700226D4B3000390057
:1016680009F0B4F806900791079B069A5B001000F2
:101678005908544A544BFEF7C5FE051E05D0F421FF
:101688000598890506F054FFCFE7624A624B30009F
:10169800390009F09BF84B0059084A4A4A4BFEF7B3
:1016A800B1FE041E05D0059809F0A4FC5B4A5C4B0A
:1016B80098E700225B4B3000390009F087F8069064
:1016C8000791079B069A5B00100059083D4A3E4B5C
:1016D800FEF798FE051E00D070E00022524B300045
:1016E800390009F073F84B005908364A364BFEF7B3
:1016F80089FE041E61D100224C4B3000390009F0EC
:1017080065F806900791079B069A5B001000590838
:101718002C4A2D4BFEF776FE00284FD10022284B8D
:101728003000390009F052F84B005908254A264B79
:10173800FEF768FE00283ED0089C2F21FC34A06AE2
:10174800FFF710FD30210500A06AFFF70BFD4026CA
:101758000400089B08981B689B689847089F099B8A
:101768000599FC37002B00D1F96A089801F052F866
:101778000721FF2302220293019200910B003200FD
:101788002A31B86AFFF777FD0026FF230222029369
:10179800019200962A002F21F83BB86AFFF76BFDEB
:1017A800FF23022202930192009622003021B86A98
:1017B800F83BFFF760FD0BB0F0BD2C004025E9E6D3
:1017C80000407F40FCA9F1D24D62503F0080574451
:1017D80000007F443333333333331F4093E34EE900
:1017E80060FD7F3F0000CD4300400344CDCCCCCC0E
:1017F800CCCC24404968CBB91457853F33332F40AC
:1018080060FD8F3FCCCC3440DC4B1AA37554953F18
:1018180000403F409A99999999D9444012DA722E1A
:10182800C555A53F00404F4000405F4000406F4015
:1018380010B5040000F09CFC034B01222360A32395
:101848005B002000E25210BD64B30008F0B587B019
:1018580005000C000492002A0DD0CE1CF6B2122E00
:1018680000D984E000F065FF0490002C5CDB702355
:101878001C43E4B25AE014292AD100F05AFF022688
:10188800FF270723FC350093029701960400802266
:101898000921A86AFFF7EFFC049B029700930196C1
:1018A80006237F2204430921A86AFFF7E4FC049B6E
:1018B80007220093330024B2044324B2029701960E
:1018C8004D21A86AFFF7D7FC204300B207B0F0BD4E
:1018D800023CE4B20F2C4AD800F02BFFFF27022667
:1018E8000723FC3500930297019680220921059071
:1018F800A86AFFF7C0FC7022059B0297184303B241
:101908000593049B01960093224306230921A86AA4
:10191800FFF7B1FC059B02971843049B04B201969C
:10192800009304223300CBE720243443FF27022608
:101938000723FC3500930297019600220921A86A23
:10194800FFF799FC00230297009301962200059067
:1019580006330921A86AFFF78EFC059A0023024383
:101968001000049A0297024314B20196D8E70D209A
:101978004042ABE710B50022FFF768FF10BDF0B595
:1019880087B00400049106295AD800F0D2FE070057
:10199800200000F095FC060080282BD1FF25049B31
:1019A8007E3EFC34A06A029501960096002B06D173
:1019B800330004222621FFF75EFC074316E03300BC
:1019C80000222621FFF757FC0322049B05905B01A8
:1019D8001A430023D2B200930295019607330C21D3
:1019E800A06AFFF748FC059D05432F433FB2380026
:1019F80007B0F0BD0028FAD1049BFC340225A06A88
:101A0800002B07D1FF330293FC3B08220D210195DF
:101A18000093D0E70322FF230D21029300921300C5
:101A280001953200FFF727FC0322049905904B012A
:101A38001343DAB2FF23019502930096F83BCEE7F1
:101A480013277F42D3E77FB504000E0000F038FC6F
:101A5800002833D19C235B00E35C002B31D02000AD
:101A680000F067FE0500012E15D0022E1DD06A2059
:101A7800002E24D1FF2332000293FD3B0193033350
:101A88000093FC3401330A21A06AFFF7F4FB2843D2
:101A980000B204B070BDFF230293FD3B01930333F2
:101AA80000932022FC340133EDE7FF230293FA3B35
:101AB80000934022FC3401960133E4E714204042AD
:101AC800E7E76B20FBE730B585B004000D0000F0B8
:101AD800F7FB002845D19C235B00E35C002B07D073
:101AE800002D41D129002000FFF7ADFF05B030BD22
:101AF800200000F01EFE0028F8D1042D36D828005A
:101B0800FEF7E0FA03111B342500FF23002202939D
:101B1800FD3B019303330093FC3401330A21A06A8F
:101B2800FFF7A9FBE2E7FF230293FD3B0193033391
:101B380000936022FC340133F0E7FF230293FD3B5E
:101B48000193033300934022FC340133E6E7FF237B
:101B58000293FD3B0193033300932022FC340133AD
:101B6800DCE714204042C1E76B20FBE76A20F9E775
:101B7800F0B5070085B00E0014003D0000F0A0FB92
:101B8800FC35802814D13A23FF22FF33FE54383B1A
:101B9800FF3BA86A029201930093FB3A002E00D102
:101BA80032001E21FFF767FB0300180005B0F0BDE7
:101BB800FF220223A86A02920193002E12D0DB189A
:101BC8000093EF3A3021FFF756FB031EEDD1FF21BA
:101BD8000222A86A029101920093002C06D0013AD1
:101BE800CF39DFE7042332000093EBE71A003021F6
:101BF800D8E77FB50E00050000F09BFDFF23029398
:101C0800FD3B019302330093FC35040032001D2193
:101C1800A86A0333FFF72FFB204300B204B070BD5E
:101C2800F0B587B006000F1C00F04AFB802800D0F2
:101C380007E1381C09F0DEF9834A844B04000D00E3
:101C480008F0C4FD04900591059B049A5B00100000
:101C580059087F4A7F4BFEF7D5FB002800D0AEE03D
:101C68007D4A7E4B2000290008F0B0FD04900591C4
:101C7800059B049A5B0010005908754A754BFEF7DE
:101C8800C1FB002800D0C8E06F4A754B200029002E
:101C980008F09CFD04900591059B049A5B001000D8
:101CA80059086B4A6B4BFEF7ADFB002800D0B6E035
:101CB800694A6C4B2000290008F088FD04900591C2
:101CC800059B049A5B0010005908614A614BFEF7B6
:101CD80099FB002800D0A4E00022634B20002900D3
:101CE80008F074FD04900591059B049A5B001000B0
:101CF8005908574A574BFEF785FB002800D092E059
:101D08005A4A5B4B2000290008F060FD04900591B9
:101D1800059B049A5B00100059084D4A4D4BFEF78D
:101D280071FB002800D080E00022524B20002900DF
:101D380008F04CFD04900591059B049A5B00100087
:101D48005908434A434BFEF75DFB002800D06EE07C
:101D58000022494B2000290008F038FD0490059125
:101D6800059B049A5B0010005908394A394BFEF765
:101D780049FB00285DD10022404B2000290008F0D3
:101D880025FD04900591059B049A5B0010005908F5
:101D98002F4A304BFEF736FB00284CD10022384B37
:101DA8002000290008F012FD4B005908284A294B49
:101DB800FEF728FB9021002802D1082442E00021E8
:101DC8003000FFF716FF041E24D13300A322FC3392
:101DD8001F635200B25C002A1CD09D6A9823012020
:101DE8005B00F35C984007F047FA391C06F022FDC7
:101DF8008321C905FEF754FBFF22022302920193B7
:101E080000281AD001330093F73A26212800FFF75B
:101E180032FA0400200007B0F0BD1021D0E72021DD
:101E2800CEE73021CCE74021CAE75021C8E760213E
:101E3800C6E77021C4E78021C2E70323220000938C
:101E4800E3E714246442E5E73333333333331F4085
:101E5800FCA9F1D24D62503FCDCCCCCCCCCC2440A7
:101E680033332F40CCCC344000403F409A99999965
:101E780099D9444000404F4000405F4000406F40C7
:101E880000407F40F0B587B0050000270C0002260F
:101E980000F04FFCFF2304900293FC353B000196B1
:101EA8000097602C30D101221D21A86AFFF7E3F9C1
:101EB800FF230293FC3B0093019622001E2105900C
:101EC8000433A86AFFF7D7F9059AFF2302431000E5
:101ED800049A0293024301960097330014B2312109
:101EE8000522A86AFFF7C7F9FF230C2204430293CF
:101EF80024B201960097F83B3721A86AFFF7BBF98F
:101F0800204300B207B0F0BD3A001D21A86AFFF7D0
:101F1800B2F9FF23032202930092019622001E21A8
:101F28000590F83BA86AFFF7A6F9059AFF23024334
:101F38001000049A0293024301960097330014B2EA
:101F480031210322A86AFFF796F9FF23044302937D
:101F58000A2224B201960097F83BCDE7F0B585B088
:101F680005000E0000F0ACF9802832D1B31F062B13
:101F780032D831012800C9B2FFF784FF041E21D1ED
:101F880098235B00EE541633EB5C002B1AD001202B
:101F9800FC35B04007F070F9296B06F04BFC832143
:101FA800C905FEF77DFAFF220223AF6A0292019368
:101FB80000280AD001330093F73A26213800FFF7AA
:101FC8005AF90400200005B0F0BD03232200009355
:101FD800F3E714246442F5E70924FBE77FB50E0014
:101FE800050000F0A6FBFF230293FD3B0193013B94
:101FF8000093FC35040032001D21A86A0233FFF764
:102008003AF9204300B204B070BD70B504000D0069
:1020180000F056F980280ED16B1F032B0ED86900EB
:1020280008392000C9B2FFF7D9FF002802D13223AE
:10203800FF33E55470BD14204042FBE70A20FBE75C
:102048007FB50292040001910393029E00F038F9D3
:10205800C0B201AD00280DD1236820005B6B019947
:102068009847002804D1236820009B6B311C9847AF
:1020780004B070BD802810D120002978FFF76EFFCA
:102088000028F5D12000311CFFF7CAFD0028EFD148
:102098002000297AFFF7B9FFEAE701204042E7E785
:1020A800FC30806A704710B503689B68984710BD7C
:1020B8000300FC339B6A10B50400186803689B682A
:1020C8009847C1B2200001F091FA10BD036870B5BD
:1020D8009B6E0400984700280DD070BDAB6A186845
:1020E8000368DB6C9847AB6A1868D969026892681C
:1020F800904700280CD12500FC35AB6A186859694F
:102108000268926890470028E8D00F204042E4E730
:102118000E20FBE730B50C0085B0052924D8FC302B
:102128004900FF25806AD2B2C9B2032C0FD8072311
:102138005B1A022101910131091B4900C9B20091C2
:102148004021DBB20295FFF796F805B030BD0F23AA
:102158005B1A022101910531091B4900C9B200919E
:10216800DBB241210295EEE71A204042EDE700007C
:1021780070B504000D00FF220E4901F02DFA0E4B38
:1021880020002360230000220021FC33FE30DA62A5
:102198001A6341869A6341879D2001264000265490
:1021A8005A64A2221964054952002000A1529D6276
:1021B80070BDC0460024744214B400080080FFFFBC
:1021C800FC30F8B5836A16001C680D00226859694E
:1021D800D7682000126D9047330001002A002000C4
:1021E800B847F8BD0300FC3310B59B6A1B685A69F1
:1021F800FFF7E6FF10BDFC30836A70B51C685969AB
:10220800226820001569126D904701002000A84738
:1022180070BD10B5FFF7EFFF10BDFC30F8B5836A4D
:102228000D00D96916004A1C0AD01C6823682000D2
:10223800DF681B6D9847330001002A002000B8476B
:10224800F8BD0300FC3310B59B6A1B685A69FFF799
:10225800E4FF10BD10B5FC30002307224221806A3C
:10226800FEF7A6FF10BD1FB5FF2300220293FD3B1A
:1022780001930092FC3024210533806AFEF7FBFFAE
:1022880005B000BD70B504000E00002523682000CD
:10229800A0331B6898472000FFF7DCFFB04201D14C
:1022A800012070BD2300FC339B6A013518680A21A0
:1022B8000368EDB25B6998470A2DE7D10020F0E783
:1022C800072310B5FC301A000121806AFEF770FF61
:1022D80010BD000010B50400FFF7F2FF802810D1F0
:1022E800FC34002307221921A06AFEF761FF40B2DF
:1022F80008F02AFE0022044B07F0A4FF08F0C2FEF3
:1023080010BD0020FCE7C0460000D03F30B585B0C6
:1023180004000D00FFF7D4FF00280CD1FF2302931F
:10232800FD3BFC34019300902A000D21A06AFEF7C2
:10233800A2FF05B030BD14204042FAE770B5040092
:102348000E002500FFF7BCFFFC35802809D1982333
:102358005B00E35C062B1AD01321A86AFEF702FF84
:1023680070BD002813D1A2235B00E15C00290ED1C7
:10237800002E0CD04623FF33E35CA86A802B08D1DB
:10238800FEF7F0FEA22301225B002864E254286CC9
:10239800E6E73221F4E70000F0B587B00C000090C2
:1023A800FFF78EFFC6B2802E00D0CFE09823012021
:1023B800009A5B00D35C984006F05EFF009EFC36F6
:1023C800316B06F037FA8321C9050290FEF768F8E9
:1023D8000023002801D0FE239B05019300231D2123
:1023E8001A00B06AFEF7E4FE06F0FAFE02231E2188
:1023F8001A000490B06AFEF7DBFE801000B206F007
:10240800EFFE0023072220210590B06AFEF7D0FED8
:102418002121002307220500B06AFEF7C9FE2D021C
:10242800284306F0DDFE9823009A5B000390D05CF9
:1024380006F022FF08F0DEFD0022774B07F002FFCE
:102448000F000600200006F017FF08F0D3FD002259
:10245800724B07F0F7FE32003B0008F0B7F9002294
:102468006F4B06F04BFF040005980D0008F0C2FD05
:1024780000226C4B07F0E6FE02000B00200029004A
:1024880006F03CFF040004980D0008F0B3FD00229C
:10249800654B07F0D7FE02000B002000290008F06A
:1024A80095F9040001980D0008F0A4FD00225B4B8B
:1024B80007F0C8FE02000B003000390008F086F96A
:1024C80002000B002000290007F076FA05F070FFE3
:1024D80032230D000400009AFF33D05C06F0CCFED6
:1024E80008F088FD22002B0007F0ACFE0022002334
:1024F80004000D00FDF790FF002801D100240025FD
:102508000022464B2000290006F0F8FE08F0BAFD2C
:10251800039906F00DF808F06DFD0022434B06F014
:10252800EDFE040002980D0008F064FD02000B00A7
:102538002000290007F086FE05F03AFF00223C4BF8
:1025480007F080FE05F0D6FF07B0F0BD002E60D181
:10255800009D3300FC3507222521A86AFEF728FED6
:102568003300072226210700A86AFEF721FE3F0252
:10257800384306F035FE8221C90506F041FB3300D9
:10258800022227210190A86AFEF712FE013006F008
:1025980027FE8221C90506F033FB042330211A00E7
:1025A800061CA86AFEF704FE0027102801D183271D
:1025B800FF054623009AFF33D35C0134002B05D175
:1025C80007223221A86AFEF7F3FD0400311C381CEB
:1025D80005F0AEFF019905F0ABFF061CE00006F020
:1025E8004BFE011C301C05F0A3FF08F003FD06009C
:1025F800A86B0F0008F0FEFC00220D4B07F022FE2E
:1026080002000B003000390007F0D6F90022094B10
:1026180096E70120404297E7000010400000204064
:1026280000003C40000030400000344000001140F1
:1026380000408F4080842E4130B585B004000D00E5
:10264800FFF73EFE002828D1012D13D0022D1BD004
:102658001720002D22D1FF232A000293FD3B01936E
:1026680003330093FC3401333021A06AFEF703FEE4
:1026780005B030BDFF230293FD3B01930333009364
:102688002022FC340133EFE7FF230293FA3B009347
:102698004022FC3401950133E6E714204042E7E785
:1026A80070B50400FFF70CFEFC34802804D1122119
:1026B800A06AFEF757FD70BD3F21A06AFEF752FDE4
:1026C8003E210502A06AFEF74DFDADB2284380B257
:1026D800F1E710B5FFF7E4FF012318400F3800B207
:1026E80010BD30B585B004000D00FFF7E9FDFF23EC
:1026F800002803D16B1F5A1E9341FE330293052312
:1027080001930023FC3400932A000121A06A0233BC
:10271800FEF7B1FD05B030BD030010B50400FC3371
:10272800986A0121FEF711FE00212000FFF7D9FF6A
:1027380010BD030010B50400FC33986A0121FEF7B0
:1027480004FE01212000FFF7CCFF10BDF0B50121E8
:1027580085B00400FFF7C5FF00281DD1022526001B
:10276800FF27FC36029701950095020005234021BA
:10277800B06AFEF780FD00280ED101002000FFF7A7
:10278800C5FD002808D10623029701950093020091
:102798003121B06AFEF76FFD05B0F0BDF0B50F004E
:1027A8002D3FFBB204000E0085B0C32B15D80121C4
:1027B800FFF797FFFC340500782E24D80521380050
:1027C800FDF714FDFF2320220293FD3B0193002314
:1027D80002430093D2B205330DE0002917D101213D
:1027E800FFF77FFFFF23050032000293FD3B0193B3
:1027F8000333FC3400930B21A06AFEF73CFD284309
:1028080000B205B0F0BD30000A211E30D8E7112013
:102818004042F6E7F0B50600FC3605000023072223
:10282800B06A85B00F1C2421FEF7C2FC0024A04228
:1028380004D101212800FFF754FF04009221381C1D
:10284800C90506F0DDF908F0D5FB0022184B07F0A2
:10285800F9FC05F04FFEFF270223002101930091A8
:102868000297020C0500D2B2B06A05330631FEF7B2
:1028780002FD0223002101930091029705332A0AE1
:1028880019000443D2B2B06AFEF7F5FC0223002116
:1028980001930091029724B20443EAB2B06A053367
:1028A8000831FEF7E8FC24B2204300B205B0F0BDC1
:1028B8000000A03FF0B50D0085B00121040016000E
:1028C8000193FFF70EFF002855D12000FFF7F8FC11
:1028D800802867D1236831005B6E20009847236801
:1028E8000290DF69320029002000019BB8470028C8
:1028F80041D10298270008F057FB0022454B07F00A
:10290800A1FC05F0F7FDFC37BB6A01901868036865
:102918001B6A98470500BA6A1068516903689B6882
:102928009847002829D02700FC37BB6A1868036835
:102938001B6A98470190300008F036FB0022364B9E
:1029480007F080FC019B02900391581B06F094FC51
:1029580008F050FB0022314B07F02EF80B00020064
:102968000298039907F028F808F08CFB236878642C
:102978001B6A2000984705B0F0BDBB6A1868036859
:10298800DB6C9847BB6A186803681B6A9847019B09
:10299800401B8342BFD2236820001B6A984705204A
:1029A8004042E8E7002833D1236831005B6E2000FD
:1029B800984723680290DF69320029002000019BB4
:1029C800B8470028D7D105232700029AFC3753437C
:1029D800134A9B180193BB6A186803681B6A9847D7
:1029E8000500BA6A1068516903689B68984700280F
:1029F80099D1BB6A18680368DB6C9847BB6A18688A
:102A080003681B6A9847019B401B8342E9D2C2E7CF
:102A18000120C5E70000F83F0000204080842E41D7
:102A28008813000070B505000C00FFF749FC00286A
:102A380023D12E00FC360321B06AFEF786FC002C59
:102A480015D0220C0621B06AD2B2FEF7ECFB220A9E
:102A58000721B06AD2B2FEF7E6FB0821B06AE2B2FB
:102A6800FEF7E1FB03212800FFF73BFE04E0280006
:102A7800FFF76CFE0028F5D070BD14204042FBE73C
:102A880010B50400FFF71CFC00280FD12300FC330D
:102A9800986A0221FEF759FC2000FFF757FE00282C
:102AA80003D105212000FFF71CFE10BD1420404271
:102AB800FBE730B585B004000D00FFF701FC802866
:102AC80012D101212000FFF70CFEFF230293FD3BEA
:102AD80001930023FC3400932A003921A06A0733AC
:102AE800FEF7C9FB05B030BD14204042FAE7F0B547
:102AF80087B004000E001500FFF7E2FBC0B2002803
:102B080031D16B1E072B3BD83300AA19197800293D
:102B180036D001339A42F9D1FF2302270293FB3BB7
:102B280001970093FC3410222721A06AFEF7A3FB2B
:102B3800FF2302930023019700936A1E3B00059030
:102B48002721A06AD2B2FEF796FB059B03431FB26A
:102B5800002F05D12B0032002821A06AFEF740FB88
:102B6800380007B0F0BD802807D1012D08D8200013
:102B78003178FFF79EFF0700F2E714277F42EFE75F
:102B88006927FBE7F0B50C0087B001210600FFF7C5
:102B9800A8FD051E22D13000FFF792FBC0B28028A5
:102BA8001FD1052C36D9FF230227029301970095E0
:102BB800220AFC362021D2B2F83BB06AFEF75BFB52
:102BC800FF23212102930590E2B201970095F83B7B
:102BD800B06AFEF750FB059F07433DB2280007B0D7
:102BE800F0BD002819D1FF230227E40802930197BA
:102BF8000095A2B2FC362521120AF83BB06AFEF70E
:102C08003AFBFF23262102930590E2B20197009533
:102C1800F83BDDE712256D42E0E70125FBE7000000
:102C2800F0B58BB005000E1C0892FFF749FB002891
:102C380000D07BE09C23FC215B00EB5C8905301C09
:102C4800002B00D169E0FDF72BFC002800D170E0D3
:102C5800301C08F0CFF9384A384BFDF7D3FB002871
:102C680067D001212800FFF73CFD041E52D1301C1B
:102C780008F0C0F902000B000020314906F09CFE64
:102C88000690079105F036FC83B202211A0A2F003C
:102C98000593FF23019102930094FC37F83BB86A2F
:102CA800FEF7E9FA6B4602211A7DFF230191029390
:102CB80000940990F83BB86A0131FEF7DCFA099BE9
:102CC80003431CB29C235B00ED5C002D1FD10598CB
:102CD80006F0D2FA08F08EF902000B000698079960
:102CE80007F074FD08F0CEF98321C90505F088FFC7
:102CF80005F0E8FBFF230293FD3B01930095C2B268
:102D08000899B86A0533FEF7B6FA044324B2002CD2
:102D180000D1BE6320000BB0F0BDFDF7C1FB002859
:102D280007D00849301CFDF7A7FB98E71424644234
:102D3800F0E76524FBE7C0469DA1B8E34D6240403B
:102D48000040DF4000009643F0B587B004000D1C3A
:102D5800FFF7B6FA002855D10021281CFDF782FBA1
:102D68002E1C002800D02A4E2700FC37B86B08F02C
:102D780041F90022274B07F065FA04900591301CB1
:102D880008F038F902000B000498059906F0B6FA25
:102D98000022214BFDF736FB002836D01F49281C9E
:102DA800FDF76AFB002830D020000121FFF799FCCD
:102DB800041E24D19221301CC90505F021FF1849B1
:102DC80005F038FD05F07EFB0226FF2301960293ED
:102DD8000094020A05000421D2B2FA3BB86AFEF751
:102DE8004AFAFF2301960293009404900521B86AD9
:102DF800EAB2F83BFEF73FFA049E064334B22000DD
:102E080007B0F0BD14246442F9E76624FBE7C04626
:102E18009A99193F0000E03F00406F400000484386
:102E28000000FA46F7B50400FFF74AFA11230193A8
:102E3800002801D01B33019327000025052120001D
:102E4800FC37FFF74EFCBB6A0A2118682E0003689E
:102E58005B6998470199B86AFEF784F9012318401D
:102E6800A840ED180643F6B2082DF3D1190020004A
:102E7800FFF737FC3000FEBDF0B585B004000D004B
:102E8800FFF71EFA802849D1FF26FC34A06A029673
:102E9800002D22D0022706234022332101970093D8
:102EA800FEF7E9F9019700270296009705003B0015
:102EB8003A003321A06AFEF7DEF902230296019355
:102EC8000097054319223B21A06A0533FEF7D3F981
:102ED8002DB2284300B205B0F0BD0223019304339C
:102EE8002A0033210093FEF7C6F9022302960193C4
:102EF800009507002B0001223321A06AFEF7BBF9D9
:102F0800022302960193009507431D223B21A06AE4
:102F18000533FEF7B0F93FB23843DBE714204042EF
:102F2800D9E77FB50E0000210500FFF7DAFBFF2384
:102F3800040028000293FA3B019302330093FC300B
:102F480032000121806AFEF796F901210443280026
:102F5800FFF7C7FB24B2204300B204B070BDF7B539
:102F680005000F000400FC35A86A16000193FDF760
:102F7800ABFFA96A08684969036842681B689847F3
:102F8800A96A0868C969036842681B6898473900D4
:102F98002000FFF777F9002805D1A86AFDF7A7FFF9
:102FA80002204042FEBD236820009B689847002805
:102FB800F8D12000FFF757F90028F3D12000FFF7D8
:102FC8007FF980281AD131002000FFF772FD002810
:102FD800E8D13C212000FFF7E1FB0028E2D12000E6
:102FE8000199FFF7CFFD0028DCD101002000FFF791
:102FF80043FF0028D6D100236B64D3E7802120004B
:10300800FFF78FFF0028DED0CCE710B50400FFF7EC
:1030180057F9802806D1FF221221FC34A06AFEF756
:1030280002F910BD0028FCD1FC34FF223E21A06A21
:10303800FEF7F9F8FF223F21F0E7F0B50F0087B05F
:10304800012105000592FFF74CFB041E52D1280010
:10305800FFF736F92E000300FC36802852D12300F2
:1030680007222421B06AFEF7A3F8FF220223029266
:103078000193002841DDDB180093EF3A0333402128
:10308800B06AFEF7F8F898235B00EB5C0400062BA7
:103098000ED1F9330293FD3B0193002300933A00CC
:1030A8002221B06A0733FEF7E6F8044324B23764F6
:1030B8002800FFF7AAFF0027FF2302222E00029311
:1030C80001920097FC363A000F21F83BB06AFEF7F0
:1030D800D2F8FF23022202930192009704433A0098
:1030E8000D21B06AF83BFEF7C6F824B2044324B2B7
:1030F800BC4227D0200007B0F0BD04232200009373
:103108000333BCE7B06A002B1CD10227FF330293BC
:10311800F93B22000093402101970133FEF7ABF8F9
:10312800041EE7D12800FFF770FF059B052B09D186
:103138003900B06AFEF709F928000599FFF7D1FAB6
:103148000400D7E72B00FC330221986AF2E710B598
:1031580005220021FFF771FF10BD10B5029BCAB20E
:10316800D9B2FFF76AFF10BDF7B50191012104003C
:103178001500FFF7B6FA00284ED12000FFF7A0F897
:10318800802850D106222000E9B2FFF756FF002818
:1031980042D12700FC37BE6A0090F36901330FD192
:1031A80098235B00E35C0130984006F065F8396BC2
:1031B80005F040FB354905F023FD05F083F9009043
:1031C800306803681B6A984707002600FC36B26A15
:1031D8001068516903689B689847002806D02368DF
:1031E8002A0020005B6A0199984715E0B36A1868BD
:1031F8000368DB6C9847B36AD96918684B1C0CD113
:1032080003681B6A9847009BC01B9842DDD92000C1
:10321800FFF7FBFE06204042FEBD03689B68984707
:103228000028D2D0F3E723680028D8D1290020004D
:103238005B6E984705220600E9B22000FFF7FDFE05
:103248000028E9D10523734300932300FC339B6ACC
:10325800186803681B6A984707002600FC36B26A9C
:103268001068516903689B6898470028B7D1B36A0A
:1032780018680368DB6C9847B36A186803681B6AA8
:103288009847009BC01B8342E7D2C0E70000C842B2
:10329800F0B589B006910121040017000793FFF7E4
:1032A80020FA059005002000FFF70AF8060080289C
:1032B80060D1FF2F00D9A2E02600FC3600230722A8
:1032C8002421B06AFDF774FFFF22022302920193C2
:1032D800002849DD4021DB180093AF3A0333B06A78
:1032E800FDF7C9FF2000FFF790FEFF230221002011
:1032F800029301910090FAB2F83B2031B06AFDF7D1
:10330800BAFFFF23050002210020029301910090DB
:103318000200F83B0C31B06AFDF7ADFFFF2305430F
:1033280002210020059A029301912A43009015B2C8
:10333800F83B02000B31B06AFDF79DFF05432DB243
:103348002600FC363B00069A0021B06AFDF748FFCC
:103358000321B06AFDF7F9FF03212000FFF7C1F947
:10336800284300B209B0F0BD0623402200931100A3
:103378000133B4E70028E3D12000FFF746FE200020
:10338800FF220223FC3002920193402F32D9DB182E
:103398000093EF3A01334021806AFDF76CFF462322
:1033A8002600FF33E35CFC36802B04D10021B06A91
:1033B800FAB2FDF738FF012330210222B06AFDF787
:1033C800F7FE0238FD2301001940184203D1079A7D
:1033D800B06AFDF728FF402FB2D9FF230293FD3BC7
:1033E80001930533009380223521B06AFDF743FF2E
:1033F8001E27A5E70623320000930133CBE70420FC
:103408004042AFE7030010B50400FC339B6A06494D
:10341800186803689B6998472000FFF7F6FD236842
:1034280020009B68984710BD410300007FB5040049
:10343800FEF746FF802822D101212000FFF751F92D
:1034480000281AD12000FFF7E0FDFF2325000226FF
:103458000293FB3B0093FC350196A0224021A86A09
:103468000333FDF708FF002807D13100A86AFDF7EC
:103478006CFF07212000FFF734F904B070BD142059
:103488004042FAE770B505000C00002C00D170BD71
:103498002B00FC330021986AFDF764FE013CF4E739
:1034A800F0B5040085B015000391FEF709FF236805
:1034B8000290012120009B6D98470190002D04D0B7
:1034C800A8422FD9431B01951D0027000523FC376F
:1034D8001A001221B86AFDF76BFE202824D0029B3F
:1034E8000026802B25D13A23FF33E35CB86AB34228
:1034F80031D100262000FC300021039B019A806A0C
:10350800FDF70EFE002D03D029002000FFF7BAFFBB
:10351800A22300225B002000E254FFF776FD300072
:1035280005B0F0BD0025D0E70726029B7642802B28
:10353800E0D0029B002BDDD1013302223021B86A92
:10354800FDF736FEFD2302381842D3D10299B86A36
:10355800FDF708FECEE706231C211A00FDF728FE1A
:103568000028C6D118267642C4E719204042704781
:1035780019204042704719204042704710B503682F
:103588000021DB68984710BD192040427047192078
:103598004042704719204042704719204042704706
:1035A800192040427047192040427047192084B0C2
:1035B800404204B070470020704700000048704740
:1035C8000000C8C10020704700207047704770474E
:1035D8001920404270477047034B41600360002345
:1035E800826083817047C046C4B4000870B5040087
:1035F80090204000225C0D00002A0FD12300FC33EC
:1036080059694900294359611D6A9B6929409942B2
:1036180003D101232354A281A27370BD0126637BC9
:10362800217BE318DA7B8E401000B043002D01D0D7
:103638003243D0B20131C9B2D87321730829ECD111
:10364800FDF765FE637BE2180133D07363730023D3
:103658002373E2E70B4A0C4B91698900C9588166CC
:10366800D16952698900C9589200C166D3580122AC
:10367800036701235B424367044B836703007C3382
:103688001A80704704BB000844BB000800093D00CD
:103698000300092100225D3310B5197734315977B9
:1036A80001001A70DA769A7701237C310B704A7020
:1036B800014900F047F810BD00093D0037B5050085
:1036C800836F0400009101927C358B4204D16B46D4
:1036D8002A889B889A420DD02000062269467830B5
:1036E80004F0C2FD22007D3220002B781278A16FF1
:1036F80000F028F837BD704710B500F02DF910BD5F
:1037080013B56B46DC1DD97153425A41524201230D
:103718002100224000F052F9207816BD10B5024869
:10372800FFF798FF10BDC0466C020020044A030052
:1037380010B51068002B01D001F01CF910BDC0466F
:1037480048000020F0B589B004000D00160005936C
:10375800002800D1CCE0744BC06E1900039303F02D
:10376800A9FB72490190A06E03F0A4FB7049070001
:10377800206F03F09FFB6F490290606F03F09AFB84
:10378800019B0490002B00D1B2E0002F00D1AFE0E4
:10379800029B002B00D1ABE03900019803F0A8FB95
:1037A80004990700029803F0A3FB01000190380078
:1037B80003F09EFB6066002F00D199E0019B002B6F
:1037C80000D195E0002800D192E0636F20600133BA
:1037D8005A425341584A5B4213408022D2029B18F6
:1037E800A36182235B006360FFF7A0FF0023420808
:1037F800AA4218D982080833AA4214D9C208083341
:10380800AA4210D902090833AA420CD9420908333E
:10381800AA4208D982090833AA4204D9C009083340
:10382800A84200D90833E3613200331E07D00023D1
:10383800022E04D0731E5A1E93415A00012363615D
:103848000723E362E023DB00E360059B22615A4221
:1038580053410025DB0123620399E06EA560A56250
:103868006562656303F00CFB3049A06E03F008FB4A
:103878002F49206F03F004FB21694B425941236F04
:1038880001311A06120F042A02D82C489200155842
:103898000F202B4A03409B009B5803225B435A434B
:1038A800D243022926D0E9680A401343EB60214934
:1038B800606F03F0E5FA2368224A93421ED1802202
:1038C800214B5201196C11431964196C114006916E
:1038D8000699196B0A431A631A6B1C490A401A6342
:1038E800200001F077F84023226811680B43136029
:1038F80009B0F0BDE9685B000A40D6E7144A934274
:10390800EED18022104BD201D96B1143D963D96B08
:10391800114007910799D96A0A43DA62DA6A0D49B0
:103928000A40DA62DCE7C046C8B7000844B70008B6
:10393800D8B6000878B600080002FCFF1000002086
:10394800D8B500080030014000100240FFEFFFFF2B
:1039580000380040FFBFFFFF10B5041E12D001F071
:10396800B2F82368104A93420DD180220F4B5201BE
:10397800196B0A431A631A6B0D490A401A631A6CC9
:103988000A401A6410BD0B4A9342FBD18022074BB0
:10399800D201D96A0A43DA62DA6A07490A40DA6266
:1039A800DA6B0A40DA63EDE70030014000100240AC
:1039B800FFEFFFFF00380040FFBFFFFFF7B50E0025
:1039C80017000224002B29D00568009300F094F911
:1039D8000190AB682342FCD0FF23002E01D033783E
:1039E80001362B730123AA681A42FCD02B7B002FC7
:1039F80001D03B70013700F07FF9009B013B009339
:103A0800019BC01AFA239B00984209D2009B002B05
:103A1800DFD11C008023AA681A42FCD12000FEBD19
:103A28000124F7E7F0B52D4B0E001B78150085B083
:103A3800002B04D00B002A4A7D3B93424BD8300020
:103A480005F01AFC274904F0F5FE274905F0D8F8D7
:103A5800002403900420A04080B205F0C1FB011CA3
:103A68000190039804F0E6FE270020490134E4B2EF
:103A78000290FCF70BFD0028ECD1062F2BD81C4C2C
:103A88001C4B02982360676004F01CFD0138000598
:103A9800194B000DA0609D4217D023691748834237
:103AA80013D0AE420ED9280005F0E6FB0D4904F00C
:103AB800C1FE0D4905F0A4F8019904F0BBFE04F01D
:103AC80001FD01380005000D20610723E2681A4254
:103AD800FCD10B4B236005B0F0BDC046ED020020C1
:103AE80043E0F301002474490000FA4600F07F45E2
:103AF8000030004055550000C0E0F301FF0F000002
:103B0800AAAA000070B50C000A4B7D3C9C4210D854
:103B18000124094B1D6E2C431C6602241D6E254290
:103B2800FCD0064B064C1C600124064B1C70FFF7AA
:103B380079FF70BD43E0F3010010024000300040FF
:103B4800CCCC0000ED020020034B1B78002B02D0E8
:103B5800024B034A1A607047ED0200200030004013
:103B6800AAAA0000074B00201A6E920002D58142D3
:103B780001D1012070478022196E12040A431A6687
:103B8800F7E7C046001002408022064B10B51968BE
:103B9800054B89B24908C9020448C918120104F042
:103BA80063FB10BDE075FF1F00F8FF07F00200205F
:103BB80010B50400FFF7E8FF014B185D10BDC046C3
:103BC800F00200200022F0B51D4B87B01C6801925E
:103BD80002320292023203921B689BB25B08013BDD
:103BE80004930123059300F0DFF900280BD180220C
:103BF800144B12061A6101A902A800F06BFA051EFF
:103C080003D000F0E3F907B0F0BDA4B20E4B64088E
:103C1800E402E6180D4BE718BE42F2D80C4B31000F
:103C2800EB1801201A685B6800F010FA002802D12E
:103C380008360835F0E780231B05E618ECE7C04690
:103C4800E075FF1F0020024000F8FF07FFFFFF0795
:103C5800F002002010B5024B1954FFF7B3FF10BD56
:103C6800F00200207047000070B5104B050019786D
:103C7800002901D1012070BDFA208000FCF72CFA40
:103C88000B4C01002068FCF727FA00F081F8041EAD
:103C9800F0D1032DEED8020001202900404200F0A7
:103CA80031F8044B20001D60E5E7C0460400002001
:103CB80048000020080000208023084A5B001168A3
:103CC80010B50B4300201360FFF7CEFF041E03D18D
:103CD800FFF7C8FF200010BD0124FBE700200240C9
:103CE800034A044B11681B785B1813607047C04681
:103CF800F00A002004000020014B18687047C046F5
:103D0800F00A002010B5FF2403220B002100024016
:103D1800D20091409B012340C943934000280ADB0D
:103D2800C0240B4A800880008018A40002590A4069
:103D38001343035110BD0F2210400838054A80086C
:103D480080008018C26911401943C161F2E7C0467A
:103D580000E100E000ED00E0002805DB1F2318402B
:103D68001E3B8340014A13607047C04600E100E0F3
:103D7800002809DB1F2318401E3B8340034AD367F2
:103D8800BFF34F8FBFF36F8F7047C04604E100E069
:103D98008022431E5204012093420DD2C021074ABB
:103DA80007485360036A09061B021B0A0B43036298
:103DB80000200723906013607047C04610E000E0C1
:103DC80000ED00E0002807DB1F23C02218401E3B3F
:103DD8008340024952008B507047C04600E100E022
:103DE800704710B5FFF7FCFF10BD704710B5041EF3
:103DF80001D1012010BD437FDAB2002B02D1027736
:103E0800FFF7F3FF022363772379002B1CD11821D6
:103E18002368124A5A619A688A439A6062792368C9
:103E2800002A19D1013A60211A619A6800208A4350
:103E380061690A4380219A609A688A43A1690A43A2
:103E48009A6001236377D5E72000E268A16800F053
:103E580007F80028E2D0CCE72269E4E7B71DC104DF
:103E680030B51F2304000120013B21D30D00DD40A4
:103E78000542F9D0102A14D005D8002A08D001200C
:103E8800082A12D030BD0120182AFBD1062BF9D8F8
:103E980020684161182183688B43134383600020A5
:103EA800F0E70120072BF3D9ECE70F2BF0D9E9E76E
:103EB8000120102AE6D0E5D8002AE3D1E8E700007F
:103EC800F0B5002808D0841DE37F411D022B05D0E2
:103ED8000423C3630023CB770120F0BD0E250268BD
:103EE800466C1368AB4313603368104D2B40336046
:103EF800012316689E431660026C1B331A401B3B55
:103F080093400B4E77683B437360C26C836C5A6076
:103F1800036D002B05D01A682A401A60436D826D24
:103F28005A6001230020E377C877D6E7FFFEFFFF3A
:103F380000000240F8B5811DCB7F022B03D004237B
:103F4800C3630120F8BD0E2402681C271368456C62
:103F5800A3431360012314689C4314602A68104C1F
:103F680022402A60026C0F4D3A4093406E683343FA
:103F78006B60C26C836C5A60036D002B05D01A68A5
:103F880022401A60436D826D5A6001230022CB776C
:103F9800431DDA77836B934200D098470020D1E71E
:103FA800FFFEFFFF000002400020054B5A698242D5
:103FB80005DA044A9A60044A9A605869C00F704743
:103FC8000020024023016745AB89EFCD8022044BD6
:103FD800120659690A435A615869C043C00F7047AD
:103FE80000200240F8B505008027FFF785FE7F0214
:103FF8004619124C23693B420BD12269104B110020
:104008001048194020611A4209D00F4B012059600D
:1040180004E0FFF771FEB042EBD30320F8BDFFF7D1
:104028006BFE80264519F60223691800304033429A
:10403800F4D0FFF761FEA842F6D3EEE70020024075
:10404800FA830000FB830000F40A0020F7B5174E3E
:104058000193337804000D0002200092012B1ED03A
:104068000123FA203370002380007360FFF7BAFF42
:10407800002812D10E4F012C12D17B6923437B619A
:10408800009B2B60BFF36F8F019B6B60FA20800051
:10409800FFF7A8FF7B69A3437B6100233370FEBD54
:1040A8002800009907F08CF8F0E7C046F40A0020D1
:1040B80000200240044A05485369C90003401943D7
:1040C800034B0B43536170470020024007E0FFFF9A
:1040D80002000100F7B5214F05003B780224019149
:1040E800012B1AD00123FA203B70002380007B604B
:1040F800FFF778FF041E0ED104236B602B68042B96
:104108000DD1FA20164A174B516980000B435361B1
:10411800FFF768FF040000233B702000FEBD012369
:10412800019A5B421360AE68AB68EA689B18B342B9
:104138000CD968683100FFF7BDFFFA208000FFF74F
:1041480051FF002808D00400019B1E600221044A88
:1041580053698B435361DEE70136E5E7F40A002033
:1041680000200240040001000023F0B585B00A6871
:104178001400DC4001D105B0F0BD012514009D40BC
:104188002C4000942A427AD04A685E009446032262
:104198006446224001920322B240019CD243013C72
:1041A800012C6ED8CC688768B44017403C438460C3
:1041B80044680127AC432500644624093C409C40E0
:1041C8002C4344608C68C568B44015402C43C460D7
:1041D800019C022C5FD004682240019CB440144327
:1041E8000460C0246246A402224248D0344A03250F
:1041F8009C08A400A4180F221D40ED00AA40A02787
:10420800266EFF0596430022B8420CD02D4F01328E
:10421800B84208D02C4F0132B84204D02B4F033299
:10422800B84200D1023AAA40674632432266244C7B
:10423800009A2668009DD2433543FF0201D4350019
:104248001540674625606668009D3543BF0201D466
:1042580035001540674665601D4C009DE66F354387
:10426800BF0301D4350015406746E567194C009E29
:10427800E56F2E43FF0301D415402E00E667013396
:1042880075E7019C032CA6D08C68C568B44015401E
:104298002C43C4609FE707250F271D40AD00AF40A2
:1042A800DC08A40004190294246A03972700039CDD
:1042B800A7433C000F69AF402743029C27628AE767
:1042C800001802400004005000080050000C005084
:1042D800081802400418024070B5084D0400EB6845
:1042E800184202D0E86002F023FC2B69234203D075
:1042F80020002C6102F020FC70BDC046001802406E
:1043080010B5114C1149236802000B400343236088
:10431800802300209B009A420ED10D4B0D4918684E
:1043280006235843FBF7D8FE8022431CD20061695C
:1043380008001040114200D110BD002B01D0013BF4
:10434800F5E70320F8E7C04600700040FFF9FFFFDB
:104358004800002040420F00F0B5040085B0002856
:1043680002D1012005B0F0BD0368DB0710D4236833
:104378009B075CD423681B0700D5C1E023685B0753
:1043880000D5F2E0E369002B00D079E10020E9E7ED
:104398003822AF4DAB681340EA68102B09D1D343DC
:1043A8009B0708D12B689B03E1D56368002BDED1FE
:1043B800D7E7082BF6D0802263685202934211D1C6
:1043C8002A6813432B60FFF797FC80270600BF027B
:1043D8002B683B42CBD1FFF78FFC801B6428F7D9B1
:1043E8000320BFE7A021C9028B4208D18023296896
:1043F800DB020B432B602B681A432A60E3E72A6829
:1044080094490A402A602A6893490A402A60002B86
:10441800D9D1FFF771FC80270600BF022B683B4209
:10442800A5D0FFF769FC801B6428F7D9D8E73822A4
:10443800874DAB681340EA68102B28D103210A4046
:10444800022A26D12A68520503D5E268002A00D13B
:1044580087E7696862698148120201400A436A6015
:10446800002B0CD12B687E4A7E49134022691343E6
:104478002B602B687C4A9B045B0FDA400A607B4BFD
:104488001868FFF7F1FB002800D173E769E7002BF4
:10449800D8D0E368002B20D02B68714A80271340BE
:1044A8002269FF0013432B6080232A685B001343B3
:1044B8002B60FFF721FC06002B683B4207D06A6897
:1044C800636966491B020A4013436B6052E7FFF7B2
:1044D80013FC801B0228EFD982E72B68644A8027E7
:1044E80013402B60FFF708FC0600FF002B683B42D7
:1044F80000D13FE7FFF700FC801B0228F6D96FE7E1
:104508003822534DAB681340182B08D12B6E9B07EC
:1045180000D433E7A369002B00D02FE721E7A26975
:104528000123002A10D02A6E022713432B66FFF7B7
:10453800E3FB06002B6E3B4200D01FE7FFF7DCFBD6
:10454800801B0228F6D94BE72A6E02279A432A666F
:10455800FFF7D2FB06002B6E3B4200D10EE7FFF7B8
:10456800CBFB801B0228F6D93AE73822384DAB68D6
:104578001340202B08D1EB6D9B0700D402E7A368FA
:10458800002B00D0FEE6ECE680220021EB6B520502
:104598000091134208D1EB6B1343EB63EB6B1340B1
:1045A8000393039B012300938027324E7F003368D7
:1045B8003B4215D0A368012B22D1EA6D1343EB656A
:1045C800FFF79AFB02270600EB6D3B4238D0009BB1
:1045D800012B00D0D6E6EB6B274A1340EB63D1E6FC
:1045E80033683B433360FFF787FB019033683B42F6
:1045F800E0D1FFF781FB019BC01A0228F6D9EFE64C
:10460800EA6D052B05D1013B1343EB65EA6D0123E8
:10461800D4E701218A43EA65EA6D03318A43EA65F2
:10462800002BCDD1FFF768FB02270600EB6D3B425C
:10463800CDD0FFF761FB114B801B9842F6D9CFE62E
:10464800FFF75AFB0D4B801B9842BDD9C8E6C04600
:1046580000100240FFFFFEFFFFFFFBFFFF80FFFF90
:10466800FFC7FFFF480000200024F40008000020D6
:10467800FFFEFFFF00700040FFFFFFEF8813000000
:1046880038213F4DAA680A40102A51D03D4A022BD2
:1046980038D12B68802713402B60FFF72DFB0600CD
:1046A800BF042B683B4227D1616A236AEA680B433F
:1046B800354980260A401343E26AB6041343226B45
:1046C8001343A26A12021343EB6080232A685B0437
:1046D80013432B608023EA685B051343EB60FFF705
:1046E8000BFB04002B68334200D04FE6FFF704FBB6
:1046F800001B0228F6D973E6FFF7FEFA801B022892
:10470800CFD96DE62B68802613402B60FFF7F4FAAB
:104718000400B6042B68334204D1EB681B4A1340EB
:10472800EB6033E6FFF7E8FA001B0228F2D957E6F8
:10473800012B00D115E60322E868216A02408A426B
:1047480000D00EE67022616A02408A4200D008E674
:10475800FE21A26AC90101401202914200D000E67E
:10476800F822E16A920302408A4200D0F9E5236BFD
:10477800400F4007C01A431E9841C0B2F2E5C04638
:1047880000100240FFFFFFFE8C80C11FFCFFFEEF00
:10479800382370B51D4CA2681A4205D123681C48FD
:1047A8009B045B0FD84070BDA2681A40082A27D026
:1047B800A2681A40102A17D1E368E168DB43E5686C
:1047C8004906490F6F322D0A013115409B0709D15F
:1047D8001048FBF781FCE1686843490F0131FBF79A
:1047E8007BFCE0E70A48F4E7A2681A40202A09D0CF
:1047F800A26800201340182BD5D1FA20C001D2E7B7
:104808000448D0E780200002CDE7C04600100240EF
:104818000024F40000127A00F7B504000D00002807
:1048280001D10120FEBD07274A4E33683B408B4229
:104838002AD3226893073BD4D20748D40727336882
:104848003B40AB420AD93368BB432B433360FFF785
:1048580053FA019033683B40AB426BD123683E4D1D
:104868005B076FD4FFF794FFAB683C491B051B0F30
:104878009B005B581F210B40D840394A394B1060C8
:104888001868FFF7F1F9CDE73368BB430B43336092
:10489800FFF732FA019033683B40AB42C9D0FFF7CB
:1048A8002BFA019BC01A304B9842F4D90320B9E780
:1048B8002949530704D5E0238868DB0103438B604B
:1048C8008B682A480340A06803438B60B4E762689A
:1048D800214F012A19D13B689B03A2D50721BB6848
:1048E8008B431343BB60FFF707FA01903823BA687C
:1048F8001A406368DB009A42A0D0FFF7FDF9019BDC
:10490800C01A194B9842F1D9D0E7022A03D13B6863
:104918009B01E3D485E7002A03D13B685B05DDD41E
:104928007FE70223032A03D1396E1942D6D178E7EB
:10493800F96DFAE7FFF7E0F9019BC01A0A4B9842B4
:1049480088D9B3E7AB680A4A1340E2681343AB60FF
:1049580088E7C046002002400010024038B6000830
:10496800480000200800002088130000FFF0FFFF27
:10497800FF8FFFFF064B07499B68074A5B045B0FE5
:104988009B005B581F2110680B40D8407047C046F9
:104998000010024018B6000848000020072230B571
:1049A800F025094B02609C682D01144044609C6806
:1049B8002C408460E0249B68E4012340C360034BDF
:1049C8001B6813400B6030BD0010024000200240FD
:1049D80070470000F8B504000120002C66D0636A17
:1049E800002B64D1822261685200914200D0E361B9
:1049F80000232500A3625D352B78DAB2002B05D1A0
:104A080023005C3320001A70FFF7E2FF02234022E4
:104A18002B702168E6680B689343E0220B60D20094
:104A28000023964247D880204001964200D0A362D6
:104A380082228427636852001340A2683F023A40EA
:104A4800022713432269A5693A4013430122676983
:104A580017403B438027BF002F403B43E76937326D
:104A680017403B43276A4832174080223B43A76AD6
:104A7800920117403B43102708220B60636A2D0CF4
:104A88003B40676B17403B43F0273F013E403343B1
:104A9800042635402B4303434B60CB690848034049
:104AA8000020CB61012320665D342370F8BD00230C
:104AB800236163619CE7F02218001201B5E7C04644
:104AC800FFF7FFFF704770B504000120002C10D0DD
:104AD8002500022340215D352B70226820001368D1
:104AE8005C348B431360FFF7EDFF00206060287093
:104AF800207070BD70B5050002233D352B7003682A
:104B0800114A196A0400114207D1196A0F4A114261
:104B180003D101211A688A431A60200002F025FB9C
:104B280023000020483318703C340A3B1870587032
:104B38009870D870187158719871D8711872587225
:104B48002870207070BDC046111100004404000098
:104B580001000300012010B53D310C78E2B2844217
:104B680015D1001808701B680A498B4202D00A49FF
:104B78008B420DD19A6809490A40062A06D007399E
:104B88008A4203D0012219680A431A60002010BD26
:104B98001968F9E7002C01400004004007000100F3
:104BA8000368084A196A114207D1196A064A11426C
:104BB80003D101211A688A431A6001233D3003702A
:104BC800002070471111000044040000012103680F
:104BD80010B5DA688A43DA601C6A074A144206D1BB
:104BE8001C6A064A144202D11A688A431A600123D1
:104BF8003D300370002010BD111100004404000076
:104C0800020030B502243C32157803002000012D43
:104C180008D018003D3004701B68596101230370E7
:104C28000020107030BD70477047000002220368F2
:104C380010B51969040011420ED0D96811420BD081
:104C4800053A1A61043202779B699B0700D186E016
:104C580001F006FE00232377042223681969114214
:104C680011D0D96811420ED0093A1A610732227759
:104C78009A69C0239B0020001A4200D175E001F018
:104C8800EFFD0023237708222368196911420ED00B
:104C9800D96811420BD0113A1A610D322277DB69BB
:104CA80020009B0767D001F0DBFD0023237710224B
:104CB80023681969114210D0D96811420DD0213AE0
:104CC8001A6119322277DA69C0239B0020001A4240
:104CD80057D001F0C5FD0023237701222368196905
:104CE800114207D0D968114204D0033A20001A6152
:104CF80001F08BFD802223681969114208D0D96818
:104D0800114205D0023AFF3A20001A6100F0E1F999
:104D180023681A69D20507D5DA68120604D51C4A31
:104D280020001A6100F0D6F940222368196911425F
:104D380007D0D968114204D0813A20001A61FFF7E0
:104D480073FF202223681969114207D0D9681142DC
:104D580004D0413A20001A6100F0BAF910BD01F000
:104D68007BFD2000FFF75FFF74E701F075FD200071
:104D7800FFF759FF85E701F06FFD2000FFF753FFAC
:104D880093E701F069FD2000FFF74DFFA3E7C04658
:104D9800FFFEFFFF10B5174C0368A04202D0164A69
:104DA800904208D1702293434A681343134A1A4029
:104DB800CB68134308E0124A9042F7D0114A904258
:104DC800F4D0114A9042F1D0802293434A691343A8
:104DD80003608B68C3620B688362A04205D0094BED
:104DE800984202D0084B984201D10B690363012312
:104DF800436110BD002C014000040040FFFCFFFF90
:104E080000200040004401400048014070B5040003
:104E18000120002C23D025003D352B78DAB2002B59
:104E280005D123003C3320001A7002F079F90223DF
:104E38002B702068211DFFF7ADFF22000123002001
:104E48004832137047340A3A137053709370D37012
:104E5800137153719371D371137223702B7070BDDA
:104E68001F2310B5012419408C408A40036AA343CC
:104E78000362036A1A43026210BD0000030010B502
:104E880008291ED005D8002911D0042916D00200FF
:104E980004E002000C2917D0102917D00120433252
:104EA8001278824209D11A000220433211E002002E
:104EB8003E320120147884420AD010BD02003F32ED
:104EC800F7E702004032F4E74132F2E74232F0E716
:104ED800022010701C6801222000FFF7C1FF134B4D
:104EE8009C4213D0124B9C420AD0124B9C4207D0D2
:104EF800114B9C420FD0012322681343236012E018
:104F08008023626C1B0213436364F4E78023626CA2
:104F18001B0213436364A368084A1340062B02D09C
:104F2800073A9342E7D10020C7E7C046002C01406A
:104F3800004401400048014000040040070001000F
:104F480010B5FFF79BFF10BD030070B508294DD0C1
:104F580009D800291BD0042941D002004332147813
:104F68000432E0B208E0020047320C2945D010298B
:104F780054D043300478E0B21278D2B2012C50D128
:104F8800012A2BD11A0002204332107041E005009B
:104F98001C003E352E784434F0B22278D2B2012E6D
:104FA8003FD1012A1AD102222A7022701C680122DC
:104FB8002000FFF755FF1C4B9C4202D01B4B9C4224
:104FC80007D1A3681A4A1340062B06D0073A934222
:104FD80003D00123226813432360002070BD05001D
:104FE8001C003F352E784534F0B2D6E705001C008A
:104FF80040352E784634F0B2CFE7040041342578A6
:105008001278E8B2D2B2012D0BD1012AE6D10222E0
:1050180022701A00022047321070C7E70400423499
:10502800EDE70120DAE7C046002C0140000400400B
:10503800070001001F2310B5042419408C408A4042
:10504800036AA3430362036A1A43026210BD0000A5
:105058000300020010B5002905D14432012014785C
:1050680084420AD010BD042901D14532F6E7082947
:1050780001D04732F2E74632F0E7022010701C6890
:1050880004222000FFF7D6FF8023626C1B02134323
:1050980063640A4B9C4202D0094B9C4207D1A36827
:1050A800084A1340062B06D0073A934203D001233F
:1050B8002268134323600020D4E7C046002C014037
:1050C800000400400700010010B5FFF7C1FF10BD44
:1050D800704770477047000030B5EFF31084012225
:1050E80082F310880168134D0B682B400B6084F322
:1050F8001088EFF3108182F3108802680E4C9368D1
:105108002340936081F31088C36E012B0AD1EFF31B
:10511800108183F31088102402681368A343136076
:1051280081F31088030020228C331A600023C366A1
:10513800436730BDDFFEFFFFFEFFFFEF30B5EFF343
:105148001084012282F31088802501680B68AB4324
:105158000B6084F31088EFF3108182F310884023EA
:10516800026810680343136081F3108830BD0300A0
:1051780088331B6810B5212B06D1020056321388DC
:10518800002B02D1FFF7DAFF10BD036D01681C7810
:1051980001338C6203651388013B9BB21380F3E7EC
:1051A800030088331B6810B5212B06D10100563146
:1051B8000B88002B02D1FFF7C1FF10BD026D0468F8
:1051C80013880232DB05DB0DA36202650B88013B05
:1051D8009BB20B80F1E70000030088331B6870B5B1
:1051E800212B21D10300010080246A331B8856310A
:1051F800002B19D00A88002A17D1EFF31084013246
:1052080082F310880168114D8B682B408B6084F302
:105218001088EFF3108182F3108840230268106829
:105228000343136081F3108870BD0568EA69224260
:1052380008D0026D16780132AE6202650A88013A1A
:1052480092B20A80013B9BB2D2E7C046FFFF7FFFC4
:10525800030088331B6870B5212B21D1030001009E
:1052680080246A331B885631002B19D00A88002AFB
:1052780017D1EFF31084013282F310880168124DC0
:105288008B682B408B6084F31088EFF3108182F3D6
:1052980010884023026810680343136081F3108864
:1052A80070BD0668F26922420AD0056D2A88023567
:1052B800D205D20DB26205650A88013A92B20A8017
:1052C800013B9BB2D0E7C046FFFF7FFF704700005D
:1052D80030B5050088352C6803000220202C37D112
:1052E8000138002934D0002A32D080209C6840013F
:1052F800844205D11869002802D10130014227D122
:105308001965190054310A804A801A000021903228
:105318001160212280212A608022586E920549015D
:10532800904216D1144A8C4203D11969002900D140
:10533800124A9A67EFF31081012282F310881A68E3
:10534800802390681B040343936081F31088002036
:1053580030BD0B4A8C4203D11969002900D1094A92
:105368009A67EFF31081012282F310881A6880236C
:10537800106803431360E8E7E15100085952000838
:1053880077510008A9510008806A0023020010B56F
:105398005E321380083A138002F098F810BD704707
:1053A800F7B50168C14DCB6904000A6888682B42CB
:1053B80010D120252B4200D19BE080267605154090
:1053C8000640354300D194E0636F2000002B00D0E5
:1053D80085E085E0B64D05400095B64D009E154028
:1053E800354300D185E0250001269035334205D0AC
:1053F800D70503D50E622F683E432E60022633423E
:105408000CD0C7070AD527000E6290373E6801976F
:10541800B446042667463E43019F3E600426334255
:105428000CD0C7070AD527000E6290373E6801974F
:10543800B446022667463E43019F3E600826B446AE
:10544800334209D02027009E1740374304D06646D0
:105458000E622F683E432E6080263601334206D006
:10546800570104D50E6220212E683143296029682E
:10547800002935D020210B420AD080235B0511403A
:105488000340194304D0636F002B01D020009847D4
:1054980022682B684027966828223E401340200047
:1054A8001E4322D0FFF718FE23689B683B4218D0A2
:1054B800EFF31081012383F31088250004CD93684E
:1054C800BB43936081F31088E86F002809D07A4BBA
:1054D8008363FEF72FFD002802D0E86F836B98479F
:1054E800F7BD200001F0F2FFFAE701F0EFFF2E60B0
:1054F800F6E7E56E012D00D09FE01026334200D17B
:105508009BE0324200D198E00E62896840230A008D
:105518001A40194257D0211DCA6F1068426892B2CA
:10552800002ADDD027005C373F889742D8D927006A
:105538005E373A800268202084461040009060461A
:10554800024232D1EFF3108785F3108820685B4E52
:1055580002683240026087F31088EFF3108785F302
:10556800108820688268AA43826087F31088EFF366
:10557800108785F31088206882689A43826087F3D1
:105588001088230062468C331A60009BE366EFF3B1
:10559800108085F3108822680F351368AB431360B9
:1055A80080F31088C86FFEF78BFC02232200236764
:1055B80023005C325E331B881188C91A89B2200027
:1055C800FFF7EDFE8CE7230020005C335E3019887E
:1055D800038800889BB2002800D181E7C91A89B2E4
:1055E800002900D17CE7EFF3108785F31088206845
:1055F800334E03683340036087F31088EFF3108756
:1056080085F3108820682F4E83683340836087F3C2
:105618001088230020208C331860E2666267EFF35D
:10562800108085F31088102522681368AB43136037
:1056380080F3108802232367C1E780256D032B427E
:1056480006D0460204D520000D6201F07BFF47E733
:1056580080210B4207D080252D04114028400143AA
:1056680001D0A36FB1E640210B4216D00A4214D0F4
:10567800EFF31080012383F31088226813688B43AB
:10568800136080F310882300202288331A600023D7
:105698002000A36701F013FF22E7190214D5510077
:1056A80012D5200000F0B9FD1AE7C0460F08000027
:1056B800010000102001000491530008FFFEFFFFC5
:1056C800DFFEFFFFFEFFFFEFDB0100D408E7002A43
:1056D80000DB05E7200000F09FFD01E70100F8B5B9
:1056E80003008C310C6860331A880368222C47D178
:1056F8005B6A846D134002002370836D5E32013350
:1057080083651388013B9BB21380128893B2002AE9
:1057180032D1EFF31086012484F3108805681B4FFB
:105728002A683A402A6086F31088EFF3108684F3DB
:1057380010880568AA68A243AA6086F31088202208
:105748000A600367C26E4367A24216D1C366EFF3CD
:10575800108482F31088102301680A689A430A604B
:1057680084F310880268D169194200D013620300DB
:105778005C331988FFF713FEF8BD01F099FEFBE7CB
:10578800082299690A439A61F6E7C046DFFEFFFFDF
:105798000200F8B503008C32116860331C88036876
:1057A800222946D1596A836D2140198001000233AC
:1057B80083655E310B88013B9BB20B8009888BB2F5
:1057C800002932D1EFF31086012484F3108805688C
:1057D8001A4F29683940296086F31088EFF310863C
:1057E80084F310880568A968A143A96086F3108826
:1057F800202111600367C26E4367A24216D1C366B7
:10580800EFF3108482F31088102301680A689A4322
:105818000A6084F310880268D169194200D01362C3
:1058280003005C331988FFF7BAFDF8BD01F040FEAC
:10583800FBE7082299690A439A61F6E7DFFEFFFF52
:105848000300F0B560331B8885B002930368040039
:10585800DD691A6803929A68019202008C32126814
:10586800222A00D0B2E0030068331B88002B02D044
:1058780020231D4225D123005E331B889AB2002BBA
:105888001DD0230068331B88934218D9EFF310808A
:10589800012282F3108821684F4D8B682B408B6062
:1058A80080F310884D4B6367EFF3108182F3108803
:1058B8002023226810680343136081F3108805B021
:1058C800F0BD2600236802995B6AA26D0B40137035
:1058D800A36D5E360133A36533882268013B9BB212
:1058E80033800723D5691D422FD0063B1D4208D0BF
:1058F8000399C90505D5210013629031086803434F
:105908000B6002231D4209D00199C90706D5210061
:10591800136290310868DB1803430B6004231D42AF
:1059280009D00199C90706D513622200903211687F
:10593800023B0B431360270090373B68002B04D0D1
:10594800200001F0C3FD00233B60328893B2002A97
:1059580000D08DE7EFF31086012181F310882068CD
:105968001F4F02683A40026086F31088EFF31080F8
:1059780081F3108821681B4E8A6832408A6080F360
:105988001088220020218C3211602367E26E636741
:10599800012A17D1E366EFF3108082F310881023F1
:1059A80021680A689A430A6080F310882268D169DE
:1059B800194200D0136223005C3320001988FFF7D6
:1059C800EEFC55E7200001F073FD51E708229969C4
:1059D8000A439A6173E7C046FFFFFFEFE5560008E8
:1059E800FFFEFFFFFEFFFFEF0300F0B560331B88EB
:1059F80085B0029303680400DD691A6803929A6807
:105A0800019202008C321268222A00D0B0E0030012
:105A180068331B88002B02D020231D4225D1230088
:105A28005E331B889AB2002B1DD0230068331B8875
:105A3800934218D9EFF31080012282F3108821686D
:105A48004E4D8B682B408B6080F310884C4B6367FE
:105A5800EFF3108182F31088202322681068034333
:105A6800136081F3108805B0F0BD26002368029802
:105A7800596AA26D014011800232A2655E363288F1
:105A8800013A92B232800722DD6915422FD0063AD8
:105A9800154208D00399C90505D521001A6290312D
:105AA800086802430A600222154209D00199C90711
:105AB80006D521001A6290310868921802430A60DC
:105AC8000422154209D00199C90706D51A62220095
