:020000040800F2
:100000000020002045AC000895AC000895AC000825
:1000100000000000000000000000000000000000E0
:1000200000000000000000000000000095AC000887
:10003000000000000000000095AC00083B9600089E
:1000400095AC00080000000095AC000895AC0008D5
:1000500095AC00086997000879970008899700080F
:100060000000000095AC000895AC000895AC0008B5
:1000700095AC0008BD920008D59200080000000071
:10008000DD9200080000000000000000F59200086A
:10009000000000000D93000825930008E5550008B6
:1000A000FD55000895AC000895AC000839A1000882
:0800B00051A10008000000004E
:1000B8000023C25C0133002AFBD1581E70470000A0
:1000C80002B4714649084900095649008E4402BCE9
:1000D8007047C04602B4714649084900095C4900A6
:1000E8008E4402BC7047C046002243088B4274D33A
:1000F80003098B425FD3030A8B4244D3030B8B4221
:1001080028D3030C8B420DD3FF22090212BA030C29
:100118008B4202D31212090265D0030B8B4219D30A
:1001280000E0090AC30B8B4201D3CB03C01A52412A
:10013800830B8B4201D38B03C01A5241430B8B4272
:1001480001D34B03C01A5241030B8B4201D30B035B
:10015800C01A5241C30A8B4201D3CB02C01A524182
:10016800830A8B4201D38B02C01A5241430A8B4245
:1001780001D34B02C01A5241030A8B4201D30B022E
:10018800C01A5241CDD2C3098B4201D3CB01C01A48
:10019800524183098B4201D38B01C01A5241430952
:1001A8008B4201D34B01C01A524103098B4201D340
:1001B8000B01C01A5241C3088B4201D3CB00C01AAD
:1001C800524183088B4201D38B00C01A5241430825
:1001D8008B4201D34B00C01A5241411A00D201464A
:1001E800524110467047FFE701B5002000F0F0F8D3
:1001F80002BDC0460029F7D076E7704703460B4397
:100208007FD4002243088B4274D303098B425FD307
:10021800030A8B4244D3030B8B4228D3030C8B4233
:100228000DD3FF22090212BA030C8B4202D3121219
:10023800090265D0030B8B4219D300E0090AC30BEE
:100248008B4201D3CB03C01A5241830B8B4201D39B
:100258008B03C01A5241430B8B4201D34B03C01A84
:100268005241030B8B4201D30B03C01A5241C30AFC
:100278008B4201D3CB02C01A5241830A8B4201D36D
:100288008B02C01A5241430A8B4201D34B02C01A57
:100298005241030A8B4201D30B02C01A5241CDD2FC
:1002A800C3098B4201D3CB01C01A524183098B4247
:1002B80001D38B01C01A524143098B4201D34B0130
:1002C800C01A524103098B4201D30B01C01A524193
:1002D800C3088B4201D3CB00C01A524183088B421A
:1002E80001D38B00C01A524143088B4201D34B0003
:1002F800C01A5241411A00D2014652411046704775
:100308005DE0CA0F00D04942031000D34042534079
:1003180000229C4603098B422DD3030A8B4212D339
:10032800FC22890112BA030A8B420CD3890192116B
:100338008B4208D3890192118B4204D389013AD0A8
:10034800921100E08909C3098B4201D3CB01C01A7D
:10035800524183098B4201D38B01C01A5241430990
:100368008B4201D34B01C01A524103098B4201D37E
:100378000B01C01A5241C3088B4201D3CB00C01AEB
:10038800524183088B4201D38B00C01A5241D9D203
:1003980043088B4201D34B00C01A5241411A00D284
:1003A8000146634652415B10104601D34042002B80
:1003B80000D54942704763465B1000D3404201B5FF
:1003C800002000F005F802BD0029F8D016E77047B4
:1003D8007047C0468446100062468C461900634642
:1003E80000E0C0461FB50DF027F8002801D4002111
:1003F800C8421FBD10B50CF067FF4042013010BD68
:1004080010B50DF019F8002801DB002010BD0120FF
:1004180010BDC04610B50DF00FF8002801DD002012
:1004280010BD012010BDC04610B50CF091FF00288A
:1004380001DC002010BD012010BDC04610B50CF035
:1004480087FF002801DA002010BD012010BDC0463A
:10045800844608006146FFE71FB50BF0EFFC002853
:1004680001D40021C8421FBD10B50BF06FFC4042FB
:10047800013010BD10B50BF0E1FC002801DB0020B5
:1004880010BD012010BDC04610B50BF0D7FC0028E8
:1004980001DD002010BD012010BDC04610B50BF0D5
:1004A8007DFC002801DC002010BD012010BDC046E5
:1004B80010B50BF073FC002801DA002010BD0120F4
:1004C80010BDC046002B15D1002A13D1002906DB28
:1004D80001DC002806D00020C043410802E080214A
:1004E8000906002007B4024801A14018029003BD84
:1004F800E1FEFFFF03B4684601B502980BF066F908
:10050800019B9E4602B00CBC7047C0461C210123CB
:100518001B04984201D3000C10391B0A984201D3DE
:10052800000A08391B09984201D30009043902A2BC
:10053800105C40187047C046040302020101010123
:10054800000000000000000010B5002903D1FFF7EB
:10055800DDFF203002E00800FFF7D8FF10BDC046DD
:1005680010B5064C2378002B07D1054B002B02D081
:10057800044800E000BF0123237010BDE000002004
:100588000000000068E60008044B10B5002B03D0FB
:100598000349044800E000BF10BDC0460000000049
:1005A800E400002068E600080122014B1A70704739
:1005B8001001002010B5034B034918680AF044F8ED
:1005C800002010BD58EE00089CE60008074B10B547
:1005D8001C68074920000AF026F8064B0A2220006A
:1005E80019780AF09FF8002010BDC04658EE0008A0
:1005F8002BE7000802000020074B10B51C680749CC
:1006080020000AF010F8064B0A22200019780AF098
:1006180089F8002010BDC04658EE000838E70008E9
:1006280001000020074B10B51C680749200009F09D
:10063800FAFF064B0A22200019780AF073F8002006
:1006480010BDC04658EE000846E700080400002028
:10065800074B10B51C680749200009F0E4FF064B5A
:100668000A22200019780AF05DF8002010BDC04663
:1006780058EE000858E7000803000020F7B504000A
:100688000D000700831D0193EB1B20001E5D03F086
:1006980055FB864203D03100200003F0A1FB019BEB
:1006A80001349C42F0D1F7BD104B70B51D6802288B
:1006B80006D028000E4909F0DBFF0120404270BD3A
:1006C80048680AF053FC0B4C0B492070280009F0CD
:1006D800AAFF0A22217828000AF024F8074923787B
:1006E80000200B71FFF7CAFF0020E8E758EE00086A
:1006F80061E700080300002074E7000800010020FB
:10070800134B70B51D68022806D02800114909F05E
:10071800AFFF0120404270BD48680AF027FC0E4C2C
:100728000E492070280009F07EFF0A22217828004F
:1007380009F0F8FF0A49237800204B71FFF79EFF64
:10074800FA2321789B004B43064A00201360E2E716
:1007580058EE000861E700080400002085E700085B
:10076800000100200C010020104B70B51D68022804
:1007780006D028000E4909F07BFF0120404270BDD9
:1007880048680AF0F3FB0B4C0B492070280009F06D
:100798004AFF0A222178280009F0C4FF0749237874
:1007A80000208B70FFF76AFF0020E8E758EE00088A
:1007B80061E70008010000209FE700080001002011
:1007C800104B70B51D68022806D028000E4909F0A4
:1007D8004FFF0120404270BD48680AF0C7FB0B4C30
:1007E8000B492070280009F01EFF0A2221782800F2
:1007F80009F098FF074923780020CB70FFF73EFFE8
:100808000020E8E758EE000861E700080200002031
:10081800B5E700080001002070B504000025A542D6
:1008280000DB70BD002122200AF08EFA002118207A
:100838000AF08AFAC8200AF077FB012122200AF080
:1008480083FA012118200AF07FFAC8200AF06CFB0D
:100858000135E4E70300411800208B4200D17047BE
:100868001A7801335040F8E770B505000C000AF01B
:1008780053FB074A611B1368434058035840430C15
:100888004340580158401060FFF7B4FC481970BD48
:10089800FC00002013B5302008F0F6FD0F230400FB
:1008A800CB220093C421B43300F0B2FB21000748E7
:1008B80000F04AFE064803F049FD064B064A19783F
:1008C800FA239B004B43136013BDC0464801002028
:1008D80018010020040000200C01002030B5284B2E
:1008E8009FB01B780FAD2B70264B3C211B786846B8
:1008F8006B70254B1B78AB7003F07AFA684603F0EF
:100908008AFA224C200003F045FE0121021C6846A9
:1009180003F02EFB200003F04DFE0121021C684667
:1009280003F02DFB200003F0B7FE0121021C6846EE
:1009380003F02CFB684603F071FA0400E87002A982
:10094800684603F06DFA220002A910A80AF070FDAB
:10095800211D2800C9B2FFF77DFF2B190534290096
:100968001871E2B200230A4802F058FD0122094B2F
:100978001860094B68461A7003F046FA1FB030BD7C
:1009880001000020020000200000002018010020C3
:10099800480100201401002011010020E121F0B5D8
:1009A800684E87B006223000490209F0AFFD0121E8
:1009B80022200AF06DF9012122200AF0C5F901214F
:1009C8000B200AF065F900210B200AF0BDF901217E
:1009D80018200AF05DF9012118200AF0B5F95A48E3
:1009E80003F0A4FF594C0121200003F081F90028ED
:1009F80002D00A20FFF710FF0025280003F09EF917
:100A0800534948550135062DF7D10F78514D524AB3
:100A18005248534B422F26D14F782F708D7815703E
:100A2800CA7802704A791A7009794E4B1970FA23FC
:100A38009B0053434C490B600023049308330393F2
:100A480009334A4D0293013301930B3B009328006D
:100A5800474A4849023300F081FD002813D014208A
:100A6800FFF7DAFEFEE7127842278A700122007843
:100A78002D781B78C87000200F704D700A714B716B
:100A8800FFF7FCFDD8E7280004223B4901F05EFC93
:100A9800280002F022FC051E00D0FEE7374A38493C
:100AA800200003F0F5F80AF037FA364B1860364B99
:100AB80003201D70FFF7B0FE0121CD200AF0E8F8F1
:100AC8000121CD200AF040F92900CE200AF0E0F8F3
:100AD8002E4B31001C68200003F0EEFA20002C4A4F
:100AE8002C4903F0C3FA20002B4A2C4903F0BEFA24
:100AF80020002B4A2B4903F0B9FA20002A4A2B4937
:100B080003F0B4FA20002A4A2A4903F0AFFA200079
:100B1800294A2A4903F0AAFA2000294A294903F058
:100B2800A5FA2000284A294903F0A0FA2000284AFB
:100B3800284903F09BFA29002800FFF73BFD07B07E
:100B4800F0BDC046140E002018010020100300203C
:100B58000001002000000020010000200200002009
:100B680004000020030000200C01002048010020A0
:100B78000000FA4200406644B1050008C0E0F301F5
:100B880080969800080100200601002058EE000811
:100B9800BD050008CAE7000871070008CEE700088D
:100BA80001060008E7E70008C9070008F4E700089D
:100BB800D50500080BE80008B106000817E800088A
:100BC8005906000826E80008090700082EE800086A
:100BD8002D0600084FE80008F0B585B04E4800AF74
:100BE80003F078F84D4B4E4C1A78002A15D00022A5
:100BF8001A704C4B4C4ABB601B78FA60002B2FD004
:100C08004A4B1B68002B02D10220FFF705FEF8684B
:100C180002F063FB0023BA6813702379012B00D01C
:100C28006EE00AF079F9424D424A2B6812680400D6
:100C3800C31A934208DDFA2164208900FFF714FEE5
:100C480000192860FFF74AFECE200AF0BBF80028FA
:100C580003D0394B186803F059FBBD4605B0F0BD09
:100C68006B460121F8687B6001F02EFC6A46C31DC3
:100C7800DB08DB00D31A9D46050002006946F868C8
:100C88006E4602F0D3FC00281CD1072D1AD8327802
:100C9800A3789A4213D17278E3789A420FD1B07848
:100CA800B57904280BD8FFF715FA0316202224007B
:100CB8002249234809F0DCFC0122224B1A70022049
:100CC800FFF7AAFDF86802F008FB0023BA68137062
:100CD8007B689D46A1E71C49194809F0C9FCA57025
:100CE80021000020FFF7CAFCE9E7E570F8E7257165
:100CF800F6E7FA239B006B430E4A65711360EFE732
:100D0800104B1A78002A9FD0FA20002280001A700F
:100D18000AF00AF996E7C0461003002010010020E7
:100D280000010020110100204801002014010020CA
:100D3800080100200C01002058EE000860E80008B7
:100D4800140E00200601002078E8000837B50800D6
:100D5800421E9041081AFA210F4D8900AB68009392
:100D68006C6801346043FFF7BFF90022009B0193D0
:100D7800AB6800930199009B994209D20199009BA5
:100D8800E31A5B18D218009B01939042F0D837BD44
:100D9800019B00995B1AF5E710E000E0CBB20E4A20
:100DA8002C2B0BD9C0220A40C02A11D1CF2B0FD827
:100DB8003F230A480B409B00074A1B58E0209B0032
:100DC8009B58C00008401843431C00D008007047D7
:100DD80001204042FBE7C0467CF500083CF50008CE
:100DE80010B5C06902F01AFD10BD10B5C06902F057
:100DF80049FD10BDF8B507000C001D008E18B4425F
:100E080000D1F8BD21780022F86902F03FFD0134D5
:100E180028700135F3E710B509F0E6FE10BD10B5EE
:100E28004B1C03D0C8B2002109F06EFD10BD0800AC
:100E380010B511001A00431C02D0C0B209F0E0FC42
:100E480010BD10B5C06902F01CFD10BD10B51C30F6
:100E580007C802F0F9FC10BD10B50C000020110005
:100E68001A00631C02D0200009F0E6FF10BD10B57F
:100E78000AF056F810BD10B50AF04EF810BD10B5BE
:100E880008000AF051F810BD080010B54B1C01D03D
:100E980009F07EFD10BD00007FB50C0015001E0096
:100EA8004B1C19D00C22002168460AF00AFA0023CC
:100EB80003939D4204D0094B00950393084B02937A
:100EC80032006946200009F099FD029B002B03D0EF
:100ED80003226946684698477FBDC046650F0008EB
:100EE800450F0008002010B54B1C02D0080009F07F
:100EF80069FF10BD080010B51100431C01D009F0AE
:100F080023FF10BD080010B51100431C01D009F0E3
:100F1800BFFE10BD030010B528331B78002B02D08C
:100F280003689B6A984710BD030010B528331B78E7
:100F3800002B02D003689B6B984710BD012A02D191
:100F4800016000207047022A05D0032AF9D0002A40
:100F5800F7D10260F5E70B680360F2E710B50368A4
:100F6800984710BDF8B50D0017000C005E18A64292
:100F780000D1F8BD7B1B2000195D02F031FF013460
:100F8800F5E7F8B50D0017000C005E18A64200D171
:100F9800F8BD200002F0D2FE7B1B18550134F5E79E
:100FA800032330B585B00293013301250193002353
:100FB800040019002A00009500F01AF8064B2000DA
:100FC8002360064BA584E361054B23622300283385
:100FD8001D7005B030BDC046A0E800089002002092
:100FE80080841E007047704770470800704770473C
:100FF80010B5C360029B054C0361039B0460436109
:10100800049B41608260836110BDC04604E900080A
:1010180070B504008025002062612200A3612D02C2
:10102800049B6560094DE361094B2060A560E060A1
:101038002161203262CB62C2E0622C3008F024FACF
:101048000500FFF7ADFF2000256070BD0800FFFF19
:1010580090E6000810B5040000680368DB6B984749
:1010680020682169036882681B689847206821699D
:10107800036802695B68984710BD10B5006803688B
:101088001B6C984710BDF0B585B00393037A160022
:101098000B9ADB089B180400180001930F0008F056
:1010A800F7F90500019808F0F3F90290227AF3B2F3
:1010B800082A37D83B43681C2B706379BB4237D169
:1010C8000B9A03990AF0B4F920680368DB6A984719
:1010D800206821690368C2685B689847206829000E
:1010E8000368019A1E6B029BB04720682169036858
:1010F80002695B689847206803685B6B98472379A7
:10110800BB4207D1217A029BC9080B9A0A98591841
:101118000AF08EF9280008F0BFF9029808F0BCF927
:1011280005B0F0BD360A3E432E70A81C6B70C4E7AC
:10113800A1790B9A0AF0C5F8C6E70000F0B585B0AA
:1011480002930DAB1B780192039313000C9A0400D1
:101158009446029A6344009353425341009A0E0006
:10116800D3181800009308F093F90700009808F0C6
:101178008FF931000500019A38000AF059F9019BEE
:10118800F818029B002B4DD00C9A0A990AF050F9D6
:101198002068E269036801324AD101215B699847F6
:1011A80020680368DB6A9847206821690368C26879
:1011B8005B689847206839000368009A1E6B2B000B
:1011C800B04720682169036802695B68984720680E
:1011D80003685B6B9847039B002B07D02068E26984
:1011E8000368013244D101215B699847E3681C1EFA
:1011F80007D000240C9AA24203D0019AA85C984711
:101208000400029B002B06D101990C9A01310B981E
:1012180069180AF00DF9380008F03EF9280008F0BE
:101228003BF922E00C9BA1795A1C0AF04AF8AFE777
:10123800DB69984706002068E16903689B6898475E
:101248000028ADD020680368DB6C984720680368E5
:10125800DB6998470E9B801B9842ECD3380008F056
:101268001BF9280008F018F90F4C200005B0F0BD54
:1012780001219B69984720680368DB699847060045
:101288002068E16903689B6898470028AED0206809
:101298000368DB6C984720680368DB6998470E9BF6
:1012A800801B9842ECD3D9E73FFDFFFF70B51E00C5
:1012B800437A0C0088B00179002B06D10192009680
:1012C8002200FFF7E0FE08B070BD07AD230A6B707F
:1012D800FA239B002970AC70049301230393002325
:1012E80002922900032201960093FFF727FFEAE7FD
:1012F80030B51B24002389B06C442370457A0A005A
:1013080001799D4208D10133019300942B00FFF726
:10131800BAFE207809B030BD07AD2970AA70110A4D
:10132800FA22920069700492012229000392029223
:10133800019400930232FFF701FFEAE770B51C0041
:10134800130015002343072B0DD8A2420BD3FFF738
:10135800CFFFFF2107230A005B1B1A41A140114060
:101368000840C0B270BD0B204042FBE770B51E00BC
:10137800437A0C0088B04179002B07D1009301967D
:1013880013002200FFF77FFE08B070BD07AD230AE7
:101398006B70FA239B002970AC7000210493012321
:1013A800019100922900032203930296FFF7C6FEDB
:1013B800EAE730B58BB06B46DA77437A0C004179AF
:1013C800002B09D1012200931F3301926B442200A4
:1013D800FFF759FE0BB030BD09AD230A6B70FA2335
:1013E80000229B002970AC700493012301921F32E4
:1013F8006A4400922900032203930293FFF79EFE9A
:10140800E8E7F0B51E0085B00AAB1F780BAB1B7878
:10141800050003930CAB1B78140002933300019171
:101428003B43072B37D8BE4235D3FFF761FFFF2276
:10143800082113000136C91BF6B20A41B340134311
:10144800DB43DBB298431C400443E4B2220028008B
:101458000199FFF7AEFF2868FA260368B6001B6AF1
:1014680098470700039B5E43286803681B6A9847F0
:10147800C01BB04202D3102040420AE02800019964
:10148800FFF736FF0300029A0298634018401342A0
:10149800EAD105B0F0BD0B20EEE7013970B50200C6
:1014A8000C00002001254B1C00D170BD2B00661AD2
:1014B800B3401340F3408B4001391843F3E7C06A47
:1014C800002803D170478B42FCD010300378002BE2
:1014D800F9D11800F6E7F8B50600FFF7F0FF041E8B
:1014E80010D035003700043420352C3729684B1CC0
:1014F80004D03068226803685B6898470435043470
:10150800BD42F3D1F8BD000070B50D1C04000C49B4
:10151800281CFEF7CDFF00280ED00A49281CFEF72C
:10152800B3FF002808D02000291C01F039FA002850
:1015380001D1FC34E56270BD0C204042FBE7C04697
:101548000000094300007F4410B5040000F036FA9B
:10155800014B2000236010BD68E90008F0B585B094
:101568001D000AAB1B78171C01930BAB1A780CAB48
:101578001B780E1C0EA909785BB202930DAB039180
:101588001B881221040001F0B0FD00282AD1200098
:10159800391C00F00BFC002824D1236820001B6BA9
:1015A800311C984700281DD12900200000F09CFD1F
:1015B800002817D12000019900F0EDFD002811D175
:1015C800236820009B6C0299984700280AD12000C4
:1015D800039900F09AFA002804D1020001212000A2
:1015E80000F08CFB05B0F0BDFC3070B50400836AD8
:1015F80018689969026815688268A847A36A186814
:10160800996902685568C268A847A36A01211868E1
:1016180003685B699847A36A1868996902685568FE
:101628000269A847A36A0521186803685B69984797
:1016380070BD000070B50D1C04000C49281CFEF795
:1016480037FF00280ED00A49281CFEF71DFF002886
:1016580008D02000291C01F0A3F9002801D1FC348E
:10166800E56270BD0C204042FBE7C046000009431C
:101678000040034410B55D2201F098FB10BD000046
:10168800F0B58BB00890099100F0E0FE802800D0FA
:1016980057E1089CFC34206B0CF018FE0022AB4B81
:1016A8000CF000FA4B005908A94AAA4BFEF7B2FE03
:1016B800002816D0E56AA849281CFEF7F9FE00287C
:1016C80030D0A649281CFEF7DFFE00282AD00222C7
:1016D8003621A06AFFF76DFE64223A21A06AFFF75F
:1016E80068FEE36A206B05930CF0F0FD9C4A9D4B65
:1016F80006000F000CF0D6F94B005908944A954B98
:10170800FEF788FE051E20D005980CF0DFFD964AEE
:10171800964B0AF05FFF0CF021FE00244825059047
:101728002600DCE09249281CFEF7C2FE0028D8D02B
:101738009049281CFEF7A8FE0028D2D002223621A4
:10174800A06AFFF736FE7F22C7E78B4A8B4B300033
:1017580039000CF0A7F94B0059087D4A7D4BFEF77C
:1017680059FE041E0BD005980CF0B0FD844A854B39
:101778000AF030FF0CF0F2FD2C0005901CE0784ACE
:10178800814B300039000CF08DF906900791079BCA
:10179800069A5B00100059086D4A6E4BFEF73AFE38
:1017A800051E0BD005980CF091FD6F4A774B0AF097
:1017B80011FF0CF0D3FD05904425B1E76E4A744B38
:1017C800300039000CF06EF94B005908604A614B43
:1017D800FEF720FE041E05D005980CF077FD6D4A33
:1017E8006D4BC5E700226D4B300039000CF05AF9FB
:1017F80006900791079B069A5B0010005908544A07
:10180800544BFEF707FE051E05D0F42105988905FF
:1018180009F0FAFFCFE7624A624B300039000CF05A
:1018280041F94B0059084A4A4A4BFEF7F3FD041E9A
:1018380005D005980CF04AFD5B4A5C4B98E70022FE
:101848005B4B300039000CF02DF906900791079B8F
:10185800069A5B00100059083D4A3E4BFEF7DAFD38
:10186800051E00D070E00022524B300039000CF009
:1018780019F94B005908364A364BFEF7CBFD041EC2
:1018880061D100224C4B300039000CF00BF9069066
:101898000791079B069A5B00100059082C4A2D4BAC
:1018A800FEF7B8FD00284FD10022284B3000390040
:1018B8000CF0F8F84B005908254A264BFEF7AAFD0C
:1018C80000283ED0089C2F21FC34A06AFFF710FDA9
:1018D80030210500A06AFFF70BFD40260400089B95
:1018E80008981B689B689847089F099B0599FC37CF
:1018F800002B00D1F96A089801F052F80721FF235C
:1019080002220293019200910B0032002A31B86A38
:10191800FFF777FD0026FF2302220293019200962B
:101928002A002F21F83BB86AFFF76BFDFF2302223C
:1019380002930192009622003021B86AF83BFFF723
:1019480060FD0BB0F0BD2C004025E9E600407F406B
:10195800FCA9F1D24D62503F0080574400007F44FB
:101968003333333333331F4093E34EE960FD7F3F16
:101978000000CD4300400344CDCCCCCCCCCC24409B
:101988004968CBB91457853F33332F4060FD8F3FEB
:10199800CCCC3440DC4B1AA37554953F00403F40F3
:1019A8009A99999999D9444012DA722EC555A53F4A
:1019B80000404F4000405F4000406F4010B50400B9
:1019C80000F09CFC034B01222360A3235B00200052
:1019D800E25210BD18EA0008F0B587B005000C0007
:1019E8000492002A0DD0CE1CF6B2122E00D984E043
:1019F80000F065FF0490002C5CDB70231C43E4B20C
:101A08005AE014292AD100F05AFF0226FF2707239B
:101A1800FC35009302970196040080220921A86AE8
:101A2800FFF7EFFC049B02970093019606237F22A1
:101A380004430921A86AFFF7E4FC049B07220093EA
:101A4800330024B2044324B2029701964D21A86AB8
:101A5800FFF7D7FC204300B207B0F0BD023CE4B268
:101A68000F2C4AD800F02BFFFF2702260723FC354E
:101A7800009302970196802209210590A86AFFF732
:101A8800C0FC7022059B0297184303B20593049B80
:101A980001960093224306230921A86AFFF7B1FCA7
:101AA800059B02971843049B04B2019600930422F5
:101AB8003300CBE720243443FF2702260723FC35D5
:101AC80000930297019600220921A86AFFF799FC62
:101AD80000230297009301962200059006330921FE
:101AE800A86AFFF78EFC059A002302431000049AA7
:101AF8000297024314B20196D8E70D204042ABE7A3
:101B080010B50022FFF768FF10BDF0B587B00400DC
:101B1800049106295AD800F0D2FE0700200000F0F0
:101B280095FC060080282BD1FF25049B7E3EFC34C3
:101B3800A06A029501960096002B06D13300042274
:101B48002621FFF75EFC074316E03300002226211A
:101B5800FFF757FC0322049B05905B011A430023FF
:101B6800D2B200930295019607330C21A06AFFF7C1
:101B780048FC059D05432F433FB2380007B0F0BD30
:101B88000028FAD1049BFC340225A06A002B07D157
:101B9800FF330293FC3B08220D2101950093D0E707
:101BA8000322FF230D2102930092130001953200B6
:101BB800FFF727FC0322049905904B011343DAB27F
:101BC800FF23019502930096F83BCEE713277F4247
:101BD800D3E77FB504000E0000F038FC002833D1AD
:101BE8009C235B00E35C002B31D0200000F067FEF3
:101BF8000500012E15D0022E1DD06A20002E24D1FA
:101C0800FF2332000293FD3B019303330093FC341E
:101C180001330A21A06AFFF7F4FB284300B204B09D
:101C280070BDFF230293FD3B0193033300932022F1
:101C3800FC340133EDE7FF230293FA3B0093402283
:101C4800FC3401960133E4E714204042E7E76B20B7
:101C5800FBE730B585B004000D0000F0F7FB002865
:101C680045D19C235B00E35C002B07D0002D41D1BC
:101C780029002000FFF7ADFF05B030BD200000F0BF
:101C88001EFE0028F8D1042D36D82800FEF722FAC7
:101C980003111B342500FF2300220293FD3B01930F
:101CA80003330093FC3401330A21A06AFFF7A9FB30
:101CB800E2E7FF230293FD3B019303330093602285
:101CC800FC340133F0E7FF230293FD3B0193033318
:101CD80000934022FC340133E6E7FF230293FD3BE7
:101CE8000193033300932022FC340133DCE71420F2
:101CF8004042C1E76B20FBE76A20F9E7F0B507002F
:101D080085B00E0014003D0000F0A0FBFC358028D3
:101D180014D13A23FF22FF33FE54383BFF3BA86A15
:101D2800029201930093FB3A002E00D132001E214B
:101D3800FFF767FB0300180005B0F0BDFF22022380
:101D4800A86A02920193002E12D0DB180093EF3A92
:101D58003021FFF756FB031EEDD1FF210222A86AAE
:101D6800029101920093002C06D0013ACF39DFE7A7
:101D7800042332000093EBE71A003021D8E77FB53F
:101D88000E00050000F09BFDFF230293FD3B01932D
:101D980002330093FC35040032001D21A86A033386
:101DA800FFF72FFB204300B204B070BDF0B587B039
:101DB80006000F1C00F04AFB802800D007E1381C01
:101DC8000CF084FA834A844B04000D000BF06AFE81
:101DD80004900591059B049A5B00100059087F4AFE
:101DE8007F4BFEF717FB002800D0AEE07D4A7E4B04
:101DF800200029000BF056FE04900591059B049ADB
:101E08005B0010005908754A754BFEF703FB002864
:101E180000D0C8E06F4A754B200029000BF042FE45
:101E280004900591059B049A5B00100059086B4AC1
:101E38006B4BFEF7EFFA002800D0B6E0694A6C4B0E
:101E4800200029000BF02EFE04900591059B049AB2
:101E58005B0010005908614A614BFEF7DBFA002865
:101E680000D0A4E00022634B200029000BF01AFEEA
:101E780004900591059B049A5B0010005908574A85
:101E8800574BFEF7C7FA002800D092E05A4A5B4B3E
:101E9800200029000BF006FE04900591059B049A8A
:101EA8005B00100059084D4A4D4BFEF7B3FA002865
:101EB80000D080E00022524B200029000BF0F2FDF8
:101EC80004900591059B049A5B0010005908434A49
:101ED800434BFEF79FFA002800D06EE00022494BE2
:101EE800200029000BF0DEFD04900591059B049A63
:101EF8005B0010005908394A394BFEF78BFA002865
:101F08005DD10022404B200029000BF0CBFD04904E
:101F18000591059B049A5B00100059082F4A304B25
:101F2800FEF778FA00284CD10022384B200029000F
:101F38000BF0B8FD4B005908284A294BFEF76AFAFE
:101F48009021002802D1082442E000213000FFF748
:101F580016FF041E24D13300A322FC331F63520052
:101F6800B25C002A1CD09D6A982301205B00F35CB8
:101F780098400AF0EDFA391C09F0C8FD8321C9051B
:101F8800FEF796FAFF2202230292019300281AD044
:101F980001330093F73A26212800FFF732FA0400AC
:101FA800200007B0F0BD1021D0E72021CEE7302176
:101FB800CCE74021CAE75021C8E76021C6E7702175
:101FC800C4E78021C2E7032322000093E3E7142437
:101FD8006442E5E73333333333331F40FCA9F1D28E
:101FE8004D62503FCDCCCCCCCCCC244033332F40A9
:101FF800CCCC344000403F409A99999999D94440B3
:1020080000404F4000405F4000406F4000407F402C
:10201800F0B587B0050000270C00022600F04FFC41
:10202800FF2304900293FC353B0001960097602C37
:1020380030D101221D21A86AFFF7E3F9FF2302939B
:10204800FC3B0093019622001E2105900433A86AE8
:10205800FFF7D7F9059AFF2302431000049A029369
:10206800024301960097330014B231210522A86A71
:10207800FFF7C7F9FF230C220443029324B2019609
:102088000097F83B3721A86AFFF7BBF9204300B255
:1020980007B0F0BD3A001D21A86AFFF7B2F9FF2387
:1020A800032202930092019622001E210590F83B1C
:1020B800A86AFFF7A6F9059AFF2302431000049ABD
:1020C8000293024301960097330014B23121032290
:1020D800A86AFFF796F9FF23044302930A2224B261
:1020E80001960097F83BCDE7F0B585B005000E00E6
:1020F80000F0ACF9802832D1B31F062B32D8310159
:102108002800C9B2FFF784FF041E21D198235B0081
:10211800EE541633EB5C002B1AD00120FC35B0408E
:102128000AF016FA296B09F0F1FC8321C905FEF7BC
:10213800BFF9FF220223AF6A0292019300280AD056
:1021480001330093F73A26213800FFF75AF90400C3
:10215800200005B0F0BD032322000093F3E7142408
:102168006442F5E70924FBE77FB50E00050000F09F
:10217800A6FBFF230293FD3B0193013B0093FC3533
:10218800040032001D21A86A0233FFF73AF9204300
:1021980000B204B070BD70B504000D0000F056F92F
:1021A80080280ED16B1F032B0ED869000839200038
:1021B800C9B2FFF7D9FF002802D13223FF33E55413
:1021C80070BD14204042FBE70A20FBE77FB502926E
:1021D800040001910393029E00F038F9C0B201ADEA
:1021E80000280DD1236820005B6B019998470028CF
:1021F80004D1236820009B6B311C984704B070BD44
:10220800802810D120002978FFF76EFF0028F5D12B
:102218002000311CFFF7CAFD0028EFD12000297AE1
:10222800FFF7B9FFEAE701204042E7E7FC30806AA0
:10223800704710B503689B68984710BD0300FC33CE
:102248009B6A10B50400186803689B689847C1B278
:10225800200001F091FA10BD036870B59B6E040070
:10226800984700280DD070BDAB6A18680368DB6C0E
:102278009847AB6A1868D96902689268904700283D
:102288000CD12500FC35AB6A186859690268926858
:1022980090470028E8D00F204042E4E70E20FBE7F3
:1022A80030B50C0085B0052924D8FC304900FF253D
:1022B800806AD2B2C9B2032C0FD807235B1A022155
:1022C80001910131091B4900C9B200914021DBB2DB
:1022D8000295FFF796F805B030BD0F235B1A02216F
:1022E80001910531091B4900C9B20091DBB24121B6
:1022F8000295EEE71A204042EDE7000070B50400B1
:102308000D00FF220E4901F02DFA0E4B200023602C
:10231800230000220021FC33FE30DA621A63418672
:102328009A6341879D200126400026545A64A222C0
:102338001964054952002000A1529D6270BDC04633
:1023480000247442C8EA00080080FFFFFC30F8B59A
:10235800836A16001C680D0022685969D768200036
:10236800126D9047330001002A002000B847F8BDDD
:102378000300FC3310B59B6A1B685A69FFF7E6FF38
:1023880010BDFC30836A70B51C685969226820004A
:102398001569126D904701002000A84770BD10B55F
:1023A800FFF7EFFF10BDFC30F8B5836A0D00D9695F
:1023B80016004A1C0AD01C6823682000DF681B6DC1
:1023C8009847330001002A002000B847F8BD0300F1
:1023D800FC3310B59B6A1B685A69FFF7E4FF10BD10
:1023E80010B5FC30002307224221806AFEF7A6FFC1
:1023F80010BD1FB5FF2300220293FD3B01930092FD
:10240800FC3024210533806AFEF7FBFF05B000BDD0
:1024180070B504000E00002523682000A0331B6857
:1024280098472000FFF7DCFFB04201D1012070BDC2
:102438002300FC339B6A013518680A210368EDB252
:102448005B6998470A2DE7D10020F0E7072310B50C
:10245800FC301A000121806AFEF770FF10BD0000F1
:1024680010B50400FFF7F2FF802810D1FC340023D8
:1024780007221921A06AFEF761FF40B20BF0D0FED7
:102488000022044B0BF04AF80BF068FF10BD002047
:10249800FCE7C0460000D03F30B585B004000D0011
:1024A800FFF7D4FF00280CD1FF230293FD3BFC3437
:1024B800019300902A000D21A06AFEF7A2FF05B043
:1024C80030BD14204042FAE770B504000E00250024
:1024D800FFF7BCFFFC35802809D198235B00E35C3B
:1024E800062B1AD01321A86AFEF702FF70BD002838
:1024F80013D1A2235B00E15C00290ED1002E0CD081
:102508004623FF33E35CA86A802B08D1FEF7F0FE70
:10251800A22301225B002864E254286CE6E73221FA
:10252800F4E70000F0B587B00C000090FFF78EFFCD
:10253800C6B2802E00D0CFE098230120009A5B001D
:10254800D35C98400AF004F8009EFC36316B09F021
:10255800DDFA8321C9050290FDF7AAFF00230028B0
:1025680001D0FE239B05019300231D211A00B06AA8
:10257800FEF7E4FE09F0A0FF02231E211A000490D2
:10258800B06AFEF7DBFE801000B209F095FF002369
:10259800072220210590B06AFEF7D0FE21210023F2
:1025A80007220500B06AFEF7C9FE2D02284309F08C
:1025B80083FF9823009A5B000390D05C09F0C8FF62
:1025C8000BF084FE0022774B0AF0A8FF0F000600EC
:1025D800200009F0BDFF0BF079FE0022724B0AF0D3
:1025E8009DFF32003B000BF05DFA00226F4B09F0B3
:1025F800F1FF040005980D000BF068FE00226C4BFB
:102608000AF08CFF02000B002000290009F0E2FF0D
:10261800040004980D000BF059FE0022654B0AF0E7
:102628007DFF02000B00200029000BF03BFA04009C
:1026380001980D000BF04AFE00225B4B0AF06EFF7A
:1026480002000B00300039000BF02CFA02000B00DE
:10265800200029000AF01CFB08F096FF32230D0029
:102668000400009AFF33D05C09F072FF0BF02EFED5
:1026780022002B000AF052FF0022002304000D0064
:10268800FDF7D2FE002801D1002400250022464B88
:102698002000290009F09EFF0BF060FE039909F065
:1026A800B3F80BF013FE0022434B09F093FF04002C
:1026B80002980D000BF00AFE02000B002000290012
:1026C8000AF02CFF08F060FF00223C4B0AF026FFBE
:1026D80009F02AF807B0F0BD002E60D1009D330044
:1026E800FC3507222521A86AFEF728FE33000722B9
:1026F80026210700A86AFEF721FE3F02384309F0A9
:10270800DBFE8221C90509F0E7FB330002222721FD
:102718000190A86AFEF712FE013009F0CDFE822171
:10272800C90509F0D9FB042330211A00061CA86A40
:10273800FEF704FE0027102801D18327FF05462352
:10274800009AFF33D35C0134002B05D107223221D4
:10275800A86AFEF7F3FD0400311C381C09F054F890
:10276800019909F051F8061CE00009F0F1FE011C7E
:10277800301C09F049F80BF0A9FD0600A86B0F0002
:102788000BF0A4FD00220D4B0AF0C8FE02000B005E
:10279800300039000AF07CFA0022094B96E7012044
:1027A800404297E7000010400000204000003C40F5
:1027B80000003040000034400000114000408F40CD
:1027C80080842E4130B585B004000D00FFF73EFE31
:1027D800002828D1012D13D0022D1BD01720002D41
:1027E80022D1FF232A000293FD3B01930333009378
:1027F800FC3401333021A06AFEF703FE05B030BD7A
:10280800FF230293FD3B0193033300932022FC3402
:102818000133EFE7FF230293FA3B00934022FC3495
:1028280001950133E6E714204042E7E770B504005C
:10283800FFF70CFEFC34802804D11221A06AFEF7B1
:1028480057FD70BD3F21A06AFEF752FD3E210502EB
:10285800A06AFEF74DFDADB2284380B2F1E710B58E
:10286800FFF7E4FF012318400F3800B210BD30B560
:1028780085B004000D00FFF7E9FDFF23002803D110
:102888006B1F5A1E9341FE330293052301930023C5
:10289800FC3400932A000121A06A0233FEF7B1FD3F
:1028A80005B030BD030010B50400FC33986A01215F
:1028B800FEF711FE00212000FFF7D9FF10BD03002D
:1028C80010B50400FC33986A0121FEF704FE0121CB
:1028D8002000FFF7CCFF10BDF0B5012185B0040042
:1028E800FFF7C5FF00281DD102252600FF27FC366B
:1028F800029701950095020005234021B06AFEF772
:1029080080FD00280ED101002000FFF7C5FD00283A
:1029180008D1062302970195009302003121B06A7D
:10292800FEF76FFD05B0F0BDF0B50F002D3FFBB20F
:1029380004000E0085B0C32B15D80121FFF797FFBF
:10294800FC340500782E24D805213800FDF756FC04
:10295800FF2320220293FD3B0193002302430093AF
:10296800D2B205330DE0002917D10121FFF77FFF0F
:10297800FF23050032000293FD3B01930333FC342F
:1029880000930B21A06AFEF73CFD284300B205B076
:10299800F0BD30000A211E30D8E711204042F6E78A
:1029A800F0B50600FC36050000230722B06A85B0A2
:1029B8000F1C2421FEF7C2FC0024A04204D10121EF
:1029C8002800FFF754FF04009221381CC90509F0BC
:1029D80083FA0BF07BFC0022184B0AF09FFD08F0ED
:1029E800A3FEFF2702230021019300910297020C06
:1029F8000500D2B2B06A05330631FEF702FD0223A4
:102A0800002101930091029705332A0A1900044313
:102A1800D2B2B06AFEF7F5FC0223002101930091BF
:102A2800029724B20443EAB2B06A05330831FEF7CC
:102A3800E8FC24B2204300B205B0F0BD0000A03F7E
:102A4800F0B50D0085B00121040016000193FFF7D1
:102A58000EFF002855D12000FFF7F8FC802867D129
:102A6800236831005B6E2000984723680290DF6975
:102A7800320029002000019BB847002841D1029864
:102A880027000BF0FDFB0022454B0AF047FD08F03C
:102A98004BFEFC37BB6A0190186803681B6A9847AD
:102AA8000500BA6A1068516903689B68984700284E
:102AB80029D02700FC37BB6A186803681B6A984747
:102AC800019030000BF0DCFB0022364B0AF026FDAB
:102AD800019B02900391581B09F03AFD0BF0F6FB9D
:102AE8000022314B0AF0D4F80B0002000298039937
:102AF8000AF0CEF80BF032FC236878641B6A2000D9
:102B0800984705B0F0BDBB6A18680368DB6C984746
:102B1800BB6A186803681B6A9847019B401B83427D
:102B2800BFD2236820001B6A984705204042E8E787
:102B3800002833D1236831005B6E20009847236852
:102B48000290DF69320029002000019BB847002865
:102B5800D7D105232700029AFC375343134A9B1801
:102B68000193BB6A186803681B6A98470500BA6A2C
:102B78001068516903689B689847002899D1BB6A17
:102B880018680368DB6C9847BB6A186803681B6A97
:102B98009847019B401B8342E9D2C2E70120C5E761
:102BA8000000F83F0000204080842E418813000078
:102BB80070B505000C00FFF749FC002823D12E0052
:102BC800FC360321B06AFEF786FC002C15D0220CD7
:102BD8000621B06AD2B2FEF7ECFB220A0721B06ADE
:102BE800D2B2FEF7E6FB0821B06AE2B2FEF7E1FBDB
:102BF80003212800FFF73BFE04E02800FFF76CFEE6
:102C08000028F5D070BD14204042FBE710B5040041
:102C1800FFF71CFC00280FD12300FC33986A02211F
:102C2800FEF759FC2000FFF757FE002803D10521C5
:102C38002000FFF71CFE10BD14204042FBE730B512
:102C480085B004000D00FFF701FC802812D1012196
:102C58002000FFF70CFEFF230293FD3B01930023A6
:102C6800FC3400932A003921A06A0733FEF7C9FB18
:102C780005B030BD14204042FAE7F0B587B0040033
:102C88000E001500FFF7E2FBC0B2002831D16B1E21
:102C9800072B3BD83300AA191978002936D00133FD
:102CA8009A42F9D1FF2302270293FB3B0197009335
:102CB800FC3410222721A06AFEF7A3FBFF2302930E
:102CC8000023019700936A1E3B0005902721A06A04
:102CD800D2B2FEF796FB059B03431FB2002F05D126
:102CE8002B0032002821A06AFEF740FB380007B00D
:102CF800F0BD802807D1012D08D820003178FFF7D2
:102D08009EFF0700F2E714277F42EFE76927FBE7FA
:102D1800F0B50C0087B001210600FFF7A8FD051EDD
:102D280022D13000FFF792FBC0B280281FD1052CBA
:102D380036D9FF230227029301970095220AFC3611
:102D48002021D2B2F83BB06AFEF75BFBFF232121BA
:102D580002930590E2B201970095F83BB06AFEF73E
:102D680050FB059F07433DB2280007B0F0BD00287F
:102D780019D1FF230227E408029301970095A2B214
:102D8800FC362521120AF83BB06AFEF73AFBFF230E
:102D9800262102930590E2B201970095F83BDDE702
:102DA80012256D42E0E70125FBE70000F0B58BB086
:102DB80005000E1C0892FFF749FB002800D07BE0B5
:102DC8009C23FC215B00EB5C8905301C002B00D1A7
:102DD80069E0FDF76DFB002800D170E0301C0BF0B6
:102DE80075FA384A384BFDF715FB002867D00121E2
:102DF8002800FFF73CFD041E52D1301C0BF066FA88
:102E080002000B000020314909F042FF06900791AB
:102E180008F08AFC83B202211A0A2F000593FF23C7
:102E2800019102930094FC37F83BB86AFEF7E9FA7F
:102E38006B4602211A7DFF230191029300940990A9
:102E4800F83BB86A0131FEF7DCFA099B03431CB270
:102E58009C235B00ED5C002D1FD1059809F078FBE1
:102E68000BF034FA02000B00069807990AF01AFED4
:102E78000BF074FA8321C90509F02EF808F03CFC20
:102E8800FF230293FD3B01930095C2B20899B86AEB
:102E98000533FEF7B6FA044324B2002C00D1BE6312
:102EA80020000BB0F0BDFDF703FB002807D0084950
:102EB800301CFDF7E9FA98E714246442F0E765242A
:102EC800FBE7C0469DA1B8E34D6240400040DF40AB
:102ED80000009643F0B587B004000D1CFFF7B6FA62
:102EE800002855D10021281CFDF7C4FA2E1C002803
:102EF80000D02A4E2700FC37B86B0BF0E7F9002208
:102F0800274B0AF00BFB04900591301C0BF0DEF9FF
:102F180002000B000498059909F05CFB0022214B84
:102F2800FDF778FA002836D01F49281CFDF7ACFABF
:102F3800002830D020000121FFF799FC041E24D17D
:102F48009221301CC90508F0C7FF184908F0DEFDBA
:102F580008F0D2FB0226FF23019602930094020A8E
:102F680005000421D2B2FA3BB86AFEF74AFAFF23F9
:102F780001960293009404900521B86AEAB2F83BDE
:102F8800FEF73FFA049E064334B2200007B0F0BDB6
:102F980014246442F9E76624FBE7C0469A99193F6E
:102FA8000000E03F00406F40000048430000FA4640
:102FB800F7B50400FFF74AFA11230193002801D05E
:102FC8001B3301932700002505212000FC37FFF75C
:102FD8004EFCBB6A0A2118682E0003685B69984793
:102FE8000199B86AFEF784F901231840A840ED1842
:102FF8000643F6B2082DF3D119002000FFF737FC7D
:103008003000FEBDF0B585B004000D00FFF71EFAD4
:10301800802849D1FF26FC34A06A0296002D22D0D0
:10302800022706234022332101970093FEF7E9F98E
:10303800019700270296009705003B003A003321CC
:10304800A06AFEF7DEF90223029601930097054372
:1030580019223B21A06A0533FEF7D3F92DB2284384
:1030680000B205B0F0BD0223019304332A003321D6
:103078000093FEF7C6F90223029601930095070014
:103088002B0001223321A06AFEF7BBF90223029626
:103098000193009507431D223B21A06A0533FEF7E3
:1030A800B0F93FB23843DBE714204042D9E77FB597
:1030B8000E0000210500FFF7DAFBFF2304002800BB
:1030C8000293FA3B019302330093FC303200012152
:1030D800806AFEF796F9012104432800FFF7C7FB31
:1030E80024B2204300B204B070BDF7B505000F004C
:1030F8000400FC35A86A16000193FDF7ABFFA96A26
:1031080008684969036842681B689847A96A08689B
:10311800C969036842681B68984739002000FFF7AF
:1031280077F9002805D1A86AFDF7A7FF02204042D9
:10313800FEBD236820009B6898470028F8D120002E
:10314800FFF757F90028F3D12000FFF77FF980280F
:103158001AD131002000FFF772FD0028E8D13C2188
:103168002000FFF7E1FB0028E2D120000199FFF7DA
:10317800CFFD0028DCD101002000FFF743FF002825
:10318800D6D100236B64D3E780212000FFF78FFF9F
:103198000028DED0CCE710B50400FFF757F98028E7
:1031A80006D1FF221221FC34A06AFEF702F910BDF5
:1031B8000028FCD1FC34FF223E21A06AFEF7F9F872
:1031C800FF223F21F0E7F0B50F0087B0012105008D
:1031D8000592FFF74CFB041E52D12800FFF736F981
:1031E8002E000300FC36802852D123000722242118
:1031F800B06AFEF7A3F8FF22022302920193002887
:1032080041DDDB180093EF3A03334021B06AFEF743
:10321800F8F898235B00EB5C0400062B0ED1F93319
:103228000293FD3B0193002300933A002221B06AE8
:103238000733FEF7E6F8044324B237642800FFF7A3
:10324800AAFF0027FF2302222E0002930192009773
:10325800FC363A000F21F83BB06AFEF7D2F8FF239C
:10326800022202930192009704433A000D21B06AAA
:10327800F83BFEF7C6F824B2044324B2BC4227D078
:10328800200007B0F0BD0423220000930333BCE7FD
:10329800B06A002B1CD10227FF330293F93B2200AE
:1032A8000093402101970133FEF7ABF8041EE7D1E4
:1032B8002800FFF770FF059B052B09D13900B06A7C
:1032C800FEF709F928000599FFF7D1FA0400D7E7B6
:1032D8002B00FC330221986AF2E710B50522002181
:1032E800FFF771FF10BD10B5029BCAB2D9B2FFF744
:1032F8006AFF10BDF7B50191012104001500FFF721
:10330800B6FA00284ED12000FFF7A0F8802850D147
:1033180006222000E9B2FFF756FF002842D1270015
:10332800FC37BE6A0090F36901330FD198235B0024
:10333800E35C0130984009F00BF9396B08F0E6FBC3
:10334800354908F0C9FD08F0D7F9009030680368DE
:103358001B6A984707002600FC36B26A1068516954
:1033680003689B689847002806D023682A00200035
:103378005B6A0199984715E0B36A18680368DB6CC3
:103388009847B36AD96918684B1C0CD103681B6A43
:103398009847009BC01B9842DDD92000FFF7FBFE31
:1033A80006204042FEBD03689B6898470028D2D09B
:1033B800F3E723680028D8D1290020005B6E9847DE
:1033C80005220600E9B22000FFF7FDFE0028E9D13A
:1033D8000523734300932300FC339B6A1868036832
:1033E8001B6A984707002600FC36B26A10685169C4
:1033F80003689B6898470028B7D1B36A18680368C0
:10340800DB6C9847B36A186803681B6A9847009B87
:10341800C01B8342E7D2C0E70000C842F0B589B0BC
:1034280006910121040017000793FFF720FA059081
:1034380005002000FFF70AF80600802860D1FF2F5A
:1034480000D9A2E02600FC36002307222421B06A16
:10345800FDF774FFFF22022302920193002849DD41
:103468004021DB180093AF3A0333B06AFDF7C9FF78
:103478002000FFF790FEFF23022100200293019114
:103488000090FAB2F83B2031B06AFDF7BAFFFF238B
:103498000500022100200293019100900200F83BF0
:1034A8000C31B06AFDF7ADFFFF2305430221002070
:1034B800059A029301912A43009015B2F83B020045
:1034C8000B31B06AFDF79DFF05432DB22600FC368F
:1034D8003B00069A0021B06AFDF748FF0321B06A55
:1034E800FDF7F9FF03212000FFF7C1F9284300B2D7
:1034F80009B0F0BD06234022009311000133B4E760
:103508000028E3D12000FFF746FE2000FF22022317
:10351800FC3002920193402F32D9DB180093EF3A26
:1035280001334021806AFDF76CFF46232600FF33F4
:10353800E35CFC36802B04D10021B06AFAB2FDF7B7
:1035480038FF012330210222B06AFDF7F7FE023866
:10355800FD2301001940184203D1079AB06AFDF70C
:1035680028FF402FB2D9FF230293FD3B0193053377
:10357800009380223521B06AFDF743FF1E27A5E797
:103588000623320000930133CBE704204042AFE723
:10359800030010B50400FC339B6A064918680368E9
:1035A8009B6998472000FFF7F6FD236820009B6879
:1035B800984710BD410300007FB50400FEF746FFA1
:1035C800802822D101212000FFF751F900281AD1C3
:1035D8002000FFF7E0FDFF23250002260293FB3BB6
:1035E8000093FC350196A0224021A86A0333FDF719
:1035F80008FF002807D13100A86AFDF76CFF0721F2
:103608002000FFF734F904B070BD14204042FAE7F7
:1036180070B505000C00002C00D170BD2B00FC33E8
:103628000021986AFDF764FE013CF4E7F0B5040058
:1036380085B015000391FEF709FF23680290012168
:1036480020009B6D98470190002D04D0A8422FD9E7
:10365800431B01951D0027000523FC371A00122182
:10366800B86AFDF76BFE202824D0029B0026802B29
:1036780025D13A23FF33E35CB86AB34231D100263F
:103688002000FC300021039B019A806AFDF70EFEA2
:10369800002D03D029002000FFF7BAFFA223002243
:1036A8005B002000E254FFF776FD300005B0F0BD66
:1036B8000025D0E70726029B7642802BE0D0029BAC
:1036C800002BDDD1013302223021B86AFDF736FE26
:1036D800FD2302381842D3D10299B86AFDF708FED3
:1036E800CEE706231C211A00FDF728FE0028C6D1C4
:1036F80018267642C4E719204042704719204042F4
:10370800704719204042704710B503680021DB68F4
:10371800984710BD19204042704719204042704711
:1037280019204042704719204042704719204042F2
:103738007047192040427047192084B0404204B0B5
:103748007047002070470000004870470000C8C15B
:10375800002070470020704770477047192040428A
:1037680070477047034B4160036000238260838188
:103778007047C04678EB000870B504009020400000
:10378800225C0D00002A0FD12300FC33596949003F
:10379800294359611D6A9B692940994203D1012334
:1037A8002354A281A27370BD0126637B217BE31899
:1037B800DA7B8E401000B043002D01D03243D0B2E6
:1037C8000131C9B2D87321730829ECD1FDF765FE20
:1037D800637BE2180133D073637300232373E2E73A
:1037E8000B4A0C4B91698900C9588166D1695269A5
:1037F8008900C9589200C166D35801220367012382
:103808005B424367044B836703007C331A8070472D
:103818003CF500087CF5000800093D00030009217B
:1038280000225D3310B519773431597701001A70C9
:10383800DA769A7701237C310B704A70014900F0DF
:1038480047F810BD00093D0037B50500836F040037
:10385800009101927C358B4204D16B462A889B8863
:103868009A420DD0200006226946783007F0E0FD24
:1038780022007D3220002B781278A16F00F028F802
:1038880037BD704710B500F02DF910BD13B56B4664
:10389800DC1DD97153425A41524201232100224072
:1038A80000F052F9207816BD10B50248FFF798FFCE
:1038B80010BDC04690020020044A030010B51068ED
:1038C800002B01D003F08EFD10BDC046480000203B
:1038D800F0B589B004000D0016000593002800D14A
:1038E800CCE0744BC06E1900039306F0F3F87249EC
:1038F8000190A06E06F0EEF870490700206F06F000
:10390800E9F86F490290606F06F0E4F8019B0490B3
:10391800002B00D1B2E0002F00D1AFE0029B002BBA
:1039280000D1ABE03900019806F0F2F804990700DD
:10393800029806F0EDF801000190380006F0E8F86A
:103948006066002F00D199E0019B002B00D195E023
:10395800002800D192E0636F206001335A4253413E
:10396800584A5B4213408022D2029B18A3618223EB
:103978005B006360FFF7A0FF00234208AA4218D942
:1039880082080833AA4214D9C2080833AA4210D9B7
:1039980002090833AA420CD942090833AA4208D9B5
:1039A80082090833AA4204D9C0090833A84200D9B9
:1039B8000833E3613200331E07D00023022E04D0FF
:1039C800731E5A1E93415A00012363610723E36261
:1039D800E023DB00E360059B22615A425341002546
:1039E800DB0123620399E06EA560A56265626563E9
:1039F80006F056F83049A06E06F052F82F49206FAD
:103A080006F04EF821694B425941236F01311A06DD
:103A1800120F042A02D82C48920015580F202B4A5E
:103A280003409B009B5803225B435A43D24302291D
:103A380026D0E9680A401343EB602149606F06F01D
:103A48002FF82368224A93421ED18022214B52012B
:103A5800196C11431964196C114006910699196B78
:103A68000A431A631A6B1C490A401A63200003F0C0
:103A7800D5FD4023226811680B43136009B0F0BDDF
:103A8800E9685B000A40D6E7144A9342EED18022E7
:103A9800104BD201D96B1143D963D96B11400791EF
:103AA8000799D96A0A43DA62DA6A0D490A40DA6282
:103AB800DCE7C04640F10008BCF0000850F0000800
:103AC800F0EF00080002FCFF1000002050EF000893
:103AD8000030014000100240FFEFFFFF00380040B7
:103AE800FFBFFFFF10B5041E12D003F010FE2368BD
:103AF800104A93420DD180220F4B5201196B0A4391
:103B08001A631A6B0D490A401A631A6C0A401A6440
:103B180010BD0B4A9342FBD18022074BD201D96AD0
:103B28000A43DA62DA6A07490A40DA62DA6B0A405B
:103B3800DA63EDE70030014000100240FFEFFFFFBD
:103B480000380040FFBFFFFFF7B50E001700022442
:103B5800002B29D00568009301F0A2FD0190AB6805
:103B68002342FCD0FF23002E01D0337801362B737B
:103B78000123AA681A42FCD02B7B002F01D03B708E
:103B8800013701F08DFD009B013B0093019BC01A9A
:103B9800FA239B00984209D2009B002BDFD11C001E
:103BA8008023AA681A42FCD12000FEBD0124F7E751
:103BB800F0B52D4B0E001B78150085B0002B04D0F6
:103BC8000B002A4A7D3B93424BD8300008F0C0FCDA
:103BD800274907F09BFF274908F07EF90024039046
:103BE8000420A04080B208F067FC011C01900398F3
:103BF80007F08CFF270020490134E4B20290FCF75B
:103C08004DFC0028ECD1062F2BD81C4C1C4B0298DD
:103C18002360676007F070FD01380005194B000D3F
:103C2800A0609D4217D023691748834213D0AE4243
:103C38000ED9280008F08CFC0D4907F067FF0D49E4
:103C480008F04AF9019907F061FF07F055FD0138BE
:103C58000005000D20610723E2681A42FCD10B4BD6
:103C6800236005B0F0BDC0461103002043E0F30116
:103C7800002474490000FA4600F07F4500300040F7
:103C880055550000C0E0F301FF0F0000AAAA00008C
:103C980070B50C000A4B7D3C9C4210D80124094B9E
:103CA8001D6E2C431C6602241D6E2542FCD0064B5B
:103CB800064C1C600124064B1C70FFF779FF70BD91
:103CC80043E0F3010010024000300040CCCC00007B
:103CD80011030020034B1B78002B02D0024B034A30
:103CE8001A6070471103002000300040AAAA0000A3
:103CF800074B00201A6E920002D5814201D10120A3
:103D080070478022196E12040A431A66F7E7C04604
:103D1800001002408022064B10B51968054B89B285
:103D28004908C9020448C918120107F081FB10BDEF
:103D3800E075FF1F00F8FF071803002010B5040006
:103D4800FFF7E8FF014B185D10BDC04618030020BF
:103D58000022F0B51D4B87B01C6801920232029216
:103D6800023203921B689BB25B08013B0493012358
:103D7800059301F0F1FD00280BD18022144B1206A7
:103D88001A6101A902A801F07DFE051E03D001F009
:103D9800F5FD07B0F0BDA4B20E4B6408E402E618C6
:103DA8000D4BE718BE42F2D80C4B3100EB1801203E
:103DB8001A685B6801F022FE002802D1083608352F
:103DC800F0E780231B05E618ECE7C046E075FF1F07
:103DD8000020024000F8FF07FFFFFF07180300203C
:103DE80010B5024B1954FFF7B3FF10BD180300209C
:103DF80070B5040000250800A571217107F0BCF812
:103E080065712060200070BD10B50400006807F0DF
:103E1800BDF8200010BD00234371704740797047FA
:103E280010B5040008006279216807F001FB607989
:103E380010BD000000208E2912D870290AD8013040
:103E480003290DD9002004236439C9B28B424041AB
:103E5800C0B205E003487139C9B2C840012318400F
:103E68007047C046BD91FE200020882907D87029D8
:103E780006D803290BD80130884280414042704758
:103E880005487139C9B2C84001231840F7E76739B6
:103E98004B425941C8B2F2E70101A000F0B585B024
:103EA80004000E0003921D1CFFF7C4FF002815D064
:103EB800002701978E2E05D82B4B72009F5D2B4B48
:103EC800D35A0193637900932279DB190133934222
:103ED80006DB01230020A37105B0F0BD0223F9E73A
:103EE8000021281CFCF7C6FA431E984100210290C5
:103EF800281CFCF7BFFA002802D080231B06ED1807
:103F0800019808F025FB291C07F0E6FF07F0F4FBF1
:103F1800310005002000FFF7A7FF002808D0029B0A
:103F2800002B05D00123FA0093405A1E15405D1B53
:103F3800009A2368013262710399009A995463794F
:103F48002268591C6171D654002360790133DAB2B2
:103F5800C019974202D2C0B26071BDE72268C01A88
:103F680015542D0AF1E7C04636ED000818EC000894
:103F780010B5131C0A006721FFF790FF10BD10B59C
:103F8800131C0A006821FFF789FF10BD10B5131C28
:103F98000A007321FFF782FF10BD002070470369F4
:103FA80010B5181E02D01A681268904710BD036930
:103FB80010B5181E02D01A681269904710BD03691F
:103FC80010B5181E02D01A685269904710BD0369CF
:103FD80010B5181E02D01A689269904710BD006982
:103FE80010B5002802D00368DB68984710BD0000B0
:103FF80070B50C4D0C49280006F026FB0B4B1C68CD
:10400800002C01D1200070BD0949280006F000FBF2
:104018006168280006F0FCFA280006F00DFB246809
:10402800EEE7C0461C0B0020C5ED0008180B002069
:10403800DDED00081FB50C00010001A806F088FDA1
:10404800202101A806F0ABFD011E02DB01A806F045
:10405800C5FD21005822019807F04AF9040001A87B
:1040680006F01EFD200004B010BD0000F0B50C20C5
:1040780085B00E00150005F007FA040046600D4EE5
:1040880085603568002D10D0696801A806F060FDCC
:1040980001996068FFF7CEFF070001A806F000FD50
:1040A800002F02DD2E002D68ECE73460256005B096
:1040B800F0BDC046180B00200161704710B55822AA
:1040C80004000021183007F0FCF80023236710BD16
:1040D800FA22002310B50400920043608260036155
:1040E800064A4361064B02604367FFF7E7FF20007B
:1040F800044A0549FFF7BAFF200010BD34EE000856
:10410800A1B30008F93F0008E0ED000810B504006D
:10411800236820005B699847010015281FDC0728E1
:1041280011DC431C44D00028F2D0236FC9B25A1CBA
:10413800E31822671976236820001B689847236FC5
:10414800562BE5DD32E008380D28EED8FBF7B8FF2E
:104158000BEDE0EDED2BEDEDEDED19EDED233B284D
:1041680021D07F28E1D1236F002BD1DD2000114918
:1041780006F04EFA0022236F013B2367E3181A76F4
:10418800C6E720000C4906F043FA21002000183148
:1041980006F049FABCE72000084906F055FA200065
:1041A800FFF78CFFB4E7200006F046FA012010BDA7
:1041B8000020FCE7E5ED000807EE0008E9ED00083F
:1041C80030B50400150085B0002A19D001A806F002
:1041D800BFFC0A222900200006F094FA002101A859
:1041E80006F0C0FC0378002B07D00949200006F030
:1041F8000FFA200001A906F031FA01A806F050FCD8
:104208002000FFF75BFF2800656105B030BDC046A0
:10421800F0ED0008F8B5002304000F001500436115
:10422800154B1E68002E13D11449200006F0F0F932
:104238002968200006F0F7F91149200006F0E8F98E
:10424800012220000F495242FFF7BAFF05000EE095
:1042580029687068FFF7EEFE00280AD129003800A7
:10426800B3689847050060612000FFF727FF280022
:10427800F8BD3668D6E7C046180B0020EDED0008FB
:10428800EFED0008F3ED0008F0B505008DB002AEC3
:1042980028220021300007F014F82A000023280003
:1042A800174F6F321370019339006B6F183001AAE2
:1042B8009847041E09D11349280006F0C5F92800BB
:1042C800FFF7FCFE20000DB0F0BD0124029039007C
:1042D80000206B6F01AA984700280BD0A300013477
:1042E800F0500A2CF3D10122280007495242FFF767
:1042F80067FFE8E7320021002800FFF78BFFE2E7BD
:1043080005EE00080AEE00080DEE000870B504007E
:10431800FFF7FCFE051E06D02000FFF7B5FF2000C2
:10432800024906F075F9280070BDC04629EE00085C
:1043380010B50248FFF7CCFE10BDC0461C0B00208C
:1043480010B50368C9B21B68984710BD762303608F
:10435800024B4360024B03817047C04603030403CA
:104368000102000070B5664C01680500200000F0ED
:104378003BFB20008821FFF7E3FF200000F05DFCF5
:10438800002800D0BAE019222968200000F04EFC6D
:10439800200000F0D4FA0600200000F0D0FA000255
:1043A80030436881200000F0CAFA0600200000F0BF
:1043B800C6FA00023043A881200000F0C0FA0600C7
:1043C800200000F0BCFA00023043E881200000F031
:1043D800B6FA0600200000F0B2FA00023043288244
:1043E800200000F0ACFA0600200000F0A8FA000255
:1043F80030436882200000F0A2FA0600200000F096
:104408009EFA00023043A882200000F098FA0600C5
:10441800200000F094FA00023043E882200000F007
:104428008EFA0600200000F08AFA00023043288342
:10443800200000F084FA0600200000F080FA000254
:1044480030436883200000F07AFA0600200000F06C
:1044580076FA00023043A883200000F070FA0600C4
:10446800200000F06CFA00023043E883200000F0DE
:1044780066FA0600200000F062FA00023043288441
:10448800200000F05CFAEB1CD8772968200000F0C7
:10449800ABFAE1212000FFF753FF200000F0CDFB2D
:1044A80029680822200000F0C1FB200000F047FA2C
:1044B8000600200000F043FA00023043A8842000E0
:1044C80000F03DFAEB1DD877200000F038FA000123
:1044D8002885200000F033FA0F23C6B218402B8D30
:1044E800360918432885200000F029FA0001064300
:1044F8006E85200000F023FA2C35287070BDC04668
:10450800940B002070B50E00124D016804002800BD
:1045180000F06AFA3100280000F0C1FA280000F023
:104528008CFB002813D121680322280000F07EFBB1
:10453800280000F004FA0400280000F000FA24041F
:1045480000020443280000F0FAF9204370BD8020DF
:104558000004FBE7940B002010B5FA210400FFF7D4
:10456800D1FF8022030012040020934210D06189F9
:104578001A12521A52434900DB115B1A0C21605E71
:10458800121358430E21635EC01253439B13C01885
:1045980010BD000010B5FFF7DFFF0523434380334C
:1045A800181207F089FF024907F0B0FA10BDC0469B
:1045B8000000C84270B5354E01680400300000F0B4
:1045C80013FA3000FD21FFF7BBFE300000F035FB89
:1045D800002801D0002070BD02222168300000F0C0
:1045E80025FB300000F0ABF90500300000F0A7F91A
:1045F800274B2D021D40802380B205431B029D429C
:10460800E8D02000FFF7A8FF2821625E214B1205A1
:10461800AD03AD1A2A21625EC3185A43AD1A80222F
:104628008021D201AD18E21DD27F09025A43D2126D
:10463800521821002C310978ED1349B24B439B12D3
:10464800534380229B1292039B182422A05E0334BA
:10465800584380239B01C01880136843C3135B43EE
:10466800E27FDB1153431B11C01AC343DB17184009
:10467800C8235B05984200DD1800001307F01CFFF3
:10468800EA21890507F028FCA5E7C046940B00201D
:1046980000FFFF0000D4FEFFF0B5F72189B00290BB
:1046A800FFF730FF802304901B04984202D10020BA
:1046B80009B0F0BD0298FFF74FFF01210200C317B0
:1046C8005448494212184B411000190000920193B6
:1046D80006F0E4FF029B06901A241C5F029B0D0063
:1046E80018229B5E0393029B16229B5E0793029BF4
:1046F8001220185E009A019BC11706F0CFFF030D28
:104708000F031F43029B06031420185E069A2B0012
:10471800C11706F0C3FF0B06020A1A430B128021C9
:1047280092197B410020090280185941029B1A8A7C
:10473800002306F0B3FFCB174F1005933B00059AF3
:104748001343B4D02B00069A2000E11706F0A6FF09
:10475800039B04000D000398D917009A019B06F0EB
:104768009DFF8C466646C10B73040B434204121925
:104778006B418024049964030909641A6108E007FD
:104788000024079EF500A4185D410023001BA941E1
:10479800214A06F083FF3A00059BFBF793FECB0402
:1047A800440B1C43029B06002020185E4D130F008B
:1047B80022002B00C11706F071FF22002B0006F023
:1047C8006DFFCB01440E1C43029B32001E20185E75
:1047D8004D163B00C11706F061FFA4197D41C20CBC
:1047E8004E033243CB1412196B4119061D12029B5A
:1047F800140A1C229B5E0C43DE171A0F3101114369
:1048080018010019694106F0ADFFEE21890507F08E
:1048180063FB4DE7000CFEFF350C000070B50E0081
:1048280015000A4C0168200000F0DEF83100200075
:1048380000F035F92900200000F031F9200000F0DF
:10484800FCF943425841C0B270BDC046940B0020E9
:1048580010B5B6220E21FFF7E1FF041E02D00A2090
:1048680006F062FB200010BD70B50E000D4C01680B
:104878000500200000F0B8F83100200000F00FF922
:10488800200000F0DAF90023984208D101222968B3
:10489800200000F0CBF9200000F051F8C3B2180056
:1048A80070BDC046940B002070B504000160002163
:1048B8001D4800F0B3FA2000FFF7CAFF051E02D119
:1048C8000025280070BDD0212000FFF7CDFFF72379
:1048D80058381842F4D12000FFF744FD227AF2211B
:1048E8002000FFF79BFFF2212000FFF7BDFFF22118
:1048F80002002000FFF792FFE279637A52019B00E1
:104908001A432379F4211A432000D2B2FFF786FF15
:104918006279A37952019B001A43F5212000D2B293
:10492800FFF77CFFCDE7C046940B002010B5762139
:10493800FFF7BAFF10BD038BC08A181A7047C28AE6
:10494800018B0300914204D90169885C0132DA8243
:10495800704701204042FBE7C38A028B9A4202D982
:104968000269D05C704701204042FBE7836D10B5B7
:104978001800D4308268002A03D000225A84C36801
:10498800984710BD836810B50400002B02D003229D
:1049980001009847200010BD70B50400283000F0D1
:1049A800C3FCE069002803D006F0F0FA0023E361B5
:1049B800002520692584A84202D006F0E7FA25617F
:1049C800A58270BD10B50400064B0360FFF7E4FF35
:1049D8002000D430FFF7D6FF2000C430FFF7D2FF05
:1049E800200010BD64EE00080122431DDA779140D3
:1049F800002381764384704770B5838A05000C00D4
:104A08008B420AD2202900D220242100286906F0EE
:104A180073FB002802D02861AC8270BDFEE7F7B5B1
:104A2800846D05002600C436B368876E002B1AD043
:104A3800E28A238B9A4216D339002000FFF7DCFF65
:104A480029003A002069743106F0F2FC0023E38261
:104A5800B36827830197002B01D109F0FDFD3000D1
:104A6800F36801A99847F7BD802370B5DB000500FE
:104A78000C00994211D8038C99420BD90E002029B9
:104A880000D220263100E86906F036FB002803D062
:104A9800E8612E84200070BDFEE70024FAE713B514
:104AA8006B46D971431DDB7F0400002B0FD0418C6E
:104AB8000131FFF7D9FF002808D06B460120D979CA
:104AC800E269638CD154638C0133638416BD6B46F1
:104AD8000122D91D283000F032FC43425841F5E745
:104AE80070B5431DDB7F04000E001500002B13D0AA
:104AF800418C8918FFF7B8FF002802D1002528004B
:104B080070BD638CE0692A00C018310006F090FC83
:104B1800638C5B196384F2E792B2283000F00FFCD3
:104B28000028EBD1EBE70300C06910B5002803D0DB
:104B380000211A8C06F0C5FB10BD70B5AA2304002D
:104B480000291BD1A3652300BE331B780425012B44
:104B580012D12000638CA17EE269283000F06EFC3F
:104B6800031CA84200D92B1C20005DB2FFF7DBFF15
:104B7800002363840534E377E8B270BD1B02E1E7E4
:104B8800F0B585B002930AAB1F780BAB1B78040015
:104B980003930300BE331B780E0015000193012B0D
:104BA8003BD111007600FFF727FFF6B2002F1BD08C
:104BB800019A631DDA770023A67663843B1C032FD2
:104BC80000D90323013BDFB2FF0002992368F940B3
:104BD8001B682000C9B2083F98473B000833F4D14E
:104BE80000212000FFF7A9FF039B002B12D1AA3355
:104BF8002000A36531002B002269283000F0B9FBA2
:104C080043425841002340420540E382258328005F
:104C180005B0F0BDAA231B02EAE70025F7E707B5B0
:104C2800019300230093FFF7ABFF0EBD10B50123DE
:104C3800D2B2C9B2FFF7F3FF10BD10B50121FFF7DB
:104C48007CFF10BD002110B50400C18201830069FA
:104C5800884202D0A28A06F034FB00232000638435
:104C6800FFF761FF10BD0000F0B504000F25083400
:104C780089B00600E06F05F0C7FF002106F008F8CC
:104C8800E36F1A092A40042A00D972E03C499200CD
:104C980051583C4C2B409B001A590B6913409A42BF
:104CA8005DD08836306805F0AFFF012105F0F0FFD0
:104CB800336801931B092B400293042B5CD8019B9A
:104CC8002B409B001B59053503930920FA21029AB2
:104CD8002B4B9200D758039B2B4CBB62A3688900CF
:104CE8000493666801367043FBF7FEF90022049BC3
:104CF8000593A36804930599049B994231D20599B9
:104D0800049BF31A5B18D218049B05939042F0D8C1
:104D18000920FA21039B8900BB61A3680693666892
:104D280001367043FBF7E0F90022069B0793A3685E
:104D380006930799069B994217D20799069BF31A7F
:104D48005B18D218069B07939042F0D8013D002DBE
:104D5800BBD1019805F058FF290005F099FF09B06B
:104D6800F0BD059B04995B1ACDE7079B06995B1A72
:104D7800E7E700231B69FFDE00239B62FBE7C046D1
:104D88001000002050EF000810E000E0F7B5002602
:104D980007000193031D8676066146610683C66196
:104DA8000662D437D867BB6804000D000092B3428E
:104DB80005D00322390038009847BE60FE60002203
:104DC800631DDA77A61D6B00013DF37727006B4260
:104DD8005D412300009ABF33BE373D701A70019AB7
:104DE80020005A702834FFF73FFFF37F012220008C
:104DF800074900F0F7F93B78002B07D12000054957
:104E080000F074FB2000044900F066FBF7BDC046C3
:104E1800A086010075490008274A000810B50A0055
:104E280000230121FFF7B2FF10BD10B50C220021AD
:104E3800040006F046FA00232000E36010BD10B518
:104E48000C220021040006F03CFA00232000E36055
:104E580010BD0000FA2370B5002504009B00836094
:104E68000C4B45600360C430FFF7DFFF2000D430EF
:104E7800FFF7E5FF200029009C22283006F021FAE0
:104E88002200054B0832D96D2000D1679B6D803216
:104E9800136070BD64EE00087CF5000810B5024888
:104EA800FFF7D8FF10BDC046940B002010B502488C
:104EB800FFF788FD10BDC046940B0020124A03007E
:104EC80010B5904217D1202002F0BAFA002811D16B
:104ED800C0220E4B92015B6D134080225201934217
:104EE80006D08022920193420CD0002B07D0FEE717
:104EF800074B186810BD074A00209342FAD102F008
:104F080071FAF7E70448F5E7005400400010024042
:104F180048000020005800400024F400F0B5A7B075
:104F28001491149A9A49D20003005058984204D117
:104F380088184068002800D027E1964D58088B5003
:104F480040191900FBF7D0F81C23149A924C5A43C5
:104F580011590600480840191592FBF7C5F8159B2A
:104F68000390E418E28A238B0D92A17E0D98228A81
:104F780016931218CB1C734316981C92A28971437E
:104F88001218323AD21A0492D2430498D217104017
:104F98000490E2890D98F318121A053AFF3AD31AC9
:104FA8000593DB43059ADB171A4028000E916168C8
:104FB8000592FBF799F8A1681D902800FBF794F873
:104FC8000E9A730032339B181A9373420C931A9BF0
:104FD8000025F718039B1E901793012010231195A5
:104FE8001893404216992A078C4624920D9AEBB2E0
:104FF800624419921999039A1B93511A7A008A1AD2
:10500800209200221A9B0B92FB1A13931C9A139955
:105018008A4200D9A2E00B9A24990A4323920022DB
:105028000A920992049A09998A4200D988E0059A55
:105038008A4200D284E0189A1B998A4200D17FE004
:10504800119A01321192072A00D99EE0628A0A99C0
:105058001F92239A0A4322920E9A1599BA1A02921B
:10506800199AD2191292209A1092002208924A4A4A
:10507800521825920E99029A52181F9991424CD2B1
:10508800029A323A9208964247D22299089A06978B
:105098000A432192039A1299BA1A52181099019246
:1050A8008C4600210791019A039989181E9A8A4211
:1050B8001FD81D9A8A421CD3259A918A069A914232
:1050C80017D8964215D2019A0F92002A01DA624641
:1050D8000F920F9A17998A420BD2219A07982C4956
:1050E8001043149AD20089181B9A486018920F9A94
:1050F8001792019A0799D218013101920C9AFF313F
:1051080007916146944661448C468021069A49027B
:10511800D2180692079A8A42C5D10C99089A8C46E9
:1051280001320892029A0899D2180292109A62449F
:105138001092129AD218129280225200914299D15A
:10514800099A0A99D2180992802252028A180A9258
:1051580080220A995203914200D063E780214903D3
:105168008C46139AD21813920B9A62440B9280229F
:105178000B995204914200D048E70C9B01359B1BC8
:105188000C93BF19102D00D02CE727B0F0BDC046F6
:10519800800C002000CA9A3B88EE00080E4A0300E3
:1051A80010B5914212D90D4A914206D80068FFF70E
:1051B80085FE0121FFF7B2FE10BD094A0020914289
:1051C800FAD81868FFF77AFE0221F3E70068FFF7BC
:1051D80075FE0021EEE7C046A0860100801A060091
:1051E80040420F00F0B587B0041E0191029203936C
:1051F80000D187E0444EC06D310004F06BFC434F92
:1052080005003900206E04F065FC0100002D79D0FE
:10521800002877D0280004F07BFC2060002871D09B
:105228003B4B251D98424ED180223A4B9203D96BB5
:105238001143D963D96B114004910499D96A0A437F
:10524800DA62DA6A34490A40DA62230017226433E0
:105258001A70324B1D603900206E04F021FC3100B9
:10526800E06D04F01DFC2368019963602000FFF7DE
:1052780095FF039B0022E360029BA060236123004B
:10528800A261626197331B782600591E8B41DB04AB
:105298002362230098331B780020591E8B415B043E
:1052A8006362230045331A7064360221305600F0D9
:1052B800FDF90020305600F023FA280000F0AEFD7A
:1052C80000281BD0FEE7164B9842C4D18022114B10
:1052D800D203D96B1143D963D96B11400591059954
:1052E800D96A0A43DA62DA6A0E490A40DA622300A6
:1052F800182264331A70094B5D60ACE70223A0667C
:105308009534237007B0F0BDDCF400087CF4000885
:105318000054004000100240FFFFDFFF780C00201F
:1053280000580040FFFFBFFF10B5041D643000782F
:1053380040B200F0F1F9200000F0C7FD10BD70B5D3
:10534800060014000120202A0AD8350000229435CE
:1053580093B29C4205D800202A781219D2B22A703A
:1053680070BD2B78885C9B18F31874331870013261
:10537800EEE7F0B5060087B003910492059300F0BC
:105388008FF90024376B0290351D059B2800049A7D
:105398000399009700F0A2FE0300022807D100F04D
:1053A8007FF9029BC41A642CEED9062023E004205E
:1053B800002B20D100F074F90600280001F0D1FC80
:1053C800202809D0632C07D800F06AF9841B28002C
:1053D80001F0CBFC0028F0D0280001F0C6FC030047
:1053E8000520632C07D89A0605D402385A0702D438
:1053F8005A1E9341980007B0F0BD10B5642304000D
:10540800043000F07DFD02280BD0032802D00028CC
:105418000DD110BD453423780220202BF9D003305C
:10542800F7E745342378202BF3D00620F1E74534FD
:1054380023780220202BECD00018EAE7F0B587B0DB
:1054480005001F000291059200F02AF90390002F31
:1054580006D1012228000299FFF7CFFF07B0F0BD5F
:1054680000242B6B0493049B2E1D009330003B00FB
:10547800059A029900F0DCFD0300022807D100F02C
:105488000FF9039BC41A642CEDD90620E6E7042023
:10549800002BE3D100F004F90500300001F061FCB5
:1054A800202809D0632C07D800F0FAF8441B3000F4
:1054B80001F05BFC0028F0D0300001F056FC03003E
:1054C8000520632CCAD89A06C8D402385A07C5D40E
:1054D8005A1E93419800C1E710B5002805D000294D
:1054E80003D0C166043000F029FF10BD10B50028B4
:1054F80005D0002903D00167043000F01FFF10BD5C
:10550800F8B506009136337805000F00041F012B0B
:1055180009D1A36E002B06D0E36E20009847022322
:1055280033700023A3660023012F12D133702E009D
:10553800226F90369A4202D020003370904729009B
:10554800802332782800D2B270319B0400F01CFE10
:10555800F8BD0122A3663270A36E28007433E118E7
:1055680080235B0400F07EFEF2E770B506009136FA
:1055780033780400051F012B05D1AB6E002B02D038
:105588002800EB6E98470223337000232000AB6697
:1055980000F0D4FE70BD426E031F10B51F2A02DC56
:1055A8009A6E01329A66020091321178CAB20129C4
:1055B80006D1996E8023703141185B0400F052FEC9
:1055C80010BD0023903003707047030010B592336C
:1055D8001B78002B01D100F0B1FE10BD044B10B5B3
:1055E8001C68200000F0BEFE200001F0CBF910BDC1
:1055F800780C0020044B10B55C68200000F0B2FE67
:10560800200001F0BFF910BD780C002070470000A1
:1056180070B5104B05001978002901D1012070BD23
:10562800FA208000FAF760FD0B4C01002068FAF7B9
:105638005BFD00F081F8041EF0D1032DEED80200C6
:1056480001202900404200F031F8044B20001D6081
:10565800E5E7C046050000204800002008000020BB
:105668008023084A5B00116810B50B4300201360C3
:10567800FFF7CEFF041E03D1FFF7C8FF200010BDBF
:105688000124FBE700200240034A044B11681B7801
:105698005B1813607047C046980C00200500002076
:1056A800014B18687047C046980C002010B5FF24BD
:1056B80003220B0021000240D20091409B012340AD
:1056C800C943934000280ADBC0240B4A80088000A5
:1056D8008018A40002590A401343035110BD0F2239
:1056E80010400838054A800880008018C2691140B7
:1056F8001943C161F2E7C04600E100E000ED00E0B7
:10570800002805DB1F2318401E3B8340014A136015
:105718007047C04600E100E0002809DB1F2318405D
:105728001E3B8340034AD367BFF34F8FBFF36F8F8E
:105738007047C04604E100E08022431E5204012065
:1057480093420DD2C021074A07485360036A0906ED
:105758001B021B0A0B43036200200723906013609F
:105768007047C04610E000E000ED00E0002807DBCD
:105778001F23C02218401E3B8340024952008B5011
:105788007047C04600E100E0704710B5FFF7FCFF26
:1057980010BD704710B5041E01D1012010BD437F14
:1057A800DAB2002B02D10277FFF7F3FF0223637707
:1057B8002379002B1CD118212368124A5A619A6850
:1057C8008A439A6062792368002A19D1013A6021D4
:1057D8001A619A6800208A4361690A4380219A60A5
:1057E8009A688A43A1690A439A6001236377D5E7D7
:1057F8002000E268A16800F007F80028E2D0CCE7B2
:105808002269E4E7B71DC10430B51F230400012055
:10581800013B21D30D00DD400542F9D0102A14D0F8
:1058280005D8002A08D00120082A12D030BD01204E
:10583800182AFBD1062BF9D8206841611821836802
:105848008B43134383600020F0E70120072BF3D933
:10585800ECE70F2BF0D9E9E70120102AE6D0E5D8CC
:10586800002AE3D1E8E70000F0B5002808D0841D3D
:10587800E37F411D022B05D00423C3630023CB77AC
:105888000120F0BD0E250268466C1368AB43136017
:105898003368104D2B403360012316689E43166011
:1058A800026C1B331A401B3B93400B4E77683B43FB
:1058B8007360C26C836C5A60036D002B05D01A6844
:1058C8002A401A60436D826D5A6001230020E377F5
:1058D800C877D6E7FFFEFFFF00000240F8B5811D3C
:1058E800CB7F022B03D00423C3630120F8BD0E2411
:1058F80002681C271368456CA343136001231468CE
:105908009C4314602A68104C22402A60026C0F4D98
:105918003A4093406E6833436B60C26C836C5A6044
:10592800036D002B05D01A6822401A60436D826D02
:105938005A6001230022CB77431DDA77836B9342A9
:1059480000D098470020D1E7FFFEFFFF000002408B
:105958000630C07FC0B270470020054B5A698242AA
:1059680005DA044A9A60044A9A605869C00F704779
:105978000020024023016745AB89EFCD8022044B0C
:10598800120659690A435A615869C043C00F7047E3
:1059980000200240F8B505008027FFF781FE7F024E
:1059A8004619124C23693B420BD12269104B110056
:1059B8001048194020611A4209D00F4B0120596044
:1059C80004E0FFF76DFEB042EBD30320F8BDFFF70C
:1059D80067FE80264519F6022369180030403342D5
:1059E800F4D0FFF75DFEA842F6D3EEE700200240B0
:1059F800FA830000FB8300009C0C0020F7B5174ECB
:105A08000193337804000D0002200092012B1ED070
:105A18000123FA203370002380007360FFF7BAFF78
:105A2800002812D10E4F012C12D17B6923437B61D0
:105A3800009B2B60BFF36F8F019B6B60FA20800087
:105A4800FFF7A8FF7B69A3437B6100233370FEBD8A
:105A58002800009908F010FEF0E7C0469C0C0020D2
:105A680000200240044A05485369C900034019430D
:105A7800034B0B43536170470020024007E0FFFFD0
:105A880002000100F7B5214F05003B78022401917F
:105A9800012B1AD00123FA203B70002380007B6081
:105AA800FFF778FF041E0ED104236B602B68042BCC
:105AB8000DD1FA20164A174B516980000B435361E8
:105AC800FFF768FF040000233B702000FEBD0123A0
